:100000000C9434030C947B030C947B030C944827CE
:100010000C947B030C947B030C947B030C947B0368
:100020000C947B030C947B030C94DB1E0C94971EA6
:100030000C9452250C947B030C947B030C947B034F
:100040000C947B030C947B030C947B030C947B0338
:100050000C947B030C942E250C947B030C947B0353
:100060000C947B030C947B030C947B030C947B0318
:100070000C947B030C947B030C947B030C947B0308
:100080000C947B030C947B030C947B030C947B03F8
:100090000C947B030C947B030C947B030C947B03E8
:1000A0000C947B030C947B030C947B0337032B642D
:1000B000A0FF000000001C032B6496FF000000005E
:1000C00004032B64A0FF000000000000D7FF78FFAE
:1000D00000000000000080FF64FF0000000000003E
:1000E00005FF78FF0000000000005FFF5AFF0000DE
:1000F000000005010980A101850319012AB7001537
:100100000126B700950175108100C0050C0901A1F9
:1001100001850419012AA002150126A00295017586
:10012000108100C00660FF0961A101096215002667
:10013000FF009520750881020963150026FF0095D0
:100140002075089102C005010906A101050719E003
:1001500029E71500250195087501810295017508AB
:1001600081010507190029FF150026FF0095067576
:100170000881000508190129059505750191029569
:100180000175039101C0000101010101010101019B
:100190000202020202020202020303030303030338
:1001A0000304040404040404050505050506060605
:1001B0000606070707070708080808090909090AC2
:1001C0000A0A0B0B0B0C0C0C0D0D0D0E0E0E0F0F67
:1001D0000F101011111112121313141415151616F5
:1001E0001717181819191A1A1B1B1C1D1D1E1E1F64
:1001F0002020212222232424252626272829292AB3
:100200002B2C2D2D2E2F30313232333435363738DA
:10021000393A3B3C3D3E3F404142434445464748D6
:10022000494A4C4D4E4F50515354555658595A5BAC
:100230005D5E5F616264656668696B6C6D6F70724C
:10024000737577787A7B7D7E8082838587888A8CB8
:100250008E8F91939596989A9C9EA0A2A3A5A7A9EC
:10026000ABADAFB1B3B5B7BABCBEC0C2C4C6C9CBE3
:10027000CDCFD1D4D6D8DBDDDFE2E4E7E9EBEEF099
:10028000F3F5F8FAFDFFFFAA7F55401C1004010D9D
:10029000190A24232221201F1E1D1B1A18171615A8
:1002A000141312110F0E0C0B0908070605030200A8
:1002B0002D3945483C303F25262728292A2B2C2E2E
:1002C0002F31323334353637383A3B3D3E404142A8
:1002D000434446474935001E001F002000210022EC
:1002E000000000290014001A000800150017008003
:1002F000002B0004001600070009000A000000E1BE
:10030000001D001B000600190005008100A800E385
:1003100000E200E0000251280000002D0027002626
:10032000002500240023000000845F130012000C4D
:100330000018001C004B00340033000F000E000DAD
:10034000000B000000E500380037003600100011F7
:10035000004E00E700E600E40003512C000000001E
:10036000004600220001000100010001000000170A
:1003700000290014001A000800150001000A002BD3
:100380000004001600070009000000E100E1001D64
:10039000001B0006001900010001002800050001F3
:1003A0000048002C0000003D004400010001000155
:1003B00000010000004500010001000100010001F2
:1003C0000001000100010001000100010001000026
:1003D00000E6000100010001000100010001000130
:1003E0000001000100010001000100000001003ACD
:1003F000003B003C003D003E00000035001E001F99
:10040000002000210022004F00B9001E021F022020
:100410000221022202000001002E002D002E022FD8
:10042000022F025000010001000100010001000143
:10043000000000440043004200410040003F000033
:10044000004500270026002500240023000100317C
:1004500002270226022502240223020000010031A5
:10046000003302370030002F0001000100010001BD
:10047000000100010001000000835F010001000194
:100480000001000100000053000100010001000113
:10049000000100805F470001000100010001000130
:1004A00000000001000100010001000100010081C5
:1004B0005F01000100010001000100010000008255
:1004C0005F0100010001000100010000004C004933
:1004D000004D0052004A00B700825F010001004F4A
:1004E0000051005000B6000000010001004E000164
:1004F000004B003900835F01000100010001000191
:1005000000010000000000000000000000000000EA
:1005100000000000000000000000000000000000DB
:100520000000000000000000007E0F00D4FFFFFF6D
:10053000C70000007800000000000000002A2B28FF
:1005400000000000000000000000000000000000AB
:1005500029000000002C1E342021222434262725C7
:100560002E362D3738271E1F2021222324252633FF
:1005700033362E37381F0405060708090A0B0C0D01
:100580000E0F101112131415161718191A1B1C1D13
:100590002F3130232D350405060708090A0B0C0DF1
:1005A0000E0F101112131415161718191A1B1C1DF3
:1005B0002F3130354CE800DE00D400CA00C000B650
:1005C00000AC00000009025B00030100A0FA09046E
:1005D0000000010301010009211101000122400076
:1005E0000705810308000A09040100020300000056
:1005F00009211101000122220007058203200001C8
:1006000007050303200001090402000103000000A4
:100610000921110100012232000705840320000A8C
:10062000120110010000000832FC871202000102D2
:1006300000011E0353006F006C006100720069002E
:10064000750073005F0053006F0066006C0065006A
:10065000000010034B006500790068006900760017
:10066000650000000403090411241FBECFEFDAE087
:10067000DEBFCDBF04B603FE27C080917A03909100
:100680007B03A0917C03B0917D038730904BA74002
:10069000B04BD1F410927A0310927B0310927C033A
:1006A00010927D0314BE84B7877F84BF0FB6F89481
:1006B000A89580916000886180936000109260002E
:1006C0000FBEE0E0F8E3099511E0A0E0B1E0E0E062
:1006D000F6E502C005900D92A839B107D9F723E0DD
:1006E000A8E9B1E001C01D92AA37B207E1F70E9464
:1006F000B21F0C94B32A0C940000E8EDF0E0808166
:100700008E7F80831092E2001092DA001092E10056
:10071000A0EEB0E08C9181608C9380818F77808394
:1007200019BCA7EDB0E08C918E7F8C9380818F7E79
:10073000808310923E0308952091E4003091E500FB
:1007400095E6A9012091EC00822F817020FF06C060
:100750008091E80080FF06C080E008952091E800C5
:1007600022FD1AC080914B03882389F0853089F0DF
:100770008091EB0085FD0FC02091E4003091E500F1
:1007800042175307F9F29150E1F684E0089582E0B0
:10079000089583E0089581E00895EF92FF920F930A
:1007A0001F93CF937C018B010E949C03C82F811162
:1007B00017C08091E80085FD0BC08091E8008E771E
:1007C0008093E8000E949C03882399F3C82F08C0F7
:1007D000F70181917F018093F1000150110949F7E0
:1007E0008C2FCF911F910F91FF90EF9008958091E2
:1007F0004D0387FF13C08091E80082FF06C08091FF
:10080000E8008B778093E80004C080914B0381114E
:10081000F2CF089580914B038823D9F38091E800AB
:1008200080FFF8CF8091E8008E77ECCF982F9093DF
:10083000E900242F762F50E0891731F07091EC00F9
:100840002091ED005091F00021FD07C09F5F97308F
:1008500071F78093E90081E008953091EB003E7FCD
:100860003093EB003091ED003D7F3093ED003091FF
:10087000EB0031603093EB007093EC002093ED00BF
:100880005093F0002091EE0027FDE0CF80E0089526
:10089000CF92DF92EF92FF920F931F93CF93DF934C
:1008A000C8EDD0E088818F7E8883E7EDF0E080811D
:1008B0008160808384E082BF81E080933E038881F1
:1008C0008E7F888302EE10E0F80110821092DA0029
:1008D00081EEC82ED12CF601108288818F77888313
:1008E00088818068888388818F7D888319BC109275
:1008F0004B0310924C0310924A031092490390EE5E
:10090000E92EF12CF70180818B7F808388818160C3
:10091000888342E060E080E00E941604F601808156
:100920008E7F8083F80180818160808380818860F0
:100930008083F70180818E7F8083888180618883B6
:10094000DF91CF911F910F91FF90EF90DF90CF90AB
:100950000895FC01809153039091540386179707E3
:10096000A0F06115710529F49091E8009E779093AD
:10097000E80090E06115710551F4911108C0809173
:10098000E80082FF34C080E00895BC01F2CF80917E
:100990004B038823C1F18530C1F18091E80083FDCC
:1009A00030C08091E80082FDEACF8091E80080FFAE
:1009B000E1CF8091F3002091F200382F611571058D
:1009C00019F02830310558F091E02830310509F050
:1009D00090E02091E8002E772093E800CBCF819122
:1009E0008093F100615071092F5F3F4FE7CF8091F5
:1009F0004B03882341F0853041F08091E80083FF6C
:100A0000BECF81E0089582E0089583E0089580E0FC
:100A1000089508958091400308959C014FB7F8947C
:100A20008091000390910103A0910203B091030310
:100A30004FBF821B930B08952FB7F894609100036A
:100A40007091010380910203909103032FBF0895D9
:100A50002FB7F8948091000390910103A0910203B5
:100A6000B09103032FBF08959C01FC0132969FEFC4
:100A700080E04191461751F09F3F19F4411101C0A8
:100A8000982F8F5F8630A9F79F3F09F40895290FAB
:100A9000311D97FD3A95F901628308958091FB021B
:100AA0009091FA02892B9091F902892B80939A01F7
:100AB000E0911A03F0911B03309731F00280F3812B
:100AC000E02D8AE991E00994089527E0929F800D36
:100AD0001124982F977086958695869525E0829F9C
:100AE000F0011124E453FD4F50E040E080E02191FB
:100AF00030E0092E02C0369527950A94E2F721705E
:100B00003327042E01C0220F0A94EAF7822B4F5F8D
:100B10005F4F4530510559F7089527E0929F800DAA
:100B20001124982F977041E001C0440F9A95EAF77D
:100B300086958695869595E0899FF0011124E4536A
:100B4000FD4F90E080E070E05191DF0111979B0133
:100B5000082E02C0369527950A94E2F72170219558
:100B60002527242325272C9301968530910561F7AD
:100B700008958091CB0290919A02981301C0089534
:100B80008F5F8770FACF882341F080959091FB02A8
:100B900089238093FB020C944E050895882339F035
:100BA0009091FB02982B9093FB020C944E050895B4
:100BB0000C941C0520918702309188022817390770
:100BC00071F09093880280938702E0911A03F0916C
:100BD0001B03309721F00084F185E02D09940895DE
:100BE00020918502309186022817390771F0909381
:100BF000860280938502E0911A03F0911B033097DF
:100C000021F00680F781E02D0994089590E080E0BE
:100C10000E94F00590E080E00E94DA051092FA024E
:100C20001092F9020C944E056093FC027093FD0241
:100C30008093FE029093FF020C9406068823B1F184
:100C40009CEF980F913A70F4ECE9F1E091918913DF
:100C500003C0DF0111971C9241E0E23AF407B1F7BB
:100C60000C944E0590E2980F983088F4877021E03C
:100C700030E0A90102C0440F551F8A95E2F7CA016E
:100C800080959091FB0289238093FB02E9CF9BE53D
:100C9000980F933020F490E080E00C94F005885A8F
:100CA000873120F490E080E00C94DA050895CF932A
:100CB000C82F882309F44EC08CEF8C0F813AF8F4CA
:100CC000ECE9F1E082EA91E0DF012D91C21759F0E1
:100CD0008A179B07D1F76C2F8AE991E00E943405AF
:100CE000CF910C944E052191C21303C0DF011197DF
:100CF0001C928E179F07B9F70E944E05ECCF80E239
:100D00008C0F883068F4C77021E030E001C0220FFA
:100D1000CA95EAF78091FB02822B8093FB02E0CF19
:100D2000EBE5EC0FE33040F4F0E0E95BFE4F80814F
:100D300090E0CF910C94F005C85AC73158F4EC2FCD
:100D4000F0E0EE0FFF1FE65BFE4F80819181CF91B7
:100D50000C94DA05CF910895E0911A03F0911B03EA
:100D6000309721F00190F081E02D099480E0089502
:100D7000FA01811101C0FB01099480915C03982F55
:100D80009E7F61F48170826080935C0380915F0339
:100D9000813A18F080EA80935F0308958831B0F3B8
:100DA00081708661F1CFAF92BF92DF92EF92FF9296
:100DB0000F931F93CF93DF93082F162FE901E42F92
:100DC000F0E0EA57FE4F611110C0E4915E2F4E2F04
:100DD0004983E8835A83DF91CF911F910F91FF9050
:100DE000EF90DF90BF90AF900895E62EF12C4491E4
:100DF000D42EE42FF0E026E0829FC00111242FEFD3
:100E000030E0B9010E945528802F90E0880F991F8B
:100E100055E5569FD001579FB00D11248A1B9B0B9F
:100E2000982F990F890F5901AE18BF08AE9ED001B7
:100E3000AF9EB00DBE9EB00D11245B2F189F800198
:100E40001124012F11275901A01AB10AAE9E800169
:100E5000AF9E100DBE9E100D11245901A81AB108A5
:100E6000AE9CC001AF9C900DBE9C900D1124892FAB
:100E70009927281B390B2E9FC0012F9F900D3E9F55
:100E8000900D1124E92F62307105A1F050F4611525
:100E9000710509F49DCF6130710581F0EB2F512F61
:100EA00097CF6430710569F080F06630710509F400
:100EB0008FCFF4CFE42F4B2F592F8ACFE42F412F20
:100EC00087CFEB2F542F492F83CF4B2F5D2DE12F51
:100ED0007FCFF894E82FE295EF70F0E031A1282F52
:100EE0002F7081E090E001C0880F2A95EAF7982FD3
:100EF0009095932391A392A1892B82A3789408952E
:100F00009091140392FF06C0282F28712830F9F41D
:100F1000877F846093FF06C0282F28712831F1F461
:100F2000877E84612091150320FF06C0382F387119
:100F30003830D9F4877F816021FF06C0282F2871BF
:100F40002831D1F4877E816194FD877E0895282F12
:100F500024712430F9F68B7F8860DCCF282F247130
:100F6000243101F78B7E8861DDCF382F317131302C
:100F700019F78E7F8860E0CF282F2171213121F76A
:100F80008E7E8861E1CFCF9384E090E00E94D428E8
:100F9000C82F81E290E00E94D428982F8C2FCF9107
:100FA00008950F931F93CF93DF93C42FD0E0CC0FFE
:100FB000DD1F2EE0629FC00DD11D11243CE8839FF0
:100FC000C00DD11D1124CE0186960E94D428082F71
:100FD00010E0102F0027CE0187960E94D428980198
:100FE000282BC901DF91CF911F910F910895462FB2
:100FF000843038F47A3028F4673018F4672F0C9472
:10100000D10790E080E00895CF93DF930E94F70727
:10101000EC018238910581F1B0F58133910509F435
:1010200091C020F58932910509F485C08A9709F4A9
:1010300090C0C11521E5D20708F0AAC0C11530E55E
:10104000D30708F0F2C0CF3BD10508F089C0C83AF9
:10105000D10508F0DFC0C53AD10508F0D3C0C430CF
:10106000D105F8F4C130D105E1F040C085339105D8
:1010700009F45AC0C997E9F680911403837089F086
:10108000C0EED0E00EC0833E910599F170F4803E31
:10109000910501F1823E910561F68091140382FD74
:1010A00021C0CE01DF91CF910895863E910561F177
:1010B000873E910571F1843E910509F0BACF809188
:1010C000150381FFEECF80911403C7EED0E084FDBD
:1010D0000DC0E7CF8091140380FDF7C090911503F8
:1010E00090FFDFCFC3EED0E084FFDBCFD0E0C0E0E5
:1010F000D8CF8091140382FDEBC09091150390FD31
:10110000BFCF84FFCECFF2CF8091140383FDDDCF1C
:10111000C8CF8091140383FDDEC09091150391FF29
:10112000F0CFC4EED0E0BDCF8091140385FFB9CFDE
:10113000C9E2D0E0B6CF8091140385FFB2CFC5E3FA
:10114000D0E0AFCF8091140386FFABCFCAE2D0E0EE
:10115000A8CF8091140386FFA4CFC1E3D0E0A1CF34
:10116000C11540E2D40760F4C11581E0D80708F04A
:1011700098CFCE01805E9109089708F492CFB6CF40
:10118000C11590E4D90708F4B1CFDF70D06A89CFD8
:10119000C11524E5D20778F4C11533E5D30708F06B
:1011A00072C0C11542E5D40708F05CC0DC2FCC2723
:1011B000C16FD06A76CFC1158AE5D80778F4C1151A
:1011C00099E5D90708F073C0C11528E5D20708F4DE
:1011D0008DCFDC2FCC27C06FD06A63CFCE01905665
:1011E0008115904208F082CF8D2F8F710E94800769
:1011F00090E0982F882788279F719C012C2BE9016C
:10120000D0624FCFC55AD0E0C95BDE4FC881D0E075
:10121000D06447CFC85AD0E0CC0FDD1FC65BDE4F8D
:101220000990D881C02DD4643CCFCE0164E096955E
:1012300087956A95E1F783702C2F26952695237064
:1012400040E2249F90011124382B8C2F8370C1E041
:10125000D0E002C0CC0FDD1F8A95E2F7C22BD32B62
:10126000DC681FCFCE018370992721E030E002C0F7
:10127000220F331F8A95E2F7C695C69580E2C89F74
:10128000E0011124EBCFCE018370992721E030E0FB
:1012900002C0220F331F8A95E2F7C695C69590E2E9
:1012A000C99FE0011124C22BD32BDA68FACE8C2F10
:1012B0008F700E94800734E0D695C7953A95E1F784
:1012C000CF709C2FEC01D069ECCEC9E3D0E0E9CE21
:1012D000C2EED0E0E6CEC6EED0E0E3CEBF92CF9233
:1012E000DF92EF92FF920F931F93CF93DF938C01C6
:1012F000C0905503D0905603E0905703F0905803E8
:101300008091FC029091FD02A091FE02B091FF023B
:10131000C82AD92AEA2AFB2ACFE1D0E0BC2ED7017D
:10132000C6010C2E04C0B695A795979587950A948B
:10133000D2F780FD0EC0219788F7B12C8B2DDF915D
:10134000CF911F910F91FF90EF90DF90CF90BF90C2
:101350000895B8018C2F0E940408019761F3EECF25
:10136000CF93DF93EC010E946E09BE01DF91CF9114
:101370000C9404080E94B009292F2F7092959F7039
:1013800092509E3078F4E92FF0E0EB54F54D0C9438
:101390009C28803F19F020F4883E20F481E00895D5
:1013A000843FE1F380E00895883EC0F3813FD1F7A8
:1013B000F5CF822F86958695869508956F927F92B8
:1013C0008F929F92AF92BF92CF92DF92EF92FF9255
:1013D0000F931F93CF93DF9385EDC82E82E0D82E15
:1013E00090ECE92EF12CE701CC58D10936011BC055
:1013F000F50185909490692DC8010E94E828682D18
:10140000C80101960E94E82882E0A80EB11C0E5F78
:101410001F4FC017D10761F78EE0680E711C2E9622
:10142000CE15DF0529F08E010E5011095301E0CFD2
:101430007E018CE8E80EF11C8CE8C80ED11C80EF10
:10144000E81682E0F80679F6DF91CF911F910F91AF
:10145000FF90EF90DF90CF90BF90AF909F908F90D4
:101460007F906F900895CF93DF93C6E5D2E060E060
:10147000CE010E94E8282196C11584E0D807B9F76B
:10148000DF91CF910895CF93DF9300D00F92CDB726
:10149000DEB790914B03943011F589837B836A8387
:1014A0009093E9008FEF9091E800815095FD06C080
:1014B00095ED9A95F1F700008111F5CF8091E80044
:1014C00085FF0DC050E040E063E070E0CE01019682
:1014D0000E94CD038091E8008E778093E8000F9002
:1014E0000F900F90DF91CF910895BC0184E00C9490
:1014F000430ABC0183E00C94430ACF93DF93EC01D1
:1015000081E08093E9008FEF9091E800815095FD94
:1015100006C095ED9A95F1F700008111F5CF809105
:10152000E80085FF14C050E040E068E070E0CE01C4
:101530000E94CD038091E8008E778093E80088E0D8
:10154000FE01A1E4B3E001900D928A95E1F7DF91ED
:10155000CF91089581E08093E00080E28093D800ED
:101560001092C9008FE19EE40197F1F700C00000DE
:1015700087E090EBDC0180937A0390937B03A09348
:101580007C03B0937D0388E19CE00FB6F894A895A6
:10159000809360000FBE90936000FFCF1F93CF93A6
:1015A000DF93182FCAE0D0E0893311F4C0E5D0E012
:1015B000812F0E9457068FE99FE00197F1F700C045
:1015C00000002197C1F7812FDF91CF911F910C94DB
:1015D0001E060F931F93CF93DF93C62FD42F022F96
:1015E000FC0182818823A1F060935B030E9428059F
:1015F00090935A0380935903C77081E001C0880F0C
:10160000CA95EAF7DF91CF911F910F910C94CE0507
:1016100080915B03681335C08091590390915A0300
:101620000E940D05883C910560F510E21D0FCD1755
:10163000B9F080E28C0F883040F4C77081E001C0BF
:10164000880FCA95EAF70E94C305183048F481E074
:101650009D2F977001C0880F9A95EAF70E94CE05DA
:10166000802F0E94CE0A183098F4D77081E001C014
:10167000880FDA95EAF7DF91CF911F910F910C94C3
:10168000C305C77081E001C0880FCA95EAF7F3CFA0
:10169000DF91CF911F910F9108958091A601811143
:1016A00011C08091D80080618093D8008AE18A952A
:1016B000F1F700C09091D900892F817090FF82E0EE
:1016C0008093A60181E09091A601913009F080E01D
:1016D00008956BEE7EEF90E080E00E94062960E0C6
:1016E00082E090E00E94E82860E083E090E00E94C1
:1016F000E8281092FC021092FD021092FE02109255
:10170000FF0260E084E090E00E94E82860E081E26F
:1017100090E00E94E82860E085E090E00E94E828E0
:1017200060E086E090E00E94E8286FEF87E090E0BC
:101730000E94E82840E050E0BA0188E090E00E9472
:10174000FA2860E08DE090E00E94E82840E050E058
:10175000BA0188E190E00E94FA2860E087E190E019
:101760000E94E82840E050E0BA018CE190E00E943D
:10177000FA2860E080E290E00E94E82840E050E033
:10178000BA0188E190E00E94FA2840E050E0BA01F6
:101790008FE090E00E94FA2840E050E0BA0183E137
:1017A00090E00C94FA28CF92DF92EF92FF926B01B7
:1017B0007C010E94BD06B701A60188E090E0FF9081
:1017C000EF90DF90CF900C94FA28809160038823EB
:1017D00019F081508093600360915C0370915D0308
:1017E00080915E0390915F030C94D30B8091600312
:1017F000833018F48F5F8093600360915C03709175
:101800005D0380915E0390915F030C94D30BECE534
:10181000F3E083E0808311828FEF828380EA838309
:101820001482ADE1B3E012968C9112978360129608
:101830008C9360817181828193810C94D30B10927F
:10184000FB02ECE9F1E086E0DF011D928A95E9F701
:101850000C9406061F93CF93DF93CDB7DEB7AA97FC
:101860000FB6F894DEBF0FBECDBF8DE493E020919C
:10187000F100DC012D93CD01B3E085359B07B9F76D
:1018800080914E03833009F471C0B8F4813009F4BB
:1018900048C0823009F4B2C08091E80083FF3AC1A9
:1018A00080914D0390914E039A3008F033C1E92F97
:1018B000F0E0ED53F54D0C949C288A3009F48DC06E
:1018C0008B3009F470C0893039F780914D03813233
:1018D00019F78091510390915203009711F00297EC
:1018E000D9F68091E800877F8093E8008091E80036
:1018F00082FF37C09091F3008091F200029729F4A3
:101900008091F1008B7F813021F48091F1008093F0
:1019100040038091E8008B778093E8000E94F703F2
:10192000BBCF80914D03813A09F0B6CF8091E8009A
:10193000877F8093E8008091510390915203892B17
:1019400061F468E081E493E070E00E94A904809172
:10195000E8008B778093E8009FCF60E090E080E024
:10196000F3CF80914B038111C1CF96CF80914D036E
:10197000813A09F091CF8091510390915203892BC4
:1019800009F08ACF8091E800877F8093E8008091FA
:10199000E80080FFFCCF809123018093F1008091CB
:1019A000E8008E77B9CF80914D03813209F074CF72
:1019B0008091510390915203892B09F06DCF809152
:1019C000E800877F8093E8000E94F70380914F032F
:1019D000809323010E941F0C5FCF80914D038132C1
:1019E00009F05ACF8091E800877F8093E8000E9439
:1019F000F7038091500380933F034ECF80914D03B6
:101A0000813A09F049CF8091E800877F8093E80010
:101A10008091E80080FFFCCF80913F03BECF8038EB
:101A200099F0823809F076C0809151038F70873029
:101A300008F070C08093E9008091EB0085FB882757
:101A400080F91092E90006C08091490390914A0301
:101A5000911182609091E800977F9093E8008093C5
:101A6000F1001092F1008091E8008E77B5C18823D3
:101A700009F4A2C1823009F04DC080914F03811159
:101A8000A6C1809151038F702FEF280F263008F0E8
:101A900041C08093E9002091EB0020FF98C1933072
:101AA00031F48091EB0080628093EB0090C19091C3
:101AB000EB0090619093EB0021E030E001C0220F39
:101AC0008A95EAF72093EA001092EA008091EB00F1
:101AD0008860EACF81111EC010914F031F7780915B
:101AE000E3008078812B8093E3008091E800877F7A
:101AF0008093E8000E94F7038091E80080FFFCCF0C
:101B00008091E30080688093E30082E0111183E01C
:101B100080934B038091E80083FF0AC08091E80026
:101B2000877F8093E8008091EB0080628093EB00D8
:101B3000AA960FB6F894DEBF0FBECDBFDF91CF914E
:101B40001F9108958058823028F720914F033091DB
:101B500050032C3DE3E03E07A1F583E08A838AE24F
:101B600089834FB7F894DE01139620E03EE051E2FE
:101B7000E32FF0E050935700E49120FF03C0E2957B
:101B8000EF703F5FEF708E2F90E0EA30C0F0C796A5
:101B90008D939D932F5F243159F74FBF8091E800BB
:101BA000877F8093E8006AE270E0CE0101960E9490
:101BB000A9048091E8008B778093E800ABCFC096B2
:101BC000E7CF8091510390915203432F5527433023
:101BD000510509F44AC078F54130510509F47AC03D
:101BE0008BE590E0E5ECF5E04230510509F092CF4D
:101BF0002091E800277F2093E80020915303309143
:101C000054038217930708F49C0140E02115310525
:101C100009F065C0411163C08091E80082FDC9CF21
:101C200080914B03882329F2853019F28091E800D6
:101C300083FFF2CFBECF4132510509F43CC042329E
:101C4000510509F067CF8330910508F063CFFC019F
:101C5000EE0FFF1FE557FE4F0190F081E02D8857F2
:101C60009E4FDC018C9190E01AC033272130310562
:101C7000D1F02115310561F02230310509F04ACF4C
:101C8000E2E3F6E0E4918E2F90E0E2E3F6E007C0B5
:101C9000E4E6F6E0E4918E2F90E0E4E6F6E00097CB
:101CA00009F438CFA5CFE2E5F6E0E4918E2F90E07D
:101CB000E2E5F6E0F4CF8330910508F02BCF880FF2
:101CC000991FFC01EF56FE4F0190F081E02D89E055
:101CD00090E08ECF82E190E0E0E2F6E089CF809163
:101CE0004B03882309F465CF853009F462CF8091D6
:101CF000E80083FD5ECF8091E80082FD8DCF80916A
:101D0000E80080FF83CF9091F3008091F2002115CD
:101D1000310519F08830910550F041E0089709F03D
:101D200040E08091E8008E778093E8006FCF449187
:101D30004093F1003196215031090196E8CF803867
:101D400009F0E8CE8091E800877F8093E8008091D9
:101D50004C038093F10087CE8111DCCE10914F03AC
:101D6000123008F0D7CE8091E800877F8093E8009A
:101D700010934C030E94F703112311F084E005C077
:101D80008091E30087FDFACF81E080934B0342E02E
:101D900061EC81E00E94160442E261EC84E00E9462
:101DA000160442E261EC82E00E94160442E260EC1A
:101DB00083E00E941604AECE80914F03813009F07B
:101DC000A9CE81E0933009F080E080934A0310921D
:101DD000E9008091E800877F8093E8000E94F70384
:101DE00099CE4F925F926F927F928F929F92AF9215
:101DF000BF92CF92DF92EF92FF920F931F93CF93F8
:101E0000DF93CDB7DEB7CE5DD1090FB6F894DEBF54
:101E10000FBECDBF5090010180915C0380FF5DC07B
:101E200080901803909019038114910409F068C000
:101E3000EBE8F2E09E012F5F3F4FBE0161527F4F02
:101E4000C901A4914A2F50E0DA01AA0FBB1FA40FC9
:101E5000B51FA955BE4FCD90DD90EC90D901CD9224
:101E6000DD92ED929D0131966A177B0751F7209123
:101E7000000143E0249F800D911D1124539A2BB142
:101E8000277F3BB138605FB7F894BC01549E600D6A
:101E9000711D11248617970709F090C05FBF8FE569
:101EA00094E00197F1F700C00000C252DF4F0FB677
:101EB000F894DEBF0FBECDBFDF91CF911F910F9180
:101EC000FF90EF90DF90CF90BF90AF909F908F905A
:101ED0007F906F905F904F90089580910201909154
:101EE000030123E0829FF0011124E955FE4F891779
:101EF00008F096CF1182108212828F5F3396F7CF4F
:101F000080912203811194CFD12CC12C662463943B
:101F1000712C53E0452E8091200393010C2C01C0BD
:101F2000220F0A94EAF7822309F43FC0F601EE0F6C
:101F3000FF1FE80DF91DE590F490E114F10409F498
:101F400077CF45E050E0B701CE0101960E94CB2843
:101F500009810F3F51F18A81800F9927991F8B3496
:101F6000910514F08AE490E05C01AA0CBB1C8A0D78
:101F70009B1DDC01A955BE4F5D01049D800111240C
:101F800009551E4F0A151B0520F0B5E0EB0EF11C9C
:101F9000D8CF4D81413A08F040EA98016C818B819D
:101FA0000E94D3060D5F1F4FEDCFEFEFCE1ADE0A72
:101FB000F8E0CF16D10409F0AECF3ACFFC01419141
:101FC000CF01E8E03BB9000000C047FF2BB9440F48
:101FD000000000C000C000C02BB900C0EA9591F716
:101FE00059CFAF92BF92CF92DF92EF92FF920F93B1
:101FF0001F93CF93DF9300D00F92CDB7DEB7082F9A
:10200000F62E142FE22E80915C0380FF4FC0E82F44
:10201000E695AE2FB0E0A55CBE4F9C9190931D035A
:102020008E7F823009F056C0413A08F040EA9E01A6
:102030002F5F3F4F6F2D802F0E94D30680915C034E
:1020400080FF11C02B8139814A81809102019091DA
:10205000030153E0859FF0011124E955FE4F8917D4
:1020600098F10E94F10E80915D03801308C0809169
:102070005E038F1104C080915F03811729F0809166
:102080001F03826080931F0300935D03F0925E0341
:1020900010935F03EE2051F060915C0370915D033B
:1020A00080915E0390915F030E94D30B0F900F907D
:1020B0000F90DF91CF911F910F91FF90EF90DF90E4
:1020C000CF90BF90AF9008954183308322838F5F7C
:1020D0003396C5CF923039F6E2508E2F8170D82ECC
:1020E000E695F0E0EA57FD4FA590B490C12CBB24D3
:1020F00060910401C61608F0B4CF2C2D30E0A29EEA
:10210000C001A39E900DB29E900D112470E00E941C
:102110005528802FD11016C0860F40910201420F22
:10212000532F511D9A01220F331F240F351F29559C
:102130003E4F412F113A08F040EA6F2D0E94D3061E
:10214000C394D6CF861BE9CF20E00C94F10F909179
:102150005C0390FF26C0917081111CC09260909327
:102160005C0380911F03816080931F03662351F0FD
:1021700060915C0370915D0380915E0390915F03B9
:102180000E94D30B40915F0360915E0380915D03D9
:102190000C94A4108C3010F09661E1CF880F982B2E
:1021A000DECF089521E030E0A90102C0440F551FA1
:1021B0008A95E2F7CA01209120036623C1F0822BA1
:1021C0008093200380911F03806180931F0380917F
:1021D0001E03811106C080915C0360E086950E9419
:1021E000A71080915C0380FD05C00C94F10E8095D2
:1021F0008223E6CF0895CF93DF93C82FC17082FB6F
:10220000DD27D0F981FB662760F984E00E94D210B7
:1022100061E06C2785E00E94D2106D2F86E0DF918F
:10222000CF910C94D210ECE5F3E080818160808343
:1022300060E086950C94A71080915C038695815090
:1022400009F48BE061E00C94A71080915C03869503
:102250008F5F8C3008F081E061E00C94A7108091D2
:102260005C0380FF07C0869582588F77893010F411
:102270000C94251161E082E00C94A710CF92DF92BC
:10228000EF92FF920F931F936B017C0161E0C114E9
:10229000D104E104F10409F06C2D617080E00E942A
:1022A000D21060E0C114D104E104F10441F0D7017F
:1022B000C601B695A79597958795682F617081E0BF
:1022C0000E94D21060E0C114D104E104F10459F07D
:1022D000D701C60102E0B695A795979587950A950F
:1022E000D1F7682F617082E00E94D21060E0C114C3
:1022F000D104E104F10459F0D701C60113E0B69509
:10230000A795979587951A95D1F7682F617083E007
:102310000E94D210A7016627772780E14115510559
:102320006105710519F4B701A60180E0052F162F8C
:10233000272F3327011511052105310519F0885F75
:10234000B901A8018A019B01F4E0369527951795FC
:102350000795FA95D1F7011511052105310519F0F9
:102360008C5FB901A8018A019B01E2E036952795AF
:1023700017950795EA95D1F7011511052105310546
:1023800019F08E5FB901A801769567955795479525
:10239000452B462B472B09F08F5F8130E1F08823D6
:1023A00051F08230F1F0833011F10E94131140E5B9
:1023B0006FEF80E405C00E94131140E56FEF82E3E8
:1023C0000E94A410C701B6011F910F91FF90EF90DA
:1023D000DF90CF9008950E94131140E56FEF88E0E1
:1023E000EFCF0E94131140E56FEF86E7E9CF0E941F
:1023F000131140E56FEF8AEDE3CF0E943E11609329
:1024000055037093560380935703909358030C948D
:1024100006060F931F9360915503709156038091A8
:102420005703909158038B019C01067011272227B6
:102430003327063011052105310529F468601F9105
:102440000F910C94FD11677FFACF0F931F9341E01A
:1024500050E060E070E004C0440F551F661F771F16
:102460008A95D2F7CB01BA016095709580959095C9
:102470000091550310915603209157033091580352
:1024800060237123822393231F910F910C94FD11DC
:102490000F931F9341E050E060E070E004C0440FF0
:1024A000551F661F771F8A95D2F78091550390912B
:1024B0005603A0915703B09158038A019B01082B42
:1024C000192B2A2B3B2BC901B8011F910F910C949A
:1024D000FD115F926F927F928F929F92AF92BF9207
:1024E000CF92DF92EF92FF920F931F93CF93DF93E0
:1024F00000D000D00F92CDB7DEB76C01FC01838114
:102500009481892B31F08081918189238F3F09F05B
:10251000F7C60F900F900F900F900F90DF91CF9113
:102520001F910F91FF90EF90DF90CF90BF90AF90F1
:102530009F908F907F906F905F9008950E946E099A
:10254000182F682F89819A810E948D0569817A816F
:10255000812F0E94F7078C01F6018281882309F4FC
:1025600060C0C80190568115F0E29F0750F0905E60
:10257000811520E1920728F0915C81159F4108F0B8
:102580009DC0C80199279C0124503109243231058E
:1025900020F08B970E9708F044C080918A029091AA
:1025A0008B020097C1F10E940D05E0908902F12C89
:1025B0009C0150E040E060E67AEE80E090E00E940E
:1025C0007D28CA01B90125E030E040E050E00E94DA
:1025D0007D28622F70E06E197F09072E000C880B92
:1025E000990B0E94BA2927EA39E747E45DE30E9484
:1025F000462A4B015C01B701FF0C880B990B0E9426
:10260000BA299B01AC01C501B4010E941D290E9499
:102610008929609389020E94280590938B028093F8
:102620008A02F6018281882309F45FC6980122514B
:102630003F452031310508F037C68FEF93E00E9407
:10264000D428025196E5A92E92E0B92E811161CFCE
:1026500001113DC01C821B82662463948AE0582EBF
:1026600085010F5F1F4FC5010E94D42889831A82FC
:10267000882309F44ECF9FEF980F9330B8F58A83E3
:10268000698232E0A30EB11CC8010E94D4288B835A
:10269000882309F43ECF8E010F5F1F4FF801208180
:1026A0002223F1F2213009F05BC0918182819130C7
:1026B000F9F40E5F1F4F0E94CE0A20C090E080E028
:1026C0000F3F110511F008F05ECFC8015CCFA114D7
:1026D000F4E0BF0609F41DCFC5010E94D428811182
:1026E00001C001502FEFA21AB20AB2CF5801D3CFC6
:1026F000923039F40E5F1F4F0E9457060F5F1F4F35
:10270000CDCF933029F40E5F1F4F0E941E06F6CFE7
:10271000943019F00F5F1F4FF1CF0E5F1F4F30E065
:1027200020E0B8016F5F7F4FF80141818053990B22
:102730008A30910550F02150310900F38FE99FE074
:102740000197F1F700C00000F6CF529EF001539EB2
:10275000F00D11249C012E0F3F1F842F8B01E1CF20
:10276000E22FF0E0EB5CFA4F7490822F869586950D
:10277000869590E0FC01EB5DFA4FE4902770F12C18
:10278000022E02C0F594E7940A94E2F7E1E0EE220B
:10279000FF24FC01EB5EFA4FC490D12C022E02C044
:1027A000D594C7940A94E2F7F1E0CF22DD24FC012E
:1027B000EB5FFA4F8490912C02C0959487942A95F0
:1027C000E2F721E082229924E114F10419F081EE6C
:1027D0000E945706C114D10419F086EE0E945706D4
:1027E000872D0E94CE0ACD2819F086EE0E941E0683
:1027F000EF2819F081EE0E941E06892809F47ECF89
:102800008CE259CF81E00E94481203C081E00E940F
:1028100025120F900F900F900F900F90DF91CF9196
:102820001F910F91FF90EF90DF90CF90BF90AF90EE
:102830009F908F907F906F905F900C94091282E030
:10284000E2CF03389FE5190709F4C8C008F4B2C005
:102850000438FFE51F0709F4D6C0033F2CE5120733
:1028600009F43FC108F015C1083D4CE5140709F40F
:1028700034C1093D5CE5150709F43FC1073D8CE50E
:102880001807D1F426E241EE61EE10C1882309F465
:102890008DC080919202811106C081E080939202E6
:1028A00082EE0E9457060E94280590939102809321
:1028B00090028BE20E945706F6019281992309F457
:1028C00030C510925B030230FCE51F0708F4F3C12A
:1028D00006312CE5120738F098012A5F3C45293073
:1028E000310508F0E8C10E94C30790931503809357
:1028F000140300313CE5130709F4ACC108F03DC1F5
:1029000008305CE5150709F497C108F00CC10430E4
:102910009CE5190709F488C108F0F2C00230FCE513
:102920001F0709F47BC180911403826003301C45AA
:1029300009F477C1609114031091150384E090E0CD
:102940000E94E828612F81E290E00E94E8280F9021
:102950000F900F900F900F90DF91CF911F910F91DB
:10296000FF90EF90DF90CF90BF90AF909F908F90AF
:102970007F906F905F900C941F0C8823A1F0809142
:102980009202811106C081E08093920282EE0E9441
:1029900057060E942805909391028093900281EE41
:1029A0000E94570686CF81EE0E941E068BE20E948F
:1029B0001E0682CF882309F47FCF81EE0E9457063E
:1029C00083EE0E9457068FE40E9457068FE40E9410
:1029D0001E0683EE0E941E0681EEE9CF882309F4CD
:1029E0006BCF81EE0E94570683EE0E94570680E56A
:1029F0000E94570680E5EBCF80938F0210938E02E2
:102A000000938D0259CF882379F180918C0288231D
:102A100049F080918D020E941E0680EE0E945706AA
:102A20008AE20CC080918F028823D1F380918D02BD
:102A30000E941E0680EE0E9457068CE40F900F90B5
:102A40000F900F900F90DF91CF911F910F91FF90FA
:102A5000EF90DF90CF90BF90AF909F908F907F903E
:102A60006F905F900C9457068AE20E941E068CE4D9
:102A70000E941E0680EE0E941E0680918C0281112B
:102A800005C080918F02882309F443CD80918D0287
:102A9000D5CF053F9CE5190761F138F127E245EEF6
:102AA00066EE063FFCE51F0709F006CFC6010F9052
:102AB0000F900F900F900F90DF91CF911F910F917A
:102AC000FF90EF90DF90CF90BF90AF909F908F904E
:102AD0007F906F905F900C94E90A27E245EE65EED7
:102AE000E5CF26E241EE60EEE1CF27E245EE64EE6F
:102AF000DDCF26E241EE62EED9CF28E241E0EFCF12
:102B000080911403806106303CE5130709F489C005
:102B100080911403886007301C4508F482C08091BE
:102B2000140380627EC0809114038D7F0C305CE5BD
:102B3000150709F476C070F4809114038C600A3094
:102B40009CE5190709F46DC008F47AC0809114035C
:102B50008E7F67C080911403877F0E30FCE51F07CE
:102B600009F45FC0809114038B7F0F301C4508F47B
:102B700058C0809114038F7E54C00B3F3CE513076F
:102B800009F456C030F503315CE5150709F46AC055
:102B900078F401319CE5190709F460C002311C4545
:102BA00009F0C8CE0E941F0C809114038F7739C0A2
:102BB0000531FCE51F0709F45DC008F471C0809180
:102BC000150381600A3F1C4509F0B4CE80931503BC
:102BD000B1CE0F3F4CE5140709F448C070F40D3F27
:102BE0008CE5180799F1809115038E7F0E3F1C45E7
:102BF00068F3809115038360E9CF0130EDE51E078E
:102C000009F457C008F442C060E002301D4509F0E5
:102C100091CE8EE090E00E94E8288CCE8091140343
:102C200081608093140386CE809114038460F9CF71
:102C3000809115038260CACF809114038064F1CF24
:102C40000E941F0C809114038068EBCF80911503C4
:102C50008D7FBCCF809114038F7DE3CF80911403CF
:102C60008F7BDFCF80911403837FDBCF80911503AF
:102C70008C7FACCF8091140382FB992790F921E0DF
:102C8000922790FB82F990FB83F9CBCF80911503BB
:102C9000982F909591708E7F892B90FB81F996CF1C
:102CA0000E941F0C90911403892F97FB87F980587D
:102CB000B8CF61E0AECF06313CE5130709F049C358
:102CC0008091FB028A7A91E009F490E0909393025C
:102CD00069E2811165E38AE991E00E9434050F9071
:102CE0000F900F900F900F90DF91CF911F910F9148
:102CF000FF90EF90DF90CF90BF90AF909F908F901C
:102D00007F906F905F900C944E0585E314C3809183
:102D10005C0380FF31C08E7F80935C0360915C0315
:102D200070915D0380915E0390915F030E94D30BCD
:102D300080911F03816080931F034FEF50E782E073
:102D4000415050408040E1F700C000000F900F90CC
:102D50000F900F900F90DF91CF911F910F91FF90E7
:102D6000EF90DF90CF90BF90AF909F908F907F902B
:102D70006F905F900C94F10E816080935C0361E032
:102D800086950F900F900F900F900F90DF91CF913D
:102D90001F910F91FF90EF90DF90CF90BF90AF9079
:102DA0009F908F907F906F905F900C94A7104CE154
:102DB00051E165E271E10F900F900F900F900F902D
:102DC000DF91CF911F910F91FF90EF90DF90CF9007
:102DD000BF90AF909F908F907F906F905F900C947A
:102DE000B80645E251E16CE171E1E5CF42E25DE117
:102DF0006BE27DE1E0CF4BE25DE162E27DE1DBCFC2
:102E00004AE05DE166E17DE1D6CF46E15DE16AE061
:102E10007DE1D1CF42EF5CE16EEF7CE1CCCF4EEFB4
:102E20005CE162EF7CE1C7CF45EE5BE066EF7BE003
:102E3000C2CF46EF5BE065EE7BE0BDCF61E081E0B5
:102E4000A0CF0F900F900F900F900F90DF91CF9128
:102E50001F910F91FF90EF90DF90CF90BF90AF90B8
:102E60009F908F907F906F905F900C942F110E9495
:102E70001F0C9FEFE4E3FCE09150E040F040E1F7ED
:102E800000C000000E94AA0A0F900F900F900F90B0
:102E90000F90DF91CF911F910F91FF90EF90DF90F6
:102EA000CF90BF90AF909F908F907F906F905F90EA
:102EB0000C94690BC8010E946505F82E61C2092FA8
:102EC0000F70907F11F00295007F812F2223C9F0AF
:102ED000002369F090E2910F983010F011110BC0AF
:102EE0008091FB02082B0093FB020E944E05812F6C
:102EF0000E94570617C08091FA02082B0093FA022D
:102F0000F4CF0E941E06002369F00095105E183071
:102F100010F0B11027C08091FB0208230093FB0240
:102F20000E944E0598E0E91AF108E4E0EE16F1047B
:102F300008F0EFCA0E94AC060F900F900F900F9010
:102F40000F90DF91CF911F910F91FF90EF90DF9045
:102F5000CF90BF90AF909F908F907F906F905F9039
:102F60000C94FB108091FA0208230093FA02D8CF48
:102F7000892F8F70907F903211F08295807FF1E0E1
:102F8000BF120CC0222329F0363060F60E94CE0515
:102F9000C9CF353038F60E94C305C4CF222341F093
:102FA0003323A1F340FFA3CF4F70F6014583EECF4B
:102FB000332389F3193309F06FC1FFEF27EE33E0B4
:102FC000F15020403040E1F700C00000812F0E9406
:102FD0001E06A8CF892F86958695837061F0813073
:102FE00009F0A0CF812F9370211102C090E080E002
:102FF0000E94DA0597CF812F9370211102C090E0D3
:1030000080E00E94F0058ECF892F837009F065C0A3
:10301000211188CF812F829586958770880F880F20
:10302000412F4F7050E070E060E0082E04C0440F64
:10303000551F661F771F0A94D2F714FF2CC00FE0AC
:1030400010E020E030E004C0000F111F221F331FEA
:103050008A95D2F70095109520953095969596957E
:103060009370923039F1F8F48090FC029090FD0258
:10307000A090FE02B090FF02913089F0402B512BBE
:10308000622B732BCB01BA01682179218A219B2104
:103090000E94140647CF00E010E09801DFCF4829D6
:1030A00059296A297B29CB01BA01602B712B822B0C
:1030B000932BEECF402B512B622B732B0091FC02F4
:1030C0001091FD022091FE023091FF02CB01BA0166
:1030D0006027712782279327DBCF8695222311F063
:1030E000892F8170882309F41DCF812F82958695C1
:1030F0008770880F880F412F4F7050E070E060E0BC
:10310000082E04C0440F551F661F771F0A94D2F77C
:1031100014FF2CC00FE010E020E030E004C0000FEE
:10312000111F221F331F8A95D2F700951095209505
:103130003095969596959370923039F1F8F4809089
:10314000550390905603A0905703B09058039130C8
:1031500089F0402B512B622B732BCB01BA016821D4
:1031600079218A219B210E94FD11DCCE00E010E034
:103170009801DFCF482959296A297B29CB01BA0157
:10318000602B712B822B932BEECF402B512B622B7C
:10319000732B0091550310915603209157033091E2
:1031A0005803CB01BA016027712782279327DBCF11
:1031B000092F0F70222329F0802F0E944812812F9F
:1031C000E5CE812F0E94C305802F0E942512AACE32
:1031D000812FE1EF1E1709F442C0E11758F0F0EF1C
:1031E0001F17F1F0222309F44BC0311180CE892F33
:1031F0008F713AC042EF1417D1F153EF1513F2CF8C
:103200002223D1F1292F2F7161E070E080E090E05E
:1032100004C0660F771F881F991F2A95D2F7A3CF86
:103220002223C9F0353008F07DCE292F2F7161E0BF
:1032300070E080E090E004C0660F771F881F991F40
:103240002A95D2F700915503109156032091570308
:1032500030915803A8CF363008F064CEE6CF892FDE
:103260008F71222309F4B1CF0E9448125BCE892FBF
:103270008F712223C9F3A9CF60E070E0CB0173CF37
:10328000332379F0893341F48FEF97EEE3E08150F7
:103290009040E040E1F798CE8FE39CE90197F1F789
:1032A00093CE892F8F7191CF0031FFE51F0709F46D
:1032B000A9CA01312FE5120709F4C1CA01383FE557
:1032C000130709F45ACB08F0BCCA053E110509F4EE
:1032D00093CB00385FE5150709F4D8CA013E110504
:1032E00009F0BBCA80938C0289CB00313FE51307FC
:1032F00009F48CCA01314FE5140701F782E087CA4F
:1033000085E0DE01119601900D928A95E1F7F601B4
:10331000228189819A81211111C90E946505182F86
:1033200015C90631FCE51F0709F043C080919302DF
:103330008111EBCC89E2ECE9F1E022EA31E09191F4
:10334000891303C0DF0111971C922E173F07B9F7AD
:10335000C6CC01152CE5120709F489CD0E3D1C459C
:1033600009F492CDF60100811181992309F4A2CDCF
:10337000C8010E946E09F82E682FC8010E948D05B1
:10338000B8018F2D0E940408182FB82EF601228153
:103390004581342F32953F70892F82958F70E82EAA
:1033A000F12C8C3008F0BECDF701E353F54D0C94B1
:1033B0009C288091FB028272F801E25CFC45E431BA
:1033C000F10580F6E752F54D0C949C281F93CF939E
:1033D000DF9380919902807FA9F4809196028823DF
:1033E00089F08091CB02D0919A0260919402709101
:1033F0009502A0919702B0919802C62FC72316E0BC
:10340000D81304C0DF91CF911F91089590E01097D9
:1034100011F0CF3F19F401968770F2CF189F9001F9
:10342000199F300D1124F901E556FD4F41814713D5
:10343000F2CF40814613EFCF42814111ECCF43815F
:1034400054814A1B5B0B483C510528F78091990237
:103450008F70806180939902F901E056FD4F808161
:103460008F708061808384E992E00E946912DF910D
:10347000CF911F910C94B905AF92BF92CF92DF927A
:10348000EF92FF920F931F93CF93DF93CDB7DEB7E9
:1034900061970FB6F894DEBF0FBECDBF8C0185E0FB
:1034A000F801DE011D9601900D928A95E1F7F80171
:1034B00080819181E28024E9A22E22E0B22E6091E7
:1034C0009702709198026115710509F43EC130911F
:1034D000940240919502232F24232F3F09F435C1F4
:1034E000C380D480F0909602F601E61BF70BFF2014
:1034F00009F4FBC020919902522F507FE83CF1055E
:1035000008F0BBC0511178C0FE2C491321C03813FC
:103510001FC0E1101DC02F70206120939902C501CA
:103520000E94691280919902F80185838F2D61961E
:103530000FB6F894DEBF0FBECDBFDF91CF911F91C4
:103540000F91FF90EF90DF90CF90BF90AF900895D4
:10355000CD2829F0282F29232F3F09F014C120E07E
:10356000F22FF170DF2E20FF3DC02091CB02409161
:103570009A0256E0241315C08D879E878D859E85FF
:103580000E94B009292F22952F702230F8F02430A4
:1035900020F59F70F9F0F8019581907FD9F4D12C36
:1035A0001FC030E0529FF001539FF00D1124E556EB
:1035B000FD4F6181961306C06081861303C062814E
:1035C000E61210C02F5F3F4F2770D4CF9F7011F0CD
:1035D000882329F3805E883010F3C8010E946912A5
:1035E000FD2CA4CFEE2009F4A1CF80919902816037
:1035F00080939902F12C9ACF491312C0381310C04E
:10360000E1100EC0F8012583C8010E94691286E00E
:10361000F801A4E9B2E001900D928A95E1F786CF16
:103620008D879E878D859E850E94BA09882309F122
:10363000EE20F9F080919902803270F0209194028E
:103640003091950238872F831986DB86CA868C874E
:10365000CE0107960E94691286E0F801A4E9B2E063
:1036600001900D928A95E1F70E94E619FF24F394E8
:103670005DCFC8010E946912F9CF51110AC084E9D7
:1036800092E00E94691286E0F50111928A95E9F7AD
:10369000B1CF49130FC038130DC0E1100BC0F801B2
:1036A0002583C8010E94691286E0F50111928A956E
:1036B000E9F73CCF8D879E878D859E850E94BA094C
:1036C0008823B9F2EE20A9F280919902803220F28B
:1036D00020919402309195023A8329831B82DD82E6
:1036E000CC828E83CE010196B5CFE83CF105E0F6A1
:1036F000FE2CEE2009F4BDCF491316C0381314C0B8
:103700008091990280FD83CF982F907F09F47FCF1D
:10371000F8018583903F09F477CF982F907F905FD1
:103720008F70892B858370CF8D879E878D859E8531
:103730000E94BA09811190CF809199028160809393
:103740009902C8010E946912F1CEEE2009F491CFCE
:103750008D879E878D859E850E94BA09F82E8823C5
:1037600009F487CF86E0F801A4E9B2E001900D9258
:103770008A95E1F780919402909195020E94B00998
:103780000E94E619D3CE21E02E25EACE1F93CF93D7
:10379000DF93CDB7DEB767970FB6F894DEBF0FBEE5
:1037A000CDBF342F4B8B252F5C8B6D8B7E8B8F8BFE
:1037B0008E899F8961111092FA021A8A198A3D87AF
:1037C0002E876F87998B888B86E0FE013D96DE0100
:1037D000179601900D928A95E1F7CE0107960E9407
:1037E0003C1A882389F016E08091CB0290919A02CE
:1037F000891349C067960FB6F894DEBF0FBECDBFE0
:10380000DF91CF911F91089586E0FE013796DE018A
:10381000119601900D928A95E1F78A859B85892BF7
:1038200011F38F81988589238F3FE9F220919A02C5
:1038300030E0C9010196877099274091CB02481763
:10384000190671F40E941F0C10929A021092CB027A
:1038500086E0E4E9F2E0DF011D928A95E9F7C3CF43
:1038600096E0929FD001939FB00D1124A556BD4FB5
:10387000FE01319601900D929A95E1F780939A029C
:103880000E94B905B0CF819FC001112485569D4F7C
:103890000E943C1A882309F4ADCF8091CB0290E0BE
:1038A0000196877099278093CB029ECF0F931F9329
:1038B000CF93DF93CDB7DEB7A8970FB6F894DEBFEE
:1038C0000FBECDBF81114DC006E0662359F10CA398
:1038D00011E01DA31EA30E9428058160782F98A7E0
:1038E0008FA34CA15DA16EA188A50E94C61B0F8F5E
:1038F00018A319A20E9428058160782F9BA38AA390
:103900004F8D58A169A18BA10E94C61B81E0A8968A
:103910000FB6F894DEBF0FBECDBFDF91CF911F91E0
:103920000F9108950A8F13E01B8F81E08C8F0E9406
:1039300028058160782F9E8F8D8F4A8D5B8D6C8DD1
:103940008E8D0E94C61B0D8B1E8B1F8A0E94280520
:103950008160782F998F888F4D895E896F89898DD5
:10396000D3CF813099F66623F1F016E0188B198BCE
:103970008A8B0E9428058160782F9C8B8B8B4889CD
:1039800059896A898C890E94C61B1B871C871D86E2
:103990000E9428058160782F9F878E874B855C85E4
:1039A0006D858F85B1CF06E00E8318E01F83888771
:1039B0000E9428058160782F9A8789874E815F81D0
:1039C00068858A850E94C61B09831A831B820E9410
:1039D00028058160782F9D838C8349815A816B8172
:1039E0008D8192CFECE5F3E0438121E1421B08F4A5
:1039F00040E021E0628181810C94F10FECE5F3E07D
:103A0000438121E1420F08F44FEF21E0628181817F
:103A10000C94F10FECE5F3E0628121E1621B08F404
:103A200060E021E0438181810C94F10FECE5F3E04B
:103A3000628121E1620F08F46FEF21E0438181810F
:103A40000C94F10FECE5F3E0818121E04381628188
:103A500088500C94F10FECE5F3E0818121E0438183
:103A60006281885F0C94F10FECE5F3E080818E7F3A
:103A70008083EDE1F3E08281816082832FEF80E734
:103A800092E0215080409040E1F700C000000C948B
:103A9000F10E8F929F92AF92BF92CF92DF92EF92F0
:103AA000FF920F931F93CF93DF9300D000D00F921C
:103AB000CDB7DEB70CE011E088E0C82E83E0D82E49
:103AC0004601F12CAA24A394B12CD8018D918D012B
:103AD000F894E82FE295EF70F0E021A18F70A50136
:103AE00002C0440F551F8A95E2F7CA01922F982B06
:103AF00091A392A18095892382A3789400C0E5E0E8
:103B0000F1E030E020E0E12C4191A42FA295AF70CC
:103B1000B0E090968C9190E04F7002C0959587959B
:103B20004A95E2F780FD48C08A2D022E01C0880F19
:103B30000A94EAF7E82A2F5F3F4F2730310521F733
:103B4000F801319780810E94690750EA5A95F1F790
:103B5000D4018C91E81691F1EC9281E0F82ABFEF44
:103B60008B1A9B0AE1E001311E0709F0AECF1091DC
:103B70001303FF2029F181E08093A4010E9428050E
:103B80009093A3018093A2018091A2019091A3013F
:103B90000E940D050697C0F0E12FF0E0EC5CFC4FB1
:103BA000D6018D916D018193BDE0CB16B3E0DB06AC
:103BB000B9F71092A40108C080E0BCCF80E0CECF5E
:103BC0008091A4018111E0CF0E944D0BE82E6091FD
:103BD0001303882309F4A0C08E010F5F1F4F85E0F7
:103BE000F80111928A95E9F7862F90E0B8018C5C74
:103BF0009C4F0E943826811172C08091A5018F5F71
:103C00008093A501863008F485C0E0911203F0E0AE
:103C1000EC5CFC4FD801CE01069611921D928A17DA
:103C20009B07D9F780918A0290918B020E940D0523
:103C3000893E934060F160918902062F10E066276B
:103C40007727601B710B072E000C880B990B0E94C5
:103C5000BA2927EA39E747E45DE30E94462A4B0187
:103C60005C01B801110F880B990B0E94BA299B01C6
:103C7000AC01C501B4010E941D290E9489296093ED
:103C800089020E94280590938B0280938A0280917A
:103C90009202882371F080919002909191020E948B
:103CA0000D05893E934028F082EE0E941E06109278
:103CB0009202F11001C0FE2C8F2D0F900F900F90EB
:103CC0000F900F90DF91CF911F910F91FF90EF9088
:103CD000DF90CF90BF90AF909F908F9008951092FB
:103CE000A501A0911203B0E0AC5CBC4F9E012A5F1D
:103CF0003F4FE12C4D91F80191918F01491731F01F
:103D0000AD0141505109FA019083E82E02171307C3
:103D100089F788CFE12C86CF70E06C5C7C4F809176
:103D2000120390E08C5C9C4F0E946B26C2CF1F92C6
:103D30000F920FB60F9211242F933F934F935F93DF
:103D40006F937F938F939F93AF93BF93CF93DF93A3
:103D5000EF93FF93D091E900DF708091EC00C82FC2
:103D6000C17080FDC0E81092E9008091F000877F6B
:103D70008093F00078940E942A0C1092E9008091C0
:103D8000F00088608093F000CD2BCF70C093E900E5
:103D9000FF91EF91DF91CF91BF91AF919F918F9163
:103DA0007F916F915F914F913F912F910F900FBE37
:103DB0000F901F9018951F920F920FB60F9211241B
:103DC0002F933F934F935F936F937F938F939F9323
:103DD000AF93BF93EF93FF938091E10082FF09C0FF
:103DE0008091E20082FF05C08091E1008B7F80938B
:103DF000E1008091DA0080FF24C08091D80080FF2C
:103E000020C08091DA008E7F8093DA008091D90003
:103E100080FF9BC080E189BD82E189BD09B400FEBD
:103E2000FDCF81E080934B0380913E03811109C057
:103E30000E947D030E9448048091E2008460809388
:103E4000E2008091E10080FF17C08091E20080FFD6
:103E500013C08091E2008E7F8093E2008091E200A7
:103E600080618093E2008091D80080628093D800C6
:103E700019BC85E080934B038091E10084FF29C049
:103E80008091E20084FF25C080E189BD82E189BD87
:103E900089B5982F917080FFFBCF8091D8008F7DDE
:103EA0008093D8008091E1008F7E8093E100809123
:103EB000E2008F7E8093E2008091E2008160809337
:103EC000E20080914C03882309F445C084E080938C
:103ED0004B038091E10083FF27C08091E20083FFC4
:103EE00023C08091E100877F8093E10082E080938E
:103EF0004B0310924C038091E1008E7F8093E10090
:103F00008091E2008E7F8093E2008091E2008061E8
:103F10008093E20042E060E080E00E94160480911D
:103F2000F00088608093F000FF91EF91BF91AF9116
:103F30009F918F917F916F915F914F913F912F91C1
:103F40000F900FBE0F901F90189519BC10924B0345
:103F500010923E0376CF8091E30087FD93E090932B
:103F60004B03B7CFCDB7DEB7AC970FB6F894DEBF33
:103F70000FBECDBF84B7877F84BF0FB6F894A895D6
:103F800080916000886180936000109260000FBE95
:103F900080E890E00FB6F894809361009093610000
:103FA0000FBE85B7806885BF85B7806885BF87E00D
:103FB00095E090939901809398010E947D030E945F
:103FC00048048091E20084608093E20078948091BC
:103FD0004B038823A1F01091E9001F709091EC0031
:103FE000892F817090FD80E8182B1092E900809154
:103FF000E80083FD0E942A0C1F701093E90082E004
:1040000084BD93E095BD9AEF97BD80936E001092AA
:1040100004031092050310920603109207030E94F6
:104020004D0B8093160180911601882309F494C0EA
:104030001092000185E2809301010E944D0B8111D5
:104040000E940F268091160181112FC0FE01359626
:1040500086E0DF011D928A95E9F786E6898387E984
:104060008A8386EC8B8384E38C8385E38D8334970A
:10407000ACE0B1E0CE010B9621912D938E179F07F6
:10408000D9F787E0E4E3F1E0DE01919601900D922B
:104090008A95E1F7FE01B196A5E0B1E0CE018896E0
:1040A00021912D938E179F07D9F78091160195E0E6
:1040B000811190E09093130385E0891B8093120394
:1040C0000CE011E0F1E1EF2EF1E0FF2EF80181911B
:1040D0008F010E946907E016F106C1F705E011E0C3
:1040E000ECE0EE2EE1E0FE2ED8018D918D010E94D4
:1040F0006907E016F106C1F7E8E0F3E082E193E03A
:10410000A4E3B3E011921D928E179F07D9F70E9486
:10411000491DEFE3FCE93197F1F700C000000E9470
:10412000491D8091340380FF1BC06FEF82E290E055
:104130000E94E8286FEF83E290E00E94E8286FEF8A
:1041400084E290E00E94E8286FEF7FEF90E080E04B
:104150000E9406290E94AA0A85E2809300016BCF83
:1041600090E080E00E94E2288B3E9E4F11F00E947A
:10417000690B0E944D0B811102C00E94152682E23C
:1041800090E00E94D428813209F00EC483E290E0CE
:104190000E94D428883009F007C484E290E00E948D
:1041A000D428883009F000C490E080E00E94E22822
:1041B0008B3E9E4F11F00E94690B82E090E00E94BE
:1041C000D428809329030E94C307909315038093FA
:1041D000140383E090E00E94D428682F70E090E000
:1041E00080E00E94140660915503709156038091FF
:1041F0005703909158030E943E118091160381113C
:1042000039C090E080E00E94E2288B3E9E4F21F072
:104210000E94690B0E94070C88E090E00E94DC2855
:1042200060935C0370935D0380935E0390935F03E0
:1042300080911F03836080931F036E7F71F40E943F
:10424000070C88E090E00E94DC2860935C03709388
:104250005D0380935E0390935F030E94BD0680918F
:104260005C0380FF04C060E086950E94A71081E097
:104270008093160380911601811106C084EF80930C
:10428000180185EF8093170120911801A22FA295A4
:10429000AF70B0E091963C9191972F7081E090E0E3
:1042A000BC01022E01C0660F0A94EAF7462F409522
:1042B000432391964C93919792963C919297362BEB
:1042C00092963C93929740911701E42FE295EF70FC
:1042D000F0E031A14F70042E01C0880F0A94EAF774
:1042E000982F9095932391A392A1892B82A39096C6
:1042F0008C9190E002C0959587952A95E2F78170A0
:1043000020A130E002C0359527954A95E2F792E06A
:1043100020FF90E0892B809327039091160181E084
:10432000982790932603891B8093170385EB95E0CC
:10433000909319038093180380915C0381608093AC
:104340005C0361E086950E94A71060E08AE00E940D
:10435000A71040E56FEF82E30E94A41061E070E0D7
:1043600080E090E00E94FD1189E191E090931B03B1
:1043700080931A0308E110E060E4E62E84E393E002
:104380007AE0F72EF80E80914B03BB24B39440E102
:10439000C42E52E1D52E853009F41CC10E94491D5E
:1043A00081110E941C05EAE2F3E0A4E3B3E0D12C02
:1043B000C12C8C2CAD9081918A1509F42CC18A25D1
:1043C000912CBB24B3949B2D982309F41FC10E9408
:1043D0004D0B882399F099A28AA2AB2081E009F4C1
:1043E00080E08BA30E9428058160782F9DA38CA379
:1043F00049A15AA16BA18DA10E94C61BF601E65DE1
:10440000FC4F8081B826B08280912703E82FEE0F01
:10441000EE0F90911801A92FA295AF70B0E0909681
:104420002C9130E09F7002C0359527959A95E2F760
:104430002170332790911701A92FA295AF70B0E09A
:1044400090964C9150E09F7002C0559547959A9573
:10445000E2F7CA018170992740FF02C082E090E034
:10446000822B8E2B80932703D09026038F70E82F0A
:10447000F0E0E858FE4F808190912503890F8093EA
:10448000250320E0843074F0ED2D0D2C000CFF0B83
:10449000ED5DFC4F80818F5F808360E08D2D0E94F9
:1044A000561C21E0809125038D3F74F4ED2D0D2CD9
:1044B000000CFF0BED5DFC4F80818150808361E03B
:1044C0008D2D0E94561C21E080912503082E000CA2
:1044D000990B64E070E00E94692880932503211104
:1044E0000E94D8050E94AC0690912803891731F0EC
:1044F0000E94AC06809328030E94FB1080914B031E
:10450000843009F040CF83E08093E9008091E80097
:1045100082FF39CF8091E80090E085FF06C00E94BD
:104520009C03882309F490C091E08091E8008B7788
:104530008093E800992309F426CFE981E150E33123
:1045400008F0F8C0F0E0E351F54D0C949C28809100
:104550004B03843009F431C080E00E94FB1080914D
:104560002203811109C0B092220380915C03817003
:10457000809321030E94341D10921C030FB6F894FF
:10458000A895009360000FBEE092600083B7817F22
:10459000846083BF83B7816083BF7894889583B735
:1045A0008E7F83BF0FB6F894A895809160008861D4
:1045B00080936000109260000FBE80914A038823B0
:1045C00049F00E94491DE4E3F3E081918111D6C1D5
:1045D000FE12FBCF80914B03853009F4B8CF0E94C7
:1045E0001F0C0E94AC060E94FB10109222038091C7
:1045F0002103882319F00E941311D0CE809120034B
:10460000882309F4CBCE0E94F10EC8CE9394BB0C44
:1046100027E09212D8CE8FEFC81AD80A9AE0C916AE
:10462000D10409F0C6CE8FEF88A789A71AA60E94E9
:1046300028058160782F9CA78BA748A559A56AA556
:104640008CA50E94C61BE0CE30E2C32ED12CDE0129
:1046500011965D018091E80085FD0AC08091E80017
:104660008B778093E8000E949C03882399F35CCFAA
:104670008091F100F50181935F01F1E0CF1AD1083B
:1046800049F752CF1A8289E08B8311C08A81823028
:1046900009F4A3C18330A9F1813009F04BC00E9415
:1046A0001C050E94A2286B837C838D839E8380914E
:1046B0004B03843009F067CED090E9008D2D8F70C8
:1046C000D82E9091EC00892F817090FD80E8D82A37
:1046D00082E08093E9008091E80080FF0DC050E007
:1046E00040E060E270E0CE0101960E94CD0380912F
:1046F000E8008E778093E8008D2D8F708093E9001D
:1047000042CEDE011396E4E3F3E081918D9323E042
:10471000EE33F207D1F7CBCF8A81823059F46B8127
:104720007C818D819E810E94A22885E290E00E947A
:10473000E828BDCF8FEF8983BACF4C816B818A8106
:104740000E94D1079827892798279E838D83AFCF12
:10475000AD80BE80BA24AB24BA248A81CB809EE08F
:10476000C99E60011124ACE88A9FC00CD11C1124A1
:104770008C8190E0880F991FC80ED91E6B2DC60141
:1047800086960E94E8286A2DC6018796D0CF0E949F
:10479000DE098DCF8A818138B1F058F4803809F074
:1047A00086CF4B8160915E0380915D030E94A410CF
:1047B0007ECF8238A9F0833809F079CF40915F032A
:1047C0006C818B81F3CF60E08B810E94A7108B817D
:1047D000811103C00E94341D6ACF0E94131167CF5C
:1047E0008B818093600363CF8A81813899F030F4A4
:1047F000803809F05CCF80915F0346CF823891F01A
:10480000833809F054CF80915D038B8380915E03E0
:104810008C834DCF80915C0380FF02C0869534CF9E
:1048200080E032CF809160032FCF60915C03709164
:104830005D0380915E0390915F030E94D30B37CF9D
:1048400080E18A8334CF81E08A838AEA1DCFAA80FF
:10485000BB80BA24AB24BA24FE0131966F018C8050
:104860008E0E9F2E911CC5018A5A9D4F8C149D045B
:1048700009F41DCFFAEAAF16F1E0BF0660F40E941A
:10488000D428D60114968C93FFEFAF1ABF0A2FEFEE
:10489000C21AD20AE8CFF6011482F6CFCA80DB80B2
:1048A000DC24CD24DC24CE0101964C01AC80AC0C80
:1048B000BD2CB11CC6018A5A9D4FAC14BD0409F42D
:1048C000F6CEAAEACA16A1E0DA0620F4F401648161
:1048D0000E94E828FFEF8F1A9F0A2FEFC21AD20A10
:1048E000E9CF0E94330AE3CE84E0ABCFAA80BB803D
:1048F000BA24AB24BA24CE0101966C018C80880EB8
:10490000992E911CC50186968C149D0409F4CFCE76
:10491000A0E3AA16A2E0BA0658F40E94D428F60131
:104920008483BFEFAB1ABB0AEFEFCE1ADE0AEACFE1
:10493000D60114961C92F5CFCA80DB80DC24CD24EE
:10494000DC24CE0101964C01AC80AC0CBD2CB11C1A
:10495000C6018696AC14BD0409F4A9CEA0E3CA161C
:10496000A2E0DA0620F4F40164810E94E828FFEF57
:104970008F1A9F0A2FEFC21AD20AEACFC9BCD9BC3C
:1049800009B400FEFDCF8091D8008F7D8093D800C0
:104990008091E00082608093E0008091E00081FDE2
:1049A000FCCF0E941F0C16CE60E085E290E00E94D2
:1049B000E8280E94DE090E94330A61E282E290E068
:1049C0000E94E82868E083E290E00E94E82868E01E
:1049D00084E290E00E94E828E7CB85E290E00E9424
:1049E000D4281B821C821D828E8361CE0F931F935D
:1049F0000E944D0B882321F01F910F910C941C05F0
:104A00000E941C05009104031091050320910603E8
:104A100030910703600F711F821F931F1F910F9129
:104A20000895CF92DF92EF92FF926B017C010E947A
:104A30004D0B81110EC00E941C05C61AD70AE80A48
:104A4000F90AC0920403D0920503E0920603F092A3
:104A50000703FF90EF90DF90CF90089578941F9216
:104A60001FB61F9211248F939F93AF93BF93809192
:104A7000000390910103A0910203B09103030196FA
:104A8000A11DB11D8093000390930103A093020325
:104A9000B0930303BF91AF919F918F911F901FBE61
:104AA0001F9018951F921FB61F9211248F939F93EA
:104AB000AF93BF9380911C03811113C080910003B9
:104AC00090910103A0910203B09103034196A11DAF
:104AD000B11D8093000390930103A0930203B09350
:104AE0000303BF91AF919F918F911F901FBE1F90A5
:104AF0001895FF920F931F93CF93DF93D0911703D5
:104B00000D2F10E00D5D1C4FFC01C081F80180816C
:104B1000C81BFC2E80E01F147CF09C2FC7FD90E08A
:104B2000C91BC11114C08823E9F0DF91CF911F91F7
:104B30000F91FF900C94D805FA94F80180818F5F53
:104B4000808360E08D2F0E94561C81E0E4CFCF5F10
:104B5000F80180818150808361E08D2F0E94561C76
:104B600081E0DFCFDF91CF911F910F91FF900895EA
:104B7000E0912603F0E0ED5DFC4F2081FC012083F5
:104B800008958091890208958093890208951F9362
:104B9000CF93DF93EC01162F8F8184FF03C098859C
:104BA0009093200380FF0CC0888180FF15C09091F6
:104BB0005C03916090935C03612F86950E94A7101F
:104BC0008F8181FF0CC0212F4B816A818981DF9108
:104BD000CF911F910C94F10F0E94341DF1CFDF9102
:104BE000CF911F91089525E0ECE5F3E0DC01019001
:104BF0000D922A95E1F740911D0350911E0360919B
:104C00001F0370912003FC014583568367837087DF
:104C1000089510921F03089580911F03089562E084
:104C200070E084E291E00C94F52662E070E084E2AA
:104C300091E00C94FE260E940C26882361F08EE6FB
:104C400093E00E94F32581E090E00E94D727892B12
:104C500011F40C940926089580916D03883039F47D
:104C600060E08EE693E00E94C72510926D030895E0
:104C7000CF93DF93D62FC72F0E941B2690E080E0B2
:104C80000E94D727009729F5ED2FFC2FDC01A959A9
:104C9000BC4F2C912193019685309105B9F78CE694
:104CA00093E00E9479250E94C125809366030E94AB
:104CB000F6246E5F7F4F8F4F9F4F60936203709318
:104CC0006303809364039093650381E0DF91CF9148
:104CD000089580E0FBCFCF93DF93D62FC72F0E949C
:104CE0002C2660916203709163038091640390911C
:104CF00065030E941125ED2FFC2F90E080E02191AB
:104D0000DC01A959BC4F2C93019685309105B9F768
:104D10008CE693E00E94B82580916603DF91CF91E5
:104D20000C94C4258EE14A9B02C08150E1F74A9B56
:104D3000FECF08955A9880E28A95F1F75A9A08951D
:104D4000FC013BE03A95F1F720E090E080E031E0B3
:104D500040E14A95F1F7880F4A9B02C08160232702
:104D600042E04A95F1F7000040E14A95F1F79F5F74
:104D70006913EECF90E19A95F1F799B132E03A9547
:104D8000F1F7000040E14A95F1F792FB992790F97D
:104D900092272081920F90830895EF92FF920F93B4
:104DA0001F93CF93DF930F92CDB7DEB719828C019B
:104DB0007C01E60EF11C0E151F0561F481E099815E
:104DC000911180E00F90DF91CF911F910F91FF9093
:104DD000EF9008950E94922668E0CE0101960E940D
:104DE000A026F80181938F01E6CF909379038093F9
:104DF000780360937703529A5A9A089590937903AF
:104E0000809378036093770352985A9AEA9AE9E676
:104E1000F0E080818F7C808308956150770B91E072
:104E200001C0990F6A95EAF720E031E0911108C0BE
:104E3000222391F05A9A80E28A95F1F75A980895C0
:104E4000492F482339F05A9A232740E24A95F1F72F
:104E50009695ECCF5A98F9CF5A98EDCFFF920F93D1
:104E60001F93CF93DF93EC018C01060F111DC01728
:104E7000D10731F4DF91CF911F910F91FF900895E9
:104E8000F9900E949A2668E08F2D0E940D27EFCF9F
:104E90001F920F920FB60F9211240F931F932F930F
:104EA0003F934F935F936F937F938F939F93AF93B2
:104EB000BF93EF93FF93CF93DF930F92CDB7DEB7FE
:104EC00019820E94922667E0CE0101960E94A026D8
:104ED000082F069506950695982F92959570202F88
:104EE0002570920F292F2370969596958770920FB3
:104EF000891344C08981811141C080917703801753
:104F0000E8F120E12A95F1F75A9A529A82E08A95BF
:104F1000F1F700C0A8E00A9FC001112400917803B6
:104F200010917903080F191F5A98F80165816623BB
:104F300021F0868197810E942E270E949A26F0E117
:104F4000FA95F1F75A9852985A9A20E12A95F1F772
:104F5000D80112966C911297662331F113968D91B8
:104F60009C910E94CD26D801ED91FC91882311F0EF
:104F700088E001C082E080830E9492260F90DF913A
:104F8000CF91FF91EF91BF91AF919F918F917F91C1
:104F90006F915F914F913F912F911F910F910F90C2
:104FA0000FBE0F901F901895ED91FC91E1CF0F93DC
:104FB0001F93CF93DF9320917703281719060CF4E2
:104FC00071C08C0193E0000F111F9A95E1F7C09119
:104FD0007803D0917903C00FD11FF894529A5A9850
:104FE00025E02A95F1F70000982F96959570857029
:104FF000980F892F837096959695980F092B0E948C
:105000009A2600C067E0802F0E940D2780E18A95D4
:10501000F1F752985A9A4A9B17C087E090E04A9954
:1050200015C06D81662321F18E819F810E94CD265E
:1050300081111EC0529A5A9AE881F98182E08083D8
:10504000789482E090E00DC000C0E5CF019771F444
:10505000529A5A9AE881F98181E08083789481E0BC
:1050600090E0DF91CF911F910F91089500C0D7CFAD
:105070000E94922620E22A95F1F75A98529A80E1EE
:105080008A95F1F76A81662321F08B819C810E94C9
:105090002E270E949A26E881F9811082789490E068
:1050A00080E0DFCF84E090E0DCCFAA1BBB1B51E1A6
:1050B00007C0AA1FBB1FA617B70710F0A61BB70B88
:1050C000881F991F5A95A9F780959095BC01CD012D
:1050D000089597FB072E16F4009407D077FD09D0AA
:1050E0000E94552807FC05D03EF4909581959F4F6E
:1050F0000895709561957F4F0895052E97FB1EF4D6
:1051000000940E94942857FD07D00E94A92807FC0C
:1051100003D04EF40C9494285095409530952195E9
:105120003F4F4F4F5F4F08959095809570956195D3
:105130007F4F8F4F9F4F0895EE0FFF1F0590F49103
:10514000E02D0994692796276927782787277827EC
:105150000895A1E21A2EAA1BBB1BFD010DC0AA1FB8
:10516000BB1FEE1FFF1FA217B307E407F50720F0D0
:10517000A21BB30BE40BF50B661F771F881F991F4B
:105180001A9469F760957095809590959B01AC0194
:10519000BD01CF010895FB01DC0102C005900D9215
:1051A00041505040D8F70895F999FECF92BD81BD86
:1051B000F89A992780B50895A6E1B0E044E050E060
:1051C0000C940E29A8E1B0E042E050E00C940E29C6
:1051D000262FF999FECF92BD81BDF89A019700B4B0
:1051E000021639F01FBA20BD0FB6F894FA9AF99A50
:1051F0000FBE08950396272F0E94E9280E94E828F1
:10520000252F0E94E928242F0C94E9280196272FA6
:105210000E94E9280C94E828DC01CB01FC01F999F3
:10522000FECF06C0F2BDE1BDF89A319600B40D92F2
:1052300041505040B8F708955058BB27AA270E9404
:1052400034290C940C2A0E94FE2938F00E94052A69
:1052500020F039F49F3F19F426F40C94FB290EF446
:10526000E095E7FB0C94F529E92F0E941D2A58F3DD
:10527000BA17620773078407950720F079F4A6F53B
:105280000C943F2A0EF4E0950B2EBA2FA02D0B01A3
:10529000B90190010C01CA01A0011124FF27591B7B
:1052A00099F0593F50F4503E68F11A16F040A22F81
:1052B000232F342F4427585FF3CF469537952795F2
:1052C000A795F0405395C9F77EF41F16BA0B620BF1
:1052D000730B840BBAF09150A1F0FF0FBB1F661F38
:1052E000771F881FC2F70EC0BA0F621F731F841F7B
:1052F00048F4879577956795B795F7959E3F08F0A1
:10530000B0CF9395880F08F09927EE0F9795879562
:1053100008950E94252A88F09F5798F0B92F992761
:10532000B751B0F0E1F0660F771F881F991F1AF090
:10533000BA95C9F714C0B13091F00E943F2AB1E08C
:1053400008950C943F2A672F782F8827B85F39F08B
:10535000B93FCCF3869577956795B395D9F73EF429
:1053600090958095709561957F4F8F4F9F4F0895D1
:10537000E89409C097FB3EF49095809570956195EF
:105380007F4F8F4F9F4F9923A9F0F92F96E9BB27A5
:105390009395F695879577956795B795F111F8CF21
:1053A000FAF4BB0F11F460FF1BC06F5F7F4F8F4F8C
:1053B0009F4F16C0882311F096E911C0772321F082
:1053C0009EE8872F762F05C0662371F096E8862F1A
:1053D00070E060E02AF09A95660F771F881FDAF771
:1053E000880F9695879597F9089597F99F6780E8B4
:1053F00070E060E008959FEF80EC089500240A9427
:105400001616170618060906089500240A9412169F
:105410001306140605060895092E0394000C11F4D2
:10542000882352F0BB0F40F4BF2B11F460FF04C07F
:105430006F5F7F4F8F4F9F4F089557FD9058440FD8
:10544000551F59F05F3F71F04795880F97FB991FE3
:1054500061F09F3F79F087950895121613061406A0
:10546000551FF2CF4695F1DF08C01616170618062D
:10547000991FF1CF86957105610508940895E89408
:10548000BB2766277727CB0197F908950E94592AF1
:105490000C940C2A0E94FE2938F00E94052A20F064
:1054A000952311F00C94F5290C94FB2911240C94EC
:1054B000402A0E941D2A70F3959FC1F3950F50E07A
:1054C000551F629FF001729FBB27F00DB11D639FB6
:1054D000AA27F00DB11DAA1F649F6627B00DA11D5C
:1054E000661F829F2227B00DA11D621F739FB00D02
:1054F000A11D621F839FA00D611D221F749F332772
:10550000A00D611D231F849F600D211D822F762F0A
:105510006A2F11249F5750409AF0F1F088234AF0E7
:10552000EE0FFF1FBB1F661F771F881F9150504053
:10553000A9F79E3F510580F00C94F5290C94402A60
:105540005F3FE4F3983ED4F3869577956795B795DA
:10555000F795E7959F5FC1F7FE2B880F911D9695F4
:10556000879597F90895F894FFCFC909C909D20919
:10557000D209D409D209D209D209C909C909D9095C
:10558000D209D209D9090F0D370D8A0D370D8A0DB1
:105590006A0DA20D8A0D9F0EAC0E5F175F17B8172C
:1055A000B817EA179217921792170418D818E81824
:1055B000E8188716D716F116F616FB16001705170A
:1055C0000A170F17141719171E1789128912891233
:1055D00089128912891221178912422346238C23AA
:1055E0009D23A823C723CA23F42315249A239A238F
:1055F0002024232427244E247124742476249C24DC
:10560000004A004A4A36323331F7F6676697C634A5
:1056100035000000000001F4F50A057D0A0905794E
:105620000A750A0161030562030667036D03096ECB
:1056300003000000F6F73133323667000102020240
:1056400002020202020202818283E200E900EA0011
:10565000B500B600B700CD008301CC008A019201ED
:1056600094012102230224022502260227022A0293
:10567000B300B4006F00700000FF0100010000FFE4
:10568000FF0000010001FF0040223246012401F228
:0856900000D705F0051006002B
:00000001FF
