:100000000C9434030C947B030C947B030C94912785
:100010000C947B030C947B030C947B030C947B0368
:100020000C947B030C947B030C94241F0C94E01E13
:100030000C949B250C947B030C947B030C947B0306
:100040000C947B030C947B030C947B030C947B0338
:100050000C947B030C9477250C947B030C947B030A
:100060000C947B030C947B030C947B030C947B0318
:100070000C947B030C947B030C947B030C947B0308
:100080000C947B030C947B030C947B030C947B03F8
:100090000C947B030C947B030C947B030C947B03E8
:1000A0000C947B030C947B030C947B0337032B642D
:1000B000A0FF000000001C032B6496FF000000005E
:1000C00004032B64A0FF000000000000D7FF78FFAE
:1000D00000000000000080FF64FF0000000000003E
:1000E0001EFF78FF0000000000005FFF5AFF0000C5
:1000F000000005010980A101850319012AB7001537
:100100000126B700950175108100C0050C0901A1F9
:1001100001850419012AA002150126A00295017586
:10012000108100C00660FF0961A101096215002667
:10013000FF009520750881020963150026FF0095D0
:100140002075089102C005010906A101050719E003
:1001500029E71500250195087501810295017508AB
:1001600081010507190029FF150026FF0095067576
:100170000881000508190129059505750191029569
:100180000175039101C0000101010101010101019B
:100190000202020202020202020303030303030338
:1001A0000304040404040404050505050506060605
:1001B0000606070707070708080808090909090AC2
:1001C0000A0A0B0B0B0C0C0C0D0D0D0E0E0E0F0F67
:1001D0000F101011111112121313141415151616F5
:1001E0001717181819191A1A1B1B1C1D1D1E1E1F64
:1001F0002020212222232424252626272829292AB3
:100200002B2C2D2D2E2F30313232333435363738DA
:10021000393A3B3C3D3E3F404142434445464748D6
:10022000494A4C4D4E4F50515354555658595A5BAC
:100230005D5E5F616264656668696B6C6D6F70724C
:10024000737577787A7B7D7E8082838587888A8CB8
:100250008E8F91939596989A9C9EA0A2A3A5A7A9EC
:10026000ABADAFB1B3B5B7BABCBEC0C2C4C6C9CBE3
:10027000CDCFD1D4D6D8DBDDDFE2E4E7E9EBEEF099
:10028000F3F5F8FAFDFFFFAA7F55401C1004010D9D
:10029000190A24232221201F1E1D1B1A18171615A8
:1002A000141312110F0E0C0B0908070605030200A8
:1002B0002D3945483C303F25262728292A2B2C2E2E
:1002C0002F31323334353637383A3B3D3E404142A8
:1002D000434446474935001E001F002000210022EC
:1002E000000000290014001A000800150017008003
:1002F000002B0004001600070009000A000000E1BE
:10030000001D001B000600190005008100A800E385
:1003100000E200E0000251280000002D0027002626
:100320000025002400230000002A00130012000C06
:100330000018001C004B00340033000F000E000DAD
:10034000000B000000E500380037003600100011F7
:10035000004E00E700E600E40003512C000000001E
:100360000046000100010001000100010000000141
:1003700000170014001A0008001500010001000A0F
:100380000004001600070009000000010005001D20
:10039000001B00060019000100010001000100011E
:1003A0000048002C000000010001000100010001D4
:1003B00000010000002A000100010001000100010D
:1003C0000001000100010001000100010001000026
:1003D0000001000100010001000100010001000115
:1003E0000001000100035101000100000001003A7A
:1003F000003B003C003D003E00000035001E001F99
:1004000000200021002200010001001E021F022026
:100410000221022202000001002E002D002E022FD8
:10042000022F020100010001000100010001000192
:10043000000000440043004200410040003F000033
:10044000004500270026002500240023000100317C
:1004500002270226022502240223020000010031A5
:10046000003302370030002F0001000100010001BD
:100470000001000100010000000100010001000175
:100480000001000100000001000100010001000165
:100490000001000100010001000100010001000154
:1004A0000000000100010001000100010001000145
:1004B0000001000100010001000100010000000135
:1004C000000100010001000100010000004C004992
:1004D000004D0052004A0001000100010001004FE0
:1004E000005100500001000000010001004E000119
:1004F000004B003900010001000100010001000172
:1005000000010000000000000000000000000000EA
:1005100000000000000000000000000000000000DB
:100520000000000000000000007E0F00D4FFFFFF6D
:10053000C70000007800000000000000002A2B28FF
:1005400000000000000000000000000000000000AB
:1005500029000000002C1E342021222434262725C7
:100560002E362D3738271E1F2021222324252633FF
:1005700033362E37381F0405060708090A0B0C0D01
:100580000E0F101112131415161718191A1B1C1D13
:100590002F3130232D350405060708090A0B0C0DF1
:1005A0000E0F101112131415161718191A1B1C1DF3
:1005B0002F3130354CE800DE00D400CA00C000B650
:1005C00000AC00000009025B00030100A0FA09046E
:1005D0000000010301010009211101000122400076
:1005E0000705810308000A09040100020300000056
:1005F00009211101000122220007058203200001C8
:1006000007050303200001090402000103000000A4
:100610000921110100012232000705840320000A8C
:10062000120110010000000832FC871202000102D2
:1006300000011E0353006F006C006100720069002E
:10064000750073005F0053006F0066006C0065006A
:10065000000010034B006500790068006900760017
:10066000650000000403090411241FBECFEFDAE087
:10067000DEBFCDBF04B603FE27C080917B039091FF
:100680007C03A0917D03B0917E038730904BA740FF
:10069000B04BD1F410927B0310927C0310927D0337
:1006A00010927E0314BE84B7877F84BF0FB6F89480
:1006B000A89580916000886180936000109260002E
:1006C0000FBEE0E0F8E3099511E0A0E0B1E0E2E957
:1006D000F6E502C005900D92A839B107D9F723E0DD
:1006E000A8E9B1E001C01D92AB37B207E1F70E9463
:1006F000FB1F0C94FC2A0C940000E8EDF0E08081D4
:100700008E7F80831092E2001092DA001092E10056
:10071000A0EEB0E08C9181608C9380818F77808394
:1007200019BCA7EDB0E08C918E7F8C9380818F7E79
:10073000808310923F0308952091E4003091E500FA
:1007400095E6A9012091EC00822F817020FF06C060
:100750008091E80080FF06C080E008952091E800C5
:1007600022FD1AC080914C03882389F0853089F0DE
:100770008091EB0085FD0FC02091E4003091E500F1
:1007800042175307F9F29150E1F684E0089582E0B0
:10079000089583E0089581E00895EF92FF920F930A
:1007A0001F93CF937C018B010E949C03C82F811162
:1007B00017C08091E80085FD0BC08091E8008E771E
:1007C0008093E8000E949C03882399F3C82F08C0F7
:1007D000F70181917F018093F1000150110949F7E0
:1007E0008C2FCF911F910F91FF90EF9008958091E2
:1007F0004E0387FF13C08091E80082FF06C08091FE
:10080000E8008B778093E80004C080914C0381114D
:10081000F2CF089580914C038823D9F38091E800AA
:1008200080FFF8CF8091E8008E77ECCF982F9093DF
:10083000E900242F762F50E0891731F07091EC00F9
:100840002091ED005091F00021FD07C09F5F97308F
:1008500071F78093E90081E008953091EB003E7FCD
:100860003093EB003091ED003D7F3093ED003091FF
:10087000EB0031603093EB007093EC002093ED00BF
:100880005093F0002091EE0027FDE0CF80E0089526
:10089000CF92DF92EF92FF920F931F93CF93DF934C
:1008A000C8EDD0E088818F7E8883E7EDF0E080811D
:1008B0008160808384E082BF81E080933F038881F0
:1008C0008E7F888302EE10E0F80110821092DA0029
:1008D00081EEC82ED12CF601108288818F77888313
:1008E00088818068888388818F7D888319BC109275
:1008F0004C0310924D0310924B0310924A0390EE5A
:10090000E92EF12CF70180818B7F808388818160C3
:10091000888342E060E080E00E941604F601808156
:100920008E7F8083F80180818160808380818860F0
:100930008083F70180818E7F8083888180618883B6
:10094000DF91CF911F910F91FF90EF90DF90CF90AB
:100950000895FC01809154039091550386179707E1
:10096000A0F06115710529F49091E8009E779093AD
:10097000E80090E06115710551F4911108C0809173
:10098000E80082FF34C080E00895BC01F2CF80917E
:100990004C038823C1F18530C1F18091E80083FDCB
:1009A00030C08091E80082FDEACF8091E80080FFAE
:1009B000E1CF8091F3002091F200382F611571058D
:1009C00019F02830310558F091E02830310509F050
:1009D00090E02091E8002E772093E800CBCF819122
:1009E0008093F100615071092F5F3F4FE7CF8091F5
:1009F0004C03882341F0853041F08091E80083FF6B
:100A0000BECF81E0089582E0089583E0089580E0FC
:100A1000089508958091410308959C014FB7F8947B
:100A20008091010390910203A0910303B09104030C
:100A30004FBF821B930B08952FB7F8946091010369
:100A40007091020380910303909104032FBF0895D6
:100A50002FB7F8948091010390910203A0910303B2
:100A6000B09104032FBF08959C01FC0132969FEFC3
:100A700080E04191461751F09F3F19F4411101C0A8
:100A8000982F8F5F8630A9F79F3F09F40895290FAB
:100A9000311D97FD3A95F901628308958091FC021A
:100AA00081111092FC0208958091FB029091FA024C
:100AB000892B9091F902892B80939A019091FC02E5
:100AC000992391F0892B80939A0120E08CE991E0A1
:100AD000FC013191CF0131112F5FF1E0823A9F0784
:100AE000B9F721110E944E05E0911B03F0911C0300
:100AF000309731F00280F381E02D8AE991E009948A
:100B0000089527E0929F800D1124982F9770869565
:100B10008695869525E0829FF0011124E553FD4FCF
:100B200050E040E080E0219130E0092E02C036958F
:100B300027950A94E2F721703327042E01C0220F73
:100B40000A94EAF7822B4F5F5F4F4530510559F702
:100B5000089527E0929F800D1124982F977041E00F
:100B600001C0440F9A95EAF786958695869595E09B
:100B7000899FF0011124E553FD4F90E080E070E083
:100B80005191DF0111979B01082E02C036952795E0
:100B90000A94E2F7217021952527242325272C93F9
:100BA00001968530910561F708958091CA02909170
:100BB0009902981301C008958F5F8770FACF882338
:100BC00041F080959091FB0289238093FB020C9465
:100BD00054050895882339F09091FB02982B909347
:100BE000FB020C94540508950C941C052091870277
:100BF000309188022817390771F09093880280930A
:100C00008702E0911B03F0911C03309721F00084D0
:100C1000F185E02D09940895209185023091860296
:100C20002817390771F09093860280938502E0912E
:100C30001B03F0911C03309721F00680F781E02D13
:100C40000994089590E080E00E940C0690E080E016
:100C50000E94F6051092FA021092F9020C945405C3
:100C60006093FD027093FE028093FF029093000355
:100C70000C9422068823B1F19CEF980F913A70F4FE
:100C8000ECE9F1E09191891303C0DF0111971C9207
:100C900041E0E23AF407B1F70C94540590E2980F62
:100CA000983088F4877021E030E0A90102C0440F39
:100CB000551F8A95E2F7CA0180959091FB0289231E
:100CC0008093FB02E9CF9BE5980F933020F490E0EE
:100CD00080E00C940C06885A873120F490E080E084
:100CE0000C94F6050895CF93C82F882309F44EC0BD
:100CF0008CEF8C0F813AF8F4ECE9F1E082EA91E0B4
:100D0000DF012D91C21759F08A179B07D1F76C2F7D
:100D10008AE991E00E943405CF910C945405219109
:100D2000C21303C0DF0111971C928E179F07B9F7FA
:100D30000E945405ECCF80E28C0F883068F4C770B5
:100D400021E030E001C0220FCA95EAF78091FB0252
:100D5000822B8093FB02E0CFEBE5EC0FE33040F415
:100D6000F0E0E95BFE4F808190E0CF910C940C069F
:100D7000C85AC73158F4EC2FF0E0EE0FFF1FE65BC6
:100D8000FE4F80819181CF910C94F605CF9108950B
:100D9000E0911B03F0911C03309721F00190F0814A
:100DA000E02D099480E00895FA01811101C0FB0152
:100DB000099480915D03982F9E7F61F48170826019
:100DC00080935D0380916003853B18F084EB8093F2
:100DD000600308958831B0F381708661F1CFAF92DE
:100DE000BF92DF92EF92FF920F931F93CF93DF9307
:100DF000082F162FE901E42FF0E0EA57FE4F6111AA
:100E000010C0E4915E2F4E2F4983E8835A83DF910F
:100E1000CF911F910F91FF90EF90DF90BF90AF9017
:100E20000895E62EF12C4491D42EE42FF0E026E034
:100E3000829FC00111242FEF30E0B9010E949E284B
:100E4000802F90E0880F991F55E5569FD001579F3E
:100E5000B00D11248A1B9B0B982F990F890F5901F4
:100E6000AE18BF08AE9ED001AF9EB00DBE9EB00DB5
:100E700011245B2F189F80011124012F1127590184
:100E8000A01AB10AAE9E8001AF9E100DBE9E100D3D
:100E900011245901A81AB108AE9CC001AF9C900D55
:100EA000BE9C900D1124892F9927281B390B2E9F4A
:100EB000C0012F9F900D3E9F900D1124E92F6230AD
:100EC0007105A1F050F46115710509F49DCF6130F1
:100ED000710581F0EB2F512F97CF6430710569F0C8
:100EE00080F06630710509F48FCFF4CFE42F4B2FDB
:100EF000592F8ACFE42F412F87CFEB2F542F492F23
:100F000083CF4B2F5D2DE12F7FCFF894E82FE29513
:100F1000EF70F0E031A1282F2F7081E090E001C048
:100F2000880F2A95EAF7982F9095932391A392A181
:100F3000892B82A3789408959091150392FF06C09F
:100F4000282F28712830F9F4877F846093FF06C02A
:100F5000282F28712831F1F4877E846120911603AF
:100F600020FF06C0382F38713830D9F4877F816070
:100F700021FF06C0282F28712831D1F4877E816196
:100F800094FD877E0895282F24712430F9F68B7FF5
:100F90008860DCCF282F2471243101F78B7E886193
:100FA000DDCF382F3171313019F78E7F8860E0CF77
:100FB000282F2171213121F78E7E8861E1CFCF93D7
:100FC00084E090E00E941D29C82F81E290E00E94F9
:100FD0001D29982F8C2FCF9108950F931F93CF9396
:100FE000DF93C42FD0E0CC0FDD1F2EE0629FC00D39
:100FF000D11D11243CE8839FC00DD11D1124CE01C9
:1010000086960E941D29082F10E0102F0027CE0180
:1010100087960E941D299801282BC901DF91CF9145
:101020001F910F910895462F843038F47A3028F4B8
:10103000673018F4672F0C94ED0790E080E0089576
:10104000CF93DF930E941308EC0182389105A9F138
:10105000D8F58133910509F496C048F58932910598
:1010600009F48AC08A9709F495C0C11522E5D20710
:1010700008F0B6C0C11531E5D30708F026C1C83E57
:10108000D10508F09CC0C03ED10560F5C83AD10535
:1010900008F087C0C53AD10508F0EFC0C130D105CE
:1010A00009F12097F9F0C430D105E0F440C0853350
:1010B000910509F45AC0C997C1F680911503837050
:1010C00089F0C0EED0E00EC0833E910599F170F436
:1010D000803E910501F1823E910539F6809115031C
:1010E00082FD21C0CE01DF91CF910895863E91050A
:1010F00061F1873E910571F1843E910509F0B5CF0C
:101100008091160381FFEECF80911503C7EED0E0EA
:1011100084FD0DC0E7CF8091150380FD07C190913C
:10112000160390FFDFCFC3EED0E084FFDBCFD0E02B
:10113000C0E0D8CF8091150382FDFBC090911603CB
:1011400090FDBFCF84FFCECFF2CF8091150383FDFA
:10115000DDCFC8CF8091150383FDEEC090911603BB
:1011600091FFF0CFC4EED0E0BDCF8091150385FF95
:10117000B9CFC9E2D0E0B6CF8091150385FFB2CFD9
:10118000C5E3D0E0AFCF8091150386FFABCFCAE2B5
:10119000D0E0A8CF8091150386FFA4CFC1E3D0E0B3
:1011A000A1CFCF3BD10518F6C85AD0E0CC0FDD1F38
:1011B000C65BDE4F0990D881C02DD46493CFC11592
:1011C00040E5D40708F064C0C11580E4D80708F0F2
:1011D0005CC0CE019A9581159F4108F483CFA7CFBB
:1011E000C11536E5D30718F5C11545E5D40708F054
:1011F00084C0C11584E5D80708F07AC09C2F969565
:1012000096959E0123703327C115D34508F462C01B
:10121000C1E0D0E002C0CC0FDD1F2A95E2F730E23A
:10122000939FC0011124C82BD92BDA685BCFC1155D
:101230008AE5D80778F4C11599E5D90708F068C0A0
:10124000C11528E5D20708F472CFDC2FCC27C06F78
:10125000D06A48CFCE0190568115904208F067CFF2
:101260008D2F8F710E949C0790E0982F88278827E8
:101270009F719C012C2BE90149C0C55AD0E0C95B84
:10128000DE4FC881D0E0D0642DCFDF70D06A2ACF86
:10129000CE01E4E096958795EA95E1F783702C2FCF
:1012A00026952695237040E2249F90011124382B27
:1012B0008C2F8370C1E0D0E002C0CC0FDD1F8A9577
:1012C000E2F7C22BD32BDC680DCFDC2FCC27C16F0C
:1012D000D06A08CFC1E0D0E002C0CC0FDD1F2A9554
:1012E000E2F720E2929FC0011124C82BD92BEBCF4B
:1012F000DC2FCC27C46FD06AF5CE8C2F0E949C07C0
:10130000C82FD0E0DC2FCC27CC27DF71D062EACE0B
:101310008C2F8F700E949C0734E0D695C7953A9524
:10132000E1F7CF709C2FEC01D069DCCEC9E3D0E0AF
:10133000D9CEC2EED0E0D6CEC6EED0E0D3CEBF92AC
:10134000CF92DF92EF92FF920F931F93CF93DF9391
:101350008C01C0905603D0905703E0905803F09052
:1013600059038091FD029091FE02A091FF02B0917D
:101370000003C82AD92AEA2AFB2ACFE1D0E0BC2EF2
:10138000D701C6010C2E04C0B695A79597958795F1
:101390000A94D2F780FD0EC0219788F7B12C8B2DCF
:1013A000DF91CF911F910F91FF90EF90DF90CF9041
:1013B000BF900895B8018C2F0E942008019761F317
:1013C000EECFCF93DF93EC010E949F09BE01DF9126
:1013D000CF910C9420080E94E109292F2F7092953B
:1013E0009F7092509E3078F4E92FF0E0E250F54D76
:1013F0000C94E528803F19F020F4883E20F481E029
:101400000895843FE1F380E00895883EC0F3813F72
:10141000D1F7F5CF822F86958695869508956F92A0
:101420007F928F929F92AF92BF92CF92DF92EF9274
:10143000FF920F931F93CF93DF9385EDC82E82E029
:10144000D82E90ECE92EF12CE701CC58D1093601C9
:101450001BC0F50185909490692DC8010E94312927
:10146000682DC80101960E94312982E0A80EB11CA6
:101470000E5F1F4FC017D10761F78EE0680E711C19
:101480002E96CE15DF0529F08E010E50110953015D
:10149000E0CF7E018CE8E80EF11C8CE8C80ED11C70
:1014A00080EFE81682E0F80679F6DF91CF911F9180
:1014B0000F91FF90EF90DF90CF90BF90AF909F90F3
:1014C0008F907F906F900895CF93DF93C6E5D2E021
:1014D00060E0CE010E9431292196C11584E0D80731
:1014E000B9F7DF91CF910895CF93DF9300D00F929A
:1014F000CDB7DEB790914C03943011F589837B838F
:101500006A839093E9008FEF9091E800815095FDF8
:1015100006C095ED9A95F1F700008111F5CF809105
:10152000E80085FF0DC050E040E063E070E0CE01D0
:1015300001960E94CD038091E8008E778093E800A9
:101540000F900F900F90DF91CF910895BC0184E030
:101550000C94740ABC0183E00C94740ACF93DF935B
:10156000EC0181E08093E9008FEF9091E8008150D9
:1015700095FD06C095ED9A95F1F700008111F5CF24
:101580008091E80085FF14C050E040E068E070E022
:10159000CE010E94CD038091E8008E778093E80011
:1015A00088E0FE01A2E4B3E001900D928A95E1F794
:1015B000DF91CF91089581E08093E00080E28093F5
:1015C000D8001092C9008FE19EE40197F1F700C0A6
:1015D000000087E090EBDC0180937B0390937C0319
:1015E000A0937D03B0937E0388E19CE00FB6F8944E
:1015F000A895809360000FBE90936000FFCF1F936B
:10160000CF93DF93182FCAE0D0E0893311F4C0E5FF
:10161000D0E0812F0E9473068FE99FE00197F1F7D8
:1016200000C000002197C1F7812FDF91CF911F915A
:101630000C943A060F931F93CF93DF93C62FD42FAA
:10164000022FFC0182818823A1F060935C030E9439
:10165000280590935B0380935A03C77081E001C013
:10166000880FCA95EAF7DF91CF911F910F910C94E3
:10167000EA0580915C03681335C080915A0390910C
:101680005B030E940D058436910560F510E21D0F85
:10169000CD17B9F080E28C0F883040F4C77081E03C
:1016A00001C0880FCA95EAF70E94DF05183048F498
:1016B00081E09D2F977001C0880F9A95EAF70E94EC
:1016C000EA05802F0E94FF0A183098F4D77081E055
:1016D00001C0880FDA95EAF7DF91CF911F910F9142
:1016E0000C94DF05C77081E001C0880FCA95EAF746
:1016F000F3CFDF91CF911F910F9108958091A601B3
:10170000811111C08091D80080618093D8008AE156
:101710008A95F1F700C09091D900892F817090FFD0
:1017200082E08093A60181E09091A601913009F0BA
:1017300080E008956BEE7EEF90E080E00E944F29FC
:1017400060E082E090E00E94312960E083E090E078
:101750000E9431291092FD021092FE021092FF02A7
:101760001092000360E084E090E00E94312960E084
:1017700081E290E00E94312960E085E090E00E94E3
:10178000312960E086E090E00E9431296FEF87E028
:1017900090E00E94312940E050E0BA0188E090E0FA
:1017A0000E94432960E08DE090E00E94312940E0F2
:1017B00050E0BA0188E190E00E94432960E087E1AF
:1017C00090E00E94312940E050E0BA018CE190E0C5
:1017D0000E94432960E080E290E00E94312940E0CD
:1017E00050E0BA0188E190E00E94432940E050E0D7
:1017F000BA018FE090E00E94432940E050E0BA0136
:1018000083E190E00C944329CF92DF92EF92FF9214
:101810006B017C010E94D906B701A60188E090E027
:10182000FF90EF90DF90CF900C944329809161035B
:10183000882319F081508093610360915D0370915A
:101840005E0380915F03909160030C94040C80917F
:101850006103833018F48F5F8093610360915D03AF
:1018600070915E0380915F03909160030C94040C6F
:10187000EDE5F3E083E0808311828FEF828384EBD8
:1018800083831482AEE1B3E012968C911297836049
:1018900012968C9360817181828193810C94040CE7
:1018A0001092FB02ECE9F1E086E0DF011D928A95DF
:1018B000E9F70C9422061F93CF93DF93CDB7DEB7E1
:1018C000AA970FB6F894DEBF0FBECDBF8EE493E0AB
:1018D0002091F100DC012D93CD01B3E086359B070B
:1018E000B9F780914F03833009F471C0B8F48130A7
:1018F00009F448C0823009F4B2C08091E80083FF47
:101900003AC180914E0390914F039A3008F033C151
:10191000E92FF0E0E45FF44D0C94E5288A3009F4F7
:101920008DC08B3009F470C0893039F780914E0337
:10193000813219F78091520390915303009711F06F
:101940000297D9F68091E800877F8093E800809124
:10195000E80082FF37C09091F3008091F200029777
:1019600029F48091F1008B7F813021F48091F10086
:10197000809341038091E8008B778093E8000E9478
:10198000F703BBCF80914E03813A09F0B6CF809127
:10199000E800877F8093E800809152039091530381
:1019A000892B61F468E082E493E070E00E94A9046E
:1019B0008091E8008B778093E8009FCF60E090E013
:1019C00080E0F3CF80914C038111C1CF96CF8091FD
:1019D0004E03813A09F091CF8091520390915303C5
:1019E000892B09F08ACF8091E800877F8093E800F7
:1019F0008091E80080FFFCCF809123018093F1006B
:101A00008091E8008E77B9CF80914E03813209F042
:101A100074CF8091520390915303892B09F06DCFBD
:101A20008091E800877F8093E8000E94F70380910F
:101A30005003809323010E94500C5FCF80914E038E
:101A4000813209F05ACF8091E800877F8093E800C7
:101A50000E94F70380915103809340034ECF809101
:101A60004E03813A09F049CF8091E800877F809347
:101A7000E8008091E80080FFFCCF80914003BECF5A
:101A8000803899F0823809F076C0809152038F70C7
:101A9000873008F070C08093E9008091EB0085FBEF
:101AA000882780F91092E90006C080914A0390913E
:101AB0004B03911182609091E800977F9093E8002A
:101AC0008093F1001092F1008091E8008E77B5C10B
:101AD000882309F4A2C1823009F04DC080915003DF
:101AE0008111A6C1809152038F702FEF280F2630ED
:101AF00008F041C08093E9002091EB0020FF98C1DD
:101B0000933031F48091EB0080628093EB0090C1C0
:101B10009091EB0090619093EB0021E030E001C0E8
:101B2000220F8A95EAF72093EA001092EA0080914A
:101B3000EB008860EACF81111EC0109150031F771F
:101B40008091E3008078812B8093E3008091E8000E
:101B5000877F8093E8000E94F7038091E80080FF70
:101B6000FCCF8091E30080688093E30082E0111154
:101B700083E080934C038091E80083FF0AC080914A
:101B8000E800877F8093E8008091EB00806280937B
:101B9000EB00AA960FB6F894DEBF0FBECDBFDF9163
:101BA000CF911F9108958058823028F720915003DB
:101BB000309151032C3DE3E03E07A1F583E08A8399
:101BC0008AE289834FB7F894DE01139620E03EE065
:101BD00051E2E32FF0E050935700E49120FF03C05F
:101BE000E295EF703F5FEF708E2F90E0EA30C0F02B
:101BF000C7968D939D932F5F243159F74FBF8091E6
:101C0000E800877F8093E8006AE270E0CE010196E9
:101C10000E94A9048091E8008B778093E800ABCF05
:101C2000C096E7CF8091520390915303432F5527DD
:101C30004330510509F44AC078F54130510509F4A3
:101C40007AC08BE590E0E5ECF5E04230510509F013
:101C500092CF2091E800277F2093E8002091540341
:101C6000309155038217930708F49C0140E0211539
:101C7000310509F065C0411163C08091E80082FD23
:101C8000C9CF80914C03882329F2853019F28091C5
:101C9000E80083FFF2CFBECF4132510509F43CC0CA
:101CA0004232510509F067CF8330910508F063CFC8
:101CB000FC01EE0FFF1FE557FE4F0190F081E02D74
:101CC00088579E4FDC018C9190E01AC03327213059
:101CD0003105D1F02115310561F02230310509F0CF
:101CE0004ACFE2E3F6E0E4918E2F90E0E2E3F6E003
:101CF00007C0E4E6F6E0E4918E2F90E0E4E6F6E03B
:101D0000009709F438CFA5CFE2E5F6E0E4918E2FF5
:101D100090E0E2E5F6E0F4CF8330910508F02BCFB8
:101D2000880F991FFC01EF56FE4F0190F081E02DC6
:101D300089E090E08ECF82E190E0E0E2F6E089CFAA
:101D400080914C03882309F465CF853009F462CF74
:101D50008091E80083FD5ECF8091E80082FD8DCF09
:101D60008091E80080FF83CF9091F3008091F20092
:101D70002115310519F08830910550F041E00897A0
:101D800009F040E08091E8008E778093E8006FCF03
:101D900044914093F1003196215031090196E8CFEA
:101DA000803809F0E8CE8091E800877F8093E800D2
:101DB00080914D038093F10087CE8111DCCE10918C
:101DC0005003123008F0D7CE8091E800877F8093CF
:101DD000E80010934D030E94F703112311F084E0F3
:101DE00005C08091E30087FDFACF81E080934C032A
:101DF00042E061EC81E00E94160442E261EC84E082
:101E00000E94160442E261EC82E00E94160442E263
:101E100060EC83E00E941604AECE809150038130C6
:101E200009F0A9CE81E0933009F080E080934B0364
:101E30001092E9008091E800877F8093E8000E947B
:101E4000F70399CE4F925F926F927F928F929F92FB
:101E5000AF92BF92CF92DF92EF92FF920F931F93B8
:101E6000CF93DF93CDB7DEB7CE5DD1090FB6F8942F
:101E7000DEBF0FBECDBF5090010180915D0380FF9A
:101E80005DC08090190390901A038114910409F0A9
:101E900068C0EBE8F2E09E012F5F3F4FBE01615248
:101EA0007F4FC901A4914A2F50E0DA01AA0FBB1F4E
:101EB000A40FB51FA955BE4FCD90DD90EC90D90170
:101EC000CD92DD92ED929D0131966A177B0751F715
:101ED0002091000143E0249F800D911D1124539A0D
:101EE0002BB1277F3BB138605FB7F894BC01549E9B
:101EF000600D711D11248617970709F090C05FBF10
:101F00008FE594E00197F1F700C00000C252DF4F67
:101F10000FB6F894DEBF0FBECDBFDF91CF911F91FA
:101F20000F91FF90EF90DF90CF90BF90AF909F9078
:101F30008F907F906F905F904F90089580910201F5
:101F40009091030123E0829FF0011124E955FE4F97
:101F5000891708F096CF1182108212828F5F339614
:101F6000F7CF80912303811194CFD12CC12C66240B
:101F70006394712C53E0452E8091210393010C2C26
:101F800001C0220F0A94EAF7822309F43FC0F60148
:101F9000EE0FFF1FE80DF91DE590F490E114F10438
:101FA00009F477CF45E050E0B701CE0101960E94D9
:101FB000142909810F3F51F18A81800F9927991FB8
:101FC0008B34910514F08AE490E05C01AA0CBB1CF0
:101FD0008A0D9B1DDC01A955BE4F5D01049D80014A
:101FE000112409551E4F0A151B0520F0B5E0EB0E14
:101FF000F11CD8CF4D81453B08F044EB98016C8132
:102000008B810E94EF060D5F1F4FEDCFEFEFCE1AD1
:10201000DE0AF8E0CF16D10409F0AECF3ACFFC01CA
:102020004191CF01E8E03BB9000000C047FF2BB968
:10203000440F000000C000C000C02BB900C0EA95EA
:1020400091F759CFAF92BF92CF92DF92EF92FF926A
:102050000F931F93CF93DF9300D00F92CDB7DEB7CE
:10206000082FF62E142FE22E80915D0380FF4FC0C3
:10207000E82FE695AE2FB0E0A55CBE4F9C91909303
:102080001E038E7F823009F056C0453B08F044EBBA
:102090009E012F5F3F4F6F2D802F0E94EF06809192
:1020A0005D0380FF11C02B8139814A81809102013B
:1020B0009091030153E0859FF0011124E955FE4FF3
:1020C000891798F10E94220F80915E03801308C047
:1020D00080915F038F1104C080916003811729F004
:1020E0008091200382608093200300935E03F0922E
:1020F0005F0310936003EE2051F060915D037091D7
:102100005E0380915F03909160030E94040C0F9026
:102110000F900F90DF91CF911F910F91FF90EF9053
:10212000DF90CF90BF90AF9008954183308322839A
:102130008F5F3396C5CF923039F6E2508E2F817083
:10214000D82EE695F0E0EA57FD4FA590B490C12C4B
:10215000BB2460910401C61608F0B4CF2C2D30E0EA
:10216000A29EC001A39E900DB29E900D112470E01E
:102170000E949E28802FD11016C0860F4091020128
:10218000420F532F511D9A01220F331F240F351F69
:1021900029553E4F412F153B08F044EB6F2D0E940F
:1021A000EF06C394D6CF861BE9CF20E00C94221013
:1021B00090915D0390FF26C0917081111CC09260C8
:1021C00090935D03809120038160809320036623B8
:1021D00051F060915D0370915E0380915F03909177
:1021E00060030E94040C4091600360915F03809142
:1021F0005E030C94D5108C3010F09661E1CF880FFF
:10220000982BDECF089521E030E0A90102C0440FF1
:10221000551F8A95E2F7CA01209121036623C1F078
:10222000822B80932103809120038061809320037F
:1022300080911F03811106C080915D0360E0869547
:102240000E94D81080915D0380FD05C00C94220F80
:1022500080958223E6CF0895CF93DF93C82FC17076
:1022600082FBDD27D0F981FB662760F984E00E94BC
:10227000031161E06C2785E00E9403116D2F86E059
:10228000DF91CF910C940311EDE5F3E08081816043
:10229000808360E086950C94D81080915D038695CC
:1022A000815009F48BE061E00C94D81080915D03BB
:1022B00086958F5F8C3008F081E061E00C94D81037
:1022C00080915D0380FF07C0869582588F778930A3
:1022D00010F40C94561161E082E00C94D810CF9267
:1022E000DF92EF92FF920F931F936B017C0161E0ED
:1022F000C114D104E104F10409F06C2D617080E097
:102300000E94031160E0C114D104E104F10441F022
:10231000D701C601B695A79597958795682F6170E7
:1023200081E00E94031160E0C114D104E104F104D2
:1023300059F0D701C60102E0B695A7959795879504
:102340000A95D1F7682F617082E00E94031160E066
:10235000C114D104E104F10459F0D701C60113E01E
:10236000B695A795979587951A95D1F7682F6170BF
:1023700083E00E940311A7016627772780E14115BA
:1023800051056105710519F4B701A60180E0052F1B
:10239000162F272F3327011511052105310519F0B7
:1023A000885FB901A8018A019B01F4E03695279561
:1023B00017950795FA95D1F70115110521053105F6
:1023C00019F08C5FB901A8018A019B01E2E0369502
:1023D000279517950795EA95D1F701151105210560
:1023E000310519F08E5FB901A8017695679557956B
:1023F0004795452B462B472B09F08F5F8130E1F045
:10240000882351F08230F1F0833011F10E944411A1
:1024100040E56FEF80E405C00E94441140E56FEF96
:1024200082E30E94D510C701B6011F910F91FF9062
:10243000EF90DF90CF9008950E94441140E56FEF38
:1024400088E0EFCF0E94441140E56FEF86E7E9CFC7
:102450000E94441140E56FEF8AEDE3CF0E946F11B7
:1024600060935603709357038093580390935903D6
:102470000C9422060F931F9360915603709157039B
:1024800080915803909159038B019C01067011278C
:1024900022273327063011052105310529F468600C
:1024A0001F910F910C942E12677FFACF0F931F93F9
:1024B00041E050E060E070E004C0440F551F661F2B
:1024C000771F8A95D2F7CB01BA01609570958095F8
:1024D0009095009156031091570320915803309125
:1024E000590360237123822393231F910F910C942E
:1024F0002E129091F802809589238093F802282F5C
:10250000277071F4282F082E000C330B9217130636
:1025100039F08595859585950E9456121092F8029E
:1025200008950F931F9341E050E060E070E004C015
:10253000440F551F661F771F8A95D2F78091560367
:1025400090915703A0915803B09159038A019B01C0
:10255000082B192B2A2B3B2BC901B8011F910F9176
:102560000C942E123F924F925F926F927F928F92B5
:102570009F92AF92BF92CF92DF92EF92FF920F9312
:102580001F93CF93DF9300D000D00F92CDB7DEB76B
:102590008C01FC0183819481892B31F080819181B0
:1025A00089238F3F09F0D6C60F900F900F900F90A0
:1025B0000F90DF91CF911F910F91FF90EF90DF90DF
:1025C000CF90BF90AF909F908F907F906F905F90D3
:1025D0004F903F9008950E949F09F82E682F89819F
:1025E0009A810E94A90569817A818F2D0E94130822
:1025F0007C01F8018281882309F460C0C7019056EC
:102600008115F0E29F0750F0905E811520E192075E
:1026100028F0915C81159F4108F08BC0C701992774
:102620009C01245031092432310520F08B970E97FC
:1026300008F044C080918A0290918B020097C1F10A
:102640000E940D05C0908902D12C9C0150E040E011
:1026500060E67AEE80E090E00E94C628CA01B901E7
:1026600025E030E040E050E00E94C628622F70E094
:102670006C197D09072E000C880B990B0E94032A08
:1026800027EA39E747E45DE30E948F2A4B015C01AA
:10269000B601DD0C880B990B0E94032A9B01AC014B
:1026A000C501B4010E9466290E94D2296093890263
:1026B0000E94280590938B0280938A02F801828100
:1026C000882309F43AC6970122513F45203131054C
:1026D00008F0FBC58FEF93E00E941D29FEEEEF0E80
:1026E00056E5852E52E0952E8823D1F18091F8028F
:1026F000877009F459CFF8018281882309F454CFF7
:1027000082E00F900F900F900F900F90DF91CF917C
:102710001F910F91FF90EF90DF90CF90BF90AF90FF
:102720009F908F907F906F905F904F903F900C9410
:1027300079128FEFE816F10421F018F090E080E0B4
:102740006FCFC7016DCF811424E0920679F2C401E6
:102750000E941D29811101C0EA943FEF831A930A58
:10276000E110F1CF1C821B82442443944AE0342EB2
:1027700074018FEFE81AF80AC4010E941D298983A9
:102780001A82882309F4B2CF9FEF980F933000F597
:102790008A83498292E0890E911CC7010E941D29FB
:1027A0008B83882309F4A2CFFE0131967F01F701C4
:1027B00020812223E9F2213009F049C091818281F0
:1027C000913041F4F2E0EF0EF11C0E94FF0A09C0C3
:1027D0004701EACF923049F422E0E20EF11C0E9458
:1027E00073063FEFE31AF30AE2CF933031F432E09D
:1027F000E30EF11C0E943A06F4CF943021F08FEFE3
:10280000E81AF80AEECF92E0E90EF11C30E020E081
:10281000B7016F5F7F4FF70141818053990B8A3079
:10282000910550F021503109E0F28FE99FE00197C6
:10283000F1F700C00000F6CF329EF001339EF00D9C
:1028400011249C012E0F3F1F842F7B01E1CFE22F2B
:10285000F0E0EB5CFA4F5490822F86958695869532
:1028600090E0FC01EB5DFA4F64902770712C022E12
:1028700002C0759467940A94E2F7E1E06E2277242F
:10288000FC01EB5EFA4FA490B12C022E02C0B5946D
:10289000A7940A94E2F7F1E0AF22BB24FC01EB5FBE
:1028A000FA4FC490D12C02C0D594C7942A95E2F770
:1028B00021E0C222DD246114710419F081EE0E942E
:1028C0007306A114B10419F086EE0E947306852DDB
:1028D0000E94FF0AAB2819F086EE0E943A0667288C
:1028E00019F081EE0E943A06CD2809F47ACF8CE2E5
:1028F0006CCF81E00E9491120E943A12F7CE81E0E3
:102900000E945612F9CF82E0F5CF22E8E2162FE5B9
:10291000F20609F4A6C033E8E3163FE5F30609F032
:10292000EEC4882309F4B6C080918E02811109C0DB
:1029300081E080938E0281EE0E94730683EE0E94F6
:1029400073060E94280590938D0280938C0281EE7D
:102950000E94730680E513C0882369F1809191027B
:10296000811106C081E08093910282EE0E9473067D
:102970000E9428059093900280938F028BE20E9420
:1029800073061CC08823A1F080919102811106C0BA
:1029900081E08093910282EE0E9473060E942805D6
:1029A0009093900280938F0281EE0E947306E6CF8F
:1029B00081EE0E943A068BE20E943A06F80192816B
:1029C000992309F4D8C410925C03F2E0EF16FCE5F9
:1029D000FF0608F47CC126E1E2162CE5F20638F089
:1029E00097012A5F3C452930310508F070C10E94EB
:1029F000DF07909316038093150330E1E3163CE55F
:102A0000F30609F433C108F0B2C098E0E9169CE57A
:102A1000F90609F421C108F07BC0F4E0EF16FCE5EB
:102A2000FF0609F411C108F05DC032E0E3163CE591
:102A3000F30609F4FFC083E0E8168CE5F80609F414
:102A4000FFC060911503F090160384E090E00E94AF
:102A500031296F2D81E290E00E9431290E94500CB3
:102A600045CE8823A9F080918E02811109C081E0B2
:102A700080938E0281EE0E94730683EE0E9473069D
:102A80000E94280590938D0280938C028FE477CF6B
:102A90008FE492CF80E590CF35EFE3163CE5F30667
:102AA000D1F0A8F027E245EE66EE96EFE9169CE538
:102AB000F90609F083CFC8010E941A0B17CE27E24E
:102AC00045EE65EEF8CF26E241EE60EEF4CF27E268
:102AD00045EE64EEF0CF26E241EE62EEECCF28E266
:102AE00041E0EFCF80911503806196E0E9169CE507
:102AF000F90609F4A2C0809115038860E7E0EE169C
:102B0000ECE5FE0608F499C080911503806295C03B
:102B1000809115038D7FFCE0EF16FCE5FF0609F4BC
:102B20008CC078F4809115038C603AE0E3163CE5A4
:102B3000F30609F482C008F493C0809115038E7FD8
:102B40007CC080911503877F9EE0E9169CE5F9061D
:102B500009F473C0809115038B7FEFE0EE16ECE56E
:102B6000FE0608F46AC0809115038F7E66C0FBEFF5
:102B7000EF16FCE5FF0609F46BC068F533E1E316D8
:102B80003CE5F30609F47AC090F491E1E9169CE57E
:102B9000F90609F46FC0E2E1EE16ECE5FE0609F075
:102BA00050CF0E94500C809115038F7746C0F5E1FD
:102BB000EF16FCE5FF0609F469C008F47DC08091BA
:102BC000160381603AEFE3163CE5F30609F039CFCE
:102BD0008093160336CF8FEFE8168CE5F80609F4DC
:102BE00051C0A0F4809116038D7FEDEFEE16ECE559
:102BF000FE0671F3809116038E7FFEEFEF16FCE563
:102C0000FF0630F3809116038360E2CF21E0E216E5
:102C10002DE5F20609F459C008F444C060E082E0F2
:102C2000E8168DE5F80609F00CCF8EE090E00E94E2
:102C3000312907CF8091150381608093150301CF5F
:102C4000809115038260F9CF809115038460F5CFE0
:102C5000809116038260BCCF809115038064EDCF14
:102C60000E94500C809115038068E7CF8091150376
:102C70008F7DE3CF809115038F7BDFCF809115038C
:102C8000837FDBCF809116038C7FA2CF80911503C9
:102C900082FB992790F921E0922790FB82F990FB23
:102CA00083F9CBCF80911603982F909591708E7FEA
:102CB000892B90FB81F98CCF0E94500C90911503C9
:102CC000892F97FB87F98058B8CF61E0AECFE6E156
:102CD000EE16ECE5FE0609F061C38091FB028A7AEC
:102CE00091E009F490E09093920269E2811165E32A
:102CF0008AE991E00E9434050E945405F7CC809146
:102D0000920281110FC089E2ECE9F1E022EA31E0A0
:102D10009191891303C0DF0111971C922E173F0771
:102D2000B9F7EACF85E3F0CF80915D0380FF1EC045
:102D30008E7F80935D0360915D0370915E0380914F
:102D40005F03909160030E94040C809120038160D6
:102D500080932003FFEF20E732E0F1502040304025
:102D6000E1F700C000000E94220FC0CC8160809378
:102D70005D0361E086950E94D810B8CC4DE451E126
:102D800066E571E10E94D406B1CC46E551E16DE4FF
:102D900071E1F8CF46E55DE16FE57DE1F3CF4FE509
:102DA0005DE166E57DE1EECF4EE35DE16AE47DE164
:102DB000E9CF4AE45DE16EE37DE1E4CF46E25DE127
:102DC00062E37DE1DFCF42E35DE166E27DE1DACF00
:102DD00046E15CE067E27CE0D5CF47E25CE066E19B
:102DE0007CE0D0CF61E081E0C6CF0E9460117ECC54
:102DF0000E94500C8FEF94E3ECE081509040E04053
:102E0000E1F700C000000E94DB0A0E949A0B6ECC22
:102E1000C7010E948105D82EDAC22F2D2F70A22E55
:102E20008F2D807F19F0A29490EFA922DD20C9F0A8
:102E3000AA2069F080E28E0D883010F081100BC05E
:102E40008091FB02A82AA092FB020E9454058E2DBD
:102E50000E94730619C08091FA02A82AA092FA0271
:102E6000F4CF8E2D0E943A06AA2071F0A09480E241
:102E70008E0D883010F081103FC08091FB02A82297
:102E8000A092FB020E945405232D2850330B2430BE
:102E9000310520F40E94C8060E942C11CC2009F4B0
:102EA00083CB8091F80280FD7FCBF801128285955B
:102EB000859585950E949112C8010E94B212809159
:102EC000F8028595859585950F900F900F900F903E
:102ED0000F90DF91CF911F910F91FF90EF90DF90B6
:102EE000CF90BF90AF909F908F907F906F905F90AA
:102EF0004F903F900C9456128091FA02A822A09213
:102F0000FA02C0CF3F2D3F70932E8F2D807F8032ED
:102F100019F0929480EF9822882071F081E0881651
:102F200061F1DD20B9F1AA2071F1F801858180FFFE
:102F30008ECF8F70858327C0DD2091F09091FC02A9
:102F4000892D892BA11003C00E94EA059DCFE1E0E5
:102F5000AE12FACF981709F497CF8093FC0294CF62
:102F6000A11006C00E944E05892D0E94DF058CCF5E
:102F7000F1E0AF1609F488CFF5CFDD2031F025E080
:102F80002A1508F481CF892DDFCF34E03A1508F4F3
:102F90007BCFEACFAA2041F3F9E38F128EC12FEF46
:102FA00037EE83E0215030408040E1F700C0000060
:102FB0008E2D0E943A0668CF8F2D86958695837058
:102FC00061F0813009F060CFC7019370D11002C069
:102FD00090E080E00E94F60557CFC7019370D110B2
:102FE00002C090E080E00E940C064ECF8F2D8370CF
:102FF00009F066C0D11048CF8E2D829586958770D6
:10300000880F880F6E2D6F70462E512C712C612CFD
:10301000082E04C0440C551C661C771C0A94D2F779
:1030200040E050E0BA01E4FE0FC04FE050E060E045
:1030300070E004C0440F551F661F771F8A95D2F7B2
:1030400040955095609570958F2D869586958370E7
:10305000823019F1D8F48090FD029090FE02A09089
:10306000FF02B0900003813069F044295529662998
:103070007729CB01BA01682179218A219B210E94FD
:10308000300602CF482859286A287B28CB01BA018C
:103090006429752986299729F2CF4429552966295B
:1030A00077294090FD025090FE026090FF027090E0
:1030B0000003CB01BA016425752586259725DFCF4E
:1030C0008695DD2011F08F2D8170882309F4DCCEE8
:1030D0008E2D829586958770880F880F6E2D6F7064
:1030E000462E512C712C612C082E04C0440C551C0A
:1030F000661C771C0A94D2F740E050E0BA01E4FE67
:103100000FC04FE050E060E070E004C0440F551F76
:10311000661F771F8A95D2F74095509560957095F8
:103120008F2D869586958370823019F1D8F4809022
:10313000560390905703A0905803B09059038130E4
:1031400069F04429552966297729CB01BA016821FC
:1031500079218A219B210E942E1296CE4828592837
:103160006A287B28CB01BA01642975298629972909
:10317000F2CF44295529662977294090560350906B
:1031800057036090580370905903CB01BA0164252E
:10319000752586259725DFCFFF2DFF70FF2EDD20BB
:1031A00029F08F2F0E9491128E2DCECE8E2D0E944F
:1031B000DF058F2D0E94561267CE8E2D22EF8216CC
:1031C00009F452C0281578F030EF831621F191EF01
:1031D000891609F441C0DD2009F46AC0A11037CE78
:1031E0008F2D8F713EC0E3EF8E1609F442C0F4EFCD
:1031F0008F12F1CFDD2009F450C08F2D8F71F82E82
:103200000E949112E8E0FE9EC00111248360809329
:10321000F8028F2D26C0DD20D1F024E02A1508F415
:1032200033CE2F2D2F7161E070E080E090E004C07C
:10323000660F771F881F991F2A95D2F74090560373
:10324000509057036090580370905903A0CF35E019
:103250003A1508F419CEE5CF8F2D8F71DD2009F4D2
:10326000A9CF0E94911210CE8F2D8F71DD20C9F34E
:10327000A1CF60E070E0CB01DD2009F46CCF2F2DF1
:103280002F7161E070E080E090E004C0660F771F6E
:10329000881F991F2A95D2F75ECF81E00E9479128C
:1032A000F1E0FA1508F0F0CD82E00E947912ECCD41
:1032B000AA2041F0893309F472CEEFE3FCE931979B
:1032C000F1F774CE8F2D8F7175CFF0E1EF16FFE51A
:1032D000FF0609F40ECB21E1E2162FE5F20609F410
:1032E00012CB91E8E9169FE5F90609F44BCB08F0FB
:1032F0000CCBF0E8EF16FFE5FF0609F42DCB83EFCA
:10330000E8168CE5F80609F4DECB08F0C5CBE8ED4D
:10331000EE16ECE5FE0609F4D2CBF9EDEF16FCE56E
:10332000FF0609F4DCCB27EDE2162CE5F20609F0E6
:1033300045CB26E241EE61EEBECB30E1E3163FE540
:10334000F30609F4DCCA91E1E9169FE5F90649F6AE
:1033500082E0D6CA85E0DE01119601900D928A9531
:10336000E1F7F801228189819A81211134C90E94F3
:103370008105F82E38C9F6E1EF16FCE5FF0609F4E1
:10338000BECC8091FB028272F701E25CFC45E43125
:10339000F10578F4EA5EF44D0C94E528E1142CE58F
:1033A000F20609F425CD3EEDE3163CE5F30609F4FB
:1033B0002CCDF801E080F180992309F429CDC701D3
:1033C0000E949F09D82E682FC7010E94A905B70146
:1033D0008D2D0E9420087C01882EF801D280A580C6
:1033E000A2943FE0A3228091F8028770A1F0CD2C37
:1033F000DD2091F08F2D807F803421F080E28E0DD2
:10340000883048F082E00E9479128091F80287703B
:10341000CC24C3948111C12C3F2C32942FE0322252
:10342000FBE0F31508F430CDE32DF0E0E65DF44D5C
:103430000C94E5281F93CF93DF9380919802807FAF
:10344000A9F480919502882389F08091CA02D091D5
:1034500099026091930270919402A0919602B091AA
:103460009702C62FC72316E0D81304C0DF91CF916F
:103470001F91089590E0109711F0CF3F19F4019635
:103480008770F2CF189F9001199F300D1124F90118
:10349000E656FD4F41814713F2CF40814613EFCFEF
:1034A00042814111ECCF438154814A1B5B0B44366E
:1034B000510528F7809198028F708061809398025F
:1034C000F901E156FD4F80818F708061808383E92F
:1034D00092E00E94B212DF91CF911F910C94D5051A
:1034E000AF92BF92CF92DF92EF92FF920F931F9312
:1034F000CF93DF93CDB7DEB761970FB6F894DEBFF9
:103500000FBECDBF8C0185E0F801DE011D96019054
:103510000D928A95E1F7F80180819181E28023E99B
:10352000A22E22E0B22E6091960270919702611550
:10353000710509F43EC13091930240919402232F0A
:1035400024232F3F09F435C1C380D480F090950225
:10355000F601E61BF70BFF2009F4FBC0209198024F
:10356000522F507FE436F10508F0BBC0511178C0EE
:10357000FE2C491321C038131FC0E1101DC02F704D
:10358000206120939802C5010E94B2128091980296
:10359000F80185838F2D61960FB6F894DEBF0FBEBC
:1035A000CDBFDF91CF911F910F91FF90EF90DF90F2
:1035B000CF90BF90AF900895CD2829F0282F2923D0
:1035C0002F3F09F014C120E0F22FF170DF2E20FF11
:1035D0003DC02091CA024091990256E0241315C0C3
:1035E0008D879E878D859E850E94E109292F2295D2
:1035F0002F702230F8F0243020F59F70F9F0F80198
:103600009581907FD9F4D12C1FC030E0529FF001FA
:10361000539FF00D1124E656FD4F6181961306C0AD
:103620006081861303C06281E61210C02F5F3F4F96
:103630002770D4CF9F7011F0882329F3805E8830E3
:1036400010F3C8010E94B212FD2CA4CFEE2009F4A1
:10365000A1CF80919802816080939802F12C9ACF3B
:10366000491312C0381310C0E1100EC0F8012583B1
:10367000C8010E94B21286E0F801A3E9B2E001900D
:103680000D928A95E1F786CF8D879E878D859E85E1
:103690000E94EB09882309F1EE20F9F0809198024D
:1036A000803270F0209193023091940238872F83FA
:1036B0001986DB86CA868C87CE0107960E94B212D5
:1036C00086E0F801A3E9B2E001900D928A95E1F756
:1036D0000E941A1AFF24F3945DCFC8010E94B2120F
:1036E000F9CF51110AC083E992E00E94B21286E03C
:1036F000F50111928A95E9F7B1CF49130FC038133C
:103700000DC0E1100BC0F8012583C8010E94B21260
:1037100086E0F50111928A95E9F73CCF8D879E8767
:103720008D859E850E94EB098823B9F2EE20A9F2CF
:1037300080919802803220F220919302309194027D
:103740003A8329831B82DD82CC828E83CE0101964F
:10375000B5CFE436F105E0F6FE2CEE2009F4BDCF3E
:10376000491316C0381314C08091980280FD83CF8E
:10377000982F907F09F47FCFF8018583903F09F45B
:1037800077CF982F907F905F8F70892B858370CF34
:103790008D879E878D859E850E94EB09811190CF34
:1037A00080919802816080939802C8010E94B212B1
:1037B000F1CEEE2009F491CF8D879E878D859E8571
:1037C0000E94EB09F82E882309F487CF86E0F801E0
:1037D000A3E9B2E001900D928A95E1F780919302FE
:1037E000909194020E94E1090E941A1AD3CE21E01E
:1037F0002E25EACE1F93CF93DF93CDB7DEB7679721
:103800000FB6F894DEBF0FBECDBF342F4B8B252FE4
:103810005C8B6D8B7E8B8F8B8E899F896111109253
:10382000FA021A8A198A3D872E876F87998B888BAF
:1038300086E0FE013D96DE01179601900D928A9575
:10384000E1F7CE0107960E94701A882389F016E0EE
:103850008091CA0290919902891349C067960FB668
:10386000F894DEBF0FBECDBFDF91CF911F910895B9
:1038700086E0FE013796DE01119601900D928A9541
:10388000E1F78A859B85892B11F38F8198858923A0
:103890008F3FE9F22091990230E0C90101968770CB
:1038A00099274091CA024817190671F40E94500CDA
:1038B000109299021092CA0286E0E3E9F2E0DF0179
:1038C0001D928A95E9F7C3CF96E0929FD001939F0E
:1038D000B00D1124A656BD4FFE01319601900D92F8
:1038E0009A95E1F7809399020E94D505B0CF819F08
:1038F000C001112486569D4F0E94701A882309F436
:10390000ADCF8091CA0290E001968770992780938D
:10391000CA029ECF0F931F93CF93DF93CDB7DEB72D
:10392000A8970FB6F894DEBF0FBECDBF81114DC072
:1039300006E0662359F10CA311E01DA31EA30E940B
:1039400028058160782F98A78FA34CA15DA16EA157
:1039500088A50E94FA1B0F8F18A319A20E942805A0
:103960008160782F9BA38AA34F8D58A169A18BA159
:103970000E94FA1B81E0A8960FB6F894DEBF0FBE36
:10398000CDBFDF91CF911F910F9108950A8F13E062
:103990001B8F81E08C8F0E9428058160782F9E8F7D
:1039A0008D8F4A8D5B8D6C8D8E8D0E94FA1B0D8BD9
:1039B0001E8B1F8A0E9428058160782F998F888F1F
:1039C0004D895E896F89898DD3CF813099F66623C1
:1039D000F1F016E0188B198B8A8B0E942805816004
:1039E000782F9C8B8B8B488959896A898C890E9496
:1039F000FA1B1B871C871D860E9428058160782F73
:103A00009F878E874B855C856D858F85B1CF06E05E
:103A10000E8318E01F8388870E9428058160782F15
:103A20009A8789874E815F8168858A850E94FA1B03
:103A300009831A831B820E9428058160782F9D8349
:103A40008C8349815A816B818D8192CFEDE5F3E0C2
:103A5000438121E1421B08F440E021E06281818141
:103A60000C942210EDE5F3E0438121E1420F08F4CC
:103A70004FEF21E0628181810C942210EDE5F3E0AB
:103A8000628121E1621B08F460E021E043818181D1
:103A90000C942210EDE5F3E0628121E1620F08F45D
:103AA0006FEF21E0438181810C942210EDE5F3E07A
:103AB000818121E04381628188500C942210EDE5E0
:103AC000F3E0818121E043816281885F0C942210C0
:103AD000EDE5F3E080818E7F8083EEE1F3E082818B
:103AE000816082832FEF80E792E0215080409040F8
:103AF000E1F700C000000C94220F8F929F92AF92CA
:103B0000BF92CF92DF92EF92FF920F931F93CF93CA
:103B1000DF9300D000D00F92CDB7DEB70CE011E0FC
:103B200089E0C82E83E0D82E4601F12CAA24A39464
:103B3000B12CD8018D918D01F894E82FE295EF70AA
:103B4000F0E021A18F70A50102C0440F551F8A9596
:103B5000E2F7CA01922F982B91A392A18095892315
:103B600082A3789400C0E5E0F1E030E020E0E12CB1
:103B70004191A42FA295AF70B0E090968C9190E007
:103B80004F7002C0959587954A95E2F780FD48C031
:103B90008A2D022E01C0880F0A94EAF7E82A2F5FC7
:103BA0003F4F2730310521F7F801319780810E947E
:103BB000850750EA5A95F1F7D4018C91E81691F1F6
:103BC000EC9281E0F82ABFEF8B1A9B0AE1E0013109
:103BD0001E0709F0AECF10911403FF2029F181E0F8
:103BE0008093A4010E9428059093A3018093A201D1
:103BF0008091A2019091A3010E940D050697C0F04B
:103C0000E12FF0E0EB5CFC4FD6018D916D018193CB
:103C1000BEE0CB16B3E0DB06B9F71092A40108C0F2
:103C200080E0BCCF80E0CECF8091A4018111E0CFB5
:103C30000E947E0BE82E60911403882309F4B5C01E
:103C40008E010F5F1F4F85E0F80111928A95E9F709
:103C5000862F90E0B8018B5C9C4F0E9481268111D9
:103C600087C08091A5018F5F8093A501863008F4FD
:103C70009AC0E0911303F0E0EB5CFC4FD801CE0159
:103C8000069611921D928A179B07D9F780918A0296
:103C900090918B020E940D05893E934060F16091E6
:103CA0008902062F10E066277727601B710B072E0D
:103CB000000C880B990B0E94032A27EA39E747E496
:103CC0005DE30E948F2A4B015C01B801110F880B44
:103CD000990B0E94032A9B01AC01C501B4010E940B
:103CE00066290E94D229609389020E942805909338
:103CF0008B0280938A0280919102882371F08091D7
:103D00008F02909190020E940D05893E934028F009
:103D100082EE0E943A061092910280918E028823D0
:103D200089F080918C0290918D020E940D05893E50
:103D3000934040F081EE0E943A0683EE0E943A06DC
:103D400010928E02F11001C0FE2C8F2D0F900F905B
:103D50000F900F900F90DF91CF911F910F91FF90D7
:103D6000EF90DF90CF90BF90AF909F908F9008958D
:103D70001092A501A0911303B0E0AB5CBC4F9E0173
:103D80002A5F3F4FE12C4D91F80191918F01491726
:103D900031F0AD0141505109FA019083E82E02172C
:103DA000130789F773CFE12C71CF70E06B5C7C4F08
:103DB0008091130390E08B5C9C4F0E94B426C2CF8D
:103DC0001F920F920FB60F9211242F933F934F9390
:103DD0005F936F937F938F939F93AF93BF93CF9393
:103DE000DF93EF93FF93D091E900DF708091EC00B7
:103DF000C82FC17080FDC0E81092E9008091F000EA
:103E0000877F8093F00078940E945B0C1092E90009
:103E10008091F00088608093F000CD2BCF70C0932C
:103E2000E900FF91EF91DF91CF91BF91AF919F9109
:103E30008F917F916F915F914F913F912F910F9053
:103E40000FBE0F901F9018951F920F920FB60F92F2
:103E500011242F933F934F935F936F937F938F938F
:103E60009F93AF93BF93EF93FF938091E10082FF05
:103E700009C08091E20082FF05C08091E1008B7F44
:103E80008093E1008091DA0080FF24C08091D80007
:103E900080FF20C08091DA008E7F8093DA008091CD
:103EA000D90080FF9BC080E189BD82E189BD09B452
:103EB00000FEFDCF81E080934C0380913F03811190
:103EC00009C00E947D030E9448048091E200846042
:103ED0008093E2008091E10080FF17C08091E200B2
:103EE00080FF13C08091E2008E7F8093E20080917A
:103EF000E20080618093E2008091D800806280932C
:103F0000D80019BC85E080934C038091E10084FFC8
:103F100029C08091E20084FF25C080E189BD82E153
:103F200089BD89B5982F917080FFFBCF8091D80013
:103F30008F7D8093D8008091E1008F7E8093E10097
:103F40008091E2008F7E8093E2008091E2008160A8
:103F50008093E20080914D03882309F445C084E0FA
:103F600080934C038091E10083FF27C08091E200A1
:103F700083FF23C08091E100877F8093E10082E08E
:103F800080934C0310924D038091E1008E7F8093CB
:103F9000E1008091E2008E7F8093E2008091E20058
:103FA00080618093E20042E060E080E00E941604BD
:103FB0008091F00088608093F000FF91EF91BF91B5
:103FC000AF919F918F917F916F915F914F913F91B1
:103FD0002F910F900FBE0F901F90189519BC109243
:103FE0004C0310923F0376CF8091E30087FD93E06E
:103FF00090934C03B7CFCDB7DEB7AC970FB6F8941C
:10400000DEBF0FBECDBF84B7877F84BF0FB6F894E5
:10401000A895809160008861809360001092600094
:104020000FBE80E890E00FB6F89480936100909303
:1040300061000FBE85B7806885BF85B7806885BF82
:1040400087E095E090939901809398010E947D0309
:104050000E9448048091E20084608093E20078949A
:1040600080914C038823A1F01091E9001F7090917A
:10407000EC00892F817090FD80E8182B1092E900E8
:104080008091E80083FD0E945B0C1F701093E90093
:1040900082E084BD93E095BD9AEF97BD80936E005A
:1040A0001092050310920603109207031092080362
:1040B0000E947E0B8093160180911601882309F4DB
:1040C00094C01092000185E2809301010E947E0B52
:1040D00081110E9458268091160181112FC0FE0186
:1040E000359686E0DF011D928A95E9F786E6898399
:1040F00087E98A8386EC8B8384E38C8385E38D83D5
:104100003497ACE0B1E0CE010B9621912D938E1740
:104110009F07D9F787E0E4E3F1E0DE019196019093
:104120000D928A95E1F7FE01B196A5E0B1E0CE01CE
:10413000889621912D938E179F07D9F780911601AC
:1041400095E0811190E09093140385E0891B8093A2
:1041500013030CE011E0F1E1EF2EF1E0FF2EF80186
:1041600081918F010E948507E016F106C1F705E0F5
:1041700011E0ECE0EE2EE1E0FE2ED8018D918D01F4
:104180000E948507E016F106C1F7E9E0F3E083E15C
:1041900093E0A5E3B3E011921D928E179F07D9F724
:1041A0000E947D1DEFE3FCE93197F1F700C00000AC
:1041B0000E947D1D8091350380FF1BC06FEF82E25E
:1041C00090E00E9431296FEF83E290E00E94312954
:1041D0006FEF84E290E00E9431296FEF7FEF90E073
:1041E00080E00E944F290E94DB0A85E28093000153
:1041F0006BCF90E080E00E942B298B3E9E4F11F008
:104200000E949A0B0E947E0B811102C00E945E26C2
:1042100082E290E00E941D29813209F00EC483E2FF
:1042200090E00E941D29873009F007C484E290E0E5
:104230000E941D29873209F000C490E080E00E94AE
:104240002B298B3E9E4F11F00E949A0B82E090E04A
:104250000E941D2980932A030E94DF079093160372
:104260008093150383E090E00E941D29682F70E081
:1042700090E080E00E9430066091560370915703F1
:1042800080915803909159030E946F1180911703F8
:10429000811139C090E080E00E942B298B3E9E4F17
:1042A00021F00E949A0B0E94380C88E090E00E9456
:1042B000252960935D0370935E0380935F03909361
:1042C0006003809120038360809320036E7F71F4EC
:1042D0000E94380C88E090E00E94252960935D03DD
:1042E00070935E0380935F03909360030E94D906EE
:1042F00080915D0380FF04C060E086950E94D81025
:1043000081E08093170380911601811106C084EF2C
:104310008093180185EF8093170120911801A22F37
:10432000A295AF70B0E091963C9191972F7081E08B
:1043300090E0BC01022E01C0660F0A94EAF7462FF6
:104340004095432391964C93919792963C919297E6
:10435000362B92963C93929740911701E42FE29569
:10436000EF70F0E031A14F70042E01C0880F0A9465
:10437000EAF7982F9095932391A392A1892B82A37A
:1043800090968C9190E002C0959587952A95E2F7DA
:10439000817020A130E002C0359527954A95E2F75B
:1043A00092E020FF90E0892B8093280390911601E2
:1043B00081E0982790932703891B8093180385EB4E
:1043C00095E090931A038093190380915D038160B7
:1043D00080935D0361E086950E94D81060E08AE0DA
:1043E0000E94D81040E56FEF82E30E94D51061E093
:1043F00070E080E090E00E942E1289E191E09093BD
:104400001C0380931B0308E110E060E4E62E85E3C3
:1044100093E07AE0F72EF80E80914C03BB24B3941E
:1044200040E1C42E52E1D52E853009F41CC10E9412
:104430007D1D81110E941C05EBE2F3E0A5E3B3E0D2
:10444000D12CC12C8C2CAD9081918A1509F42CC1F2
:104450008A25912CBB24B3949B2D982309F41FC16A
:104460000E947E0B882399F099A28AA2AB2081E05A
:1044700009F480E08BA30E9428058160782F9DA31A
:104480008CA349A15AA16BA18DA10E94FA1BF60130
:10449000E55DFC4F8081B826B08280912803E82F2B
:1044A000EE0FEE0F90911801A92FA295AF70B0E01A
:1044B00090962C9130E09F7002C0359527959A9583
:1044C000E2F72170332790911701A92FA295AF70C1
:1044D000B0E090964C9150E09F7002C05595479582
:1044E0009A95E2F7CA018170992740FF02C082E0E5
:1044F00090E0822B8E2B80932803D09027038F701F
:10450000E82FF0E0E858FE4F808190912603890F54
:104510008093260320E0843074F0ED2D0D2C000CE8
:10452000FF0BEC5DFC4F80818F5F808360E08D2D01
:104530000E948A1C21E0809126038D3F74F4ED2DAA
:104540000D2C000CFF0BEC5DFC4F808181508083B3
:1045500061E08D2D0E948A1C21E080912603082EA7
:10456000000C990B64E070E00E94B228809326034F
:1045700021110E94F4050E94C80690912903891711
:1045800031F00E94C806809329030E942C1180916B
:104590004C03843009F040CF83E08093E9008091A0
:1045A000E80082FF39CF8091E80090E085FF06C0E7
:1045B0000E949C03882309F490C091E08091E80058
:1045C0008B778093E800992309F426CFE981E150A5
:1045D000E33108F0F8C0F0E0EA5CF44D0C94E52813
:1045E00080914C03843009F431C080E00E942C118A
:1045F00080912303811109C0B092230380915D0350
:104600008170809322030E94681D10921D030FB6D3
:10461000F894A895009360000FBEE092600083B705
:10462000817F846083BF83B7816083BF78948895DE
:1046300083B78E7F83BF0FB6F894A89580916000F2
:10464000886180936000109260000FBE80914B03E0
:10465000882349F00E947D1DE5E3F3E081918111FB
:10466000D6C1FE12FBCF80914C03853009F4B8CF40
:104670000E94500C0E94C8060E942C111092230325
:1046800080912203882319F00E944411D0CE80919A
:104690002103882309F4CBCE0E94220FC8CE939425
:1046A000BB0C27E09212D8CE8FEFC81AD80A9AE036
:1046B000C916D10409F0C6CE8FEF88A789A71AA61C
:1046C0000E9428058160782F9CA78BA748A559A533
:1046D0006AA58CA50E94FA1BE0CE30E2C32ED12C35
:1046E000DE0111965D018091E80085FD0AC0809190
:1046F000E8008B778093E8000E949C03882399F35D
:104700005CCF8091F100F50181935F01F1E0CF1A58
:10471000D10849F752CF1A8289E08B8311C08A8170
:10472000823009F4A3C18330A9F1813009F04BC074
:104730000E941C050E94EB286B837C838D839E83E3
:1047400080914C03843009F067CED090E9008D2D24
:104750008F70D82E9091EC00892F817090FD80E8A9
:10476000D82A82E08093E9008091E80080FF0DC0A4
:1047700050E040E060E270E0CE0101960E94CD037F
:104780008091E8008E778093E8008D2D8F70809364
:10479000E90042CEDE011396E5E3F3E081918D93CB
:1047A00023E0EF33F207D1F7CBCF8A81823059F47F
:1047B0006B817C818D819E810E94EB2885E290E057
:1047C0000E943129BDCF8FEF8983BACF4C816B8195
:1047D0008A810E94ED079827892798279E838D83D9
:1047E000AFCFAD80BE80BA24AB24BA248A81CB80FF
:1047F0009EE0C99E60011124ACE88A9FC00CD11CC8
:1048000011248C8190E0880F991FC80ED91E6B2D42
:10481000C60186960E9431296A2DC6018796D0CF9F
:104820000E940F0A8DCF8A818138B1F058F4803808
:1048300009F086CF4B8160915F0380915E030E94F7
:10484000D5107ECF8238A9F0833809F079CF409116
:1048500060036C818B81F3CF60E08B810E94D81064
:104860008B81811103C00E94681D6ACF0E94441190
:1048700067CF8B818093610363CF8A81813899F000
:1048800030F4803809F05CCF8091600346CF8238E5
:1048900091F0833809F054CF80915E038B8380912F
:1048A0005F038C834DCF80915D0380FF02C08695AE
:1048B00034CF80E032CF809161032FCF60915D03D0
:1048C00070915E0380915F03909160030E94040CDD
:1048D00037CF80E18A8334CF81E08A838AEA1DCF93
:1048E000AA80BB80BA24AB24BA24FE0131966F01A2
:1048F0008C808E0E9F2E911CC5018A5A9D4F8C1460
:104900009D0409F41DCFFAEAAF16F1E0BF0660F48A
:104910000E941D29D60114968C93FFEFAF1ABF0A8F
:104920002FEFC21AD20AE8CFF6011482F6CFCA805E
:10493000DB80DC24CD24DC24CE0101964C01AC804C
:10494000AC0CBD2CB11CC6018A5A9D4FAC14BD04E1
:1049500009F4F6CEAAEACA16A1E0DA0620F4F401B8
:1049600064810E943129FFEF8F1A9F0A2FEFC21A2C
:10497000D20AE9CF0E94640AE3CE84E0ABCFAA80DA
:10498000BB80BA24AB24BA24CE0101966C018C8082
:10499000880E992E911CC50186968C149D0409F4ED
:1049A000CFCEA0E3AA16A2E0BA0658F40E941D29B1
:1049B000F6018483BFEFAB1ABB0AEFEFCE1ADE0A13
:1049C000EACFD60114961C92F5CFCA80DB80DC2496
:1049D000CD24DC24CE0101964C01AC80AC0CBD2C66
:1049E000B11CC6018696AC14BD0409F4A9CEA0E39F
:1049F000CA16A2E0DA0620F4F40164810E9431298B
:104A0000FFEF8F1A9F0A2FEFC21AD20AEACFC9BC52
:104A1000D9BC09B400FEFDCF8091D8008F7D809372
:104A2000D8008091E00082608093E0008091E000F7
:104A300081FDFCCF0E94500C16CE60E085E290E034
:104A40000E9431290E940F0A0E94640A61E282E2F8
:104A500090E00E94312967E083E290E00E943129D2
:104A600067E284E290E00E943129E7CB85E290E0A2
:104A70000E941D291B821C821D828E8361CE0F9392
:104A80001F930E947E0B882321F01F910F910C949D
:104A90001C050E941C05009105031091060320913E
:104AA000070330910803600F711F821F931F1F912E
:104AB0000F910895CF92DF92EF92FF926B017C01EC
:104AC0000E947E0B81110EC00E941C05C61AD70AD7
:104AD000E80AF90AC0920503D0920603E0920703A0
:104AE000F0920803FF90EF90DF90CF9008957894B4
:104AF0001F921FB61F9211248F939F93AF93BF9362
:104B00008091010390910203A0910303B0910403EB
:104B10000196A11DB11D8093010390930203A09300
:104B20000303B0930403BF91AF919F918F911F90A6
:104B30001FBE1F9018951F921FB61F9211248F93AE
:104B40009F93AF93BF9380911D03811113C08091F8
:104B5000010390910203A0910303B09104034196D5
:104B6000A11DB11D8093010390930203A093030341
:104B7000B0930403BF91AF919F918F911F901FBE7F
:104B80001F901895FF920F931F93CF93DF93D091AF
:104B900018030D2F10E00C5D1C4FFC01C081F801C3
:104BA0008081C81BFC2E80E01F147CF09C2FC7FD69
:104BB00090E0C91BC11114C08823E9F0DF91CF91A7
:104BC0001F910F91FF900C94F405FA94F8018081E5
:104BD0008F5F808360E08D2F0E948A1C81E0E4CF8C
:104BE000CF5FF80180818150808361E08D2F0E942A
:104BF0008A1C81E0DFCFDF91CF911F910F91FF9051
:104C00000895E0912703F0E0EC5DFC4F2081FC016A
:104C100020830895809189020895809389020895E0
:104C20001F93CF93DF93EC01162F8F8184FF03C076
:104C300098859093210380FF0CC0888180FF15C068
:104C400090915D03916090935D03612F86950E9422
:104C5000D8108F8181FF0CC0212F4B816A818981FF
:104C6000DF91CF911F910C9422100E94681DF1CF0B
:104C7000DF91CF911F91089525E0EDE5F3E0DC0190
:104C800001900D922A95E1F740911E0350911F0368
:104C90006091200370912103FC0145835683678353
:104CA000708708951092200308958091200308953D
:104CB00062E070E084E291E00C943E2762E070E0F4
:104CC00084E291E00C9447270E945526882361F0E6
:104CD0008FE693E00E943C2681E090E00E9420282D
:104CE000892B11F40C945226089580916E0388301C
:104CF00039F460E08FE693E00E94102610926E0374
:104D00000895CF93DF93D62FC72F0E94642690E09B
:104D100080E00E942028009729F5ED2FFC2FDC0170
:104D2000A859BC4F2C912193019685309105B9F774
:104D30008DE693E00E94C2250E940A2680936703B5
:104D40000E943F256E5F7F4F8F4F9F4F609363039D
:104D500070936403809365039093660381E0DF9111
:104D6000CF91089580E0FBCFCF93DF93D62FC72F4D
:104D70000E947526609163037091640380916503BE
:104D8000909166030E945A25ED2FFC2F90E080E061
:104D90002191DC01A859BC4F2C93019685309105D7
:104DA000B9F78DE693E00E94012680916703DF91B9
:104DB000CF910C940D268EE14A9B02C08150E1F701
:104DC0004A9BFECF08955A9880E28A95F1F75A9A45
:104DD0000895FC013BE03A95F1F720E090E080E097
:104DE00031E040E14A95F1F7880F4A9B02C08160AB
:104DF000232742E04A95F1F7000040E14A95F1F798
:104E00009F5F6913EECF90E19A95F1F799B132E087
:104E10003A95F1F7000040E14A95F1F792FB9927A6
:104E200090F992272081920F90830895EF92FF923C
:104E30000F931F93CF93DF930F92CDB7DEB71982F5
:104E40008C017C01E60EF11C0E151F0561F481E05A
:104E50009981911180E00F90DF91CF911F910F9177
:104E6000FF90EF9008950E94DB2668E0CE01019646
:104E70000E94E926F80181938F01E6CF90937A038F
:104E80008093790360937803529A5A9A0895909385
:104E90007A03809379036093780352985A9AEA9A36
:104EA000E9E6F0E080818F7C808308956150770B84
:104EB00091E001C0990F6A95EAF720E031E0911185
:104EC00008C0222391F05A9A80E28A95F1F75A9805
:104ED0000895492F482339F05A9A232740E24A95EA
:104EE000F1F79695ECCF5A98F9CF5A98EDCFFF92FB
:104EF0000F931F93CF93DF93EC018C01060F111DCD
:104F0000C017D10731F4DF91CF911F910F91FF901E
:104F10000895F9900E94E32668E08F2D0E9456279D
:104F2000EFCF1F920F920FB60F9211240F931F9382
:104F30002F933F934F935F936F937F938F939F93A1
:104F4000AF93BF93EF93FF93CF93DF930F92CDB7C0
:104F5000DEB719820E94DB2667E0CE0101960E942F
:104F6000E926082F069506950695982F9295957037
:104F7000202F2570920F292F237096959695877074
:104F8000920F891344C08981811141C080917803B7
:104F90008017E8F120E12A95F1F75A9A529A82E0B7
:104FA0008A95F1F700C0A8E00A9FC0011124009182
:104FB000790310917A03080F191F5A98F801658137
:104FC000662321F0868197810E9477270E94E3263D
:104FD000F0E1FA95F1F75A9852985A9A20E12A95F9
:104FE000F1F7D80112966C911297662331F113965E
:104FF0008D919C910E941627D801ED91FC918823F8
:1050000011F088E001C082E080830E94DB260F90CF
:10501000DF91CF91FF91EF91BF91AF919F918F91D0
:105020007F916F915F914F913F912F911F910F91C0
:105030000F900FBE0F901F901895ED91FC91E1CF4E
:105040000F931F93CF93DF932091780328171906AE
:105050000CF471C08C0193E0000F111F9A95E1F7D9
:10506000C0917903D0917A03C00FD11FF894529A5E
:105070005A9825E02A95F1F70000982F969595709B
:105080008570980F892F837096959695980F092BA8
:105090000E94E32600C067E0802F0E94562780E12F
:1050A0008A95F1F752985A9A4A9B17C087E090E088
:1050B0004A9915C06D81662321F18E819F810E94DE
:1050C000162781111EC0529A5A9AE881F98182E00E
:1050D0008083789482E090E00DC000C0E5CF019716
:1050E00071F4529A5A9AE881F98181E08083789428
:1050F00081E090E0DF91CF911F910F91089500C062
:10510000D7CF0E94DB2620E22A95F1F75A98529ACF
:1051100080E18A95F1F76A81662321F08B819C8179
:105120000E9477270E94E326E881F9811082789413
:1051300090E080E0DFCF84E090E0DCCFAA1BBB1BD7
:1051400051E107C0AA1FBB1FA617B70710F0A61B87
:10515000B70B881F991F5A95A9F780959095BC01A8
:10516000CD01089597FB072E16F4009407D077FD24
:1051700009D00E949E2807FC05D03EF490958195A9
:105180009F4F0895709561957F4F0895052E97FB69
:105190001EF400940E94DD2857FD07D00E94F228DB
:1051A00007FC03D04EF40C94DD28509540953095C3
:1051B00021953F4F4F4F5F4F089590958095709583
:1051C00061957F4F8F4F9F4F0895EE0FFF1F059002
:1051D000F491E02D09946927962769277827872776
:1051E00078270895A1E21A2EAA1BBB1BFD010DC052
:1051F000AA1FBB1FEE1FFF1FA217B307E407F50787
:1052000020F0A21BB30BE40BF50B661F771F881F62
:10521000991F1A9469F760957095809590959B01F8
:10522000AC01BD01CF010895FB01DC0102C0059076
:105230000D9241505040D8F70895F999FECF92BD94
:1052400081BDF89A992780B50895A6E1B0E044E0C1
:1052500050E00C945729A8E1B0E042E050E00C94F3
:105260005729262FF999FECF92BD81BDF89A019753
:1052700000B4021639F01FBA20BD0FB6F894FA9A9E
:10528000F99A0FBE08950396272F0E9432290E9493
:105290003129252F0E943229242F0C94322901967E
:1052A000272F0E9432290C943129DC01CB01FC010B
:1052B000F999FECF06C0F2BDE1BDF89A319600B46F
:1052C0000D9241505040B8F708955058BB27AA2777
:1052D0000E947D290C94552A0E94472A38F00E948A
:1052E0004E2A20F039F49F3F19F426F40C94442AF6
:1052F0000EF4E095E7FB0C943E2AE92F0E94662A03
:1053000058F3BA17620773078407950720F079F4FA
:10531000A6F50C94882A0EF4E0950B2EBA2FA02D3A
:105320000B01B90190010C01CA01A0011124FF2752
:10533000591B99F0593F50F4503E68F11A16F0404D
:10534000A22F232F342F4427585FF3CF469537954C
:105350002795A795F0405395C9F77EF41F16BA0B11
:10536000620B730B840BBAF09150A1F0FF0FBB1FBF
:10537000661F771F881FC2F70EC0BA0F621F731F08
:10538000841F48F4879577956795B795F7959E3F65
:1053900008F0B0CF9395880F08F09927EE0F9795F6
:1053A000879508950E946E2A88F09F5798F0B92F2C
:1053B0009927B751B0F0E1F0660F771F881F991F4A
:1053C0001AF0BA95C9F714C0B13091F00E94882A3A
:1053D000B1E008950C94882A672F782F8827B85F4A
:1053E00039F0B93FCCF3869577956795B395D9F7A2
:1053F0003EF490958095709561957F4F8F4F9F4FAC
:105400000895E89409C097FB3EF4909580957095B7
:1054100061957F4F8F4F9F4F9923A9F0F92F96E900
:10542000BB279395F695879577956795B795F11175
:10543000F8CFFAF4BB0F11F460FF1BC06F5F7F4F12
:105440008F4F9F4F16C0882311F096E911C0772324
:1054500021F09EE8872F762F05C0662371F096E82D
:10546000862F70E060E02AF09A95660F771F881FFC
:10547000DAF7880F9695879597F9089597F99F67BA
:1054800080E870E060E008959FEF80EC08950024CC
:105490000A941616170618060906089500240A9499
:1054A00012161306140605060895092E0394000C1F
:1054B00011F4882352F0BB0F40F4BF2B11F460FFAE
:1054C00004C06F5F7F4F8F4F9F4F089557FD9058D7
:1054D000440F551F59F05F3F71F04795880F97FBB8
:1054E000991F61F09F3F79F0879508951216130672
:1054F0001406551FF2CF4695F1DF08C016161706A1
:105500001806991FF1CF86957105610508940895D5
:10551000E894BB2766277727CB0197F908950E9467
:10552000A22A0C94552A0E94472A38F00E944E2A3B
:1055300020F0952311F00C943E2A0C94442A112457
:105540000C94892A0E94662A70F3959FC1F3950FE7
:1055500050E0551F629FF001729FBB27F00DB11DF7
:10556000639FAA27F00DB11DAA1F649F6627B00D87
:10557000A11D661F829F2227B00DA11D621F739F70
:10558000B00DA11D621F839FA00D611D221F749F7E
:105590003327A00D611D231F849F600D211D822FC5
:1055A000762F6A2F11249F5750409AF0F1F08823EC
:1055B0004AF0EE0FFF1FBB1F661F771F881F915019
:1055C0005040A9F79E3F510580F00C943E2A0C9460
:1055D000892A5F3FE4F3983ED4F3869577956795E3
:1055E000B795F795E7959F5FC1F7FE2B880F911D43
:1055F0009695879597F90895F894FFCFFA09FA09D7
:10560000030A030A050A030A030A030AFA09FA0944
:105610000A0A030A030A0A0A400D680DBB0D680D49
:10562000BB0D9B0DD30DBB0DD00EDD0E9416BE161B
:10563000C516CA16CF16D416D916DE16E316E81606
:10564000ED16F21676137613761376137613761319
:10565000F51676130D170D1782178217DC174417EE
:1056600044174417F617CC18DD18DD188B238F2349
:10567000D523E623F123102413243D245E24E323C1
:10568000E32369246C2470249724BA24BD24BF2406
:02569000E5240F
:10569200004A004A4A36323331F7F6676697C63413
:1056A20035000000000001F4F50A05AE0A0905AA5A
:1056B2000AA60A0162030563030668036E03096F03
:1056C20003000000F6F731333236670001020202AE
:1056D20002020202020202818283E200E900EA007F
:1056E200B500B600B700CD008301CC008A0192015B
:1056F20094012102230224022502260227022A0201
:10570200B300B4006F00700000FF0100010000FF51
:10571200FF0000010001FF0040223246012401F295
:0857220000D705F00510060098
:00000001FF
