:100000000C9437030C947E030C947E030C946829A3
:100010000C947E030C947E030C947E030C947E035C
:100020000C947E030C947E030C94FB200C94B7205C
:100030000C9472270C947E030C947E030C947E0324
:100040000C947E030C947E030C947E030C947E032C
:100050000C947E030C944E270C947E030C947E0328
:100060000C947E030C947E030C947E030C947E030C
:100070000C947E030C947E030C947E030C947E03FC
:100080000C947E030C947E030C947E030C947E03EC
:100090000C947E030C947E030C947E030C947E03DC
:1000A0000C947E030C947E030C947E03E1002A00E2
:1000B000000037032B64A0FF000000001C032B642A
:1000C00096FF0000000004032B64A0FF0000000066
:1000D0000000D7FF78FF00000000000080FF64FFF1
:1000E0000000000000001EFF78FF0000000000007C
:1000F0005FFF5AFF0000000005010980A101850390
:1001000019012AB700150126B70095017510810065
:10011000C0050C0901A101850419012AA0021501DD
:1001200026A002950175108100C00660FF0961A13B
:10013000010962150026FF009520750881020963F8
:10014000150026FF00952075089102C005010906DB
:10015000A101050719E029E715002501950875019A
:1001600081029501750881010507190029FF150015
:1001700026FF0095067508810005081901290595D7
:100180000575019102950175039101C000010101FE
:100190000101010101010202020202020202020344
:1001A0000303030303030304040404040404050514
:1001B00005050506060606060707070707080808D7
:1001C00008090909090A0A0A0B0B0B0C0C0C0D0D86
:1001D0000D0E0E0E0F0F0F1010111111121213131E
:1001E0001414151516161717181819191A1A1B1B97
:1001F0001C1D1D1E1E1F20202122222324242526F3
:1002000026272829292A2B2C2D2D2E2F303132322A
:10021000333435363738393A3B3C3D3E3F40414236
:10022000434445464748494A4C4D4E4F505153541C
:10023000555658595A5B5D5E5F61626465666869D0
:100240006B6C6D6F7072737577787A7B7D7E808250
:10025000838587888A8C8E8F91939596989A9C9E99
:10026000A0A2A3A5A7A9ABADAFB1B3B5B7BABCBEA9
:10027000C0C2C4C6C9CBCDCFD1D4D6D8DBDDDFE276
:10028000E4E7E9EBEEF0F3F5F8FAFDFFFFAA7F559E
:10029000401C1004010D190A24232221201F1E1DB9
:1002A0001B1A18171615141312110F0E0C0B090830
:1002B0000706050302002D3945483C303F25262717
:1002C00028292A2B2C2E2F31323334353637383A21
:1002D0003B3D3E404142434446474935001E001FD6
:1002E000002000210022000000290014001A00084C
:1002F000001500170080002B0004001600070009FD
:10030000000A000000E1001D001B000600190005A6
:10031000008100A800E300E200E000025128000094
:10032000002D002700260025002400230000002ABD
:1003300000130012000C0018001C004B00340033A6
:10034000000F000E000D000B000000E50038003724
:10035000003600100011004E00E700E600E4000344
:10036000512C0000000000460001000100010001C6
:1003700000010000000100170014001A0008001519
:1003800000010001000A0004001600070009000037
:1003900000010005001D001B0006001900010001FE
:1003A0000001000100010048002C000000010001D4
:1003B00000010001000100010000002A000100010D
:1003C0000001000100010001000100010001000125
:1003D0000001000100000001000100010001000116
:1003E00000010001000100010001000351010001B2
:1003F00000000001003A003B003C003D003E0000D0
:100400000035001E001F0020002100220001000115
:10041000001E021F02200221022202000001002E03
:10042000002D002E022F022F020100010001000109
:1004300000010001000100000044004300420041AF
:100440000040003F00000045002700260025002452
:100450000023000100310227022602250224022384
:10046000020000010031003302370030002F00018C
:100470000001000100010001000100010000000175
:100480000001000100010001000100000001000165
:100490000001000100010001000100010001000154
:1004A0000001000100010000000100010001000145
:1004B0000001000100010001000100010001000134
:1004C0000001000000010001000100010001000125
:1004D0000000004C0049004D0052004A000100019C
:1004E00000010001004F0051005000010000000118
:1004F0000001004E0001004B003900010001000125
:1005000000010001000100010000000000000000E7
:1005100000000000000000000000000000000000DB
:100520000000000000000000000000000000007E4D
:100530000F00D4FFFFFFC70000007800000000009C
:100540000000002A2B28000000000000000000002E
:1005500000000000000029000000002C1E342021B3
:100560002224342627252E362D3738271E1F2021FA
:1005700022232425263333362E37381F0405060759
:1005800008090A0B0C0D0E0F101112131415161773
:1005900018191A1B1C1D2F3130232D350405060791
:1005A00008090A0B0C0D0E0F101112131415161753
:1005B00018191A1B1C1D2F3130354CEE00E400DADF
:1005C00000D000C600BC00B200000009025B0003BE
:1005D0000100A0FA09040000010301010009211132
:1005E0000100012240000705810308000A090401F7
:1005F000000203000000092111010001222200076E
:1006000005820320000107050303200001090402FD
:10061000000103000000092111010001223200073E
:1006200005840320000A120110010000000832FCBA
:1006300087120200010200011E0353006F006C00CC
:10064000610072006900750073005F0053006F0065
:1006500066006C006500000010034B006500790027
:100660006800690076006500000004030904112495
:100670001FBECFEFDAE0DEBFCDBF04B603FE27C05A
:1006800080919C0390919D03A0919E03B0919F0344
:100690008730904BA740B04BD1F410929C0310923E
:1006A0009D0310929E0310929F0314BE84B7877F10
:1006B00084BF0FB6F894A8958091600088618093FC
:1006C0006000109260000FBEE0E0F8E3099511E0D1
:1006D000A0E0B1E0E0E4FAE502C005900D92A23A94
:1006E000B107D9F723E0A2EAB1E001C01D92AC390D
:1006F000B207E1F70E94D2210C94D32C0C94000095
:10070000E8EDF0E080818E7F80831092E20010920D
:10071000DA001092E100A0EEB0E08C9181608C9341
:1007200080818F77808319BCA7EDB0E08C918E7F9C
:100730008C9380818F7E8083109260030895209136
:10074000E4003091E50095E6A9012091EC00822FAC
:10075000817020FF06C08091E80080FF06C080E025
:1007600008952091E80022FD1AC080916D0388232E
:1007700089F0853089F08091EB0085FD0FC02091D4
:10078000E4003091E50042175307F9F29150E1F689
:1007900084E0089582E0089583E0089581E008955B
:1007A000EF92FF920F931F93CF937C018B010E94D6
:1007B0009F03C82F811117C08091E80085FD0BC0F1
:1007C0008091E8008E778093E8000E949F03882341
:1007D00099F3C82F08C0F70181917F018093F10040
:1007E0000150110949F78C2FCF911F910F91FF9064
:1007F000EF90089580916F0387FF13C08091E80008
:1008000082FF06C08091E8008B778093E80004C0E7
:1008100080916D038111F2CF089580916D0388233B
:10082000D9F38091E80080FFF8CF8091E8008E77BF
:10083000ECCF982F9093E900242F762F50E0891762
:1008400031F07091EC002091ED005091F00021FD0D
:1008500007C09F5F973071F78093E90081E00895AA
:100860003091EB003E7F3093EB003091ED003D7F07
:100870003093ED003091EB0031603093EB007093DA
:10088000EC002093ED005093F0002091EE0027FD46
:10089000E0CF80E00895CF92DF92EF92FF920F9326
:1008A0001F93CF93DF93C8EDD0E088818F7E88833C
:1008B000E7EDF0E080818160808384E082BF81E0A9
:1008C0008093600388818E7F888302EE10E0F801B8
:1008D00010821092DA0081EEC82ED12CF60110821F
:1008E00088818F77888388818068888388818F7DDD
:1008F000888319BC10926D0310926E0310926C03E2
:1009000010926B0390EEE92EF12CF70180818B7F22
:10091000808388818160888342E060E080E00E947B
:100920001904F60180818E7F8083F80180818160C7
:100930008083808188608083F70180818E7F8083BF
:10094000888180618883DF91CF911F910F91FF9003
:10095000EF90DF90CF900895FC0180917503909106
:10096000760386179707A0F06115710529F4909119
:10097000E8009E779093E80090E06115710551F4CE
:10098000911108C08091E80082FF34C080E0089592
:10099000BC01F2CF80916D038823C1F18530C1F194
:1009A0008091E80083FD30C08091E80082FDEACFAD
:1009B0008091E80080FFE1CF8091F3002091F20068
:1009C000382F6115710519F02830310558F091E084
:1009D0002830310509F090E02091E8002E7720932F
:1009E000E800CBCF81918093F100615071092F5FB6
:1009F0003F4FE7CF80916D03882341F0853041F070
:100A00008091E80083FFBECF81E0089582E00895E1
:100A100083E0089580E00895089580916203089529
:100A20009C014FB7F8948091220390912303A091E9
:100A30002403B09125034FBF821B930B08952FB75A
:100A4000F894609122037091230380912403909184
:100A500025032FBF08952FB7F8948091220390911A
:100A60002303A0912403B09125032FBF08959C0177
:100A7000FC0132969FEF80E04191461751F09F3F75
:100A800019F4411101C0982F8F5F8630A9F79F3F5D
:100A900009F40895290F311D97FD3A95F9016283F4
:100AA000089580911D03811110921D030895809176
:100AB0001C0390911B03892B90911A03892B80931F
:100AC000A40190911D03992391F0892B8093A40197
:100AD00020E086EA91E0FC013191CF0131112F5FD6
:100AE000F1E08C3A9F07B9F721110E945105E0917E
:100AF0003C03F0913D03309731F00280F381E02D0B
:100B000084EA91E00994089527E0929F800D1124D2
:100B1000982F977086958695869525E0829FF0019F
:100B20001124E451FD4F50E040E080E0219130E09D
:100B3000092E02C0369527950A94E2F721703327D3
:100B4000042E01C0220F0A94EAF7822B4F5F5F4FF9
:100B50004530510559F7089527E0929F800D1124E3
:100B6000982F977041E001C0440F9A95EAF7869557
:100B70008695869595E0899FF0011124E451FD4FFB
:100B800090E080E070E05191DF0111979B01082E09
:100B900002C0369527950A94E2F721702195252702
:100BA000242325272C9301968530910561F708951C
:100BB0008091EB029091BA02981301C008958F5F63
:100BC0008770FACF882341F0809590911B03892389
:100BD00080931B030C9457050895882339F0909156
:100BE0001B03982B90931B030C945705089588239F
:100BF00041F0809590911C03892380931C030C94F1
:100C000057050895882339F090911C03982B9093F1
:100C10001C030C94570508950C941F052091910214
:100C2000309192022817390771F0909392028093C5
:100C30009102E0913C03F0913D03309721F0008454
:100C4000F185E02D0994089520918F023091900252
:100C50002817390771F09093900280938F02E091EA
:100C60003C03F0913D03309721F00680F781E02DA1
:100C70000994089590E080E00E94240690E080E0CE
:100C80000E940E0610921B0310921A030C94570533
:100C900060931E0370931F0380932003909321039E
:100CA0000C943A068823B1F19CEF980F913A70F4B6
:100CB000E6EAF1E09191891303C0DF0111971C92DC
:100CC00041E0EC3AF407B1F70C94570590E2980F25
:100CD000983088F4877021E030E0A90102C0440F09
:100CE000551F8A95E2F7CA01809590911C038923CC
:100CF00080931C03E9CF9BE5980F933020F490E09C
:100D000080E00C942406885A873120F490E080E03B
:100D10000C940E060895CF93C82F882309F44EC073
:100D20008CEF8C0F813AF8F4E6EAF1E08CEA91E07E
:100D3000DF012D91C21759F08A179B07D1F76C2F4D
:100D400084EA91E00E943705CF910C9457052191D8
:100D5000C21303C0DF0111971C928E179F07B9F7CA
:100D60000E945705ECCF80E28C0F883068F4C77082
:100D700021E030E001C0220FCA95EAF780911C0300
:100D8000822B80931C03E0CFEBE5EC0FE33040F4C3
:100D9000F0E0EE5AFE4F808190E0CF910C94240653
:100DA000C85AC73158F4EC2FF0E0EE0FFF1FEB5A92
:100DB000FE4F80819181CF910C940E06CF910895C2
:100DC000E0913C03F0913D03309721F00190F081D8
:100DD000E02D099480E00895FA01811101C0FB0122
:100DE000099480917E03982F9E7F61F481708260C8
:100DF00080937E0380918103853B18F084EB809380
:100E0000810308958831B0F381708661F1CFAF928C
:100E1000BF92DF92EF92FF920F931F93CF93DF93D6
:100E2000082F162FE901E42FF0E0E457FE4F61117F
:100E300010C0E4915E2F4E2F4983E8835A83DF91DF
:100E4000CF911F910F91FF90EF90DF90BF90AF90E7
:100E50000895E62EF12C4491D42EE42FF0E026E004
:100E6000829FC00111242FEF30E0B9010E94752A42
:100E7000802F90E0880F991F55E5569FD001579F0E
:100E8000B00D11248A1B9B0B982F990F890F5901C4
:100E9000AE18BF08AE9ED001AF9EB00DBE9EB00D85
:100EA00011245B2F189F80011124012F1127590154
:100EB000A01AB10AAE9E8001AF9E100DBE9E100D0D
:100EC00011245901A81AB108AE9CC001AF9C900D25
:100ED000BE9C900D1124892F9927281B390B2E9F1A
:100EE000C0012F9F900D3E9F900D1124E92F62307D
:100EF0007105A1F050F46115710509F49DCF6130C1
:100F0000710581F0EB2F512F97CF6430710569F097
:100F100080F06630710509F48FCFF4CFE42F4B2FAA
:100F2000592F8ACFE42F412F87CFEB2F542F492FF2
:100F300083CF4B2F5D2DE12F7FCFF894E82FE295E3
:100F4000EF70F0E031A1282F2F7081E090E001C018
:100F5000880F2A95EAF7982F9095932391A392A151
:100F6000892B82A3789408959091360392FF06C04E
:100F7000282F28712830F9F4877F846093FF06C0FA
:100F8000282F28712831F1F4877E8461209137035E
:100F900020FF06C0382F38713830D9F4877F816040
:100FA00021FF06C0282F28712831D1F4877E816166
:100FB00094FD877E0895282F24712430F9F68B7FC5
:100FC0008860DCCF282F2471243101F78B7E886163
:100FD000DDCF382F3171313019F78E7F8860E0CF47
:100FE000282F2171213121F78E7E8861E1CFCF93A7
:100FF000DF939C013A9521153F4168F5EC01CC2720
:10100000D170DC01AA27B270AC01442754709C0156
:101010002227387094FF11C080E1CD2B09F480E0C5
:10102000AB2B09F08062452B09F08064232B09F07B
:101030008068FB01DF91CF91099481E0CD2B09F409
:1010400080E0AB2B09F08260452B09F08460232BF4
:1010500081F38860EECFDF91CF910895CF93DF9336
:10106000EC010E945206CE01805E9109089720F0A3
:1010700062EE75E0209711F467EF75E0CE01DF9125
:10108000CF910C94F707CF93DF93EC01805E910929
:10109000089720F06DEE75E0209711F462E076E09D
:1010A000CE010E94F7078C2FDF91CF910C948B0615
:1010B000CF939091AC02992321F0811116C0109228
:1010C000AC02CF910895EC2FF0E0EE0FFF1FE45635
:1010D000FD4F808191810E9443080E945705CF5F98
:1010E0008091AC02C81778F3EACFC0E0F9CFCF9374
:1010F00084E090E00E94F42AC82F81E290E00E94F0
:10110000F42A982F8C2FCF9108950F931F93CF938C
:10111000DF93C42FD0E0CC0FDD1F2EE0629FC00D07
:10112000D11D11243CE8839FC00DD11D1124CE0197
:1011300086960E94F42A082F10E0102F0027CE0177
:1011400087960E94F42A9801282BC901DF91CF913C
:101150001F910F910895462F843038F47A3028F487
:10116000673018F4672F0C94850890E080E00895AC
:10117000CF93DF930E94AB08EC0182389105A9F16F
:10118000D8F58133910509F496C048F58932910567
:1011900009F48AC08A9709F495C0C11522E5D207DF
:1011A00008F0B6C0C11531E5D30708F026C1C83E26
:1011B000D10508F09CC0C03ED10560F5C83AD10504
:1011C00008F087C0C53AD10508F0EFC0C130D1059D
:1011D00009F12097F9F0C430D105E0F440C085331F
:1011E000910509F45AC0C997C1F6809136038370FE
:1011F00089F0C0EED0E00EC0833E910599F170F405
:10120000803E910501F1823E910539F680913603C9
:1012100082FD21C0CE01DF91CF910895863E9105D8
:1012200061F1873E910571F1843E910509F0B5CFDA
:101230008091370381FFEECF80913603C7EED0E077
:1012400084FD0DC0E7CF8091360380FD07C19091EA
:10125000370390FFDFCFC3EED0E084FFDBCFD0E0D9
:10126000C0E0D8CF8091360382FDFBC09091370358
:1012700090FDBFCF84FFCECFF2CF8091360383FDA8
:10128000DDCFC8CF8091360383FDEEC09091370348
:1012900091FFF0CFC4EED0E0BDCF8091360385FF43
:1012A000B9CFC9E2D0E0B6CF8091360385FFB2CF87
:1012B000C5E3D0E0AFCF8091360386FFABCFCAE263
:1012C000D0E0A8CF8091360386FFA4CFC1E3D0E061
:1012D000A1CFCF3BD10518F6C85AD0E0CC0FDD1F07
:1012E000CB5ADE4F0990D881C02DD46493CFC1155D
:1012F00040E5D40708F064C0C11580E4D80708F0C1
:101300005CC0CE019A9581159F4108F483CFA7CF89
:10131000C11536E5D30718F5C11545E5D40708F022
:1013200084C0C11584E5D80708F07AC09C2F969533
:1013300096959E0123703327C115D34508F462C0EA
:10134000C1E0D0E002C0CC0FDD1F2A95E2F730E209
:10135000939FC0011124C82BD92BDA685BCFC1152C
:101360008AE5D80778F4C11599E5D90708F068C06F
:10137000C11528E5D20708F472CFDC2FCC27C06F47
:10138000D06A48CFCE0190568115904208F067CFC1
:101390008D2F8F710E94B40790E0982F882788279F
:1013A0009F719C012C2BE90149C0C55AD0E0CE5A4F
:1013B000DE4FC881D0E0D0642DCFDF70D06A2ACF55
:1013C000CE01E4E096958795EA95E1F783702C2F9E
:1013D00026952695237040E2249F90011124382BF6
:1013E0008C2F8370C1E0D0E002C0CC0FDD1F8A9546
:1013F000E2F7C22BD32BDC680DCFDC2FCC27C16FDB
:10140000D06A08CFC1E0D0E002C0CC0FDD1F2A9522
:10141000E2F720E2929FC0011124C82BD92BEBCF19
:10142000DC2FCC27C46FD06AF5CE8C2F0E94B40776
:10143000C82FD0E0DC2FCC27CC27DF71D062EACEDA
:101440008C2F8F700E94B40734E0D695C7953A95DB
:10145000E1F7CF709C2FEC01D069DCCEC9E3D0E07E
:10146000D9CEC2EED0E0D6CEC6EED0E0D3CEBF927B
:10147000CF92DF92EF92FF920F931F93CF93DF9360
:101480008C01C0907703D0907803E0907903F090BE
:101490007A0380911E0390911F03A0912003B091C5
:1014A0002103C82AD92AEA2AFB2ACFE1D0E0BC2EA0
:1014B000D701C6010C2E04C0B695A79597958795C0
:1014C0000A94D2F780FD0EC0219788F7B12C8B2D9E
:1014D000DF91CF911F910F91FF90EF90DF90CF9010
:1014E000BF900895B8018C2F0E94B808019761F34E
:1014F000EECFCF93DF93EC010E94370ABE01DF915C
:10150000CF910C94B8080E94790A292F2F709295D8
:101510009F7092509E3078F4E92FF0E0EB52F34D3B
:101520000C94BC2A803F19F020F4883E20F481E01E
:101530000895843FE1F380E00895883EC0F3813F41
:10154000D1F7F5CF822F86958695869508956F926F
:101550007F928F929F92AF92BF92CF92DF92EF9243
:10156000FF920F931F93CF93DF938BEDC82E82E0F2
:10157000D82E90ECE92EF12CE701CC58D109360198
:101580001BC0F50185909490692DC8010E94082B1D
:10159000682DC80101960E94082B82E0A80EB11C9C
:1015A0000E5F1F4FC017D10761F78EE0680E711CE8
:1015B0002E96CE15DF0529F08E010E50110953012C
:1015C000E0CF7E018CE8E80EF11C8CE8C80ED11C3F
:1015D00080EFE81682E0F80679F6DF91CF911F914F
:1015E0000F91FF90EF90DF90CF90BF90AF909F90C2
:1015F0008F907F906F900895CF93DF93C6E5D2E0F0
:1016000060E0CE010E94082B2196C11584E0D80726
:10161000B9F7DF91CF910895CF93DF9300D00F9268
:10162000CDB7DEB790916D03943011F589837B833C
:101630006A839093E9008FEF9091E800815095FDC7
:1016400006C095ED9A95F1F700008111F5CF8091D4
:10165000E80085FF0DC050E040E063E070E0CE019F
:1016600001960E94D0038091E8008E778093E80075
:101670000F900F900F90DF91CF910895BC0184E0FF
:101680000C940C0BBC0183E00C940C0BCF93DF93F8
:10169000EC0181E08093E9008FEF9091E8008150A8
:1016A00095FD06C095ED9A95F1F700008111F5CFF3
:1016B0008091E80085FF14C050E040E068E070E0F1
:1016C000CE010E94D0038091E8008E778093E800DD
:1016D00088E0FE01A3E6B3E001900D928A95E1F760
:1016E000DF91CF91089581E08093E00080E28093C4
:1016F000D8001092C9008FE19EE40197F1F700C075
:10170000000087E090EBDC0180939C0390939D03A5
:10171000A0939E03B0939F0388E19CE00FB6F894DA
:10172000A895809360000FBE90936000FFCF1F9339
:10173000CF93DF93182FCAE0D0E0893311F4C0E5CE
:10174000D0E0812F0E948B068FE99FE00197F1F78F
:1017500000C000002197C1F7812FDF91CF911F9129
:101760000C9452060F931F93CF93DF93C62FD42F61
:10177000022FFC0182818823A1F060937D030E94E7
:101780002B0590937C0380937B03C77081E001C09D
:10179000880FCA95EAF7DF91CF911F910F910C94B2
:1017A000020680917D03681335C080917B03909180
:1017B0007C030E9410058436910560F510E21D0F30
:1017C000CD17B9F080E28C0F883040F4C77081E00B
:1017D00001C0880FCA95EAF70E94F705183048F44F
:1017E00081E09D2F977001C0880F9A95EAF70E94BB
:1017F0000206802F0E94970B183098F4D77081E072
:1018000001C0880FDA95EAF7DF91CF911F910F9110
:101810000C94F705C77081E001C0880FCA95EAF7FC
:10182000F3CFDF91CF911F910F9108958091B00177
:10183000811111C08091D80080618093D8008AE125
:101840008A95F1F700C09091D900892F817090FF9F
:1018500082E08093B00181E09091B001913009F075
:1018600080E008956BEE7EEF90E080E00E94262BF2
:1018700060E082E090E00E94082B60E083E090E06E
:101880000E94082B10921E0310921F031092200337
:101890001092210360E084E090E00E94082B60E059
:1018A00081E290E00E94082B60E085E090E00E94D9
:1018B000082B60E086E090E00E94082B6FEF87E045
:1018C00090E00E94082B40E050E0BA0188E090E0F0
:1018D0000E941A2B60E08DE090E00E94082B40E00F
:1018E00050E0BA0188E190E00E941A2B60E087E1A5
:1018F00090E00E94082B40E050E0BA018CE190E0BB
:101900000E941A2B60E080E290E00E94082B40E0E9
:1019100050E0BA0188E190E00E941A2B40E050E0CC
:10192000BA018FE090E00E941A2B40E050E0BA012B
:1019300083E190E00C941A2BCF92DF92EF92FF920A
:101940006B017C010E94F106B701A60188E090E0DE
:10195000FF90EF90DF90CF900C941A2B8091820330
:10196000882319F081508093820360917E037091E7
:101970007F0380918003909181030C949C0C809153
:101980008203833018F48F5F8093820360917E031B
:1019900070917F0380918003909181030C949C0C43
:1019A000EEE7F3E083E0808311828FEF828384EBA4
:1019B00083831482AFE3B3E012968C911297836015
:1019C00012968C9360817181828193810C949C0C1E
:1019D00010921C03E6EAF1E086E0DF011D928A9591
:1019E000E9F70C943A061F93CF93DF93CDB7DEB798
:1019F000AA970FB6F894DEBF0FBECDBF8FE693E077
:101A00002091F100DC012D93CD01B3E087379B07D6
:101A1000B9F780917003833009F471C0B8F4813054
:101A200009F448C0823009F4B2C08091E80083FF15
:101A30003AC180916F03909170039A3008F033C1DE
:101A4000E92FF0E0ED51F34D0C94BC2A8A3009F4F3
:101A50008DC08B3009F470C0893039F780916F03E5
:101A6000813219F78091730390917403009711F0FC
:101A70000297D9F68091E800877F8093E8008091F3
:101A8000E80082FF37C09091F3008091F200029746
:101A900029F48091F1008B7F813021F48091F10055
:101AA000809362038091E8008B778093E8000E9426
:101AB000FA03BBCF80916F03813A09F0B6CF8091D2
:101AC000E800877F8093E80080917303909174030E
:101AD000892B61F468E083E693E070E00E94AC0437
:101AE0008091E8008B778093E8009FCF60E090E0E2
:101AF00080E0F3CF80916D038111C1CF96CF8091AB
:101B00006F03813A09F091CF809173039091740330
:101B1000892B09F08ACF8091E800877F8093E800C5
:101B20008091E80080FFFCCF80912E018093F1002E
:101B30008091E8008E77B9CF80916F03813209F0F0
:101B400074CF8091730390917403892B09F06DCF4A
:101B50008091E800877F8093E8000E94FA038091DB
:101B6000710380932E010E94E80C5FCF80916F0378
:101B7000813209F05ACF8091E800877F8093E80096
:101B80000E94FA0380917203809361034ECF80918B
:101B90006F03813A09F049CF8091E800877F8093F5
:101BA000E8008091E80080FFFCCF80916103BECF08
:101BB000803899F0823809F076C0809173038F7075
:101BC000873008F070C08093E9008091EB0085FBBE
:101BD000882780F91092E90006C080916B039091EC
:101BE0006C03911182609091E800977F9093E800D8
:101BF0008093F1001092F1008091E8008E77B5C1DA
:101C0000882309F4A2C1823009F04DC0809171038C
:101C10008111A6C1809173038F702FEF280F26309A
:101C200008F041C08093E9002091EB0020FF98C1AB
:101C3000933031F48091EB0080628093EB0090C18F
:101C40009091EB0090619093EB0021E030E001C0B7
:101C5000220F8A95EAF72093EA001092EA00809119
:101C6000EB008860EACF81111EC0109171031F77CD
:101C70008091E3008078812B8093E3008091E800DD
:101C8000877F8093E8000E94FA038091E80080FF3C
:101C9000FCCF8091E30080688093E30082E0111123
:101CA00083E080936D038091E80083FF0AC08091F8
:101CB000E800877F8093E8008091EB00806280934A
:101CC000EB00AA960FB6F894DEBF0FBECDBFDF9132
:101CD000CF911F9108958058823028F72091710389
:101CE000309172032C3DE3E03E07A1F583E08A8347
:101CF0008AE289834FB7F894DE01139620E03EE034
:101D000051E2E32FF0E050935700E49120FF03C02D
:101D1000E295EF703F5FEF708E2F90E0EA30C0F0F9
:101D2000C7968D939D932F5F243159F74FBF8091B4
:101D3000E800877F8093E8006AE270E0CE010196B8
:101D40000E94AC048091E8008B778093E800ABCFD1
:101D5000C096E7CF8091730390917403432F55276A
:101D60004330510509F44AC078F54130510509F472
:101D70007AC08BE590E0EBECF5E04230510509F0DC
:101D800092CF2091E800277F2093E80020917503EF
:101D9000309176038217930708F49C0140E02115E7
:101DA000310509F065C0411163C08091E80082FDF2
:101DB000C9CF80916D03882329F2853019F2809173
:101DC000E80083FFF2CFBECF4132510509F43CC099
:101DD0004232510509F067CF8330910508F063CF97
:101DE000FC01EE0FFF1FEA56FE4F0190F081E02D3F
:101DF0008D569E4FDC018C9190E01AC03327213024
:101E00003105D1F02115310561F02230310509F09D
:101E10004ACFE8E3F6E0E4918E2F90E0E8E3F6E0C5
:101E200007C0EAE6F6E0E4918E2F90E0EAE6F6E0FD
:101E3000009709F438CFA5CFE8E5F6E0E4918E2FBE
:101E400090E0E8E5F6E0F4CF8330910508F02BCF81
:101E5000880F991FFC01E456FE4F0190F081E02DA0
:101E600089E090E08ECF82E190E0E6E2F6E089CF73
:101E700080916D03882309F465CF853009F462CF22
:101E80008091E80083FD5ECF8091E80082FD8DCFD8
:101E90008091E80080FF83CF9091F3008091F20061
:101EA0002115310519F08830910550F041E008976F
:101EB00009F040E08091E8008E778093E8006FCFD2
:101EC00044914093F1003196215031090196E8CFB9
:101ED000803809F0E8CE8091E800877F8093E800A1
:101EE00080916E038093F10087CE8111DCCE10913A
:101EF0007103123008F0D7CE8091E800877F80937D
:101F0000E80010936E030E94FA03112311F084E09D
:101F100005C08091E30087FDFACF81E080936D03D7
:101F200042E061EC81E00E94190442E261EC84E04D
:101F30000E94190442E261EC82E00E94190442E22C
:101F400060EC83E00E941904AECE80917103813071
:101F500009F0A9CE81E0933009F080E080936C0312
:101F60001092E9008091E800877F8093E8000E944A
:101F7000FA0399CE4F925F926F927F928F929F92C7
:101F8000AF92BF92CF92DF92EF92FF920F931F9387
:101F9000CF93DF93CDB7DEB7CE5DD1090FB6F894FE
:101FA000DEBF0FBECDBF50900C0180917E0380FF3D
:101FB0005DC080903A0390903B038114910409F036
:101FC00068C0E1E9F2E09E012F5F3F4FBE01615220
:101FD0007F4FC901A4914A2F50E0DA01AA0FBB1F1D
:101FE000A40FB51FAF54BE4FCD90DD90EC90D9013A
:101FF000CD92DD92ED929D0131966A177B0751F7E4
:1020000020910B0143E0249F800D911D1124539AD0
:102010002BB1277F3BB138605FB7F894BC01549E69
:10202000600D711D11248617970709F090C05FBFDE
:102030008FE594E00197F1F700C00000C252DF4F36
:102040000FB6F894DEBF0FBECDBFDF91CF911F91C9
:102050000F91FF90EF90DF90CF90BF90AF909F9047
:102060008F907F906F905F904F90089580910D01B9
:1020700090910E0123E0829FF0011124EF54FE4F56
:10208000891708F096CF1182108212828F5F3396E3
:10209000F7CF80914403811194CFD12CC12C6624B9
:1020A0006394712C53E0452E8091420393010C2CD4
:1020B00001C0220F0A94EAF7822309F43FC0F60117
:1020C000EE0FFF1FE80DF91DE590F490E114F10407
:1020D00009F477CF45E050E0B701CE0101960E94A8
:1020E000EB2A09810F3F51F18A81800F9927991FAF
:1020F0008B34910514F08AE490E05C01AA0CBB1CBF
:102100008A0D9B1DDC01AF54BE4F5D01049D800113
:1021100011240F541E4F0A151B0520F0B5E0EB0EDD
:10212000F11CD8CF4D81453B08F044EB98016C8100
:102130008B810E9407070D5F1F4FEDCFEFEFCE1A87
:10214000DE0AF8E0CF16D10409F0AECF3ACFFC0199
:102150004191CF01E8E03BB9000000C047FF2BB937
:10216000440F000000C000C000C02BB900C0EA95B9
:1021700091F759CFAF92BF92CF92DF92EF92FF9239
:102180000F931F93CF93DF9300D00F92CDB7DEB79D
:10219000082FF62E142FE22E80917E0380FF4FC071
:1021A000E82FE695AE2FB0E0AA5BBE4F9C919093CE
:1021B0003F038E7F823009F056C0453B08F044EB68
:1021C0009E012F5F3F4F6F2D802F0E940707809148
:1021D0007E0380FF11C02B8139814A8180910D01DE
:1021E00090910E0153E0859FF0011124EF54FE4FB2
:1021F000891798F10E94BA0F80917F03801308C05D
:10220000809180038F1104C080918103811729F090
:102210008091410382608093410300937F03F09299
:10222000800310938103EE2051F060917E03709142
:102230007F0380918003909181030E949C0C0F90FA
:102240000F900F90DF91CF911F910F91FF90EF9022
:10225000DF90CF90BF90AF90089541833083228369
:102260008F5F3396C5CF923039F6E2508E2F817052
:10227000D82EE695F0E0E457FD4FA590B490C12C20
:10228000BB2460910F01C61608F0B4CF2C2D30E0AE
:10229000A29EC001A39E900DB29E900D112470E0ED
:1022A0000E94752A802FD11016C0860F40910D0113
:1022B000420F532F511D9A01220F331F240F351F38
:1022C0002F543E4F412F153B08F044EB6F2D0E94D9
:1022D0000707C394D6CF861BE9CF20E00C94BA1031
:1022E00090917E0390FF26C0917081111CC0926076
:1022F00090937E0380914103816080934103662324
:1023000051F060917E0370917F03809180039091E2
:1023100081030E949C0C4091810360918003809115
:102320007F030C946D118C3010F09661E1CF880F13
:10233000982BDECF089521E030E0A90102C0440FC0
:10234000551F8A95E2F7CA01209142036623C1F026
:10235000822B8093420380914103806180934103EB
:1023600080914003811106C080917E0360E08695D4
:102370000E94701180917E0380FD05C00C94BA0FFD
:1023800080958223E6CF0895CF93DF93C82FC17045
:1023900082FBDD27D0F981FB662760F984E00E948B
:1023A0009B1161E06C2785E00E949B116D2F86E0F8
:1023B000DF91CF910C949B11EEE7F3E08081816077
:1023C000808360E086950C94701180917E038695E1
:1023D000815009F48BE061E00C94701180917E03D0
:1023E00086958F5F8C3008F081E061E00C9470116D
:1023F00080917E0380FF07C0869582588F77893051
:1024000010F40C94EE1161E082E00C947011CF9204
:10241000DF92EF92FF920F931F936B017C0161E0BB
:10242000C114D104E104F10409F06C2D617080E065
:102430000E949B1160E0C114D104E104F10441F059
:10244000D701C601B695A79597958795682F6170B6
:1024500081E00E949B1160E0C114D104E104F10409
:1024600059F0D701C60102E0B695A79597958795D3
:102470000A95D1F7682F617082E00E949B1160E09D
:10248000C114D104E104F10459F0D701C60113E0ED
:10249000B695A795979587951A95D1F7682F61708E
:1024A00083E00E949B11A7016627772780E14115F1
:1024B00051056105710519F4B701A60180E0052FEA
:1024C000162F272F3327011511052105310519F086
:1024D000885FB901A8018A019B01F4E03695279530
:1024E00017950795FA95D1F70115110521053105C5
:1024F00019F08C5FB901A8018A019B01E2E03695D1
:10250000279517950795EA95D1F70115110521052E
:10251000310519F08E5FB901A80176956795579539
:102520004795452B462B472B09F08F5F8130E1F013
:10253000882351F08230F1F0833011F10E94DC11D8
:1025400040E56FEF80E405C00E94DC1140E56FEFCD
:1025500082E30E946D11C701B6011F910F91FF9098
:10256000EF90DF90CF9008950E94DC1140E56FEF6F
:1025700088E0EFCF0E94DC1140E56FEF86E7E9CFFE
:102580000E94DC1140E56FEF8AEDE3CF0E94071255
:1025900060937703709378038093790390937A0321
:1025A0000C943A060F931F93609177037091780310
:1025B0008091790390917A038B019C010670112719
:1025C00022273327063011052105310529F46860DB
:1025D0001F910F910C94C612677FFACF0F931F9330
:1025E00041E050E060E070E004C0440F551F661FFA
:1025F000771F8A95D2F7CB01BA01609570958095C7
:102600009095009177031091780320917903309190
:102610007A0360237123822393231F910F910C94DB
:10262000C612909119038095892380931903282F4E
:10263000277071F4282F082E000C330B9217130605
:1026400039F08595859585950E94EE1210921903B3
:1026500008950F931F9341E050E060E070E004C0E4
:10266000440F551F661F771F8A95D2F78091770315
:1026700090917803A0917903B0917A038A019B012C
:10268000082B192B2A2B3B2BC901B8011F910F9145
:102690000C94C6123F924F925F926F927F928F92EC
:1026A0009F92AF92BF92CF92DF92EF92FF920F93E1
:1026B0001F93CF93DF9300D000D00F92CDB7DEB73A
:1026C0008C01FC0183819481892B39F08081918177
:1026D00089238F3F11F00C94571B0F900F900F9090
:1026E0000F900F90DF91CF911F910F91FF90EF907E
:1026F000DF90CF90BF90AF909F908F907F906F9022
:102700005F904F903F9008950E94370AF82E682FEF
:1027100089819A810E94AC0569817A818F2D0E94FE
:10272000AB087C01F8018281882309F460C0C701ED
:1027300090568115F0E29F0750F0905E811520E1E0
:10274000920728F0915C81159F4108F08BC0C7016A
:1027500099279C01245031092432310520F08B97B0
:102760000E9708F044C080919402909195020097D2
:10277000C1F10E941005C0909302D12C9C0150E041
:1027800040E060E67AEE80E090E00E949D2ACA0177
:10279000B90125E030E040E050E00E949D2A622F20
:1027A00070E06C197D09072E000C880B990B0E94B4
:1027B000DA2B27EA39E747E45DE30E94662C4B01F8
:1027C0005C01B601DD0C880B990B0E94DA2B9B0192
:1027D000AC01C501B4010E943D2B0E94A92B60935E
:1027E00093020E942B059093950280939402F80126
:1027F0008281882309F44DC7970122513F4520313A
:10280000310508F0C6C68FEF93E00E94F42AFEEE71
:10281000EF0EF6E58F2EF2E09F2E8823D1F1809106
:102820001903877009F459CFF8018281882309F4CC
:1028300054CF82E00F900F900F900F900F90DF9188
:10284000CF911F910F91FF90EF90DF90CF90BF90AD
:10285000AF909F908F907F906F905F904F903F9040
:102860000C94111390E080E04FEFE416F10411F0A6
:1028700008F06FCFC7016DCF811424E0920679F282
:10288000C4010E94F42A811101C0EA943FEF831A27
:10289000930AE110F1CF1C821B8244244394EAE0A6
:1028A0003E2E74014FEFE41AF40AC4010E94F42A88
:1028B00089831A82882309F4B2CF9FEF980F93304F
:1028C00000F58A83498252E0850E911CC7010E945F
:1028D000F42A8B83882309F4A2CFCE0101967C01D0
:1028E000F70120812223E9F2213009F049C09181CA
:1028F0008281913041F4F2E0EF0EF11C0E94970BBF
:1029000009C04701EACF923049F422E0E20EF11CFF
:102910000E948B063FEFE31AF30AE2CF933031F4C3
:1029200032E0E30EF11C0E945206F4CF943021F005
:102930004FEFE41AF40AEECF52E0E50EF11C30E05E
:1029400020E0B7016F5F7F4FF70141818053990B02
:102950008A30910550F021503109E0F28FE99FE073
:102960000197F1F700C00000F6CF329EF001339ED0
:10297000F00D11249C012E0F3F1F842F7B01E1CF0E
:10298000E22FF0E0E55CFA4F5490822F8695869511
:10299000869590E0FC01E55DFA4F64902770712CFC
:1029A000022E02C0759467940A94E2F7E1E06E2269
:1029B0007724FC01E55EFA4FA490B12C022E02C0F0
:1029C000B594A7940A94E2F7F1E0AF22BB24FC018E
:1029D000E55FFA4FC490D12C02C0D594C7942A95D4
:1029E000E2F721E0C222DD246114710419F081EEC6
:1029F0000E948B06A114B10419F086EE0E948B068A
:102A0000852D0E94970BAB2819F086EE0E94520686
:102A1000672819F081EE0E945206CD2809F47ACF7A
:102A20008CE26CCF81E00E9429130E94D212F7CE73
:102A300081E00E94EE12F9CF82E0F5CFE2E8EE16D7
:102A4000EFE5FE0609F454C0F3E8EF16FFE5FF06D4
:102A500009F0B9C5882309F464C0809198028111F6
:102A600009C081E08093980281EE0E948B0683EE7C
:102A70000E948B060E942B059093970280939602EA
:102A800081EE0E948B0680E513C0882369F1809156
:102A90009B02811106C081E080939B0282EE0E941E
:102AA0008B060E942B0590939A02809399028BE2E9
:102AB0000E948B0688C58823A1F080919B0281111A
:102AC00006C081E080939B0282EE0E948B060E94EA
:102AD0002B0590939A028093990281EE0E948B06B7
:102AE000E6CF81EE0E9452068BE20E9452066BC531
:102AF0008823A9F080919802811109C081E0809318
:102B0000980281EE0E948B0683EE0E948B060E9443
:102B10002B0590939702809396028FE4C9CF8FE4A0
:102B2000E4CF80E5E2CFF8EFEF16FCE5FF0681F495
:102B3000F80182818823D1F01092AD021092000139
:102B40001092AF021092AE0281E00E9458084BC56D
:102B500080910001F9EFEF16FCE5FF0639F4F8016A
:102B60009281992319F08111E7CF3AC57090000145
:102B7000772021F11092B1021092B002612C65E031
:102B8000562E88248394912C44244394C090B00200
:102B9000D090B10282E0C816D10488F18091B202CF
:102BA000882309F4C2C00E942B059093AF02809342
:102BB000AE0280E00E945808611031CEF3EFEF16AC
:102BC000FCE5FF0609F4E6C008F082C538EDE3161F
:102BD0003CE5F30609F4DAC049EDE4164CE5F406E9
:102BE00009F4E4C057EDE5165CE5F50609F0FBC411
:102BF00026E241EE61EEC8010E94B20B10CE5C9C51
:102C0000F0015D9CF00D1124EF5FFE4F80819181FA
:102C10003FEF20E0E22FF0E0EE0FFF1FE80FF91F7B
:102C200045915491E416F50609F4322F452B11F025
:102C30002F5FF0CF3F3FE9F4312C6328772059F024
:102C40005C9CF0015D9CF00D1124EF5FFE4F77243A
:102C5000739484818111712C572D5170752E809140
:102C6000B0029091B10201969093B1028093B002AC
:102C70008DCF3090AD02F80192815C9CF0015D9C9B
:102C8000F00D1124EF5FFE4F8481540101C0AA0CA6
:102C90003A95EAF7992349F1A82AA482332061F2F0
:102CA000C40102C0880F991F2A95E2F70197A81660
:102CB000190619F682819381009729F00E94430832
:102CC0004092B202BACFC114D104D1F78AE291E0A6
:102CD0000E9443088FE39CE90197F1F700C00000D0
:102CE0008AE291E00E942E08EBCFA40102C0440FBB
:102CF000551F2A95E2F79A012150310982171306D0
:102D000091F482819381009711F00E942E085C9CBF
:102D1000F0015D9CF00D1124EF5FFE4FA0948481C3
:102D2000A822A4828ACF312CF2CF61100EC081E09C
:102D30000E945808772009F441CF1092AF021092F8
:102D4000AE0281E08093AD0239CFF8018281882301
:102D500009F465CD8091AD02882309F460CD0E940D
:102D60002B059093AF028093AE02E091AC02E83065
:102D700008F055CD81E08E0F8093AC02F0E0EE0FAD
:102D8000FF1FE456FD4FF182E08249CD27E245EE78
:102D900065EE31CF26E241EE60EE2DCF27E245EE23
:102DA00064EE29CF26E241EE62EE25CF28E241E033
:102DB000EFCF80913603806136E0E3163CE5F30601
:102DC00009F49FC080913603886047E0E4164CE523
:102DD000F40608F496C080913603806292C0809118
:102DE00036038D7F5CE0E5165CE5F50609F489C0E5
:102DF00078F4809136038C609AE0E9169CE5F90638
:102E000009F47FC008F48CC0809136038E7F79C0AE
:102E100080913603877FFEE0EF16FCE5FF0609F49C
:102E200070C0809136038B7F2FE0E2162CE5F2060E
:102E300008F467C0809136038F7E63C03BEFE316D2
:102E40003CE5F30609F464C068F553E1E5165CE57A
:102E5000F50609F477C090F491E1E9169CE5F906CE
:102E600009F46CC0E2E1EE16ECE5FE0609F001C4DF
:102E70000E94E80C809136038F7743C0F5E1EF168E
:102E8000FCE5FF0609F466C008F47AC080913703B8
:102E900081603AEFE3163CE5F30609F0EAC380935C
:102EA0003703E7C34FEFE4164CE5F40609F44EC0D0
:102EB00088F48DEFE8168CE5F806C1F180913703B0
:102EC0008E7F9EEFE9169CE5F90648F38091370363
:102ED0008360E5CFE1E0EE16EDE5FE0609F459C0AA
:102EE00008F444C060E022E0E2162DE5F20609F0A5
:102EF000C0C38EE090E00E94082BBBC380913603D4
:102F0000816080933603B5C3809136038460F9CF26
:102F1000809137038260C3CF809136038064F1CF04
:102F20000E94E80C809136038068EBCF80913703D4
:102F30008D7FB5CF809136038F7DE3CF80913603AF
:102F40008F7BDFCF80913603837FDBCF8091370388
:102F50008C7FA5CF8091360382FB992790F921E0E1
:102F6000922790FB82F990FB83F9CBCF80913703B6
:102F7000982F909591708E7F892B90FB81F98FCF40
:102F80000E94E80C90913603892F97FB87F98058AF
:102F9000B8CF61E0AECF36E1E3163CE5F30609F0C9
:102FA000BCC380911C038A7A91E009F490E090936D
:102FB000B30269E2811165E384EA91E00E9437057A
:102FC0000E9457052CCC8091B30281110FC089E279
:102FD000E6EAF1E02CEA31E09191891303C0DF01C8
:102FE00011971C922E173F07B9F7EACF85E3F0CF70
:102FF00080917E0380FF1EC08E7F80937E03609150
:103000007E0370917F0380918003909181030E94E1
:103010009C0C809141038160809341034FEF50E706
:1030200082E0415050408040E1F700C000000E9423
:10303000BA0FF5CB816080937E0361E086950E9494
:103040007011EDCB45EE51E16EEE71E10E94EC06A0
:10305000E6CB4EEE51E165EE71E1F8CF45E15FE17F
:103060006EE17FE1F3CF4EE15FE165E17FE1EECF1D
:103070004DEF5EE169E07FE1E9CF49E05FE16DEFAF
:103080007EE1E4CF45EE5EE161EF7EE1DFCF41EF2F
:103090005EE165EE7EE1DACF4EEA5CE06FEB7CE06C
:1030A000D5CF4FEB5CE06EEA7CE0D0CF61E081E011
:1030B000C6CF0E94F811B3CB0E94E80C9FEFE4E367
:1030C000FCE09150E040F040E1F700C000000E94B9
:1030D000730B0E94320CA3CBC7010E948405D82E2B
:1030E00035C32F2D2F70A22E8F2D807F19F0A29423
:1030F00090EFA922DD20C9F0AA2069F080E28E0DB0
:10310000883010F081100BC080911C03A82AA09277
:103110001C030E9457058E2D0E948B0619C08091BA
:103120001B03A82AA0921B03F4CF8E2D0E945206E7
:10313000AA2071F0A09480E28E0D883010F08110EA
:103140003EC080911C03A822A0921C030E94570538
:10315000E32DE850FF0B349720F40E94E0060E9414
:10316000C411CC2009F4B9CA8091190380FDB5CAF5
:10317000F80112828595859585950E942913C801CD
:103180000E944A13809119038595859585950F9026
:103190000F900F900F900F90DF91CF911F910F9193
:1031A000FF90EF90DF90CF90BF90AF909F908F9067
:1031B0007F906F905F904F903F900C94EE128091B3
:1031C0001B03A822A0921B03C1CF3F2D3F70932E5B
:1031D0008F2D807F803219F0929480EF9822882082
:1031E00071F041E0841661F1DD20B9F1AA2071F19E
:1031F000F801858180FF8FCF8F70858327C0DD2008
:1032000091F090911D03892D892BA11003C00E947C
:1032100002069ECF51E0A512FACF981709F498CF75
:1032200080931D0395CFA11006C00E945105892DE2
:103230000E94F7058DCF81E0A81609F489CFF5CF5C
:10324000DD2031F095E09A1508F482CF892DDFCF8B
:10325000E4E0EA1508F47CCFEACFAA2041F3F9E3D1
:103260008F128FC12FEF37EE43E0215030404040A6
:10327000E1F700C000008E2D0E94520669CF8F2D0D
:1032800086958695837061F0813009F061CFC70122
:103290009370D11002C090E080E00E940E0658CFDB
:1032A000C7019370D11002C090E080E00E94240614
:1032B0004FCF8F2D837009F066C0D11049CF8E2D6E
:1032C000829586958770880F880F6E2D6F70462EB9
:1032D000512C712C612C082E04C0440C551C661C0A
:1032E000771C0A94D2F740E050E0BA01E4FE0FC028
:1032F0004FE050E060E070E004C0440F551F661FCF
:10330000771F8A95D2F740955095609570958F2DCF
:10331000869586958370823019F1D8F480901E03CB
:1033200090901F03A0902003B0902103813069F09A
:103330004429552966297729CB01BA0168217921C9
:103340008A219B210E94480603CF482859286A28D1
:103350007B28CB01BA016429752986299729F2CFE8
:10336000442955296629772940901E0350901F0350
:103370006090200370902103CB01BA01642575256C
:1033800086259725DFCF8695DD2011F08F2D817062
:10339000882309F4DDCE8E2D829586958770880F5F
:1033A000880F6E2D6F70462E512C712C612C082EBB
:1033B00004C0440C551C661C771C0A94D2F740E0EC
:1033C00050E0BA01E4FE0FC04FE050E060E070E072
:1033D00004C0440F551F661F771F8A95D2F740958A
:1033E0005095609570958F2D869586958370823067
:1033F00019F1D8F48090770390907803A090790326
:10340000B0907A03813069F04429552966297729DB
:10341000CB01BA01682179218A219B210E94C61221
:1034200097CE482859286A287B28CB01BA016429FD
:10343000752986299729F2CF4429552966297729A4
:1034400040907703509078036090790370907A03EE
:10345000CB01BA016425752586259725DFCF9F2DE1
:103460009F70F92EDD2029F0892F0E9429138E2DBF
:10347000CECE8E2D0E94F7058F2D0E94EE1268CEC3
:103480008E2DE2EF8E1609F453C0E81578F0F0EFB8
:103490008F1629F121EF821609F442C0DD2009F4CC
:1034A0006BC0A11038CE8F2D8F713FC033EF8316C4
:1034B00009F443C044EF8412F1CFDD2009F451C078
:1034C0009F2D9F71F92E892F0E942913E8E0FE9EFF
:1034D000C00111248360809319038F2D26C0DD2045
:1034E000D1F054E05A1508F433CE2F2D2F7161E03E
:1034F00070E080E090E004C0660F771F881F991F7E
:103500002A95D2F740907703509078036090790322
:1035100070907A039FCF85E08A1508F419CEE5CF25
:103520008F2D8F71DD2009F4A8CF0E94291310CEB2
:103530008F2D8F71DD20C9F3A0CF60E070E0CB014B
:10354000DD2009F46BCF2F2D2F7161E070E080E05A
:1035500090E004C0660F771F881F991F2A95D2F745
:103560005DCF81E00E941113F1E0FA1508F0F0CD73
:1035700082E00E941113ECCDAA2041F0893309F4B6
:1035800071CE8FE39CE90197F1F773CE8F2D8F7188
:1035900074CFF0E1EF16FFE5FF0609F443CA21E11D
:1035A000E2162FE5F20609F447CA41E8E4164FE5B2
:1035B000F40609F480CA08F041CA90E8E9169FE5CC
:1035C000F90609F462CA1092B20227EFE2162CE55E
:1035D000F20609F0A8CAF8018281882309F4C6CA54
:1035E00081E080930001F8019281992309F482C05F
:1035F00010927D03F2E0EF16FCE5FF0608F4CBCC59
:1036000026E1E2162CE5F20638F097012A5F3C45E8
:103610002930310508F0BFCC0E947708909337031A
:103620008093360330E1E3163CE5F30609F482CCDF
:1036300008F004CC58E0E5165CE5F50609F46CCC1E
:1036400008F0CDCB94E0E9169CE5F90609F45CCCD2
:1036500008F0AFCBF2E0EF16FCE5FF0609F44ECC24
:1036600080913603826023E0E2162CE5F20609F42D
:1036700048CC60913603F090370384E090E00E94DC
:10368000082B6F2D81E290E00E94082B0E94E80C2D
:10369000C6C830E1E3163FE5F30609F4C9C941E1C4
:1036A000E4164FE5F40609F080CF82E0C2C985E058
:1036B000DE01119601900D928A95E1F7F8012281C1
:1036C00089819A81211120C80E948405F82E24C87E
:1036D00085EFE8168CE5F80609F464CB08F45ECBB8
:1036E00027E245EE66EEE6EFEE16ECE5FE0609F49F
:1036F00082CA79CFF6E1EF16FCE5FF0609F463CC48
:1037000080911C038272F701E25CFC45E431F10513
:1037100078F4E351F34D0C94BC2AE1142CE5F20645
:1037200009F4CACC3EEDE3163CE5F30609F4D1CC2E
:10373000F801E080F180992309F4CECCC7010E9402
:10374000370AD82E682FC7010E94AC05B7018D2D0E
:103750000E94B8087C01882EF801D280A580A2942E
:103760003FE0A322809119038770A1F0CD2CDD20CA
:1037700091F08F2D807F803421F080E28E0D883093
:1037800048F082E00E941113809119038770CC24C5
:10379000C3948111C12C3F2C32942FE03222FBE0E4
:1037A000F31508F4D5CCE32DF0E0EF5FF24D0C9467
:1037B000BC2A1F93CF93DF938091B902807FA9F435
:1037C0008091B602882389F08091EB02D091BA02F1
:1037D0006091B4027091B502A091B702B091B802A5
:1037E000C62FC72316E0D81304C0DF91CF911F91D5
:1037F000089590E0109711F0CF3F19F4019687706B
:10380000F2CF189F9001199F300D1124F901E55452
:10381000FD4F41814713F2CF40814613EFCF4281E4
:103820004111ECCF438154814A1B5B0B4436510557
:1038300028F78091B9028F7080618093B902F901F5
:10384000E054FD4F80818F708061808384EB92E033
:103850000E944A13DF91CF911F910C94D805AF922B
:10386000BF92CF92DF92EF92FF920F931F93CF936D
:10387000DF93CDB7DEB761970FB6F894DEBF0FBE0A
:10388000CDBF8C0185E0F801DE011D9601900D92FF
:103890008A95E1F7F80180819181E28024EBA22EE4
:1038A00022E0B22E6091B7027091B80261157105E5
:1038B00009F43EC13091B4024091B502232F242374
:1038C0002F3F09F435C1C380D480F090B602F601D1
:1038D000E61BF70BFF2009F4FBC02091B902522F21
:1038E000507FE436F10508F0BBC0511178C0FE2CC2
:1038F000491321C038131FC0E1101DC02F70206173
:103900002093B902C5010E944A138091B902F801BF
:1039100085838F2D61960FB6F894DEBF0FBECDBFA5
:10392000DF91CF911F910F91FF90EF90DF90CF909B
:10393000BF90AF900895CD2829F0282F29232F3F3D
:1039400009F014C120E0F22FF170DF2E20FF3DC0FE
:103950002091EB024091BA0256E0241315C08D87E6
:103960009E878D859E850E94790A292F22952F702A
:103970002230F8F0243020F59F70F9F0F80195819D
:10398000907FD9F4D12C1FC030E0529FF001539F9B
:10399000F00D1124E554FD4F6181961306C060813E
:1039A000861303C06281E61210C02F5F3F4F27705D
:1039B000D4CF9F7011F0882329F3805E883010F3F4
:1039C000C8010E944A13FD2CA4CFEE2009F4A1CF18
:1039D0008091B90281608093B902F12C9ACF49138A
:1039E00012C0381310C0E1100EC0F8012583C801C1
:1039F0000E944A1386E0F801A4EBB2E001900D9218
:103A00008A95E1F786CF8D879E878D859E850E945A
:103A1000830A882309F1EE20F9F08091B9028032FF
:103A200070F02091B4023091B50238872F83198647
:103A3000DB86CA868C87CE0107960E944A1386E0F1
:103A4000F801A4EBB2E001900D928A95E1F70E9493
:103A5000D91BFF24F3945DCFC8010E944A13F9CF0C
:103A600051110AC084EB92E00E944A1386E0F501EE
:103A700011928A95E9F7B1CF49130FC038130DC0E1
:103A8000E1100BC0F8012583C8010E944A1386E0AB
:103A9000F50111928A95E9F73CCF8D879E878D8538
:103AA0009E850E94830A8823B9F2EE20A9F28091B4
:103AB000B902803220F22091B4023091B5023A83EB
:103AC00029831B82DD82CC828E83CE010196B5CF05
:103AD000E436F105E0F6FE2CEE2009F4BDCF4913E3
:103AE00016C0381314C08091B90280FD83CF982F7F
:103AF000907F09F47FCFF8018583903F09F477CF59
:103B0000982F907F905F8F70892B858370CF8D87E2
:103B10009E878D859E850E94830A811190CF80911A
:103B2000B90281608093B902C8010E944A13F1CEA4
:103B3000EE2009F491CF8D879E878D859E850E940A
:103B4000830AF82E882309F487CF86E0F801A4EBD6
:103B5000B2E001900D928A95E1F78091B4029091C4
:103B6000B5020E94790A0E94D91BD3CE21E02E25EE
:103B7000EACE1F93CF93DF93CDB7DEB767970FB62B
:103B8000F894DEBF0FBECDBF342F4B8B252F5C8B3F
:103B90006D8B7E8B8F8B8E899F89611110921B0399
:103BA0001A8A198A3D872E876F87998B888B86E0C2
:103BB000FE013D96DE01179601900D928A95E1F780
:103BC000CE0107960E942F1C882389F016E0809171
:103BD000EB029091BA02891349C067960FB6F89428
:103BE000DEBF0FBECDBFDF91CF911F91089586E05C
:103BF000FE013796DE01119601900D928A95E1F74C
:103C00008A859B85892B11F38F81988589238F3F26
:103C1000E9F22091BA0230E0C90101968770992734
:103C20004091EB024817190671F40E94E80C1092BB
:103C3000BA021092EB0286E0E4EBF2E0DF011D92A3
:103C40008A95E9F7C3CF96E0929FD001939FB00D7C
:103C50001124A554BD4FFE01319601900D929A9505
:103C6000E1F78093BA020E94D805B0CF819FC001CE
:103C7000112485549D4F0E942F1C882309F4ADCF39
:103C80008091EB0290E00196877099278093EB0278
:103C90009ECF0F931F93CF93DF93CDB7DEB7A89737
:103CA0000FB6F894DEBF0FBECDBF81114DC006E048
:103CB000662359F10CA311E01DA31EA30E942B053E
:103CC0008160782F98A78FA34CA15DA16EA188A5D4
:103CD0000E94B91D0F8F18A319A20E942B058160A5
:103CE000782F9BA38AA34F8D58A169A18BA10E9415
:103CF000B91D81E0A8960FB6F894DEBF0FBECDBF08
:103D0000DF91CF911F910F9108950A8F13E01B8FC0
:103D100081E08C8F0E942B058160782F9E8F8D8F84
:103D20004A8D5B8D6C8D8E8D0E94B91D0D8B1E8B07
:103D30001F8A0E942B058160782F998F888F4D896B
:103D40005E896F89898DD3CF813099F66623F1F032
:103D500016E0188B198B8A8B0E942B058160782FB7
:103D60009C8B8B8B488959896A898C890E94B91DE3
:103D70001B871C871D860E942B058160782F9F87DB
:103D80008E874B855C856D858F85B1CF06E00E8370
:103D900018E01F8388870E942B058160782F9A87FF
:103DA00089874E815F8168858A850E94B91D098354
:103DB0001A831B820E942B058160782F9D838C8340
:103DC00049815A816B818D8192CFEEE7F3E0438187
:103DD00021E1421B08F440E021E0628181810C94E2
:103DE000BA10EEE7F3E0438121E1420F08F44FEF10
:103DF00021E0628181810C94BA10EEE7F3E06281E8
:103E000021E1621B08F460E021E0438181810C9490
:103E1000BA10EEE7F3E0628121E1620F08F46FEF80
:103E200021E0438181810C94BA10EEE7F3E08181B7
:103E300021E04381628188500C94BA10EEE7F3E0F0
:103E4000818121E043816281885F0C94BA10EEE7A2
:103E5000F3E080818E7F8083EFE3F3E082818160F5
:103E600082832FEF80E792E0215080409040E1F77D
:103E700000C000000C94BA0F8F929F92AF92BF9235
:103E8000CF92DF92EF92FF920F931F93CF93DF9326
:103E900000D000D00F92CDB7DEB707E111E08AE283
:103EA000C82E83E0D82E4601F12CAA24A394B12C6D
:103EB000D8018D918D01F894E82FE295EF70F0E034
:103EC00021A18F70A50102C0440F551F8A95E2F70A
:103ED000CA01922F982B91A392A18095892382A346
:103EE000789400C0E0E1F1E030E020E0E12C419185
:103EF000A42FA295AF70B0E090968C9190E04F7097
:103F000002C0959587954A95E2F780FD48C08A2DB5
:103F1000022E01C0880F0A94EAF7E82A2F5F3F4F6C
:103F20002730310521F7F801319780810E949D07E4
:103F300050EA5A95F1F7D4018C91E81691F1EC9280
:103F400081E0F82ABFEF8B1A9B0AE1E00C311E07D3
:103F500009F0AECF10913503FF2029F181E0809365
:103F6000AE010E942B059093AD018093AC0180912E
:103F7000AC019091AD010E9410050697C0F0E12FB1
:103F8000F0E0EA5AFC4FD6018D916D018193BFE2BA
:103F9000CB16B3E0DB06B9F71092AE0108C080E0A3
:103FA000BCCF80E0CECF8091AE018111E0CF0E94E6
:103FB000160CE82E60913503882309F4CDC08E01DC
:103FC0000F5F1F4F85E0F80111928A95E9F7862F60
:103FD00090E0B8018A5A9C4F0E94582881119FC0D6
:103FE0008091AF018F5F8093AF01863008F4B2C03B
:103FF000E0913403F0E0EA5AFC4FD801CE01069676
:1040000011921D928A179B07D9F78091000188238E
:10401000A1F08091AD02882381F08091AE02909151
:10402000AF02009751F00E9410058D32914028F0A8
:104030001092AD0281E00E94580880919402909104
:1040400095020E941005893E934060F160919302B1
:10405000062F10E066277727601B710B072E000CD8
:10406000880B990B0E94DA2B27EA39E747E45DE3D6
:104070000E94662C4B015C01B801110F880B990B53
:104080000E94DA2B9B01AC01C501B4010E943D2BBB
:104090000E94A92B609393020E942B059093950296
:1040A0008093940280919B02882371F08091990201
:1040B00090919A020E941005893E934028F082EE6A
:1040C0000E94520610929B0280919802882389F0E8
:1040D00080919602909197020E941005893E93402C
:1040E00040F081EE0E94520683EE0E94520610922A
:1040F0009802F11001C0FE2C8F2D0F900F900F90A1
:104100000F900F90DF91CF911F910F91FF90EF9043
:10411000DF90CF90BF90AF909F908F9008951092B6
:10412000AF01A0913403B0E0AA5ABC4F9E012A5FB0
:104130003F4FE12C4D91F80191918F01491731F0DA
:10414000AD0141505109FA019083E82E021713077F
:1041500089F75BCFE12C59CF70E06A5A7C4F809190
:10416000340390E08A5A9C4F0E948B28C2CF1F9242
:104170000F920FB60F9211242F933F934F935F939B
:104180006F937F938F939F93AF93BF93CF93DF935F
:10419000EF93FF93D091E900DF708091EC00C82F7E
:1041A000C17080FDC0E81092E9008091F000877F27
:1041B0008093F00078940E94F30C1092E9008091B3
:1041C000F00088608093F000CD2BCF70C093E900A1
:1041D000FF91EF91DF91CF91BF91AF919F918F911F
:1041E0007F916F915F914F913F912F910F900FBEF3
:1041F0000F901F9018951F920F920FB60F921124D7
:104200002F933F934F935F936F937F938F939F93DE
:10421000AF93BF93EF93FF938091E10082FF09C0BA
:104220008091E20082FF05C08091E1008B7F809346
:10423000E1008091DA0080FF24C08091D80080FFE7
:1042400020C08091DA008E7F8093DA008091D900BF
:1042500080FF9BC080E189BD82E189BD09B400FE79
:10426000FDCF81E080936D0380916003811109C0CF
:104270000E9480030E944B048091E200846080933E
:10428000E2008091E10080FF17C08091E20080FF92
:1042900013C08091E2008E7F8093E2008091E20063
:1042A00080618093E2008091D80080628093D80082
:1042B00019BC85E080936D038091E10084FF29C0E3
:1042C0008091E20084FF25C080E189BD82E189BD43
:1042D00089B5982F917080FFFBCF8091D8008F7D9A
:1042E0008093D8008091E1008F7E8093E1008091DF
:1042F000E2008F7E8093E2008091E20081608093F3
:10430000E20080916E03882309F445C084E0809325
:104310006D038091E10083FF27C08091E20083FF5D
:1043200023C08091E100877F8093E10082E0809349
:104330006D0310926E038091E1008E7F8093E10007
:104340008091E2008E7F8093E2008091E2008061A4
:104350008093E20042E060E080E00E9419048091D6
:10436000F00088608093F000FF91EF91BF91AF91D2
:104370009F918F917F916F915F914F913F912F917D
:104380000F900FBE0F901F90189519BC10926D03DF
:104390001092600376CF8091E30087FD93E09093C5
:1043A0006D03B7CFCDB7DEB7AC970FB6F894DEBFCD
:1043B0000FBECDBF84B7877F84BF0FB6F894A89592
:1043C00080916000886180936000109260000FBE51
:1043D00080E890E00FB6F8948093610090936100BC
:1043E0000FBE85B7806885BF85B7806885BF8AE0C6
:1043F00095E09093A3018093A2010E9480030E9404
:104400004B048091E20084608093E2007894809174
:104410006D038823A1F01091E9001F709091EC00CA
:10442000892F817090FD80E8182B1092E90080910F
:10443000E80083FD0E94F30C1F701093E90082E0F6
:1044400084BD93E095BD9AEF97BD80936E00109266
:1044500026031092270310922803109229030E942A
:10446000160C8093210180912101882309F494C0C6
:1044700010920B0185E280930C010E94160C8111B1
:104480000E942F288091210181112FC0FE013596B5
:1044900086E0DF011D928A95E9F786E6898387E940
:1044A0008A8386EC8B8384E38C8385E38D833497C6
:1044B000A7E1B1E0CE010B9621912D938E179F07B6
:1044C000D9F787E0EFE3F1E0DE01919601900D92DC
:1044D0008A95E1F7FE01B196A0E1B1E0CE018896A0
:1044E00021912D938E179F07D9F78091210195E097
:1044F000811190E09093350385E0891B809334030C
:1045000007E111E0FCE1EF2EF1E0FF2EF8018191CF
:104510008F010E949D07E016F106C1F700E111E04E
:10452000E7E1EE2EE1E0FE2ED8018D918D010E9493
:104530009D07E016F106C1F7EAE2F3E084E393E0B9
:10454000A6E5B3E011921D928E179F07D9F70E943E
:104550003C1FEFE3FCE93197F1F700C000000E9437
:104560003C1F8091560380FF1BC06FEF82E290E0FA
:104570000E94082B6FEF83E290E00E94082B6FEF00
:1045800084E290E00E94082B6FEF7FEF90E080E0E4
:104590000E94262B0E94730B85E280930B016BCF48
:1045A00090E080E00E94022B8B3E9E4F11F00E9413
:1045B000320C0E94160C811102C00E94352882E242
:1045C00090E00E94F42A813209F00EC483E290E068
:1045D0000E94F42A873009F007C484E290E00E9428
:1045E000F42A813309F000C490E080E00E94022B9D
:1045F0008B3E9E4F11F00E94320C82E090E00E94B0
:10460000F42A80934B030E9477089093370380939A
:10461000360383E090E00E94F42A682F70E090E077
:1046200080E00E9448066091770370917803809142
:10463000790390917A030E940712809138038111C7
:1046400039C090E080E00E94022B8B3E9E4F21F00B
:104650000E94320C0E94D00C88E090E00E94FC2A5C
:1046600060937E0370937F03809380039093810314
:10467000809141038360809341036E7F71F40E94B7
:10468000D00C88E090E00E94FC2A60937E03709337
:104690007F0380938003909381030E94F1068091B1
:1046A0007E0380FF04C060E086950E94701181E067
:1046B0008093380380912101811106C084EF80939B
:1046C000230185EF8093220120912301A22FA2953F
:1046D000AF70B0E091963C9191972F7081E090E09F
:1046E000BC01022E01C0660F0A94EAF7462F4095DE
:1046F000432391964C93919792963C919297362BA7
:1047000092963C93929740912201E42FE295EF70AC
:10471000F0E031A14F70042E01C0880F0A94EAF72F
:10472000982F9095932391A392A1892B82A3909681
:104730008C9190E002C0959587952A95E2F781705B
:1047400020A130E002C0359527954A95E2F792E026
:1047500020FF90E0892B809349039091210181E013
:10476000982790934803891B809339038BEB95E03E
:1047700090933B0380933A0380917E038160809302
:104780007E0361E086950E94701160E08AE00E94DD
:10479000701140E56FEF82E30E946D1161E070E0FF
:1047A00080E090E00E94C61284E291E090933D0385
:1047B00080933C0308E110E060E4E62E86E593E098
:1047C0007AE0F72EF80E80916D03BB24B39440E19C
:1047D000C42E52E1D52E853009F41CC10E943C1F25
:1047E00081110E941F05ECE4F3E0A6E5B3E0D12CB3
:1047F000C12C8C2CAD9081918A1509F42CC18A258D
:10480000912CBB24B3949B2D982309F41FC10E94C3
:10481000160C882399F099A28AA2AB2081E009F4B2
:1048200080E08BA30E942B058160782F9DA38CA331
:1048300049A15AA16BA18DA10E94B91DF601E45BAB
:10484000FC4F8081B826B08280914903E82FEE0F9B
:10485000EE0F90912301A92FA295AF70B0E0909632
:104860002C9130E09F7002C0359527959A95E2F71C
:104870002170332790912201A92FA295AF70B0E04B
:1048800090964C9150E09F7002C0559547959A952F
:10489000E2F7CA018170992740FF02C082E090E0F0
:1048A000822B8E2B80934903D09048038F70E82F82
:1048B000F0E0ED57FE4F808190914703890F809380
:1048C000470320E0843074F0ED2D0D2C000CFF0B1D
:1048D000EB5BFC4F80818F5F808360E08D2D0E94B9
:1048E000491E21E0809147038D3F74F4ED2D0D2C7E
:1048F000000CFF0BEB5BFC4F80818150808361E0FB
:104900008D2D0E94491E21E080914703082E000C46
:10491000990B64E070E00E94892A8093470321117B
:104920000E940C060E94E00690914A03891731F01C
:104930000E94E00680934A030E94C41180916D0397
:10494000843009F040CF83E08093E9008091E80053
:1049500082FF39CF8091E80090E085FF06C00E9479
:104960009F03882309F490C091E08091E8008B7741
:104970008093E800992309F426CFE981E150E331DF
:1049800008F0F8C0F0E0E35FF24D0C94BC2A80918F
:104990006D03843009F431C080E00E94C41180911D
:1049A0004403811109C0B092440380917E03817059
:1049B000809343030E94271F10923E030FB6F89482
:1049C000A895009360000FBEE092600083B7817FDE
:1049D000846083BF83B7816083BF7894889583B7F1
:1049E0008E7F83BF0FB6F894A89580916000886190
:1049F00080936000109260000FBE80916C0388234A
:104A000049F00E943C1FE6E5F3E081918111D6C197
:104A1000FE12FBCF80916D03853009F4B8CF0E9460
:104A2000E80C0E94E0060E94C41110924403809199
:104A30004303882319F00E94DC11D0CE80914203F9
:104A4000882309F4CBCE0E94BA0FC8CE9394BB0C36
:104A500027E09212D8CE8FEFC81AD80A9AE0C9166A
:104A6000D10409F0C6CE8FEF88A789A71AA60E94A5
:104A70002B058160782F9CA78BA748A559A56AA50F
:104A80008CA50E94B91DE0CE30E2C32ED12CDE01F0
:104A900011965D018091E80085FD0AC08091E800D3
:104AA0008B778093E8000E949F03882399F35CCF63
:104AB0008091F100F50181935F01F1E0CF1AD108F7
:104AC00049F752CF1A8289E08B8311C08A818230E4
:104AD00009F4A3C18330A9F1813009F04BC00E94D1
:104AE0001F050E94C22A6B837C838D839E838091E5
:104AF0006D03843009F067CED090E9008D2D8F7062
:104B0000D82E9091EC00892F817090FD80E8D82AF2
:104B100082E08093E9008091E80080FF0DC050E0C2
:104B200040E060E270E0CE0101960E94D0038091E7
:104B3000E8008E778093E8008D2D8F708093E900D8
:104B400042CEDE011396E6E5F3E081918D9323E0FA
:104B5000E036F207D1F7CBCF8A81823059F46B81EE
:104B60007C818D819E810E94C22A85E290E00E9414
:104B7000082BBDCF8FEF8983BACF4C816B818A819F
:104B80000E9485089827892798279E838D83AFCF19
:104B9000AD80BE80BA24AB24BA248A81CB809EE04B
:104BA000C99E60011124ACE88A9FC00CD11C11245D
:104BB0008C8190E0880F991FC80ED91E6B2DC601FD
:104BC00086960E94082B6A2DC6018796D0CF0E9438
:104BD000A70A8DCF8A818138B1F058F4803809F066
:104BE00086CF4B816091800380917F030E946D117D
:104BF0007ECF8238A9F0833809F079CF40918103C4
:104C00006C818B81F3CF60E08B810E9470118B816E
:104C1000811103C00E94271F6ACF0E94DC1167CF59
:104C20008B818093820363CF8A81813899F030F43D
:104C3000803809F05CCF8091810346CF823891F0B3
:104C4000833809F054CF80917F038B838091800358
:104C50008C834DCF80917E0380FF02C0869534CF38
:104C600080E032CF809182032FCF60917E037091DC
:104C70007F0380918003909181030E949C0C37CF29
:104C800080E18A8334CF81E08A838AEA1DCFAA80BB
:104C9000BB80BA24AB24BA24FE0131966F018C800C
:104CA0008E0E9F2E911CC5018A5A9D4F8C149D0417
:104CB00009F41DCFFAEAAF16F1E0BF0660F40E94D6
:104CC000F42AD60114968C93FFEFAF1ABF0A2FEF88
:104CD000C21AD20AE8CFF6011482F6CFCA80DB806E
:104CE000DC24CD24DC24CE0101964C01AC80AC0C3C
:104CF000BD2CB11CC6018A5A9D4FAC14BD0409F4E9
:104D0000F6CEAAEACA16A1E0DA0620F4F40164811C
:104D10000E94082BFFEF8F1A9F0A2FEFC21AD20AA8
:104D2000E9CF0E94FC0AE3CE84E0ABCFAA80BB802F
:104D3000BA24AB24BA24CE0101966C018C80880E73
:104D4000992E911CC50186968C149D0409F4CFCE32
:104D5000A0E3AA16A2E0BA0658F40E94F42AF601CB
:104D60008483BFEFAB1ABB0AEFEFCE1ADE0AEACF9D
:104D7000D60114961C92F5CFCA80DB80DC24CD24AA
:104D8000DC24CE0101964C01AC80AC0CBD2CB11CD6
:104D9000C6018696AC14BD0409F4A9CEA0E3CA16D8
:104DA000A2E0DA0620F4F40164810E94082BFFEFF0
:104DB0008F1A9F0A2FEFC21AD20AEACFC9BCD9BCF8
:104DC00009B400FEFDCF8091D8008F7D8093D8007C
:104DD0008091E00082608093E0008091E00081FD9E
:104DE000FCCF0E94E80C16CE60E085E290E00E94C5
:104DF000082B0E94A70A0E94FC0A61E282E290E06E
:104E00000E94082B67E083E290E00E94082B61E398
:104E100084E290E00E94082BE7CB85E290E00E94BC
:104E2000F42A1B821C821D828E8361CE0F931F93F6
:104E30000E94160C882321F01F910F910C941F05DE
:104E40000E941F050091260310912703209128033B
:104E500030912903600F711F821F931F1F910F91C3
:104E60000895CF92DF92EF92FF926B017C010E9436
:104E7000160C81110EC00E941F05C61AD70AE80A37
:104E8000F90AC0922603D0922703E0922803F092F9
:104E90002903FF90EF90DF90CF90089578941F92B0
:104EA0001FB61F9211248F939F93AF93BF9380914E
:104EB000220390912303A0912403B091250301962E
:104EC000A11DB11D8093220390932303A09324037B
:104ED000B0932503BF91AF919F918F911F901FBEFB
:104EE0001F9018951F921FB61F9211248F939F93A6
:104EF000AF93BF9380913E03811113C08091220331
:104F000090912303A0912403B09125034196A11D04
:104F1000B11D8093220390932303A0932403B093A5
:104F20002503BF91AF919F918F911F901FBE1F903E
:104F30001895FF920F931F93CF93DF93D09139036E
:104F40000D2F10E00B5B1C4FFC01C081F80180812C
:104F5000C81BFC2E80E01F147CF09C2FC7FD90E046
:104F6000C91BC11114C08823E9F0DF91CF911F91B3
:104F70000F91FF900C940C06FA94F80180818F5FDA
:104F8000808360E08D2F0E94491E81E0E4CFCF5FD7
:104F9000F80180818150808361E08D2F0E94491E3D
:104FA00081E0DFCFDF91CF911F910F91FF900895A6
:104FB000E0914803F0E0EB5BFC4F2081FC01208393
:104FC00008958091930208958093930208951F930A
:104FD000CF93DF93EC01162F8F8184FF03C0988558
:104FE0009093420380FF0CC0888180FF15C0909190
:104FF0007E03916090937E03612F86950E947011CD
:105000008F8181FF0CC0212F4B816A818981DF91C3
:10501000CF911F910C94BA100E94271FF1CFDF91FE
:10502000CF911F91089525E0EEE7F3E0DC010190B8
:105030000D922A95E1F740913F0350914003609112
:10504000410370914203FC01458356836783708757
:10505000089510924103089580914103089562E0FC
:1050600070E08FE291E00C94152962E070E08FE22D
:1050700091E00C941E290E942C28882361F080E97D
:1050800093E00E94132881E090E00E94F729892B89
:1050900011F40C942928089580918F03883039F4F5
:1050A00060E080E993E00E94E72710928F03089563
:1050B000CF93DF93D62FC72F0E943B2890E080E04C
:1050C0000E94F729009729F5ED2FFC2FDC01A75747
:1050D000BC4F2C912193019685309105B9F78EE84C
:1050E00093E00E9499270E94E127809388030E9401
:1050F00016276E5F7F4F8F4F9F4F6093840370938F
:105100008503809386039093870381E0DF91CF919D
:10511000089580E0FBCFCF93DF93D62FC72F0E9457
:105120004C2860918403709185038091860390914F
:1051300087030E943127ED2FFC2F90E080E0219122
:10514000DC01A757BC4F2C93019685309105B9F728
:105150008EE893E00E94D82780918803DF91CF9159
:105160000C94E4278EE14A9B02C08150E1F74A9BF0
:10517000FECF08955A9880E28A95F1F75A9A0895D9
:10518000FC013BE03A95F1F720E090E080E031E06F
:1051900040E14A95F1F7880F4A9B02C081602327BE
:1051A00042E04A95F1F7000040E14A95F1F79F5F30
:1051B0006913EECF90E19A95F1F799B132E03A9503
:1051C000F1F7000040E14A95F1F792FB992790F939
:1051D00092272081920F90830895EF92FF920F9370
:1051E0001F93CF93DF930F92CDB7DEB719828C0157
:1051F0007C01E60EF11C0E151F0561F481E099811A
:10520000911180E00F90DF91CF911F910F91FF904E
:10521000EF9008950E94B22868E0CE0101960E94A6
:10522000C028F80181938F01E6CF90939B03809370
:105230009A0360939903529A5A9A089590939B0304
:1052400080939A036093990352985A9AEA9AE9E6EE
:10525000F0E080818F7C808308956150770B91E02E
:1052600001C0990F6A95EAF720E031E0911108C07A
:10527000222391F05A9A80E28A95F1F75A9808957C
:10528000492F482339F05A9A232740E24A95F1F7EB
:105290009695ECCF5A98F9CF5A98EDCFFF920F938D
:1052A0001F93CF93DF93EC018C01060F111DC017E4
:1052B000D10731F4DF91CF911F910F91FF900895A5
:1052C000F9900E94BA2868E08F2D0E942D29EFCF17
:1052D0001F920F920FB60F9211240F931F932F93CB
:1052E0003F934F935F936F937F938F939F93AF936E
:1052F000BF93EF93FF93CF93DF930F92CDB7DEB7BA
:1053000019820E94B22867E0CE0101960E94C0284F
:10531000082F069506950695982F92959570202F43
:105320002570920F292F2370969596958770920F6E
:10533000891344C08981811141C0809199038017EC
:10534000E8F120E12A95F1F75A9A529A82E08A957B
:10535000F1F700C0A8E00A9FC001112400919A0350
:1053600010919B03080F191F5A98F8016581662355
:1053700021F0868197810E944E290E94BA28F0E18F
:10538000FA95F1F75A9852985A9A20E12A95F1F72E
:10539000D80112966C911297662331F113968D9174
:1053A0009C910E94ED28D801ED91FC91882311F089
:1053B00088E001C082E080830E94B2280F90DF91D4
:1053C000CF91FF91EF91BF91AF919F918F917F917D
:1053D0006F915F914F913F912F911F910F910F907E
:1053E0000FBE0F901F901895ED91FC91E1CF0F9398
:1053F0001F93CF93DF9320919903281719060CF47C
:1054000071C08C0193E0000F111F9A95E1F7C091D4
:105410009A03D0919B03C00FD11FF894529A5A98C7
:1054200025E02A95F1F70000982F969595708570E4
:10543000980F892F837096959695980F092B0E9447
:10544000BA2800C067E0802F0E942D2980E18A954C
:10545000F1F752985A9A4A9B17C087E090E04A9910
:1054600015C06D81662321F18E819F810E94ED28F8
:1054700081111EC0529A5A9AE881F98182E0808394
:10548000789482E090E00DC000C0E5CF019771F400
:10549000529A5A9AE881F98181E08083789481E078
:1054A00090E0DF91CF911F910F91089500C0D7CF69
:1054B0000E94B22820E22A95F1F75A98529A80E188
:1054C0008A95F1F76A81662321F08B819C810E9485
:1054D0004E290E94BA28E881F9811082789490E0E0
:1054E00080E0DFCF84E090E0DCCFAA1BBB1B51E162
:1054F00007C0AA1FBB1FA617B70710F0A61BB70B44
:10550000881F991F5A95A9F780959095BC01CD01E8
:10551000089597FB072E16F4009407D077FD09D065
:105520000E94752A07FC05D03EF4909581959F4F07
:105530000895709561957F4F0895052E97FB1EF491
:1055400000940E94B42A57FD07D00E94C92A07FC84
:1055500003D04EF40C94B42A509540953095219583
:105560003F4F4F4F5F4F089590958095709561958F
:105570007F4F8F4F9F4F0895EE0FFF1F0590F491BF
:10558000E02D0994692796276927782787277827A8
:105590000895A1E21A2EAA1BBB1BFD010DC0AA1F74
:1055A000BB1FEE1FFF1FA217B307E407F50720F08C
:1055B000A21BB30BE40BF50B661F771F881F991F07
:1055C0001A9469F760957095809590959B01AC0150
:1055D000BD01CF010895FB01DC0102C005900D92D1
:1055E00041505040D8F70895F999FECF92BD81BD42
:1055F000F89A992780B50895A6E1B0E044E050E01C
:105600000C942E2BA8E1B0E042E050E00C942E2B3D
:10561000262FF999FECF92BD81BDF89A019700B46B
:10562000021639F01FBA20BD0FB6F894FA9AF99A0B
:105630000FBE08950396272F0E94092B0E94082B66
:10564000252F0E94092B242F0C94092B0196272F1C
:105650000E94092B0C94082BDC01CB01FC01F99969
:10566000FECF06C0F2BDE1BDF89A319600B40D92AE
:1056700041505040B8F708955058BB27AA270E94C0
:10568000542B0C942C2C0E941E2C38F00E94252C9C
:1056900020F039F49F3F19F426F40C941B2C0EF4DF
:1056A000E095E7FB0C94152CE92F0E943D2C58F354
:1056B000BA17620773078407950720F079F4A6F5F7
:1056C0000C945F2C0EF4E0950B2EBA2FA02D0B013D
:1056D000B90190010C01CA01A0011124FF27591B37
:1056E00099F0593F50F4503E68F11A16F040A22F3D
:1056F000232F342F4427585FF3CF469537952795AE
:10570000A795F0405395C9F77EF41F16BA0B620BAC
:10571000730B840BBAF09150A1F0FF0FBB1F661FF3
:10572000771F881FC2F70EC0BA0F621F731F841F36
:1057300048F4879577956795B795F7959E3F08F05C
:10574000B0CF9395880F08F09927EE0F979587951E
:1057500008950E94452C88F09F5798F0B92F9927FB
:10576000B751B0F0E1F0660F771F881F991F1AF04C
:10577000BA95C9F714C0B13091F00E945F2CB1E026
:1057800008950C945F2C672F782F8827B85F39F025
:10579000B93FCCF3869577956795B395D9F73EF4E5
:1057A00090958095709561957F4F8F4F9F4F08958D
:1057B000E89409C097FB3EF49095809570956195AB
:1057C0007F4F8F4F9F4F9923A9F0F92F96E9BB2761
:1057D0009395F695879577956795B795F111F8CFDD
:1057E000FAF4BB0F11F460FF1BC06F5F7F4F8F4F48
:1057F0009F4F16C0882311F096E911C0772321F03E
:105800009EE8872F762F05C0662371F096E8862FD5
:1058100070E060E02AF09A95660F771F881FDAF72C
:10582000880F9695879597F9089597F99F6780E86F
:1058300070E060E008959FEF80EC089500240A94E2
:105840001616170618060906089500240A9412165B
:105850001306140605060895092E0394000C11F48E
:10586000882352F0BB0F40F4BF2B11F460FF04C03B
:105870006F5F7F4F8F4F9F4F089557FD9058440F94
:10588000551F59F05F3F71F04795880F97FB991F9F
:1058900061F09F3F79F0879508951216130614065C
:1058A000551FF2CF4695F1DF08C0161617061806E9
:1058B000991FF1CF86957105610508940895E894C4
:1058C000BB2766277727CB0197F908950E94792C8B
:1058D0000C942C2C0E941E2C38F00E94252C20F0B9
:1058E000952311F00C94152C0C941B2C11240C9462
:1058F000602C0E943D2C70F3959FC1F3950F50E0F2
:10590000551F629FF001729FBB27F00DB11D639F71
:10591000AA27F00DB11DAA1F649F6627B00DA11D17
:10592000661F829F2227B00DA11D621F739FB00DBD
:10593000A11D621F839FA00D611D221F749F33272D
:10594000A00D611D231F849F600D211D822F762FC6
:105950006A2F11249F5750409AF0F1F088234AF0A3
:10596000EE0FFF1FBB1F661F771F881F915050400F
:10597000A9F79E3F510580F00C94152C0C94602CD7
:105980005F3FE4F3983ED4F3869577956795B79596
:10599000F795E7959F5FC1F7FE2B880F911D9695B0
:1059A000879597F90895F894FFCF920A920A9B0A77
:1059B0009B0A9D0A9B0A9B0A9B0A920A920AA20AC8
:1059C0009B0A9B0AA20AD80D000E530E000E530E1E
:1059D000330E6B0E530E680F750FF8172218291827
:1059E0002E18331838183D18421847184C185118FB
:1059F00056180F140F140F140F140F140F145918F6
:105A00000F1471187118E518E5183F19A818A8188F
:105A1000A81859192F1A401A401A62256625AC2574
:105A2000BD25C825E725EA2514263526BA25BA2539
:105A30004026432647266E26912694269626BC2687
:105A400001AC000000000000000000004A004A4ACB
:105A500036323331F7F6676697C6343500000000FA
:105A60000001F4F50D05460B0C05420B3E0B0183BE
:105A7000030584030689038F03099003000000F6E1
:105A8000F7313332366700010202020202020202DB
:105A90000202818283E200E900EA00B500B600B7A5
:105AA00000CD008301CC008A0192019401210223E0
:105AB0000224022502260227022A02B300B4006F44
:105AC00000700000FF0100010000FFFF0000010066
:105AD00001FF004022324C012A01F800DD05F605E5
:025AE0001606A8
