:100000000C9427060C946E060C946E060C94BF2F6D
:100010000C946E060C946E060C946E060C946E0690
:100020000C946E060C946E060C945B170C941717C8
:100030000C94E02C0C946E060C946E060C946E06D8
:100040000C946E060C946E060C946E060C946E0660
:100050000C946E060C946A180C946E060C946E0642
:100060000C946E060C946E060C946E060C946E0640
:100070000C946E060C946E060C946E060C946E0630
:100080000C946E060C946E060C946E060C946E0620
:100090000C946E060C946E060C946E060C946E0610
:1000A0000C946E060C946E060C946E06E1002A0009
:1000B000000037032B64A0FF000000001C032B642A
:1000C00096FF0000000004032B64A0FF0000000066
:1000D0000000D7FF78FF00000000000080FF64FFF1
:1000E00000000000000015FF78FF00000000000085
:1000F0005FFF5AFF0000000005010980A101850390
:1001000019012AB700150126B70095017510810065
:10011000C0050C0901A101850419012AA0021501DD
:1001200026A002950175108100C00660FF0961A13B
:10013000010962150026FF009520750881020963F8
:10014000150026FF00952075089102C005010906DB
:10015000A101050719E029E715002501950875019A
:1001600081029501750881010507190029FF150015
:1001700026FF0095067508810005081901290595D7
:100180000575019102950175039101C000010101FE
:100190000101010101010202020202020202020344
:1001A0000303030303030304040404040404050514
:1001B00005050506060606060707070707080808D7
:1001C00008090909090A0A0A0B0B0B0C0C0C0D0D86
:1001D0000D0E0E0E0F0F0F1010111111121213131E
:1001E0001414151516161717181819191A1A1B1B97
:1001F0001C1D1D1E1E1F20202122222324242526F3
:1002000026272829292A2B2C2D2D2E2F303132322A
:10021000333435363738393A3B3C3D3E3F40414236
:10022000434445464748494A4C4D4E4F505153541C
:10023000555658595A5B5D5E5F61626465666869D0
:100240006B6C6D6F7072737577787A7B7D7E808250
:10025000838587888A8C8E8F91939596989A9C9E99
:10026000A0A2A3A5A7A9ABADAFB1B3B5B7BABCBEA9
:10027000C0C2C4C6C9CBCDCFD1D4D6D8DBDDDFE276
:10028000E4E7E9EBEEF0F3F5F8FAFDFFFFAA7F559E
:10029000401C1004010D190A24232221201F1E1DB9
:1002A0001B1A18171615141312110F0E0C0B090830
:1002B0000706050302002D3945483C303F25262717
:1002C00028292A2B2C2E2F31323334353637383A21
:1002D0003B3D3E404142434446474935001E001FD6
:1002E000002000210022000000290014001A00084C
:1002F000001500170080002B0004001600070009FD
:10030000000A000000E1001D001B000600190005A6
:10031000008100A800E300E200E000025128000094
:10032000002D002700260025002400230000002ABD
:1003300000130012000C0018001C004B00340033A6
:10034000000F000E000D000B000000E50038003724
:10035000003600100011004E00E700E600E4000344
:10036000512C0000000000460001000100010001C6
:1003700000010000000100170014001A0008001519
:1003800000010001000A0004001600070009000037
:1003900000010005001D001B0006001900010001FE
:1003A0000001000100010048002C000000010001D4
:1003B00000010001000100010000002A000100010D
:1003C0000001000100010001000100010001000125
:1003D0000001000100000001000100010001000116
:1003E00000010001000100010001000351010001B2
:1003F00000000001003A003B003C003D003E0000D0
:100400000035001E001F0020002100220001000115
:10041000001E021F02200221022202000001002E03
:10042000002D002E022F022F020100010001000109
:1004300000010001000100000044004300420041AF
:100440000040003F00000045002700260025002452
:100450000023000100310227022602250224022384
:10046000020000010031003302370030002F00018C
:100470000001000100010001000100010000000175
:100480000001000100010001000100000001000165
:100490000001000100010001000100010001000154
:1004A0000001000100010000000100010001000145
:1004B0000001000100010001000100010001000134
:1004C0000001000000010001000100010001000125
:1004D0000000004C0049004D0052004A000100019C
:1004E00000010001004F0051005000010000000118
:1004F0000001004E0001004B003900010001000125
:1005000000010001000100010000000000000000E7
:10051000003E5B4F5B3E003E6B4F6B3E001C3E7CE3
:100520003E1C00183C7E3C18001C577D571C001CCC
:100530005E7F5E1C0000183C180000FFE7C3E7FF69
:1005400000001824180000FFE7DBE7FF0030483AFE
:10055000060E00262979292600407F050507004060
:100560007F05253F005A3CE73C5A007F3E1C1C0893
:1005700000081C1C3E7F0014227F2214005F5F00D5
:100580005F5F0006097F017F00006689956A006051
:10059000606060600094A2FFA2940008047E0408DA
:1005A0000010207E20100008082A1C0800081C2AC1
:1005B0000808001E10101010000C1E0C1E0C00303D
:1005C000383E383000060E3E0E06000000000000E7
:1005D0000000005F000000000700070000147F1407
:1005E0007F1400242A7F2A12002313086462003635
:1005F0004956205000000807030000001C2241005B
:10060000000041221C00002A1C7F1C2A0008083E12
:100610000808000080703000000808080808000082
:1006200000606000002010080402003E5149453E71
:100630000000427F4000007249494946002141497B
:100640004D33001814127F10002745454539003CF2
:100650004A494931004121110907003649494936C3
:1006600000464949291E00000014000000004034E3
:100670000000000008142241001414141414000097
:1006800041221408000201590906003E415D594EFD
:10069000007C1211127C007F49494936003E4141DD
:1006A0004122007F4141413E007F49494941007F4D
:1006B00009090901003E41415173007F0808087F84
:1006C0000000417F4100002040413F01007F0814AD
:1006D0002241007F40404040007F021C027F007F9B
:1006E0000408107F003E4141413E007F0909090690
:1006F000003E4151215E007F0919294600264949E3
:1007000049320003017F0103003F4040403F001F8A
:100710002040201F003F4038403F0063140814630E
:10072000000304780403006159494D4300007F41F0
:10073000414100020408102000004141417F0004B3
:10074000020102040040404040400000030708004E
:10075000002054547840007F2844443800384444F2
:10076000442800384444287F00385454541800006A
:10077000087E09020018A4A49C78007F080404786D
:100780000000447D4000002040403D00007F1028D4
:1007900044000000417F4000007C04780478007C25
:1007A0000804047800384444443800FC1824241811
:1007B0000018242418FC007C080404080048545441
:1007C00054240004043F4424003C4040207C001C8E
:1007D0002040201C003C4030403C0044281028446D
:1007E000004C9090907C004464544C4400000836C7
:1007F00041000000007700000000413608000002C0
:1008000001020402003C2623263C000000000000F8
:1008100000404040F0F8F8FF38FFF8F83FF8F8FFE4
:1008200038FFF8F8F040404000000000000080C0B1
:10083000C0C0800000C0C08000000080C0C000C0F8
:10084000C0000080C0C00000000000C0C0C0C0C028
:1008500000C0C00000000000000000000000000018
:100860000000000000000000000000000000000088
:100870000000000000000000000000000000000078
:1008800000000000000000000000C0F0F8FC3E1E68
:1008900006010000007F4141417F007F4141417FCF
:1008A000000080C0E07E5B4F5BFEC00000C000DC4B
:1008B000D7DEDEDED7DC00C0000000000000000054
:1008C0000000000000000000000000000000000028
:1008D00000494949FFFFFFFFE0DFBFBF00BFBFDFA7
:1008E000E0FFFFFFFF49494900000000001F3F6093
:1008F00060E0BF1F007F7F071E381E077F7F007FDD
:100900007F0E1F3B716000000000007F7F0C0C0C0D
:10091000007E7E007F7E0303007F7E03037E7E03D6
:10092000037F7E000F3E703C063C703E0F00327B22
:1009300049493F7E007F7E0303001E3F69696F26A1
:1009400000000000000000000000030F1F3F3C7883
:1009500070600000007F4141417F007F4141417F45
:1009600000307B7F7830202030787F3B0003000F01
:100970007F0F0F0F7F0F000300000000000000003A
:100980000000000000000000000000000000000067
:1009900000010101070F0F7F0F7F0F0F7E0F0F7FE9
:1009A0000F7F0F0F07010101000000000000000091
:1009B0000000010100000000000000000000000035
:1009C0000000000000000000000000000000000027
:1009D0000000000000000000000000000000000017
:1009E0000000000000000000000000000000000007
:1009F00000000000000000000000000000000000F7
:100A000000000000000000000000000000000000E6
:100A100000000000000000000000000000000000D6
:100A200000000000000000000000000000000000C6
:100A300000000000000000000000000000000000B6
:100A4000000000000000000000000000AF000000F7
:100A50000000000000000000000000000000000096
:100A60000000000000000000000000000000000086
:100A7000007E0F00D4FFFFFFC700000078000000D9
:100A800000000000002A2B280000000000000000E9
:100A9000000000000000000029000000002C1E34AF
:100AA00020212224342627252E362D3738271E1FB5
:100AB000202122232425263333362E37381F0405E0
:100AC000060708090A0B0C0D0E0F1011121314154E
:100AD000161718191A1B1C1D2F3130232D3504052C
:100AE000060708090A0B0C0D0E0F1011121314152E
:100AF000161718191A1B1C1D2F3130354C00DA023D
:100B00008178D9F1DB20A4A62EAF00A0C000A1C837
:100B100000AED580A81FD300408D142000EE00E465
:100B200000DA00D000C600BC00B200000043505301
:100B30004C4B000A0A00556E646566004C6F776581
:100B40007200526169736500426173650A004C412D
:100B5000594552000A0A004D6F640A00436C6D6BE0
:100B60000051777274000A0A00808182838485862E
:100B70008788898A8B8C8D8E8F9091929394A0A177
:100B8000A2A3A4A5A6A7A8A9AAABACADAEAFB0B1CD
:100B9000B2B3B4C0C1C2C3C4C5C6C7C8C9CACBCC2E
:100BA000CDCECFD0D1D2D3D40000AE09025B0003AA
:100BB0000100A0FA0904000001030101000921114C
:100BC0000100012240000705810308000A09040111
:100BD0000002030000000921110100012222000788
:100BE0000582032000010705030320000109040218
:100BF0000001030000000921110100012232000759
:100C000005840320000A120110010000000832FCD4
:100C100087120200010200011E0353006F006C00E6
:100C2000610072006900750073005F0053006F007F
:100C300066006C006500000010034B006500790041
:100C400068006900760065000000040309041124AF
:100C50001FBECFEFDAE0DEBFCDBF04B603FE27C074
:100C60008091D7059091D805A091D905B091DA056A
:100C70008730904BA740B04BD1F41092D70510921B
:100C8000D8051092D9051092DA0514BE84B7877F73
:100C900084BF0FB6F894A895809160008861809316
:100CA0006000109260000FBEE0E0F8E3099511E0EB
:100CB000A0E0B1E0E0E2F7E602C005900D92AC3AA8
:100CC000B107D9F725E0ACEAB1E001C01D92A73D1C
:100CD000B207E1F70E94C6250C9443330C94000040
:100CE000E8EDF0E080818E7F80831092E200109228
:100CF000DA001092E100A0EEB0E08C9181608C935C
:100D000080818F77808319BCA7EDB0E08C918E7FB6
:100D10008C9380818F7E808310929B050895209113
:100D2000E4003091E50095E6A9012091EC00822FC6
:100D3000817020FF06C08091E80080FF06C080E03F
:100D400008952091E80022FD1AC08091A80588230B
:100D500089F0853089F08091EB0085FD0FC02091EE
:100D6000E4003091E50042175307F9F29150E1F6A3
:100D700084E0089582E0089583E0089581E0089575
:100D8000EF92FF920F931F93CF937C018B010E94F0
:100D90008F06C82F811117C08091E80085FD0BC018
:100DA0008091E8008E778093E8000E948F06882368
:100DB00099F3C82F08C0F70181917F018093F1005A
:100DC0000150110949F78C2FCF911F910F91FF907E
:100DD000EF9008958091AA0587FF13C08091E800E5
:100DE00082FF06C08091E8008B778093E80004C002
:100DF0008091A8058111F2CF08958091A8058823DC
:100E0000D9F38091E80080FFF8CF8091E8008E77D9
:100E1000ECCF982F9093E900242F762F50E089177C
:100E200031F07091EC002091ED005091F00021FD27
:100E300007C09F5F973071F78093E90081E00895C4
:100E40003091EB003E7F3093EB003091ED003D7F21
:100E50003093ED003091EB0031603093EB007093F4
:100E6000EC002093ED005093F0002091EE0027FD60
:100E7000E0CF80E00895CF92DF92EF92FF920F9340
:100E80001F93CF93DF93C8EDD0E088818F7E888356
:100E9000E7EDF0E080818160808384E082BF81E0C3
:100EA00080939B0588818E7F888302EE10E0F80195
:100EB00010821092DA0081EEC82ED12CF601108239
:100EC00088818F77888388818068888388818F7DF7
:100ED000888319BC1092A8051092A9051092A70545
:100EE0001092A60590EEE92EF12CF70180818B7F00
:100EF000808388818160888342E060E080E00E9496
:100F00000907F60180818E7F8083F80180818160EE
:100F10008083808188608083F70180818E7F8083D9
:100F2000888180618883DF91CF911F910F91FF901D
:100F3000EF90DF90CF900895FC018091B0059091E3
:100F4000B10586179707A0F06115710529F49091F6
:100F5000E8009E779093E80090E06115710551F4E8
:100F6000911108C08091E80082FF34C080E00895AC
:100F7000BC01F2CF8091A8058823C1F18530C1F171
:100F80008091E80083FD30C08091E80082FDEACFC7
:100F90008091E80080FFE1CF8091F3002091F20082
:100FA000382F6115710519F02830310558F091E09E
:100FB0002830310509F090E02091E8002E77209349
:100FC000E800CBCF81918093F100615071092F5FD0
:100FD0003F4FE7CF8091A805882341F0853041F04D
:100FE0008091E80083FFBECF81E0089582E00895FC
:100FF00083E0089580E00895089580919D05089507
:101000009C014FB7F8948091300390913103A091E7
:101010003203B09133034FBF821B930B08952FB758
:10102000F894609130037091310380913203909174
:1010300033032FBF08959C01FC0132969FEF80E09F
:101040004191461751F09F3F19F4411101C0982F6B
:101050008F5F8630A9F79F3F09F40895290F311D4E
:1010600097FD3A95F9016283089580912B03909141
:101070002A03892B90912903892B8093AE01E0915B
:101080005903F0915A03309731F00280F381E02D3B
:101090008EEA91E00994089527E0929F800D112433
:1010A000982F977086958695869525E0829FF0010A
:1010B0001124E450FD4F50E040E080E0219130E009
:1010C000092E02C0369527950A94E2F7217033273E
:1010D000042E01C0220F0A94EAF7822B4F5F5F4F64
:1010E0004530510559F7089527E0929F800D11244E
:1010F000982F977041E001C0440F9A95EAF78695C2
:101100008695869595E0899FF0011124E450FD4F66
:1011100090E080E070E05191DF0111979B01082E73
:1011200002C0369527950A94E2F72170219525276C
:10113000242325272C9301968530910561F7089586
:101140008091FB029091CA02981301C008958F5FAD
:101150008770FACF882341F0809590912A038923E4
:1011600080932A030C9435080895882339F09091D0
:101170002A03982B90932A030C943508089588230A
:1011800041F0809590912B03892380932B030C943D
:1011900035080895882339F090912B03982B90936C
:1011A0002B030C94350808950C940F082091A1028C
:1011B0003091A2022817390771F09093A202809310
:1011C000A102E0915903F0915A03309721F0008475
:1011D000F185E02D0994089520919F023091A0029D
:1011E0002817390771F09093A00280939F02E09135
:1011F0005903F0915A03309721F00680F781E02DD2
:101200000994089590E080E00E94EC0890E080E06E
:101210000E94D60810922A03109229030C943508D4
:1012200060932C0370932D0380932E0390932F03D0
:101230000C9402098823B1F19CEF980F913A70F455
:10124000E0EBF1E09191891303C0DF0111971C924B
:1012500041E0E63BF407B1F70C94350890E2980FB3
:10126000983088F4877021E030E0A90102C0440F73
:10127000551F8A95E2F7CA01809590912B03892327
:1012800080932B03E9CF9BE5980F933020F490E0F7
:1012900080E00C94EC08885A873120F490E080E0DC
:1012A0000C94D6080895CF93C82F882309F44EC014
:1012B0008CEF8C0F813AF8F4E0EBF1E086EB91E0F3
:1012C000DF012D91C21759F08A179B07D1F76C2FB8
:1012D0008EEA91E00E941B08CF910C943508219171
:1012E000C21303C0DF0111971C928E179F07B9F735
:1012F0000E943508ECCF80E28C0F883068F4C7700C
:1013000021E030E001C0220FCA95EAF780912B035B
:10131000822B80932B03E0CFEBE5EC0FE33040F41E
:10132000F0E0EC5AFE4F808190E0CF910C94EC08F5
:10133000C85AC73158F4EC2FF0E0EE0FFF1FE95AFE
:10134000FE4F80819181CF910C94D608CF91089562
:10135000E0915903F0915A03309721F00190F08108
:10136000E02D099480E00895FA01811101C0FB018C
:1013700009948091B905982F9E7F61F481708260F5
:101380008093B9058091BC05853B18F084EB809370
:10139000BC0508958831B0F381708661F1CFAF92BA
:1013A000BF92DF92EF92FF920F931F93CF93DF9341
:1013B000082F162FE901E42FF0E0E457FE4F6111EA
:1013C00010C0E4915E2F4E2F4983E8835A83DF914A
:1013D000CF911F910F91FF90EF90DF90BF90AF9052
:1013E0000895E62EF12C4491D42EE42FF0E026E06F
:1013F000829FC00111242FEF30E0B9010E94D83044
:10140000802F90E0880F991F55E5569FD001579F78
:10141000B00D11248A1B9B0B982F990F890F59012E
:10142000AE18BF08AE9ED001AF9EB00DBE9EB00DEF
:1014300011245B2F189F80011124012F11275901BE
:10144000A01AB10AAE9E8001AF9E100DBE9E100D77
:1014500011245901A81AB108AE9CC001AF9C900D8F
:10146000BE9C900D1124892F9927281B390B2E9F84
:10147000C0012F9F900D3E9F900D1124E92F6230E7
:101480007105A1F050F46115710509F49DCF61302B
:10149000710581F0EB2F512F97CF6430710569F002
:1014A00080F06630710509F48FCFF4CFE42F4B2F15
:1014B000592F8ACFE42F412F87CFEB2F542F492F5D
:1014C00083CF4B2F5D2DE12F7FCFF894E82FE2954E
:1014D000EF70F0E031A1282F2F7081E090E001C083
:1014E000880F2A95EAF7982F9095932391A392A1BC
:1014F000892B82A3789408959091440392FF06C0AB
:10150000282F28712830F9F4877F846093FF06C064
:10151000282F28712831F1F4877E846120914503BA
:1015200020FF06C0382F38713830D9F4877F8160AA
:1015300021FF06C0282F28712831D1F4877E8161D0
:1015400094FD877E0895282F24712430F9F68B7F2F
:101550008860DCCF282F2471243101F78B7E8861CD
:10156000DDCF382F3171313019F78E7F8860E0CFB1
:10157000282F2171213121F78E7E8861E1CFCF9212
:10158000DF92EF92FF926C01EE24FF2420E0C11461
:10159000D104E104F10419F0C701B60120E1C72E1E
:1015A000D82EE92EFF24C114D104E104F10419F06E
:1015B000285FC701B6016B017C0154E0F694E79403
:1015C000D794C7945A95D1F7C114D104E104F1041A
:1015D00019F02C5FC701B6016B017C0142E0F69463
:1015E000E794D794C7944A95D1F7C114D104E10484
:1015F000F10419F02E5FC701B6019695879577958E
:101600006795672B682B692B09F02F5F822FFF905E
:10161000EF90DF90CF900895CF93DF939C013A95A0
:1016200021153F4168F5EC01CC27D170DC01AA27D8
:10163000B270AC01442754709C012227387094FF8B
:1016400011C080E1CD2B09F480E0AB2B09F0806262
:10165000452B09F08064232B09F08068FB01DF91A2
:10166000CF91099481E0CD2B09F480E0AB2B09F0F8
:101670008260452B09F08460232B81F38860EECFD4
:10168000DF91CF910895CF93DF93EC010E941A0967
:10169000CE01805E9109089720F06AEA78E02097F1
:1016A00011F46FEB78E0CE01DF91CF910C940C0B2D
:1016B000CF93DF93EC01805E9109089720F065EBF2
:1016C00078E0209711F46AEC78E0CE010E940C0BD0
:1016D0008C2FDF91CF910C945309CF939091BC0242
:1016E000992321F0811116C01092BC02CF91089568
:1016F000EC2FF0E0EE0FFF1FE455FD4F808191814C
:101700000E94580B0E943508CF5F8091BC02C81719
:1017100078F3EACFC0E0F9CFCF92DF92EF92FF9259
:101720000F931F93CF93DF936C017B0164E670E00E
:1017300088E70E94262EEC0197FD12C010E000E021
:10174000F601E00FF11F849164E670E00E94822EA2
:10175000EC01892B29F40F5F1F4F0E151F0581F730
:101760000E94052FCE01DF91CF911F910F91FF9025
:10177000EF90DF90CF900895CF93C0918305809133
:1017800084058823D1F00E940F0860547B428E4F5D
:101790009F4F60937F0570938005809381059093A0
:1017A0008205C11108C062E070E08BE49AE00E94FB
:1017B0008C0B892B29F0C09183058C2FCF91089534
:1017C00081E080938305F7CFCF9384E090E00E947F
:1017D0006431C82F81E290E00E946431982F8C2FF1
:1017E000CF9108950F931F93CF93DF93C42FD0E031
:1017F000CC0FDD1F2EE0629FC00DD11D11243CE8EF
:10180000839FC00DD11D1124CE0186960E946431A4
:10181000082F10E0102F0027CE0187960E94643118
:101820009801282BC901DF91CF911F910F91089545
:10183000462F843038F47A3028F4673018F4672F54
:101840000C94F20B90E080E00895CF93DF930E9418
:10185000180CEC018238910581F1B0F581339105C6
:1018600009F491C020F58932910509F485C08A9761
:1018700009F490C0C11521E5D20708F0AAC0C1152E
:1018800030E5D30708F0F2C0CF3BD10508F089C09E
:10189000C83AD10508F0DFC0C53AD10508F0D3C079
:1018A000C430D105F8F4C130D105E1F040C0853332
:1018B000910509F45AC0C997E9F6809144038370F1
:1018C00089F0C0EED0E00EC0833E910599F170F42E
:1018D000803E910501F1823E910561F680914403BD
:1018E00082FD21C0CE01DF91CF910895863E910502
:1018F00061F1873E910571F1843E910509F0BACFFF
:101900008091450381FFEECF80914403C7EED0E084
:1019100084FD0DC0E7CF8091440380FDF7C0909116
:10192000450390FFDFCFC3EED0E084FFDBCFD0E0F4
:10193000C0E0D8CF8091440382FDEBC09091450375
:1019400090FDBFCF84FFCECFF2CF8091440383FDC3
:10195000DDCFC8CF8091440383FDDEC09091450365
:1019600091FFF0CFC4EED0E0BDCF8091440385FF5E
:10197000B9CFC9E2D0E0B6CF8091440385FFB2CFA2
:10198000C5E3D0E0AFCF8091440386FFABCFCAE27E
:10199000D0E0A8CF8091440386FFA4CFC1E3D0E07C
:1019A000A1CFC11540E2D40760F4C11581E0D8078A
:1019B00008F098CFCE01805E9109089708F492CF85
:1019C000B6CFC11590E4D90708F4B1CFDF70D06A63
:1019D00089CFC11524E5D20778F4C11533E5D307C3
:1019E00008F072C0C11542E5D40708F05CC0DC2FD6
:1019F000CC27C16FD06A76CFC1158AE5D80778F4B5
:101A0000C11599E5D90708F073C0C11528E5D207BB
:101A100008F48DCFDC2FCC27C06FD06A63CFCE0106
:101A200090568115904208F082CF8D2F8F710E94C1
:101A30007C0A90E0982F882788279F719C012C2B87
:101A4000E901D0624FCFC55AD0E0CC5ADE4FC881F1
:101A5000D0E0D06447CFC85AD0E0CC0FDD1FC95AC0
:101A6000DE4F0990D881C02DD4643CCFCE0164E014
:101A7000969587956A95E1F783702C2F2695269584
:101A8000237040E2249F90011124382B8C2F837007
:101A9000C1E0D0E002C0CC0FDD1F8A95E2F7C22B77
:101AA000D32BDC681FCFCE018370992721E030E073
:101AB00002C0220F331F8A95E2F7C695C69580E2D1
:101AC000C89FE0011124EBCFCE018370992721E05C
:101AD00030E002C0220F331F8A95E2F7C695C69503
:101AE00090E2C99FE0011124C22BD32BDA68FACE11
:101AF0008C2F8F700E947C0A34E0D695C7953A955A
:101B0000E1F7CF709C2FEC01D069ECCEC9E3D0E0B7
:101B1000E9CEC2EED0E0E6CEC6EED0E0E3CEBF9294
:101B2000CF92DF92EF92FF920F931F93CF93DF93A9
:101B30008C01C090B205D090B305E090B405F09050
:101B4000B50580912C0390912D03A0912E03B091A7
:101B50002F03C82AD92AEA2AFB2ACFE1D0E0BC2EDB
:101B6000D701C6010C2E04C0B695A7959795879509
:101B70000A94D2F780FD0EC0219788F7B12C8B2DE7
:101B8000DF91CF911F910F91FF90EF90DF90CF9059
:101B9000BF900895B8018C2F0E94250C019761F326
:101BA000EECFCF93DF93EC010E948F0DBE01DF914A
:101BB000CF910C94250C0E94D10D292F2F70929556
:101BC0009F7092509E3078F4E92FF0E0EB5BFC4C74
:101BD0000C941F31803F19F020F4883E20F481E0FE
:101BE0000895843FE1F380E00895883EC0F3813F8B
:101BF000D1F7F5CF822F86958695869508956F92B9
:101C00007F928F929F92AF92BF92CF92DF92EF928C
:101C1000FF920F931F93CF93DF938BEDC82E82E03B
:101C2000D82E90ECE92EF12CE701CC58D1093601E1
:101C30001BC0F50185909490692DC8010E947831F0
:101C4000682DC80101960E94783182E0A80EB11C6F
:101C50000E5F1F4FC017D10761F78EE0680E711C31
:101C60002E96CE15DF0529F08E010E501109530175
:101C7000E0CF7E018CE8E80EF11C8CE8C80ED11C88
:101C800080EFE81682E0F80679F6DF91CF911F9198
:101C90000F91FF90EF90DF90CF90BF90AF909F900B
:101CA0008F907F906F900895CF93DF93C6E5D2E039
:101CB00060E0CE010E9478312196C11584E0D807FA
:101CC000B9F7DF91CF91089510922B03E0EBF1E08B
:101CD00086E0DF011D928A95E9F70C9402091F93B3
:101CE000CF93DF93CDB7DEB7AA970FB6F894DEBFD8
:101CF0000FBECDBF8AEA95E02091F100DC012D9363
:101D0000CD01B5E0823B9B07B9F78091AB058330ED
:101D100009F471C0B8F4813009F448C0823009F484
:101D2000B2C08091E80083FF3AC18091AA059091EA
:101D3000AB059A3008F033C1E92FF0E0ED5AFC4CC6
:101D40000C941F318A3009F48DC08B3009F470C0B7
:101D5000893039F78091AA05813219F78091AE0553
:101D60009091AF05009711F00297D9F68091E800A5
:101D7000877F8093E8008091E80082FF37C09091D0
:101D8000F3008091F200029729F48091F1008B7F9B
:101D9000813021F48091F10080939D058091E800CD
:101DA0008B778093E8000E94EA06BBCF8091AA055A
:101DB000813A09F0B6CF8091E800877F8093E800F0
:101DC0008091AE059091AF05892B61F468E08EE9B2
:101DD00095E070E00E949C078091E8008B778093EB
:101DE000E8009FCF60E090E080E0F3CF8091A8050D
:101DF0008111C1CF96CF8091AA05813A09F091CF88
:101E00008091AE059091AF05892B09F08ACF809122
:101E1000E800877F8093E8008091E80080FFFCCF96
:101E2000809130018093F1008091E8008E77B9CFE6
:101E30008091AA05813209F074CF8091AE0590910E
:101E4000AF05892B09F06DCF8091E800877F8093E3
:101E5000E8000E94EA068091AC05809330010E9460
:101E6000640E5FCF8091AA05813209F05ACF80912C
:101E7000E800877F8093E8000E94EA068091AD0524
:101E800080939C054ECF8091AA05813A09F049CFF5
:101E90008091E800877F8093E8008091E80080FFD0
:101EA000FCCF80919C05BECF803899F0823809F034
:101EB00076C08091AE058F70873008F070C0809337
:101EC000E9008091EB0085FB882780F91092E900FA
:101ED00006C08091A6059091A7059111826090910E
:101EE000E800977F9093E8008093F1001092F10052
:101EF0008091E8008E77B5C1882309F4A2C18230B1
:101F000009F04DC08091AC058111A6C18091AE054C
:101F10008F702FEF280F263008F041C08093E90022
:101F20002091EB0020FF98C1933031F48091EB00B9
:101F300080628093EB0090C19091EB009061909350
:101F4000EB0021E030E001C0220F8A95EAF72093F0
:101F5000EA001092EA008091EB008860EACF8111DC
:101F60001EC01091AC051F778091E3008078812B13
:101F70008093E3008091E800877F8093E8000E94CF
:101F8000EA068091E80080FFFCCF8091E300806842
:101F90008093E30082E0111183E08093A805809193
:101FA000E80083FF0AC08091E800877F8093E80003
:101FB0008091EB0080628093EB00AA960FB6F894B4
:101FC000DEBF0FBECDBFDF91CF911F910895805826
:101FD000823028F72091AC053091AD052C3DE3E02F
:101FE0003E07A1F583E08A838AE289834FB7F8949C
:101FF000DE01139620E03EE051E2E32FF0E0509343
:102000005700E49120FF03C0E295EF703F5FEF704F
:102010008E2F90E0EA30C0F0C7968D939D932F5F8E
:10202000243159F74FBF8091E800877F8093E80003
:102030006AE270E0CE0101960E949C078091E80060
:102040008B778093E800ABCFC096E7CF8091AE0549
:102050009091AF05432F55274330510509F44AC0ED
:1020600078F54130510509F47AC08BE590E0EBEA50
:10207000FBE04230510509F092CF2091E800277F24
:102080002093E8002091B0053091B10582179307A5
:1020900008F49C0140E02115310509F065C04111AB
:1020A00063C08091E80082FDC9CF8091A805882394
:1020B00029F2853019F28091E80083FFF2CFBECF7C
:1020C0004132510509F43CC04232510509F067CF55
:1020D0008330910508F063CFFC01EE0FFF1FE0563F
:1020E000FE4F0190F081E02D83569E4FDC018C91D4
:1020F00090E01AC0332721303105D1F02115310588
:1021000061F02230310509F04ACFE8E1FCE0E491CA
:102110008E2F90E0E8E1FCE007C0EAE4FCE0E49107
:102120008E2F90E0EAE4FCE0009709F438CFA5CFC9
:10213000E8E3FCE0E4918E2F90E0E8E3FCE0F4CFEC
:102140008330910508F02BCF880F991FFC01EA55C9
:10215000FE4F0190F081E02D89E090E08ECF82E18A
:1021600090E0E6E0FCE089CF8091A805882309F49F
:1021700065CF853009F462CF8091E80083FD5ECFA2
:102180008091E80082FD8DCF8091E80080FF83CFB1
:102190009091F3008091F2002115310519F08830FB
:1021A000910550F041E0089709F040E08091E80087
:1021B0008E778093E8006FCF44914093F100319681
:1021C000215031090196E8CF803809F0E8CE80919E
:1021D000E800877F8093E8008091A9058093F10053
:1021E00087CE8111DCCE1091AC05123008F0D7CE2D
:1021F0008091E800877F8093E8001093A9050E94F2
:10220000EA06112311F084E005C08091E30087FD08
:10221000FACF81E08093A80542E061EC81E00E9462
:10222000090742E261EC84E00E94090742E261ECA6
:1022300082E00E94090742E260EC83E00E94090705
:10224000AECE8091AC05813009F0A9CE81E093300B
:1022500009F080E08093A7051092E9008091E800E2
:10226000877F8093E8000E94EA0699CECF93DF93A0
:1022700000D00F92CDB7DEB79091A805943011F53C
:1022800089837B836A839093E9008FEF9091E800C4
:10229000815095FD06C095ED9A95F1F700008111EA
:1022A000F5CF8091E80085FF0DC050E040E063E08D
:1022B00070E0CE0101960E94C0068091E8008E7702
:1022C0008093E8000F900F900F90DF91CF910895C9
:1022D000BC0184E00C943611BC0183E00C943611EF
:1022E000CF93DF93EC0181E08093E9008FEF909131
:1022F000E800815095FD06C095ED9A95F1F7000034
:102300008111F5CF8091E80085FF14C050E040E0D6
:1023100068E070E0CE010E94C0068091E8008E77F0
:102320008093E80088E0FE01AEE9B5E001900D92EF
:102330008A95E1F7DF91CF91089581E08093E000E5
:1023400080E28093D8001092C9008FE19EE401974B
:10235000F1F700C0000087E090EBDC018093D70527
:102360009093D805A093D905B093DA0588E19CE055
:102370000FB6F894A895809360000FBE909360000C
:10238000FFCF1F93CF93DF93182FCAE0D0E089339C
:1023900011F4C0E5D0E0812F0E9453098FE99FE03E
:1023A0000197F1F700C000002197C1F7812FDF915D
:1023B000CF911F910C941A098091BA01811111C01B
:1023C0008091D80080618093D8008AE18A95F1F7E6
:1023D00000C09091D900892F817090FF82E0809396
:1023E000BA0181E09091BA01913009F080E008953E
:1023F0006BEE7EEF90E080E00E94963160E082E03C
:1024000090E00E94783160E083E090E00E947831B3
:1024100010922C0310922D0310922E0310922F0372
:1024200060E084E090E00E94783160E081E290E03A
:102430000E94783160E085E090E00E94783160E0B1
:1024400086E090E00E9478316FEF87E090E00E9494
:10245000783140E050E0BA0188E090E00E948A3193
:1024600060E08DE090E00E94783140E050E0BA01F9
:1024700088E190E00E948A3160E087E190E00E946C
:10248000783140E050E0BA018CE190E00E948A315E
:1024900060E080E290E00E94783140E050E0BA01D4
:1024A00088E190E00E948A3140E050E0BA018FE07C
:1024B00090E00E948A3140E050E0BA0183E190E070
:1024C0000C948A31CF92DF92EF92FF926B017C01E4
:1024D0000E94B909B701A60188E090E0FF90EF9053
:1024E000DF90CF900C948A318091BD05882319F03C
:1024F00081508093BD056091B9057091BA058091B6
:10250000BB059091BC050C9462128091BD0583308F
:1025100018F48F5F8093BD056091B9057091BA057D
:102520008091BB059091BC050C946212E9EBF5E03B
:1025300083E0808311828FEF828384EB8383148214
:10254000ABE4B3E012968C911297836012968C9351
:1025500060817181828193810C9462121F93CF9369
:10256000DF93162F8A3031F481E0DF91CF911F91F4
:102570000C9453138D3011F480E0F7CFC0915603C3
:10258000D091570396E0FE01A9E9B2E001900D92C7
:102590009A95E1F7803EA8F186E0FE0111928A95B6
:1025A000E9F7C0915603D0915703111136C046E0A8
:1025B00050E0BE0189E992E00E9457319E012B57FD
:1025C0003340892BA9F52A5F3F4F40915803642F70
:1025D00070E0C9010E94D830481B463010F4240F27
:1025E000311D211572E0370710F030E020E025584A
:1025F0003C4F3093570320935603DF91CF911F91A7
:102600000895F6E08F9FB0011124655F7A4F46E090
:1026100050E0CE010E944E31C4CF9E012A5F3F4F51
:10262000FE012E173F0719F2808180958193F9CF23
:10263000C90145E0969587954A95E1F741E050E05C
:10264000BA0102C0660F771F8A95E2F7CB0160914D
:102650007D0570917E05862B972BB9016B5F7F4FAF
:10266000E5E076956795EA95E1F702C0440F551FBE
:102670006A95E2F7842B952B90937E0580937D05D8
:10268000A2CF1F93CF93DF93EC01162FFE0184910D
:10269000811104C0DF91CF911F910895612F0E9495
:1026A000AE122196F3CFCF93382FE0915603F091DD
:1026B0005703EB57F34020915803622F70E0CF018E
:1026C0000E94D830281B822F332369F066E00E94D5
:1026D000CC30C82FC15010F4CF91089560E080E253
:1026E0000E94AE12F7CF9F01280F311D21153240F5
:1026F00018F080E0F0E0E0E08E0F9F2F911D8558EC
:102700009C4F9093570380935603E6CF0E9441134A
:1027100081E00C9453134F925F926F927F928F924D
:102720009F92AF92BF92CF92DF92EF92FF920F9360
:102730001F93CF93DF93CDB7DEB7CE5DD1090FB630
:10274000F894DEBF0FBECDBF509007018091B90550
:1027500080FF5DC0809048039090490381149104EC
:1027600009F068C0E1E9F2E09E012F5F3F4FBE0132
:1027700061527F4FC901A4914A2F50E0DA01AA0F9C
:10278000BB1FA40FB51FA554BE4FCD90DD90EC909C
:10279000D901CD92DD92ED929D0131966A177B07AA
:1027A00051F72091060143E0249F800D911D1124D3
:1027B000539A2BB1277F3BB138605FB7F894BC01C7
:1027C000549E600D711D11248617970709F090C063
:1027D0005FBF8FE594E00197F1F700C00000C2529F
:1027E000DF4F0FB6F894DEBF0FBECDBFDF91CF91A4
:1027F0001F910F91FF90EF90DF90CF90BF90AF901F
:102800009F908F907F906F905F904F9008958091F0
:1028100008019091090123E0829FF0011124E55401
:10282000FE4F891708F096CF1182108212828F5FB7
:102830003396F7CF80915003811194CFD12CC12CC6
:1028400066246394712C53E0452E80914E039301CE
:102850000C2C01C0220F0A94EAF7822309F43FC02E
:10286000F601EE0FFF1FE80DF91DE590F490E1145D
:10287000F10409F477CF45E050E0B701CE010196AD
:102880000E944E3109810F3F51F18A81800F9927B3
:10289000991F8B34910514F08AE490E05C01AA0C36
:1028A000BB1C8A0D9B1DDC01A554BE4F5D01049D20
:1028B0008001112405541E4F0A151B0520F0B5E0B8
:1028C000EB0EF11CD8CF4D81453B08F044EB98014D
:1028D0006C818B810E94CF090D5F1F4FEDCFEFEF11
:1028E000CE1ADE0AF8E0CF16D10409F0AECF3ACF07
:1028F000FC014191CF01E8E03BB9000000C047FF77
:102900002BB9440F000000C000C000C02BB900C0AC
:10291000EA9591F759CFAF92BF92CF92DF92EF92A3
:10292000FF920F931F93CF93DF9300D00F92CDB7F9
:10293000DEB7082FF62E142FE22E8091B90580FF06
:102940004FC0E82FE695AE2FB0E0A85BBE4F9C913C
:1029500090934B038E7F823009F056C0453B08F0C0
:1029600044EB9E012F5F3F4F6F2D802F0E94CF09B8
:102970008091B90580FF11C02B8139814A818091F6
:1029800008019091090153E0859FF0011124E5545D
:10299000FE4F891798F10E948B138091BA0580131E
:1029A00008C08091BB058F1104C08091BC058117C0
:1029B00029F080914D03826080934D030093BA0506
:1029C000F092BB051093BC05EE2051F06091B90563
:1029D0007091BA058091BB059091BC050E9462126E
:1029E0000F900F900F90DF91CF911F910F91FF905B
:1029F000EF90DF90CF90BF90AF90089541833083E8
:102A000022838F5F3396C5CF923039F6E2508E2FF6
:102A10008170D82EE695F0E0E457FD4FA590B49074
:102A2000C12CBB2460910A01C61608F0B4CF2C2D2E
:102A300030E0A29EC001A39E900DB29E900D112485
:102A400070E00E94D830802FD11016C0860F4091C0
:102A50000801420F532F511D9A01220F331F240FDB
:102A6000351F25543E4F412F153B08F044EB6F2D89
:102A70000E94CF09C394D6CF861BE9CF20E00C94E7
:102A80008B149091B90590FF26C0917081111CC0E4
:102A900092609093B90580914D03816080934D03BE
:102AA000662351F06091B9057091BA058091BB051C
:102AB0009091BC050E9462124091BC056091BB05DB
:102AC0008091BA050C943E158C3010F09661E1CFE0
:102AD000880F982BDECF089521E030E0A90102C0D5
:102AE000440F551F8A95E2F7CA0120914E036623D1
:102AF000C1F0822B80934E0380914D0380618093BF
:102B00004D0380914C03811106C08091B90560E0AE
:102B100086950E9441158091B90580FD05C00C94F1
:102B20008B1380958223E6CF0895CF93DF93C82F30
:102B3000C17082FBDD27D0F981FB662760F984E054
:102B40000E946C1561E06C2785E00E946C156D2F6A
:102B500086E0DF91CF910C946C15E9EBF5E0808174
:102B60008160808360E086950C9441158091B90561
:102B70008695815009F48BE061E00C9441158091B9
:102B8000B90586958F5F8C3008F081E061E00C9488
:102B900041158091B90580FF07C0869582588F77CF
:102BA000893010F40C94BF1561E082E00C9441155B
:102BB000CF92DF92EF92FF926B017C0161E0C11432
:102BC000D104E104F10409F06C2D617080E00E94F1
:102BD0006C1560E0C114D104E104F10441F0D701A7
:102BE000C601B695A79597958795682F617081E086
:102BF0000E946C1560E0C114D104E104F10459F0A5
:102C0000D701C60132E0B695A795979587953A9575
:102C1000D1F7682F617082E00E946C1560E0C114EA
:102C2000D104E104F10459F0D701C60123E0B695BF
:102C3000A795979587952A95D1F7682F617083E0BE
:102C40000E946C15C701B6010E94BF0A8130D1F005
:102C5000882351F08230E1F0833001F10E94AD15FC
:102C600040E56FEF80E405C00E94AD1540E56FEFD1
:102C700082E30E943E15C701B601FF90EF90DF90FE
:102C8000CF9008950E94AD1540E56FEF88E0F1CF39
:102C90000E94AD1540E56FEF86E7EBCF0E94AD15C2
:102CA00040E56FEF8AEDE5CF0E94D8156093B2053D
:102CB0007093B3058093B4059093B5050C94020905
:102CC0000F931F936091B2057091B3058091B40585
:102CD0009091B5058B019C0106701127222733279F
:102CE000063011052105310529F468601F910F9107
:102CF0000C945416677FFACF0F931F9341E050E076
:102D000060E070E004C0440F551F661F771F8A956E
:102D1000D2F7CB01BA01609570958095909500919E
:102D2000B2051091B3052091B4053091B50560232B
:102D30007123822393231F910F910C9454160F93A8
:102D40001F9341E050E060E070E004C0440F551F65
:102D5000661F771F8A95D2F78091B2059091B305CF
:102D6000A091B405B091B5058A019B01082B192BE0
:102D70002A2B3B2BC901B8011F910F910C945416BB
:102D8000E9EBF5E0438121E1421B08F440E021E05A
:102D9000628181810C948B14E9EBF5E0438121E1A0
:102DA000420F08F44FEF21E0628181810C948B1473
:102DB000E9EBF5E0628121E1621B08F460E021E0CB
:102DC000438181810C948B14E9EBF5E0628121E170
:102DD000620F08F46FEF21E0438181810C948B1422
:102DE000E9EBF5E0818121E04381628188500C9418
:102DF0008B14E9EBF5E0818121E043816281885FFA
:102E00000C948B14E9EBF5E080818E7F8083EBE4FA
:102E1000F3E08281816082832FEF80E792E021508E
:102E200080409040E1F700C000000C948B131F928B
:102E30000F920FB60F9211242F933F934F935F93EE
:102E40006F937F938F939F93AF93BF93CF93DF93B2
:102E5000EF93FF93D091E900DF708091EC00C82FD1
:102E6000C17080FDC0E81092E9008091F000877F7A
:102E70008093F00078940E946F0E1092E900809188
:102E8000F00088608093F000CD2BCF70C093E900F4
:102E9000FF91EF91DF91CF91BF91AF919F918F9172
:102EA0007F916F915F914F913F912F910F900FBE46
:102EB0000F901F9018951F920F920FB60F9211242A
:102EC0002F933F934F935F936F937F938F939F9332
:102ED000AF93BF93EF93FF938091E10082FF09C00E
:102EE0008091E20082FF05C08091E1008B7F80939A
:102EF000E1008091DA0080FF24C08091D80080FF3B
:102F000020C08091DA008E7F8093DA008091D90012
:102F100080FF9BC080E189BD82E189BD09B400FECC
:102F2000FDCF81E08093A80580919B05811109C0A8
:102F30000E9470060E943B078091E20084608093AB
:102F4000E2008091E10080FF17C08091E20080FFE5
:102F500013C08091E2008E7F8093E2008091E200B6
:102F600080618093E2008091D80080628093D800D5
:102F700019BC85E08093A8058091E10084FF29C0F9
:102F80008091E20084FF25C080E189BD82E189BD96
:102F900089B5982F917080FFFBCF8091D8008F7DED
:102FA0008093D8008091E1008F7E8093E100809132
:102FB000E2008F7E8093E2008091E2008160809346
:102FC000E2008091A905882309F445C084E080933C
:102FD000A8058091E10083FF27C08091E20083FF74
:102FE00023C08091E100877F8093E10082E080939D
:102FF000A8051092A9058091E1008E7F8093E100E1
:103000008091E2008E7F8093E2008091E2008061F7
:103010008093E20042E060E080E00E940907809136
:10302000F00088608093F000FF91EF91BF91AF9125
:103030009F918F917F916F915F914F913F912F91D0
:103040000F900FBE0F901F90189519BC1092A805F5
:1030500010929B0576CF8091E30087FD93E09093DB
:10306000A805B7CF0F931F930E94DC11882321F08E
:103070001F910F910C940F080E940F0800913403C8
:10308000109135032091360330913703600F711F83
:10309000821F931F1F910F910895CF92DF92EF929D
:1030A000FF926B017C010E94DC1181110EC00E9415
:1030B0000F08C61AD70AE80AF90AC0923403D09258
:1030C0003503E0923603F0923703FF90EF90DF90E4
:1030D000CF90089578941F921FB61F9211248F935A
:1030E0009F93AF93BF938091300390913103A09150
:1030F0003203B09133030196A11DB11D80933003BB
:1031000090933103A0933203B0933303BF91AF91F7
:103110009F918F911F901FBE1F9018952FB7F89405
:103120008091300390913103A0913203B091330329
:103130002FBF08950F931F93CF93DF93C62FD42FE4
:10314000022FFC0182818823A1F06093B8050E94C0
:103150008E189093B7058093B605C77081E001C0C3
:10316000880FCA95EAF7DF91CF911F910F910C94C8
:10317000CA088091B805681335C08091B605909152
:10318000B7050E940008883C910560F510E21D0F0C
:10319000CD17B9F080E28C0F883040F4C77081E021
:1031A00001C0880FCA95EAF70E94BF08183048F49A
:1031B00081E09D2F977001C0880F9A95EAF70E94D1
:1031C000CA08802F0E94C111183098F4D77081E08E
:1031D00001C0880FDA95EAF7DF91CF911F910F9127
:1031E0000C94BF08C77081E001C0880FCA95EAF748
:1031F000F3CFDF91CF911F910F9108955F926F925E
:103200007F928F929F92AF92BF92CF92DF92EF9276
:10321000FF920F931F93CF93DF9300D000D00F92B4
:10322000CDB7DEB77C01FC0183819481892B31F01D
:103230008081918189238F3F09F0ABC70F900F9058
:103240000F900F900F90DF91CF911F910F91FF90F2
:10325000EF90DF90CF90BF90AF909F908F907F9036
:103260006F905F9008950E948F0D182F682F8981AD
:103270009A810E94740869817A81812F0E94180CBA
:103280008C01F7018281882309F460C0C80190563F
:103290008115F0E29F0750F0905E811520E19207C2
:1032A00028F0915C81159F4108F09DC0C8019927C5
:1032B0009C01245031092432310520F08B970E9760
:1032C00008F044C08091A4029091A5020097C1F13A
:1032D0000E940008C090A302D12C9C0150E040E065
:1032E00060E67AEE80E090E00E940031CA01B90108
:1032F00025E030E040E050E00E940031622F70E0B5
:103300006C197D09072E000C880B990B0E944A321C
:1033100027EA39E747E45DE30E94D6324B015C01BE
:10332000B601DD0C880B990B0E944A329B01AC015F
:10333000C501B4010E94AD310E9419326093A3020D
:103340000E948E189093A5028093A402F7018281B7
:10335000882309F412C7980122513F4520313105D5
:1033600008F085C68FEF93E00E946431025176E544
:10337000A72E72E0B72E811161CF01113DC01C82D2
:103380001B82662463946AE0562E85010F5F1F4FEF
:10339000C5010E94643189831A82882309F44ECFC3
:1033A0009FEF980F9330B8F58A83698232E0A30EBD
:1033B000B11CC8010E9464318B83882309F43ECF7D
:1033C0008E010F5F1F4FF80120812223F1F221307F
:1033D00009F05BC0918182819130F9F40E5F1F4F3B
:1033E0000E94C11120C090E080E00F3F110511F054
:1033F00008F05ECFC8015CCFA114F4E0BF0609F469
:103400001DCFC5010E946431811101C001502FEF11
:10341000A21AB20AB2CF5801D3CF923039F40E5F5C
:103420001F4F0E9453090F5F1F4FCDCF933029F4D8
:103430000E5F1F4F0E941A09F6CF943019F00F5FEC
:103440001F4FF1CF0E5F1F4F30E020E0B8016F5FDC
:103450007F4FF80141818053990B8A30910550F0DC
:103460002150310900F38FE99FE00197F1F700C087
:103470000000F6CF529EF001539EF00D11249C01E6
:103480002E0F3F1F842F8B01E1CFE22FF0E0E35896
:10349000F54F7490822F86958695869590E0FC0175
:1034A000E359F54FE4902770F12C022E02C0F594F9
:1034B000E7940A94E2F7E1E0EE22FF24FC01E35AEC
:1034C000F54FC490D12C022E02C0D594C7940A9413
:1034D000E2F7F1E0CF22DD24FC01E35BF54F8490BD
:1034E000912C02C0959487942A95E2F721E08222DC
:1034F0009924E114F10419F081EE0E945309C114DA
:10350000D10419F086EE0E945309872D0E94C11143
:10351000CD2819F086EE0E941A09EF2819F081EEE5
:103520000E941A09892809F47ECF8CE259CF81E0E4
:103530000E949F1603C081E00E947C160F900F909E
:103540000F900F900F90DF91CF911F910F91FF90EF
:10355000EF90DF90CF90BF90AF909F908F907F9033
:103560006F905F900C94601682E0E2CF02389FE586
:10357000190709F453C00338EFE51E0709F08DC59C
:10358000882309F464C08091A802811109C081E0F8
:103590008093A80281EE0E94530983EE0E94530992
:1035A0000E948E189093A7028093A60281EE0E943B
:1035B000530980E513C0882369F18091AB02811122
:1035C00006C081E08093AB0282EE0E9453090E9404
:1035D0008E189093AA028093A9028BE20E9453094D
:1035E0005CC58823A1F08091AB02811106C081E007
:1035F0008093AB0282EE0E9453090E948E18909332
:10360000AA028093A90281EE0E945309E6CF81EEBF
:103610000E941A098BE20E941A093FC58823A9F06B
:103620008091A802811109C081E08093A80281EEF7
:103630000E94530983EE0E9453090E948E189093B2
:10364000A7028093A6028FE4C9CF8FE4E4CF80E580
:10365000E2CF083FFCE51F0781F4F7018281882350
:10366000C9F01092BD02109200011092BF02109298
:10367000BE0281E00E946D0B1FC580910001093FD1
:10368000FCE51F0739F4F7019281992319F08111A4
:10369000E8CF0FC5D0900001DD2009F44BC0109297
:1036A000C1021092C002C12CAA24A394B12C772489
:1036B000739480910101909102013FEF20E0E22F8D
:1036C000F0E0EE0FFF1FE80FF91F4591549104172A
:1036D000150709F4322F452B11F02F5FF0CF3F3F34
:1036E00009F058C0612CC628DD2029F0DD24D394D0
:1036F000809105018111D12CFD2DF170DF2E80917B
:10370000C0029091C10201969093C1028093C002C1
:10371000892B79F28091C202882309F490C00E941B
:103720008E189093BF028093BE0280E00E946D0BC2
:10373000C11084CD033FFCE51F0709F4B5C008F0B4
:1037400039C5083D3CE5130709F4AAC0093D4CE51D
:10375000140709F4B5C0073D5CE5150709F0ACC4D2
:1037600026E241EE61EEC7010F900F900F900F908F
:103770000F90DF91CF911F910F91FF90EF90DF900D
:10378000CF90BF90AF909F908F907F906F905F9001
:103790000C949A186090BD02F70192818091050106
:1037A000450101C0880C3A95EAF7992359F1882A16
:1037B00080920501662009F495CFC50102C0880FEB
:1037C000991F2A95E2F701978816190609F08BCF01
:1037D0008091030190910401009729F00E94580BF9
:1037E0007092C20280CF8AE291E00E94580B8FE370
:1037F0009CE90197F1F700C000008AE291E00E9485
:10380000430BEECFF50102C0EE0FFF1F2A95E2F742
:103810009F01215031098217130679F48091030129
:1038200090910401009711F00E94430B80948091C5
:10383000050188228092050156CF612CF7CFC11077
:103840000EC081E00E946D0BDD2009F473CF109251
:10385000BF021092BE0281E08093BD026BCFF701E0
:103860008281882309F4EACC8091BD02882309F47F
:10387000E5CC0E948E189093BF028093BE02E09127
:10388000BC02E83008F0DACC81E08E0F8093BC02F5
:10389000F0E0EE0FFF1FE455FD4F11830083CECC07
:1038A00027E245EE65EE5FCF26E241EE60EE5BCFAC
:1038B00027E245EE64EE57CF26E241EE62EE53CFAB
:1038C00028E241E0EFCF80914403806106303CE57F
:1038D000130709F489C080914403886007301C45B0
:1038E00008F482C08091440380627EC080914403CA
:1038F0008D7F0C305CE5150709F476C070F480917B
:1039000044038C600A309CE5190709F46DC008F483
:103910007AC0809144038E7F67C080914403877F83
:103920000E30FCE51F0709F45FC0809144038B7FD4
:103930000F301C4508F458C0809144038F7E54C05A
:103940000B3F3CE5130709F456C030F503315CE545
:10395000150709F46AC078F401319CE5190709F4E8
:1039600060C002311C4509F0E5C30E94640E8091DD
:1039700044038F7739C00531FCE51F0709F45DC0AA
:1039800008F471C08091450381600A3F1C4509F02D
:10399000D1C380934503CEC30F3F4CE5140709F410
:1039A00048C070F40D3F8CE5180799F180914503EC
:1039B0008E7F0E3F1C4568F3809145038360E9CFFD
:1039C0000130EDE51E0709F457C008F442C060E07D
:1039D00002301D4509F0AEC38EE090E00E947831C0
:1039E000A9C380914403816080934403A3C3809161
:1039F00044038460F9CF809145038260CACF8091EF
:103A000044038064F1CF0E94640E80914403806877
:103A1000EBCF809145038D7FBCCF809144038F7D98
:103A2000E3CF809144038F7BDFCF80914403837F7A
:103A3000DBCF809145038C7FACCF8091440382FB28
:103A4000992790F921E0922790FB82F990FB83F966
:103A5000CBCF80914503982F909591708E7F892BC5
:103A600090FB81F996CF0E94640E90914403892FB8
:103A700097FB87F98058B8CF61E0AECF06313CE5BF
:103A8000130709F0BFC380912B038A7A91E009F4F0
:103A900090E09093C30269E2811165E38EEA91E0C0
:103AA0000E941B080F900F900F900F900F90DF91C6
:103AB000CF911F910F91FF90EF90DF90CF90BF902B
:103AC000AF909F908F907F906F905F900C9435088F
:103AD00085E38AC38091B90580FF31C08E7F8093D2
:103AE000B9056091B9057091BA058091BB059091B7
:103AF000BC050E94621280914D03816080934D034A
:103B00004FEF50E782E0415050408040E1F700C065
:103B100000000F900F900F900F900F90DF91CF91BA
:103B20001F910F91FF90EF90DF90CF90BF90AF90DB
:103B30009F908F907F906F905F900C948B1381601B
:103B40008093B90561E086950F900F900F900F90CC
:103B50000F90DF91CF911F910F91FF90EF90DF9029
:103B6000CF90BF90AF909F908F907F906F905F901D
:103B70000C94411546EB55E16FEB75E10F900F90FA
:103B80000F900F900F90DF91CF911F910F91FF90A9
:103B9000EF90DF90CF90BF90AF909F908F907F90ED
:103BA0006F905F900C94B4094FEB55E166EB75E1B3
:103BB000E5CF40EF56E169EF76E1E0CF49EF56E11E
:103BC00060EF76E1DBCF48ED56E164EE76E1D6CFEB
:103BD00044EE56E168ED76E1D1CF40EC56E16CEC75
:103BE00076E1CCCF4CEC56E160EC76E1C7CF44E710
:103BF00052E165E872E1C2CF45E852E164E772E163
:103C0000BDCF61E081E0A0CF0F900F900F900F909B
:103C10000F90DF91CF911F910F91FF90EF90DF9068
:103C2000CF90BF90AF909F908F907F906F905F905C
:103C30000C94C9150E94640E9FEFE4E3FCE09150E0
:103C4000E040F040E1F700C000000E949D110F909D
:103C50000F900F900F900F90DF91CF911F910F91C8
:103C6000FF90EF90DF90CF90BF90AF909F908F909C
:103C70007F906F905F900C94F811C8010E944C08DF
:103C8000D82ED7C2092F0F70907F11F00295007FB8
:103C9000812F2223C9F0002369F090E2910F983020
:103CA00010F011110BC080912B03082B00932B03F4
:103CB0000E943508812F0E94530917C080912A0362
:103CC000082B00932A03F4CF0E941A09002369F0FD
:103CD0000095105E183010F0B11027C080912B03B2
:103CE000082300932B030E94350898E0C91AD108D5
:103CF000E4E0CE16D10408F0A1CA0E94A8090F90F2
:103D00000F900F900F900F90DF91CF911F910F9117
:103D1000FF90EF90DF90CF90BF90AF909F908F90EB
:103D20007F906F905F900C94951580912A030823E3
:103D300000932A03D8CF892F8F70907F903211F093
:103D40008295807FF1E0BF120CC0222329F036302B
:103D500060F60E94CA08C9CF353038F60E94BF0805
:103D6000C4CF222341F03323A1F340FFA3CF4F70F0
:103D7000F7014583EECF332389F3193309F06FC17F
:103D8000FFEF27EE33E0F15020403040E1F700C074
:103D90000000812F0E941A09A8CF892F8695869549
:103DA000837061F0813009F0A0CF812F93702111D1
:103DB00002C090E080E00E94D60897CF812F9370D8
:103DC000211102C090E080E00E94EC088ECF892F84
:103DD000837009F065C0211188CF812F8295869567
:103DE0008770880F880F412F4F7050E070E060E0BF
:103DF000082E04C0440F551F661F771F0A94D2F780
:103E000014FF2CC00FE010E020E030E004C0000FF1
:103E1000111F221F331F8A95D2F700951095209508
:103E20003095969596959370923039F1F8F480908C
:103E30002C0390902D03A0902E03B0902F0391306F
:103E400089F0402B512B622B732BCB01BA016821D7
:103E500079218A219B210E94100947CF00E010E0C0
:103E60009801DFCF482959296A297B29CB01BA015A
:103E7000602B712B822B932BEECF402B512B622B7F
:103E8000732B00912C0310912D0320912E03309160
:103E90002F03CB01BA016027712782279327DBCF3D
:103EA0008695222311F0892F8170882309F41DCF74
:103EB000812F829586958770880F880F412F4F70CC
:103EC00050E070E060E0082E04C0440F551F661FEC
:103ED000771F0A94D2F714FF2CC00FE010E020E007
:103EE00030E004C0000F111F221F331F8A95D2F744
:103EF00000951095209530959695969593709230F3
:103F000039F1F8F48090B2059090B305A090B40513
:103F1000B090B505913089F0402B512B622B732B5B
:103F2000CB01BA01682179218A219B210E94541674
:103F3000DCCE00E010E09801DFCF482959296A293A
:103F40007B29CB01BA01602B712B822B932BEECFF7
:103F5000402B512B622B732B0091B2051091B305AE
:103F60002091B4053091B505CB01BA0160277127C6
:103F700082279327DBCF092F0F70222329F0802F70
:103F80000E949F16812FE5CE812F0E94BF08802FAF
:103F90000E947C16AACE812FE1EF1E1709F442C0C1
:103FA000E11758F0F0EF1F17F1F0222309F44BC08E
:103FB000311180CE892F8F713AC042EF1417D1F1A1
:103FC00053EF1513F2CF2223D1F1292F2F7161E086
:103FD00070E080E090E004C0660F771F881F991F93
:103FE0002A95D2F7A3CF2223C9F0353008F07DCE31
:103FF000292F2F7161E070E080E090E004C0660F2F
:10400000771F881F991F2A95D2F70091B20510914A
:10401000B3052091B4053091B505A8CF363008F02E
:1040200064CEE6CF892F8F71222309F4B1CF0E948D
:104030009F165BCE892F8F712223C9F3A9CF60E031
:1040400070E0CB0173CF332379F0893341F48FEFE4
:1040500097EEE3E081509040E040E1F798CE8FE3A7
:104060009CE90197F1F793CE892F8F7191CF0031A1
:10407000FFE51F0709F45BCA01312FE5120709F4B8
:1040800073CA01383FE5130709F4ABCA08F06ECADA
:1040900000385FE5150709F48ECA1092C202073F87
:1040A000FCE51F0709F0D5CAF7018281882309F4CE
:1040B000F1CA81E080930001F7019281992309F40C
:1040C00089C01092B8050230FCE51F0708F4D6CC71
:1040D00006312CE5120738F098012A5F3C4529305B
:1040E000310508F0CBCC0E94E40B909345038093FC
:1040F000440300313CE5130709F48FCC08F020CCD1
:1041000008305CE5150709F47ACC08F0EFCB0430F1
:104110009CE5190709F46BCC08F0D5CB0230FCE51F
:104120001F0709F45ECC80914403826003301C4574
:1041300009F45ACC609144031091450384E090E067
:104140000E947831612F81E290E00E9478310F90D7
:104150000F900F900F900F90DF91CF911F910F91C3
:10416000FF90EF90DF90CF90BF90AF909F908F9097
:104170007F906F905F900C94640E00313FE51307C1
:1041800009F4D9C901314FE5140709F07ACF82E06B
:10419000D3C985E0DE01119601900D928A95E1F771
:1041A000F701228189819A8121115DC80E944C0802
:1041B000182F61C8053F8CE5180709F47DCB08F47A
:1041C00077CB27E245EE66EE063FECE51E0709F4E5
:1041D000CACA72CF0631FCE51F0709F043C08091BF
:1041E000C302811175CC89E2E0EBF1E026EB31E00E
:1041F0009191891303C0DF0111971C922E173F077D
:10420000B9F750CC01152CE5120709F413CD0E3D7A
:104210001C4509F41CCDF70100811181992309F493
:104220002CCDC8010E948F0DD82E682FC8010E9486
:104230007408B8018D2D0E94250C182FB82EF70197
:1042400022814581342F32953F70892F82958F705E
:10425000C82ED12C8C3008F048CDF601E35AFC4C26
:104260000C941F3180912B038272F801E25CFC45B3
:10427000E431F10580F6E759FC4C0C941F311F9393
:10428000CF93DF938091C902807FA9F48091C60209
:10429000882389F08091FB02D091CA026091C40208
:1042A0007091C502A091C702B091C802C62FC72362
:1042B00016E0D81304C0DF91CF911F91089590E0CC
:1042C000109711F0CF3F19F401968770F2CF189F25
:1042D0009001199F300D1124F901E553FD4F4181E3
:1042E0004713F2CF40814613EFCF42814111ECCF0B
:1042F000438154814A1B5B0B483C510528F7809150
:10430000C9028F7080618093C902F901E053FD4FAB
:1043100080818F708061808384EC92E00E94FE181F
:10432000DF91CF911F910C94A008AF92BF92CF92D2
:10433000DF92EF92FF920F931F93CF93DF93CDB74E
:10434000DEB761970FB6F894DEBF0FBECDBF8C010C
:1043500085E0F801DE011D9601900D928A95E1F746
:10436000F80180819181E28024ECA22E22E0B22E1D
:104370006091C7027091C8026115710509F43EC1D0
:104380003091C4024091C502232F24232F3F09F40A
:1043900035C1C380D480F090C602F601E61BF70B4E
:1043A000FF2009F4FBC02091C902522F507FE83C46
:1043B000F10508F0BBC0511178C0FE2C491321C093
:1043C00038131FC0E1101DC02F7020612093C90257
:1043D000C5010E94FE188091C902F80185838F2DC6
:1043E00061960FB6F894DEBF0FBECDBFDF91CF91BF
:1043F0001F910F91FF90EF90DF90CF90BF90AF9003
:104400000895CD2829F0282F29232F3F09F014C122
:1044100020E0F22FF170DF2E20FF3DC02091FB0243
:104420004091CA0256E0241315C08D879E878D8562
:104430009E850E94D10D292F22952F702230F8F0F1
:10444000243020F59F70F9F0F8019581907FD9F420
:10445000D12C1FC030E0529FF001539FF00D11246A
:10446000E553FD4F6181961306C06081861303C03A
:104470006281E61210C02F5F3F4F2770D4CF9F702C
:1044800011F0882329F3805E883010F3C8010E9460
:10449000FE18FD2CA4CFEE2009F4A1CF8091C90213
:1044A00081608093C902F12C9ACF491312C038134E
:1044B00010C0E1100EC0F8012583C8010E94FE184B
:1044C00086E0F801A4ECB2E001900D928A95E1F744
:1044D00086CF8D879E878D859E850E94DB0D8823E4
:1044E00009F1EE20F9F08091C902803270F020913C
:1044F000C4023091C50238872F831986DB86CA86AD
:104500008C87CE0107960E94FE1886E0F801A4EC85
:10451000B2E001900D928A95E1F70E943F21FF24BD
:10452000F3945DCFC8010E94FE18F9CF51110AC063
:1045300084EC92E00E94FE1886E0F50111928A95C3
:10454000E9F7B1CF49130FC038130DC0E1100BC00C
:10455000F8012583C8010E94FE1886E0F50111923A
:104560008A95E9F73CCF8D879E878D859E850E9431
:10457000DB0D8823B9F2EE20A9F28091C9028032C6
:1045800020F22091C4023091C5023A8329831B8214
:10459000DD82CC828E83CE010196B5CFE83CF10559
:1045A000E0F6FE2CEE2009F4BDCF491316C03813F7
:1045B00014C08091C90280FD83CF982F907F09F4A9
:1045C0007FCFF8018583903F09F477CF982F907FB4
:1045D000905F8F70892B858370CF8D879E878D85A7
:1045E0009E850E94DB0D811190CF8091C902816070
:1045F0008093C902C8010E94FE18F1CEEE2009F492
:1046000091CF8D879E878D859E850E94DB0DF82E2C
:10461000882309F487CF86E0F801A4ECB2E001908A
:104620000D928A95E1F78091C4029091C5020E9493
:10463000D10D0E943F21D3CE21E02E25EACE1F933B
:10464000CF93DF93CDB7DEB767970FB6F894DEBF91
:104650000FBECDBF342F4B8B252F5C8B6D8B7E8B8C
:104660008F8B8E899F89611110922A031A8A198A69
:104670003D872E876F87998B888B86E0FE013D965C
:10468000DE01179601900D928A95E1F7CE0107960B
:104690000E949521882389F016E08091FB02909179
:1046A000CA02891349C067960FB6F894DEBF0FBEE1
:1046B000CDBFDF91CF911F91089586E0FE0137961F
:1046C000DE01119601900D928A95E1F78A859B850E
:1046D000892B11F38F81988589238F3FE9F22091EF
:1046E000CA0230E0C9010196877099274091FB0208
:1046F0004817190671F40E94640E1092CA021092B3
:10470000FB0286E0E4ECF2E0DF011D928A95E9F716
:10471000C3CF96E0929FD001939FB00D1124A55373
:10472000BD4FFE01319601900D929A95E1F780936D
:10473000CA020E94A008B0CF819FC00111248553F6
:104740009D4F0E949521882309F4ADCF8091FB02F3
:1047500090E00196877099278093FB029ECF8F92FD
:104760009F92AF92BF92CF92DF92EF92FF920F9300
:104770001F93CF93DF9300D000D00F92CDB7DEB759
:1047800002E111E088E3C82E83E0D82E4601F12C27
:10479000AA24A394B12CD8018D918D01F894E82F0F
:1047A000E295EF70F0E021A18F70A50102C0440FE7
:1047B000551F8A95E2F7CA01922F982B91A392A1D7
:1047C0008095892382A3789400C0EBE0F1E030E08B
:1047D00020E0E12C4191A42FA295AF70B0E090961B
:1047E0008C9190E04F7002C0959587954A95E2F7BD
:1047F00080FD48C08A2D022E01C0880F0A94EAF776
:10480000E82A2F5F3F4F2730310521F7F801319714
:1048100080810E94650A50EA5A95F1F7D4018C9183
:10482000E81691F1EC9281E0F82ABFEF8B1A9B0A0F
:10483000E1E007311E0709F0AECF10914303FF20DE
:1048400029F181E08093B8010E948E189093B701FE
:104850008093B6018091B6019091B7010E94000843
:104860000697C0F0E12FF0E0EF56FA4FD6018D9198
:104870006D018193BDE3CB16B3E0DB06B9F710926F
:10488000B80108C080E0BCCF80E0CECF8091B801F5
:104890008111E0CF0E94DC11E82E60914303882350
:1048A00009F4CDC08E010F5F1F4F85E0F801119212
:1048B0008A95E9F7862F90E0B8018F569A4F0E94AB
:1048C000C62D81119FC08091B9018F5F8093B9017E
:1048D000863008F4B2C0E0914203F0E0EF56FA4FA0
:1048E000D801CE01069611921D928A179B07D9F71F
:1048F000809100018823A1F08091BD02882381F07E
:104900008091BE029091BF02009751F00E94000872
:104910008139914028F01092BD0281E00E946D0B18
:104920008091A4029091A5020E940008893E9340C4
:1049300060F16091A302062F10E066277727601BC5
:10494000710B072E000C880B990B0E944A3227EA44
:1049500039E747E45DE30E94D6324B015C01B801C0
:10496000110F880B990B0E944A329B01AC01C501C3
:10497000B4010E94AD310E9419326093A3020E94DB
:104980008E189093A5028093A4028091AB02882395
:1049900071F08091A9029091AA020E940008893EBC
:1049A000934028F082EE0E941A091092AB02809187
:1049B000A802882389F08091A6029091A7020E9404
:1049C0000008893E934040F081EE0E941A0983EE70
:1049D0000E941A091092A802F11001C0FE2C8F2D1E
:1049E0000F900F900F900F900F90DF91CF911F912C
:1049F0000F91FF90EF90DF90CF90BF90AF909F907E
:104A00008F9008951092B901A0914203B0E0AF5683
:104A1000BA4F9E012A5F3F4FE12C4D91F8019191D1
:104A20008F01491731F0AD0141505109FA019083CE
:104A3000E82E0217130789F75BCFE12C59CF70E0FE
:104A40006F567A4F8091420390E08F569A4F0E94A2
:104A5000F92DC2CF0F931F93CF93DF93CDB7DEB75E
:104A6000A8970FB6F894DEBF0FBECDBF81114DC021
:104A700006E0662359F10CA311E01DA31EA30E94BA
:104A80008E188160782F98A78FA34CA15DA16EA18D
:104A900088A50E941F230F8F18A319A20E948E18A9
:104AA0008160782F9BA38AA34F8D58A169A18BA108
:104AB0000E941F2381E0A8960FB6F894DEBF0FBEB8
:104AC000CDBFDF91CF911F910F9108950A8F13E011
:104AD0001B8F81E08C8F0E948E188160782F9E8FB3
:104AE0008D8F4A8D5B8D6C8D8E8D0E941F230D8B5B
:104AF0001E8B1F8A0E948E188160782F998F888F55
:104B00004D895E896F89898DD3CF813099F666236F
:104B1000F1F016E0188B198B8A8B0E948E18816039
:104B2000782F9C8B8B8B488959896A898C890E9444
:104B30001F231B871C871D860E948E188160782F7B
:104B40009F878E874B855C856D858F85B1CF06E00D
:104B50000E8318E01F8388870E948E188160782F4B
:104B60009A8789874E815F8168858A850E941F2385
:104B700009831A831B820E948E188160782F9D837F
:104B80008C8349815A816B818D8192CFCDB7DEB7FD
:104B9000AE970FB6F894DEBF0FBECDBF84B7877F48
:104BA00084BF0FB6F894A8958091600088618093C7
:104BB0006000109260000FBE80E890E00FB6F8949D
:104BC00080936100909361000FBE85B7806885BFB8
:104BD00085B7806885BF8AEF97E09093AD01809399
:104BE000AC010E9470060E943B078091E200846045
:104BF0008093E20078948091A8058823A1F0109119
:104C0000E9001F709091EC00892F817090FD80E881
:104C1000182B1092E9008091E80083FD0E946F0E2E
:104C20001F701093E90082E084BD93E095BD9AEF78
:104C300097BD80936E00109234031092350310924A
:104C40003603109237030E94DC1180931C0180917F
:104C50001C01882309F494C01092060185E2809318
:104C600007010E94DC1181110E949D2D80911C0181
:104C700081112FC0FE01359686E0DF011D928A95D5
:104C8000E9F786E6898387E98A8386EC8B8384E368
:104C90008C8385E38D833497A2E1B1E0CE010B963E
:104CA00021912D938E179F07D9F787E0E1E4F1E07A
:104CB000DE01919601900D928A95E1F7FE01B19681
:104CC000ABE0B1E0CE01889621912D938E179F071E
:104CD000D9F780911C0195E0811190E090934303F6
:104CE00085E0891B8093420302E111E0A7E1EA2EEF
:104CF000A1E0FA2EF80181918F010E94650AE01669
:104D0000F106C1F70BE011E0F2E1EF2EF1E0FF2E2A
:104D1000D8018D918D010E94650AE016F106C1F758
:104D2000E8E3F3E082E493E0A1E9B5E011921D929B
:104D30008E179F07D9F70E94AF23EFE3FCE9319765
:104D4000F1F700C000000E94AF238091910580FF21
:104D50001BC06FEF82E290E00E9478316FEF83E238
:104D600090E00E9478316FEF84E290E00E94783109
:104D70006FEF7FEF90E080E00E9496310E949D11DE
:104D800085E2809306016BCF90E080E00E94723153
:104D90008B3E9E4F11F00E94F8110E94DC11811190
:104DA00002C00E94A32D82E290E00E946431813211
:104DB00009F0E4C583E290E00E946431883009F094
:104DC000DDC584E290E00E946431853009F0D6C5EB
:104DD0000E94DC11882309F415C283E080937B05CF
:104DE00080FD12C280E8809358030E94202E6DE05F
:104DF00070E080E19BE00E948C0B892BE9F58091AB
:104E00007B0563E070E081FD01C28DE09BE00E94C4
:104E10008C0B892B89F56DE070E08DEF9AE00E9494
:104E20008C0B892B49F50E940F0860547B428E4FF2
:104E30009F4F60937F0570938005809381059093C9
:104E40008205EBE7F3E080E092E0DF019C011D9238
:104E500021503040E1F7F0935703E09356038FEF72
:104E60009FEF90937E0580937D0581E0809384057C
:104E70008093830510927C0590E080E00E9472315F
:104E80008B3E9E4F11F00E94F81182E090E00E944C
:104E90006431809386050E94E40B909345038093D0
:104EA000440383E090E00E946431682F70E090E05A
:104EB00080E00E9410096091B2057091B305809165
:104EC000B4059091B5050E94D815809146038111D3
:104ED00039C090E080E00E9472318B3E9E4F21F0FD
:104EE0000E94F8110E94961288E090E00E946C31B6
:104EF0006093B9057093BA058093BB059093BC0588
:104F000080914D03836080934D036E7F71F40E9406
:104F1000961288E090E00E946C316093B90570931E
:104F2000BA058093BB059093BC050E94B909809196
:104F3000B90580FF04C060E086950E94411581E0BC
:104F40008093460380911C01811106C084EF8093F9
:104F50001E0185EF80931D0120911E01A22FA295B5
:104F6000AF70B0E091963C9191972F7081E090E006
:104F7000BC01022E01C0660F0A94EAF7462F409545
:104F8000432391964C93919792963C919297362B0E
:104F900092963C93929740911D01E42FE295EF7019
:104FA000F0E031A14F70042E01C0880F0A94EAF797
:104FB000982F9095932391A392A1892B82A39096E9
:104FC0008C9190E002C0959587952A95E2F78170C3
:104FD00020A130E002C0359527954A95E2F792E08E
:104FE00020FF90E0892B8093550390911C0181E074
:104FF000982790935403891B809347038DE19BE08E
:1050000090934903809348038091B9058160809310
:10501000B90561E086950E94411560E08AE00E9432
:10502000411540E56FEF82E30E943E1561E070E0BC
:1050300080E090E00E94541686E291E090935A033B
:105040008093590381E995E0EAE06E2E680E809125
:10505000A805FF24F39400E112E1853009F41FC193
:105060000E94AF23E82E81110E940F08E7E8F5E0C7
:10507000A1E9B5E010E000E0B02EDD9081918D1542
:1050800009F42EC18D25C12CFF24F3949F2D982364
:1050900009F421C10E94DC11882399F0C9A2BAA2A7
:1050A000DF2081E009F480E08BA30E948E188160EC
:1050B000782F9DA38CA349A15AA16BA18DA10E9419
:1050C0001F23F801E957FA4F8081F826F08280917A
:1050D0005503E82FEE0FEE0F90911E01A92FA29518
:1050E000AF70B0E090962C9130E09F7002C0359583
:1050F00027959A95E2F72170332790911D01A92FEA
:10510000A295AF70B0E090964C9150E09F7002C0B5
:10511000559547959A95E2F7CA018170992740FF06
:1051200002C082E090E0822B8E2B80935503109179
:1051300054038F70E82FF0E0EB57FE4F8081909181
:105140005303890F80935303F12C84307CF0E12FBB
:10515000012E000CFF0BEF5AFC4F80818F5F808384
:1051600060E0812F0E942A25FF24F394809153034D
:105170008D3F7CF4E12F012E000CFF0BEF5AFC4F0A
:1051800080818150808361E0812F0E942A25FF2445
:10519000F39480915303082E000C990B64E070E0A7
:1051A0000E94EC3080935303F1100E94D408809148
:1051B0008405882309F428C18BE793E09093570373
:1051C000809356030E94DC1160E0882309F45EC1DD
:1051D00086E69BE00E9441136091B2057091B30591
:1051E0008091B4059091B5050E94BF0A882309F407
:1051F0008EC0813009F4B1C060E087E59BE00E9479
:1052000041138AC080E0EACD80E2EDCD8AE09BE0E8
:10521000FECD8091A805843009F434C080E00E945E
:10522000951580915003811109C0F092500380912F
:10523000B905817080934F030E94021710924A03B0
:10524000E8E1F0E020E40FB6F894A895E093600060
:105250000FBE2093600083B7817F846083BF83B7D4
:10526000816083BF7894889583B78E7F83BF0FB6A4
:10527000F894A895809160008861809360001092F6
:1052800060000FBE8091A705882349F00E94AF23DC
:10529000E1E9F5E0819181115BC36E12FBCF809152
:1052A000A805853009F4B5CF0E94640E0E94A809B4
:1052B0000E9495151092500380914F03882319F096
:1052C0000E94AD15CDCE80914E03882309F4C8CE3F
:1052D0000E948B13C5CEC394FF0C37E0C312D6CE09
:1052E0000F5F1F4F0A30110509F0C6CE8FEF88A758
:1052F00089A71AA60E948E188160782F9CA78BA779
:1053000048A559A56AA58CA50E941F23E0CE60E0A0
:1053100081E69BE00E94861360E084E59BE00E94AA
:10532000411360E08EE49BE00E9486136091B20519
:105330007091B3058091B4059091B5050E94BF0AA4
:10534000823009F49BC068F0833009F49BC060E0B0
:1053500086E39BE00E94861309C060E08CE59BE039
:10536000D9CF60E088E49BE00E94411360E083E3D2
:105370009BE00E944113E0915903F0915A0380E0B1
:10538000309721F00190F081E02D099581FB66278F
:1053900060F98DE29BE00E9486138091840588234A
:1053A00071F020917D0530917E052115310539F090
:1053B00080917C0561E070E0882309F46DC08091E4
:1053C0008305882309F10E940F0800917F05109141
:1053D00080052091810530918205601B710B820B45
:1053E000930B6F3F7F4F8F4F9F4770F480918405E1
:1053F000882351F062E070E089EA9BE00E948C0B08
:10540000892B11F410928305E11001C0F1100E9464
:10541000BC0B0E94A80990918505891731F00E9464
:10542000A809809385050E9495158091A805843070
:1054300009F00DCE83E08093E9008091E80082FFBF
:1054400006CE8091E80090E085FF06C00E948F069E
:10545000882309F4EBC091E08091E8008B7780937A
:10546000E800992309F4F3CDE981E150E33108F034
:105470004EC1F0E0E358FC4C0C941F3160E082E434
:105480009BE072CF60E08CE39BE06ECF89E69BE00F
:105490000E94411382CF8F5F082F10E02B01082E4E
:1054A00002C0440C551C0A94E2F7A901442155217D
:1054B000452B89F390917B0590FD44C08295880F20
:1054C000807680932101980136952795369527950A
:1054D00020932401815E809322011092250124E60D
:1054E00030E047E050E06FE171E088E70E94B12EC4
:1054F000892B09F064CFA80165E0440F551F6A9518
:10550000E1F780917B0580FD2BC045585C4F04E698
:1055100010E020E230E060E488E70E94D82E892B7A
:1055200009F04DCF0E94BC0BC20180959095409030
:105530007D0550907E054822592250927E0540926A
:105540007D053DCF880F880F880F80932101109231
:105550002401895F8093220183E080932501BFCFDE
:10556000EBE5F3E080E2DF011D928A95E9F7E9E9D6
:10557000F1E0FEA7EDA705E911E037E0A32E99249D
:105580009394ADA5BEA52D91BEA7ADA7F80121901E
:105590008F01240E352E311CC10185589C4F1C01F2
:1055A000E22FF0E0E55AFC4F30E020E07A2C721A4E
:1055B000B92C022E01C0BB0C0A94EAF7610190E0FD
:1055C000D6018D916D018B21672D691B6770862E29
:1055D000062E000C770BB82F01C0BB0F8A94EAF798
:1055E0008B2E7195619571096770772701C086953B
:1055F0006A95EAF7882A8081882A80829F5F98309E
:10560000F9F62F5F3F4F31962830310579F6EDE9F5
:10561000F1E02DA53EA5E217F30709F0B2CF04E6AD
:1056200010E020E230E04BE553E075CF00E210E0FF
:10563000CE0101967C018091E80085FD0AC0809131
:10564000E8008B778093E8000E948F06882399F307
:1056500002CF8091F100D7018D937D010150110996
:1056600051F7F9CE1A8289E08B8311C08A8182308A
:1056700009F49DC1833091F1813009F048C00E9446
:105680000F080E9425316B837C838D839E838091DC
:10569000A805843009F0DBCC1091E9001F709091CF
:1056A000EC00892F817090FD80E8182B82E08093B8
:1056B000E9008091E80080FF0DC050E040E060E22A
:1056C00070E0CE0101960E94C0068091E8008E77BE
:1056D0008093E8001F701093E900B9CCDE011396A7
:1056E000E1E9F5E081918D9325E0EB39F207D1F7FF
:1056F000CECF8A81823059F46B817C818D819E81ED
:105700000E94253185E290E00E947831C0CF8FEF72
:105710008983BDCF4C816B818A810E94F20B9827CF
:10572000892798279E838D83B2CFED80FE80FE244B
:10573000EF24FE248A810B813EE0039F8001112427
:105740009CE8899F000D111D11248C8190E0880F29
:10575000991F080F191F6F2DC80186960E94783176
:105760006E2DC8018796D0CF0E94FF0D90CF8A8101
:105770008138B1F058F4803809F089CF4B816091BD
:10578000BB058091BA050E943E1581CF8238A9F0F1
:10579000833809F07CCF4091BC056C818B81F3CFBD
:1057A00060E08B810E9441158B81811103C00E94B2
:1057B00002176DCF0E94AD156ACF8B818093BD0516
:1057C00066CF8A81813899F030F4803809F05FCF54
:1057D0008091BC0549CF823891F0833809F057CFCA
:1057E0008091BA058B838091BB058C8350CF8091CB
:1057F000B90580FF02C0869537CF80E035CF809114
:10580000BD0532CF6091B9057091BA058091BB0595
:105810009091BC050E9462123ACF80E18A8337CF13
:1058200081E08A838AEA20CFEA80FB80FE24EF248D
:10583000FE248E010F5F1F4FCC80C00ED12ED11CD5
:10584000C7018A5A9D4F0C151D0509F420CFAAEAFD
:10585000EA16A1E0FA0650F40E946431F80184834C
:10586000BFEFEB1AFB0A0F5F1F4FEACFD801149668
:105870001C92F6CF0A811B81102701271027FE01F9
:1058800031966F01EC80E00EF12EF11CC8018A5AAE
:105890009D4FE016F10609F4FACE0A3AF1E01F072F
:1058A00028F4D60114966C910E947831BFEFCB1A80
:1058B000DB0A0F5F1F4FEACF0E94540EE8CE84E050
:1058C000ADCFEA80FB80FE24EF24FE248E010F5F23
:1058D0001F4FCC80C00ED12ED11CC7018696C0169A
:1058E000D10609F4D4CEE0E3EE16E2E0FE0658F469
:1058F0000E946431D80114968C93FFEFEF1AFF0ACF
:105900000F5F1F4FEACFF8011482F7CF0A811B8186
:105910001027012710279E012F5F3F4F6901EC8060
:10592000E00EF12EF11CC8018696E016F10609F48E
:10593000AECE003332E0130728F4D60114966C91F2
:105940000E947831BFEFCB1ADB0A0F5F1F4FEBCFFE
:1059500009BD19BD09B400FEFDCF8091D8008F7D2F
:105960008093D8008091E00082608093E000809175
:10597000E00081FDFCCF0E94640E91CC60E085E2E6
:1059800090E00E9478310E94FF0D0E94540E61E267
:1059900082E290E00E94783168E083E290E00E9429
:1059A000783165E084E290E00E94783111CA85E2A6
:1059B00090E00E9464311B821C821D828E8367CE20
:1059C0001F921FB61F9211248F939F93AF93BF9383
:1059D00080914A03811113C080913003909131036B
:1059E000A0913203B09133034196A11DB11D809364
:1059F000300390933103A0933203B0933303BF91EC
:105A0000AF919F918F911F901FBE1F901895FF928D
:105A10000F931F93CF93DF93D09147030D2F10E087
:105A20000F5A1C4FFC01C081F8018081C81BFC2E5D
:105A300080E01F147CF09C2FC7FD90E0C91BC111B2
:105A400014C08823E9F0DF91CF911F910F91FF904F
:105A50000C94D408FA94F80180818F5F808360E011
:105A60008D2F0E942A2581E0E4CFCF5FF80180814D
:105A70008150808361E08D2F0E942A2581E0DFCF55
:105A8000DF91CF911F910F91FF900895E091540302
:105A9000F0E0EF5AFC4F2081FC01208308958091B3
:105AA000A30208958093A30208951F93CF93DF93D9
:105AB000EC01162F8F8184FF03C0988590934E03CD
:105AC00080FF0CC0888180FF15C09091B90591605E
:105AD0009093B905612F86950E9441158F8181FFB2
