:100000000C94DE060C9425070C9425070C94FF2F06
:100010000C9425070C9425070C9425070C942507B0
:100020000C9425070C9425070C94EA190C94A61936
:100030000C9452260C9425070C9425070C94250744
:100040000C9425070C9425070C9425070C94250780
:100050000C9425070C94C11A0C9425070C942507C1
:100060000C9425070C9425070C9425070C94250760
:100070000C9425070C9425070C9425070C94250750
:100080000C9425070C9425070C9425070C94250740
:100090000C9425070C9425070C9425070C94250730
:1000A0000C9425070C9425070C94250737032B6423
:1000B000AAFF000000001C032B64AAFF0000000040
:1000C00004032B64AAFF000000000000D7FF78FFA4
:1000D00000000000000080FF64FF0000000000003E
:1000E000FCFF7DFF0000000000005FFF5AFF0000E2
:1000F000000005010980A101850319012AB7001537
:100100000126B700950175108100C0050C0901A1F9
:1001100001850419012AA002150126A00295017586
:10012000108100C00660FF0961A101096215002667
:10013000FF009520750881020963150026FF0095D0
:100140002075089102C005010906A101050719E003
:1001500029E71500250195087501810295017508AB
:1001600081010507190029FF150026FF0095067576
:100170000881000508190129059505750191029569
:100180000175039101C000000000000000000000A4
:10019000000000000000000000000000000000005F
:1001A000000000000000000000007E0F00D4FFFFF0
:1001B000FFC70000007800000000000000002A2BAC
:1001C0002800000000000000000000000000000007
:1001D0000029000000002C1E342021222434262770
:1001E000252E362D3738271E1F2021222324252691
:1001F0003333362E37381F0405060708090A0B0C5F
:100200000D0E0F101112131415161718191A1B1CA6
:100210001D2F3130232D350405060708090A0B0C64
:100220000D0E0F101112131415161718191A1B1C86
:100230001D2F3130354C00DA02815AD9F1DB20A470
:10024000A62EAF00A0C000A1C800AED580A81FD3C5
:1002500000408D142000E800DE00D400CA00C00079
:10026000B600AC000000000000000000000000002C
:1002700000000000000080C0E0F0F0F898F8F8F806
:10028000F0702000000000000060C080000000004E
:10029000C0F0F0F0E0C0877FFFFFF1C3030303016C
:1002A0000100000000000000000103071F3E78F776
:1002B000FF7F3D03070F1E3D7FFFFFFFFC7800001F
:1002C000000000000000000000000000000000002E
:1002D000000000000000000080E0F0F0F898F8F85E
:1002E000F8F070200000008000000000C0F8FC3E24
:1002F000DEFEFCF80000E0FEFF7F070103030301C0
:1003000001000000000000071E3C78FFFF7F010095
:10031000071F3F7C78FFFF7F070000000000000000
:1003200000000000000000000000000000000000CD
:1003300000000000000000000000000000008080BD
:100340000000000000000000C000000000000000ED
:100350000000000000000000F8FCFEFE1F3F3939DD
:100360003F3F1E1E0C000000010F3E7870F8FCFE9F
:100370007E3E3C3C787878F0F1FF7F7F3E000000C5
:10038000000000000000000000000000000000006D
:1003900000000000000000008080C0C06060C0C09D
:1003A000C0800000000000002060C080000000004D
:1003B0000000000000003E7FFFFFE7C70E0E0F0F9A
:1003C0000707030000000000000001071F3E78F04F
:1003D000FC7E1E1F0F0E1E1C3D7FFFFFFFFC7800E2
:1003E000000000000000000000000000000000000D
:1003F000E0F0F0F8F8CCCCF8F8F0F0600000000085
:1004000000000000000000000000000000000000EC
:100410000F3F7FFCF9F1E1C1810000000000000006
:1004200000000000000000000000000C387060E0D8
:10043000E0F0F0F8F9FFFFFFFFFF7E1C0000000076
:1004400000000000000000000000000000000000AC
:10045000E0F0F0F8F8CCCCF8F8F0F0600000000024
:10046000000000000000000000000000000000008C
:100470000F3F7FFCF9F1E1C1810000010102060C90
:10048000040000000000000000000000387C60E074
:10049000E0F0F0F8F9FFFFFFFFFF7E1C0000000016
:1004A000000000000000000000000000000000004C
:1004B000000000000000000000000000000000003C
:1004C000000000000000000000CCF87000000000F8
:1004D0000000C0F0F8F87CFCEEE6FCFC7878B00098
:1004E00000000000000000003F7FF1F8F87C7CF87D
:1004F000F0F0F1E7EFEFFEFEFEFCFCF8F06000012B
:1005000003060200000000000000000000000000E0
:1005100000000000000000000000000000000000DB
:10052000000000000000000080E0F81C0000000057
:100530000000C0F0F8F87CFCEEE6FCFC78783000B7
:1005400000000000000000003F7FF0F8F87C7CF81D
:10055000F0F0F1E7EFEFFEFEFEFCFCF8F0600000CB
:10056000000000000000000000000080C0C0E0E0CB
:100570003070E0E0C0C0800000000000000000001B
:10058000000000000000000000001F7FFFFFE7E701
:10059000EFEFCFCB838301000000000000000000DC
:1005A0000000000000000000061C3878F1E3E3E7DB
:1005B000F7F7FFFFFFFF7F3E000000000000000094
:1005C000000000000000000000000000000000002B
:1005D000000000000000000080C0E0E060E0C0C05B
:1005E00080800000000000000000000000000020EB
:1005F000F8FEFFFFFF9F0F0E1F1F3F3F7EE68303A6
:100600000F43439088080000031E3C78F0E0E0F0C0
:10061000F0FBFFFFFF7F7F380000000000000000BC
:10062000000000000000000004F6B8F8D8F0E0C0B8
:1006300000000080C0E0E0F0F0F0F0E0E0C08000FA
:100640000000000000000080C0E1F3FB7F1F0F00EE
:1006500000F0FFFF3F030100000080C1F3FF7F1F98
:10066000000080C0E0301E3F3F7FF9F0F070783C22
:100670003F1F0F03000000001C3F7F7FFBF1F0785D
:100680003C1E0F03000000010101010101010101F5
:100690000202020202020202020303030303030333
:1006A0000304040404040404050505050506060600
:1006B0000606070707070708080808090909090ABD
:1006C0000A0A0B0B0B0C0C0C0D0D0D0E0E0E0F0F62
:1006D0000F101011111112121313141415151616F0
:1006E0001717181819191A1A1B1B1C1D1D1E1E1F5F
:1006F0002020212222232424252626272829292AAE
:100700002B2C2D2D2E2F30313232333435363738D5
:10071000393A3B3C3D3E3F404142434445464748D1
:10072000494A4C4D4E4F50515354555658595A5BA7
:100730005D5E5F616264656668696B6C6D6F707247
:10074000737577787A7B7D7E8082838587888A8CB3
:100750008E8F91939596989A9C9EA0A2A3A5A7A9E7
:10076000ABADAFB1B3B5B7BABCBEC0C2C4C6C9CBDE
:10077000CDCFD1D4D6D8DBDDDFE2E4E7E9EBEEF094
:10078000F3F5F8FAFDFFFFAA7F55401C1004010D98
:10079000190A24232221201F1E1D1B1A18171615A3
:1007A000141312110F0E0C0B0908070605030200A3
:1007B0002D3945483C303F25262728292A2B2C2E29
:1007C0002F31323334353637383A3B3D3E404142A3
:1007D000434446474907087F0807003E5B4F5B3E9E
:1007E000003E6B4F6B3E001C3E7C3E1C00183C7E66
:1007F0003C18001C577D571C001C5E7F5E1C0000CF
:10080000183C180000FFE7C3E7FF00001824180099
:1008100000FFE7DBE7FF0030483A060E00262979A3
:10082000292600407F05050700407F05253F005A27
:100830003CE73C5A007F3E1C1C0800081C1C3E7F05
:100840000014227F2214005F5F005F5F0006097FB3
:10085000017F00006689956A0060606060600094B6
:10086000A2FFA2940008047E04080010207E20103D
:100870000008082A1C0800081C2A0808001E10107E
:100880001010000C1E0C1E0C0030383E38300006D4
:100890000E3E0E060000000000000000005F000099
:1008A00000000700070000147F147F1400242A7F33
:1008B0002A120023130864620036495620500000B3
:1008C0000807030000001C224100000041221C0018
:1008D000002A1C7F1C2A0008083E080800008070BF
:1008E00030000008080808080000006060000020D0
:1008F00010080402003E5149453E0000427F40007E
:10090000007249494946002141494D3300181412EB
:100910007F10002745454539003C4A49493100418F
:100920002111090700364949493600464949291E1F
:100930000000001400000000403400000000081413
:10094000224100141414141400004122140800025F
:1009500001590906003E415D594E007C1211127C7E
:10096000007F49494936003E41414122007F4141D3
:10097000413E007F49494941007F09090901003E84
:1009800041415173007F0808087F0000417F41000A
:10099000002040413F01007F08142241007F404079
:1009A0004040007F021C027F007F0408107F003E51
:1009B0004141413E007F09090906003E4151215E47
:1009C000007F091929460026494949320003017F61
:1009D0000103003F4040403F001F2040201F003FD8
:1009E0004038403F00631408146300030478040394
:1009F000006159494D4300007F4141410002040814
:100A0000102000004141417F000402010204004027
:100A10004040404000000307080000205454784044
:100A2000007F284444380038444444280038444473
:100A3000287F0038545454180000087E090200181A
:100A4000A4A49C78007F080404780000447D400042
:100A5000002040403D00007F102844000000417FFE
:100A60004000007C04780478007C08040478003896
:100A70004444443800FC182424180018242418FC8A
:100A8000007C080404080048545454240004043F23
:100A90004424003C4040207C001C2040201C003CA2
:100AA0004030403C004428102844004C9090907CFA
:100AB000004464544C4400000836410000000077B4
:100AC0000000000041360800000201020402003C60
:100AD0002623263C00000000000000404040F0F8C3
:100AE000F8FF38FFF8F83FF8F8FF38FFF8F8F04063
:100AF000404000000000000080C0C0C0800000C076
:100B0000C08000000080C0C000C0C0000080C0C025
:100B10000000000000C0C0C0C0C000C0C000000095
:100B200000000000000000000000000000000000C5
:100B300000000000000000000000000000000000B5
:100B400000000000000000000000000000000000A5
:100B500000000000C0F0F8FC3E1E06010000007F0F
:100B60004141417F007F4141417F000080C0E07EE4
:100B70005B4F5BFEC00000C000DCD7DEDEDED7DCF2
:100B800000C00000000000000000000000000000A5
:100B90000000000000000000000000494949FFFF7C
:100BA000FFFFE0DFBFBF00BFBFDFE0FFFFFFFF4988
:100BB000494900000000001F3F6060E0BF1F007F48
:100BC0007F071E381E077F7F007F7F0E1F3B7160EF
:100BD00000000000007F7F0C0C0C007E7E007F7EFA
:100BE0000303007F7E03037E7E03037F7E000F3EB0
:100BF000703C063C703E0F00327B49493F7E007FCF
:100C00007E0303001E3F69696F260000000000009C
:100C100000000000030F1F3F3C7870600000007F61
:100C20004141417F007F4141417F00307B7F7830EF
:100C3000202030787F3B0003000F7F0F0F0F7F0FC6
:100C400000030000000000000000000000000000A1
:100C50000000000000000000000000010101070F7B
:100C60000F7F0F7F0F0F7E0F0F7F0F7F0F0F07017B
:100C70000101000000000000000000000101000070
:100C80000000000000000000000000000000000064
:100C90000000000000000000000000000000000054
:100CA0000000000000000000000000000000000044
:100CB0000000000000000000000000000000000034
:100CC0000000000000000000000000000000000024
:100CD0000000000000000000000000000000000014
:100CE0000000000000000000000000000000000004
:100CF00000000000000000000000000000000000F4
:100D000000000000000000000000000000000000E3
:100D1000000000000000AF00AE09025B000301000C
:100D2000A0FA0904000001030101000921110100DA
:100D3000012240000705810308000A09040100029E
:100D40000300000009211101000122220007058291
:100D5000032000010705030320000109040200012C
:100D6000030000000921110100012232000705845F
:100D70000320000A120100020000000832FC871262
:100D80000200010200011E0353006F006C006100AD
:100D900072006900750073005F0053006F00660009
:100DA0006C006500000010034B00650079006800CE
:100DB00069007600650000000403090411241FBEC9
:100DC000CFEFDAE0DEBFCDBF04B603FE27C08091CF
:100DD000670690916806A0916906B0916A0687300F
:100DE000904BA740B04BD1F4109267061092680662
:100DF0001092690610926A0614BE84B7877F84BF7A
:100E00000FB6F894A8958091600088618093600087
:100E1000109260000FBEE0E0F8E3099512E0A0E058
:100E2000B1E0E6EAFEE602C005900D92A833B107F4
:100E3000D9F726E0A8E3B2E001C01D92A736B207B9
:100E4000E1F70E9479260C941A370C940000CF9396
:100E5000DF934091650650916606455654409A01CD
:100E6000205A3F4F21303240C0F020E032E0241BB6
:100E7000350B6091630470916404FC01CA01240F76
:100E8000351FC1E0D0E08217930750F070936404DF
:100E900060936304DF91CF91089520E630E0E9CFBD
:100EA0004491DC01AB59BB4F5C91451781F04C93E9
:100EB000AC01A5E056954795AA95E1F7DE0102C081
:100EC000AA0FBB1F4A95E2F7AD016A2B752B01965D
:100ED0003196D9CFE8EDF0E080818E7F808310924B
:100EE000E2001092DA001092E100A0EEB0E08C91E6
:100EF00081608C9380818F77808319BCA7EDB0E0EF
:100F00008C918E7F8C9380818F7E8083109245049C
:100F100008952091E4003091E50095E6A901209123
:100F2000EC00822F817020FF06C08091E80080FFD6
:100F300006C080E008952091E80022FD1AC080914B
:100F40005304882389F0853089F08091EB0085FD7A
:100F50000FC02091E4003091E50042175307F9F2E9
:100F60009150E1F684E0089582E0089583E00895C9
:100F700081E00895EF92FF920F931F93CF937C012E
:100F80008B010E948907C82F811117C08091E8004A
:100F900085FD0BC08091E8008E778093E8000E9469
:100FA0008907882399F3C82F08C0F70181917F0131
:100FB0008093F1000150110949F78C2FCF911F91B7
:100FC0000F91FF90EF9008958091550487FF13C013
:100FD0008091E80082FF06C08091E8008B778093C3
:100FE000E80004C0809153048111F2CF08958091EC
:100FF00053048823D9F38091E80080FFF8CF8091D3
:10100000E8008E77ECCF982F9093E900242F762F6D
:1010100050E0891731F07091EC002091ED00509173
:10102000F00021FD07C09F5F973071F78093E900C2
:1010300081E008953091EB003E7F3093EB003091DA
:10104000ED003D7F3093ED003091EB003160309347
:10105000EB007093EC002093ED005093F000209192
:10106000EE0027FDE0CF80E00895CF92DF92EF926F
:10107000FF920F931F93CF93DF93C8EDD0E0888149
:101080008F7E8883E7EDF0E080818160808384E05B
:1010900082BF81E08093450488818E7F888302EE41
:1010A00010E0F80110821092DA0081EEC82ED12CE7
:1010B000F601108288818F77888388818068888391
:1010C00088818F7D888319BC109253041092540438
:1010D000109252041092510490EEE92EF12CF70177
:1010E00080818B7F808388818160888342E060E09B
:1010F00080E00E940308F60180818E7F8083F801E2
:10110000808181608083808188608083F701808115
:101110008E7F8083888180618883DF91CF911F914A
:101120000F91FF90EF90DF90CF900895FC01809198
:101130005B0490915C0486179707A0F06115710518
:1011400029F49091E8009E779093E80090E0611573
:10115000710551F4911108C08091E80082FF34C0FC
:1011600080E00895BC01F2CF809153048823C1F13F
:101170008530C1F18091E80083FD30C08091E800A6
:1011800082FDEACF8091E80080FFE1CF8091F300FB
:101190002091F200382F6115710519F028303105C2
:1011A00058F091E02830310509F090E02091E800F6
:1011B0002E772093E800CBCF81918093F10061508E
:1011C00071092F5F3F4FE7CF80915304882341F08F
:1011D000853041F08091E80083FFBECF81E0089523
:1011E00082E0089583E00895089580914804089569
:1011F0002FB7F89460913E0470913F0480914004B1
:10120000909141042FBF089520913B0430913C04FC
:101210002817390771F090933C0480933B04E091C8
:101220003904F0913A04309721F00084F185E02DE3
:10123000099408952091370430913804281739070C
:1012400071F09093380480933704E0913904F09161
:101250003A04309721F00680F781E02D0994089533
:1012600020912A0436E0839FC0011124629F800DE3
:10127000911D1124811522E0920714F090E080E086
:101280008B599B4F90936606809365060895FC01E9
:10129000680F791F8FEF91E32191822728E030E0DA
:1012A00087FF09C0880F892721503109C9F7E61740
:1012B000F70791F70895880FF7CFFA01811101C060
:1012C000FB01099480915E04982F9E7F61F48170E8
:1012D000826080935E0480916104813A18F080EA14
:1012E0008093610408958831B0F381708661F1CFF5
:1012F000AF92BF92DF92EF92FF920F931F93CF9323
:10130000DF93082F162FE901E42FF0E0EA57F94F99
:10131000611110C0E4915E2F4E2F4983E8835A83F8
:10132000DF91CF911F910F91FF90EF90DF90BF90D1
:10133000AF900895E62EF12C4491D42EE42FF0E0E6
:1013400026E0829FC00111242FEF30E0B9010E94F6
:101350007931802F90E0880F991F55E5569FD00175
:10136000579FB00D11248A1B9B0B982F990F890F43
:101370005901AE18BF08AE9ED001AF9EB00DBE9E03
:10138000B00D11245B2F189F80011124012F11270C
:101390005901A01AB10AAE9E8001AF9E100DBE9EEB
:1013A000100D11245901A81AB108AE9CC001AF9CC0
:1013B000900DBE9C900D1124892F9927281B390B65
:1013C0002E9FC0012F9F900D3E9F900D1124E92F5D
:1013D00062307105A1F050F46115710509F49DCFDB
:1013E0006130710581F0EB2F512F97CF643071057B
:1013F00069F080F06630710509F48FCFF4CFE42FE7
:101400004B2F592F8ACFE42F412F87CFEB2F542F0B
:10141000492F83CF4B2F5D2DE12F7FCF80E00895A3
:1014200078940895F894E82FE295EF70F0E031A1F8
:10143000282F2F7081E090E001C0880F2A95EAF7ED
:10144000982F9095932391A392A1892B82A30C941A
:10145000100A9091E50292FF06C0282F28712830CB
:10146000F9F4877F846093FF06C0282F2871283104
:10147000F1F4877E84612091E60220FF06C0382FB8
:1014800038713830D9F4877F816021FF06C0282F5A
:1014900028712831D1F4877E816194FD877E08957B
:1014A000282F24712430F9F68B7F8860DCCF282F19
:1014B0002471243101F78B7E8861DDCF382F3171A3
:1014C000313019F78E7F8860E0CF282F21712131CC
:1014D00021F78E7E8861E1CFCF93DF93EC018238D4
:1014E000910581F1B0F58133910509F491C020F5A2
:1014F0008932910509F485C08A9709F490C0C11515
:1015000021E5D20708F0AAC0C11530E5D30708F0DD
:10151000F2C0CF3BD10508F089C0C83AD10508F028
:10152000DFC0C53AD10508F0D3C0C430D105F8F406
:10153000C130D105E1F040C08533910509F45AC0AE
:10154000C997E9F68091E502837089F0C0EED0E09A
:101550000EC0833E910599F170F4803E910501F132
:10156000823E910561F68091E50282FD21C0CE01A7
:10157000DF91CF910895863E910561F1873E9105F7
:1015800071F1843E910509F0BACF8091E60281FFA6
:10159000EECF8091E502C7EED0E084FD0DC0E7CF2D
:1015A0008091E50280FDF7C09091E60290FFDFCFC9
:1015B000C3EED0E084FFDBCFD0E0C0E0D8CF809195
:1015C000E50282FDEBC09091E60290FDBFCF84FF63
:1015D000CECFF2CF8091E50283FDDDCFC8CF8091E1
:1015E000E50283FDDEC09091E60291FFF0CFC4EEEC
:1015F000D0E0BDCF8091E50285FFB9CFC9E2D0E050
:10160000B6CF8091E50285FFB2CFC5E3D0E0AFCF82
:101610008091E50286FFABCFCAE2D0E0A8CF8091EF
:10162000E50286FFA4CFC1E3D0E0A1CFC11540E21F
:10163000D40760F4C11581E0D80708F098CFCE0137
:10164000815E9109079708F492CFB6CFC11590E457
:10165000D90708F4B1CFDF70D06A89CFC11524E56E
:10166000D20778F4C11533E5D30708F072C0C1156D
:1016700042E5D40708F05CC0DC2FCC27C16FD06AEC
:1016800076CFC1158AE5D80778F4C11599E5D90751
:1016900008F073C0C11528E5D20708F48DCFDC2F00
:1016A000CC27C06FD06A63CFCE019056811590428F
:1016B00008F082CF8D2F8F710E94290A90E0982F19
:1016C000882788279F719C012C2BE901D0624FCF7E
:1016D000C55AD0E0CF52DE4FC881D0E0D06447CFAA
:1016E000C85AD0E0CC0FDD1FCC52DE4F0990D88114
:1016F000C02DD4643CCFCE0164E0969587956A9561
:10170000E1F783702C2F26952695237040E2249FC5
:1017100090011124382B8C2F8370C1E0D0E002C0DF
:10172000CC0FDD1F8A95E2F7C22BD32BDC681FCFCD
:10173000CE018370992721E030E002C0220F331FD1
:101740008A95E2F7C695C69580E2C89FE00111240C
:10175000EBCFCE018370992721E030E002C0220F49
:10176000331F8A95E2F7C695C69590E2C99FE001BE
:101770001124C22BD32BDA68FACE8C2F8F700E94E3
:10178000290A34E0D695C7953A95E1F7CF709C2F9A
:10179000EC01D069ECCEC9E3D0E0E9CEC2EED0E0F6
:1017A000E6CEC6EED0E0E3CE0C94F8088091460475
:1017B00090919B02892B90919A02892B80933A02F7
:1017C000E0913904F0913A04309731F00280F381CE
:1017D000E02D8AE392E00994089580919902909116
:1017E0006802981301C008958F5F8770FACF27E0D1
:1017F000929F800D1124982F9770869586958695D7
:1018000023E0829FF0011124E95BFD4F50E040E0AE
:1018100080E0219130E0092E02C0369527950A9488
:10182000E2F721703327042E01C0220F0A94EAF751
:10183000822B4F5F5F4F4330510559F7089527E0E2
:10184000929F800D1124982F977041E001C0440FA2
:101850009A95EAF786958695869593E0899FF0019B
:101860001124E95BFD4F90E080E070E05191DF01D1
:1018700011979B01082E02C0369527950A94E2F72E
:10188000217021952527242325272C930196833029
:10189000910561F7089590E080E00E941A0990E0B8
:1018A00080E00E94040910929B0210929A020C940C
:1018B000D60B80939C020C944B0C882341F08095AE
:1018C000909146048923809346040C94D60B089586
:1018D000882339F090914604982B909346040C94F9
:1018E000D60B08958823B1F19CEF980F913A70F4CC
:1018F000ECE3F2E09191891303C0DF0111971C9290
:1019000042E0E234F407B1F70C94D60B90E2980F62
:10191000983088F4877021E030E0A90102C0440FBC
:10192000551F8A95E2F7CA01809590914604892354
:1019300080934604E9CF9BE5980F933020F490E024
:1019400080E00C941A09885A873120F490E080E0F6
:101950000C94040908950F931F93CF93C82F8823E5
:1019600009F469C08CEF8C0F813AB0F50CE312E0FA
:1019700082E492E0F8012191C21701F122E0E23401
:10198000F207C9F7EFEF80E0D8019D918D01C917EB
:1019900081F0EF3F19F4911101C0E82F8F5F86307D
:1019A00099F7EF3F31F00E2E000CFF0BE65CFD4F78
:1019B000C283CF911F910F910C94D60BECE3F2E010
:1019C0002191C21303C0DF0111971C928E179F074C
:1019D000B9F70E94D60BD6CF80E28C0F883068F41E
:1019E000C77021E030E001C0220FCA95EAF780916C
:1019F0004604822B80934604DCCFEBE5EC0FE3300A
:101A000050F4F0E0EF52FE4F808190E0CF911F91B3
:101A10000F910C941A09C85AC73168F4EC2FF0E002
:101A2000EE0FFF1FEC52FE4F80819181CF911F91ED
:101A30000F910C940409CF911F910F910895982F45
:101A400092959F7011F0892F94E0282F2695269566
:101A500011F09E5F822F869509F09F5F892F089570
:101A6000CF92DF92EF92FF920F931F93CF93DF936A
:101A70006C017B0164E670E088E70E94562EEC0161
:101A800097FD12C010E000E0F601E00FF11F849115
:101A900064E670E00E94D02EEC01892B29F40F5FE0
:101AA0001F4F0E151F0581F70E94532FCE01DF91A6
:101AB000CF911F910F91FF90EF90DF90CF900895FD
:101AC0008091350490913604911103C091E08927EB
:101AD0000895882369F062E070E087E19DE00E944C
:101AE000300D892B19F0809135040895109235043A
:101AF00080913504EBCFCF93C091350480913604AB
:101B00008823D1F00E94F8086058774C8E4F9F4F81
:101B100060933104709332048093330490933404BF
:101B2000C11108C062E070E085E19DE00E94300DC7
:101B3000892B29F0C09135048C2FCF91089581E035
:101B400080933504F7CF90915304943029F5809316
:101B5000420470934404609343049093E9008FEF30
:101B60009091E800815095FD06C095ED9A95F1F7AA
:101B700000008111F5CF8091E80085FF0DC050E095
:101B800040E063E070E082E494E00E94BA07809154
:101B9000E8008E778093E8000895BC0184E00C94FF
:101BA000A30DBC0183E00C94A30DCF93DF93EC0154
:101BB00081E08093E9008FEF9091E800815095FDDE
:101BC00006C095ED9A95F1F700008111F5CF80914F
:101BD000E80085FF14C050E040E068E070E0CE010E
:101BE0000E94BA078091E8008E778093E80088E031
:101BF000FE01A9E4B4E001900D928A95E1F7DF912E
:101C0000CF9108959F92AF92BF92CF92DF92EF92C1
:101C1000FF920F931F93CF93DF937C015B016A01C7
:101C20008091E00201E010E08A3010F40AE010E058
:101C3000C1E0D0E0F894B501C701F6010995982EEE
:101C40000E94100A911004C021960C171D076CF415
:101C5000892DDF91CF911F910F91FF90EF90DF9031
:101C6000CF90BF90AF909F900895CC9F9001CD9F53
:101C7000300D300D112490E080E045E34A95F1F7F6
:101C80000000019682179307C1F7D4CF8091AB0271
:101C9000811110C08091D80080618093D8008AE1C2
:101CA0008A95F1F700C08091D90080FF0AC081E0D9
:101CB0008093AB0281E09091AB02913009F080E01B
:101CC000089582E08093AB020E946A071092530449
:101CD000F1CF0E94460E882351F0E0913904F09133
:101CE0003A04309721F00190F081E02D099480E0D2
:101CF00008951F93CF93DF93182FEB010E94AB0C35
:101D00008FE99FE00197F1F700C000002197C1F72C
:101D1000812FDF91CF911F910C94720C4F925F92A3
:101D20006F927F928F929F92AF92BF92CF92DF92EB
:101D3000EF92FF920F931F93CF93DF93CDB7DEB750
:101D4000CE5DD1090FB6F894DEBF0FBECDBF509067
:101D5000770180915E0480FF5DC080904A0390907F
:101D60004B038114910409F068C0EBE8F7E09E0191
:101D70002F5F3F4FBE0161527F4FC901A4914A2F8F
:101D800050E0DA01AA0FBB1FA40FB51FA45BBC4F24
:101D9000CD90DD90EC90D901CD92DD92ED929D0138
:101DA00031966A177B0751F72091760143E0249F13
:101DB000800D911D1124539A2BB1277F3BB13860C0
:101DC0005FB7F894BC01549E600D711D11248617F5
:101DD000970709F090C05FBF8FE594E00197F1F796
:101DE00000C00000C252DF4F0FB6F894DEBF0FBE36
:101DF000CDBFDF91CF911F910F91FF90EF90DF90BA
:101E0000CF90BF90AF909F908F907F906F905F909A
:101E10004F900895809178019091790123E0829FFD
:101E2000F0011124E45BFC4F891708F096CF118272
:101E3000108212828F5F3396F7CF80914903811110
:101E400094CFD12CC12C66246394712C53E0452E81
:101E50008091480393010C2C01C0220F0A94EAF7E9
:101E6000822309F43FC0F601EE0FFF1FE80DF91DB4
:101E7000E590F490E114F10409F477CF45E050E0E7
:101E8000B701CE0101960E94323209810F3F51F114
:101E90008A81800F9927991F8B34910514F08AE469
:101EA00090E05C01AA0CBB1C8A0D9B1DDC01A45BAD
:101EB000BC4F5D01049D80011124045B1C4F0A1579
:101EC0001B0520F0B5E0EB0EF11CD8CF4D81413A57
:101ED00008F040EA98016C818B810E9478090D5FBF
:101EE0001F4FEDCFEFEFCE1ADE0AF8E0CF16D10488
:101EF00009F0AECF3ACFFC014191CF01E8E03BB908
:101F0000000000C047FF2BB9440F000000C000C014
:101F100000C02BB900C0EA9591F759CFEEE5F4E087
:101F200080818E7F8083E5E4F3E08281816082831B
:101F30002FEF80E792E0215080409040E1F700C011
:101F400000000C948E0EECE3F2E086E0DF011D92BF
:101F50008A95E9F70C944B0C1F93CF93DF93CDB781
:101F6000DEB7AA970FB6F894DEBF0FBECDBF85E5EA
:101F700094E02091F100DC012D93CD01B4E08D358A
:101F80009B07B9F780915604833009F471C0B8F407
:101F9000813009F448C0823009F4B4C08091E8006F
:101FA00083FF3CC180915504909156049A3008F00B
:101FB00035C1E92FF0E0E45EF84C0C94CC318A3066
:101FC00009F48FC08B3009F470C0893039F78091E3
:101FD0005504813219F78091590490915A04009761
:101FE00011F00297D9F68091E800877F8093E8008E
:101FF0008091E80082FF37C09091F3008091F20059
:10200000029729F48091F1008B7F813021F4809137
:10201000F100809348048091E8008B778093E8007A
:102020000E94E407BBCF80915504813A09F0B6CFF6
:102030008091E800877F8093E80080915904909117
:102040005A04892B61F468E089E494E070E00E940E
:1020500096088091E8008B778093E8009FCF60E03E
:1020600090E080E0F3CF809153048111C1CF96CFEF
:1020700080915504813A09F091CF80915904909153
:102080005A04892B09F08ACF8091E800877F8093DA
:10209000E8008091E80080FFFCCF80917B01809375
:1020A000F1008091E8008E77B9CF8091550481329C
:1020B00009F074CF8091590490915A04892B09F04A
:1020C0006DCF8091E800877F8093E8000E94E4074D
:1020D0008091570480937B01109246040E94A30FC5
:1020E0005DCF80915504813209F058CF8091E8008E
:1020F000877F8093E8000E94E407809158048093D2
:1021000047044CCF80915504813A09F047CF809124
:10211000E800877F8093E8008091E80080FFFCCF93
:1021200080914704BCCF803899F0823809F076C09E
:10213000809159048F70873008F070C08093E90057
:102140008091EB0085FB882780F91092E90006C09A
:102150008091510490915204911182609091E80015
:10216000977F9093E8008093F1001092F1008091A6
:10217000E8008E77B5C1882309F4A2C1823009F046
:102180004DC0809157048111A6C1809159048F7070
:102190002FEF280F263008F041C08093E9002091EE
:1021A000EB0020FF98C1933031F48091EB00806206
:1021B0008093EB0090C19091EB0090619093EB00C5
:1021C00021E030E001C0220F8A95EAF72093EA006F
:1021D0001092EA008091EB008860EACF81111EC066
:1021E000109157041F778091E3008078812B8093B2
:1021F000E3008091E800877F8093E8000E94E40775
:102200008091E80080FFFCCF8091E300806880939C
:10221000E30082E0111183E0809353048091E80091
:1022200083FF0AC08091E800877F8093E800809157
:10223000EB0080628093EB00AA960FB6F894DEBFA5
:102240000FBECDBFDF91CF911F910895805882308E
:1022500028F720915704309158042C3DE3E03E07C5
:10226000A1F583E08A838AE289834FB7F894DE017F
:10227000139620E03EE051E2E32FF0E05093570048
:10228000E49120FF03C0E295EF703F5FEF708E2F67
:1022900090E0EA30C0F0C7968D939D932F5F243174
:1022A00059F74FBF8091E800877F8093E8006AE28A
:1022B00070E0CE0101960E9496088091E8008B772D
:1022C0008093E800ABCFC096E7CF809159049091FE
:1022D0005A04432F55274330510509F44AC078F575
:1022E0004130510509F47AC08BE590E0E9E1FDE069
:1022F0004230510509F092CF2091E800277F2093CA
:10230000E80020915B0430915C048217930708F485
:102310009C0140E02115310509F065C0411163C001
:102320008091E80082FDC9CF80915304882329F26F
:10233000853019F28091E80083FFF2CFBECF4132A1
:10234000510509F43CC04232510509F067CF833092
:10235000910508F063CFFC01EE0FFF1FE55DFD4F17
:102360000190F081E02D885D9D4FDC018C9190E023
:102370001AC0332721303105D1F02115310561F024
:102380002230310509F04ACFE6E8FDE0E4918E2FD6
:1023900090E0E6E8FDE007C0E8EBFDE0E4918E2F79
:1023A00090E0E8EBFDE0009709F438CFA5CFE6EA2E
:1023B000FDE0E4918E2F90E0E6EAFDE0F4CF83307B
:1023C000910508F02BCF880F991FFC01EF5CFD4FA2
:1023D0000190F081E02D89E090E08ECF82E190E0E5
:1023E000E4E7FDE089CF80915304882309F465CFA9
:1023F000853009F462CF8091E80083FD5ECF809143
:10240000E80082FD8DCF8091E80080FF83CF90911E
:10241000F3008091F2002115310519F08830910503
:1024200050F041E0089709F040E08091E8008E7795
:102430008093E8006FCF44914093F1003196215092
:1024400031090196E8CF803809F0E8CE8091E800A4
:10245000877F8093E800809154048093F10087CEB9
:102460008111DCCE10915704123008F0D7CE809144
:10247000E800877F8093E800109354040E94E407EB
:10248000112311F084E005C08091E30087FDFACFAD
:1024900081E08093530442E061EC81E00E940308F4
:1024A00042E261EC84E00E94030842E261EC82E0D7
:1024B0000E94030842E260EC83E00E940308AECE73
:1024C00080915704813009F0A9CE81E0933009F062
:1024D00080E0809352041092E9008091E800877FA9
:1024E0008093E8000E94E40799CE1F93CF93DF9377
:1024F000162FC0916506D09166068A30D1F42091DE
:102500002A04CE0185569440622F70E00E947931F2
:10251000281B822F66E00E948D31C82FC15020F405
:10252000DF91CF911F91089560E080E20E947512C3
:10253000F5CF8D30E9F4C556D44020912A04622F9E
:1025400070E0CE010E947931281B822F9E01280F56
:10255000311D2115324018F080E0D0E0C0E0C80FF6
:10256000D11DCB59DB4FD0936606C0936506D8CFFB
:1025700096E0FE01ABE2B4E001900D929A95E1F78E
:10258000803E90F186E0FE0111928A95E9F7C091B4
:102590006506D0916606111133C046E050E0BE01D9
:1025A0008BE294E00E943B329E0125563440892BF9
:1025B00091F52A5F3F4F40912A04642F70E0C901D2
:1025C0000E947931481B463010F4240F311D21152B
:1025D00072E0370710F030E020E02B593B4F30938A
:1025E0006606209365069CCFF6E08F9FB00111240C
:1025F0006B52784F46E050E0CE010E943232C7CF96
:102600009E012A5F3F4FFE012E173F0731F2808166
:1026100080958193F9CFC90145E0969587954A95B4
:10262000E1F741E050E0BA0102C0660F771F8A95DA
:10263000E2F7CB016091630470916404862B972BC1
:10264000B9016B5F7F4FE5E076956795EA95E1F715
:1026500002C0440F551F6A95E2F7842B952B909387
:10266000640480936304A5CFFF920F931F93CF93CD
:10267000DF93EC01F62EFC0101900020E9F78F01B9
:1026800001501109C017D10730F0DF91CF911F9190
:102690000F91FF9008956F2D89910E947512F2CFCE
:1026A000CF93DF93C7E5D2E060E0CE010E94F7341C
:1026B0002196C11584E0D807B9F7DF91CF9108952D
:1026C0006F927F928F929F92AF92BF92CF92DF9242
:1026D000EF92FF920F931F93CF93DF9385EDC82E58
:1026E00087E0D82E91ECE92EF12CE701CC58D109E6
:1026F00036011BC0F50185909490692DC8010E9498
:10270000F734682DC80101960E94F73482E0A80EC4
:10271000B11C0E5F1F4FC017D10761F78EE0680E26
:10272000711C2E96CE15DF0529F08E010E50110971
:102730005301E0CF7E018CE8E80EF11C8CE8C80E56
:10274000D11C81EFE81682E0F80679F6DF91CF918F
:102750001F910F91FF90EF90DF90CF90BF90AF90BF
:102760009F908F907F906F900895CF93C82F6FEFB9
:10277000811161E283E290E00E94F7346FEFC111B2
:1027800068E084E290E00E94F7346FEFC11160E3EB
:1027900085E290E0CF910C94F73480E00E94B5136D
:1027A00060E086E290E00E94F7340E9460130E948D
:1027B000501381E00C94B5130F931F93CF93DF93C5
:1027C000C42FD0E0CC0FDD1F2EE0629FC00DD11DC5
:1027D00011243CE8839FC00DD11D1124CE018796A2
:1027E0000E94E334082F10E0102F0027CE018896B6
:1027F0000E94E3349801282BC901DF91CF911F91EA
:102800000F910895462F843038F47A3028F46730D9
:1028100018F4672F0C94DC1390E080E00895CF92B9
:10282000DF92FF920F931F93CF93DF936C01009180
:102830005D0480919C02082BC7E0D0E010E0FC2EE4
:10284000C8010C2E02C0959587950A94E2F780FD89
:102850000CC02197A0F7F12C8F2DDF91CF911F9104
:102860000F91FF90DF90CF900895B6018C2F0E94BA
:1028700002140E946C0A019761F3EECFCF93DF93AD
:10288000EC010E940F14BE010E940214DF91CF914F
:102890000C946C0AFC01808191810E943E14292FC6
:1028A0002F7092959F7092509E3078F4E92FF0E04F
:1028B000EA5DF84C0C94CC31803F19F020F4883E4E
:1028C00020F481E00895843FE1F380E00895883E9C
:1028D000C0F3813FD1F7F5CF822F869586958695F7
:1028E000089583E290E00E94E334813289F484E227
:1028F00090E00E94E334883059F485E290E00E9431
:10290000E33491E0803309F090E0892F81700895DD
:1029100080E0FCCFCF92DF92EF92FF926B017C01BF
:102920000E946209B701A60188E090E0FF90EF9055
:10293000DF90CF900C940935AF92BF92CF92DF9287
:10294000EF92FF920F931F93CF93DF9300D00F92DC
:10295000CDB7DEB7082FF62E142FE22E80915E043D
:1029600080FF4FC0E82FE695AE2FB0E0A45EBD4FCC
:102970009C91909345038E7F823009F056C0413A76
:1029800008F040EA9E012F5F3F4F6F2D802F0E947D
:10299000780980915E0480FF11C02B8139814A81C2
:1029A000809178019091790153E0859FF001112485
:1029B000E45BFC4F891798F10E948E0E80915F04B2
:1029C000801308C0809160048F1104C0809161045D
:1029D000811729F080914703826080934703009319
:1029E0005F04F092600410936104EE2051F0609156
:1029F0005E0470915F0480916004909161040E9474
:102A00008A140F900F900F90DF91CF911F910F912B
:102A1000FF90EF90DF90CF90BF90AF9008954183EB
:102A2000308322838F5F3396C5CF923039F6E250E0
:102A30008E2F8170D82EE695F0E0EA57F84FA590DA
:102A4000B490C12CBB2460917A01C61608F0B4CFB3
:102A50002C2D30E0A29EC001A39E900DB29E900D41
:102A6000112470E00E947931802FD11016C0860F9A
:102A700040917801420F532F511D9A01220F331FAD
:102A8000240F351F245B3C4F412F113A08F040EAD8
:102A90006F2D0E947809C394D6CF861BE9CFEEE54F
:102AA000F4E0438121E1421B08F440E021E062812F
:102AB00081810C949C14EEE5F4E0438121E1420F06
:102AC00008F44FEF21E0628181810C949C14EEE5C3
:102AD000F4E0628121E1621B08F460E021E04381BF
:102AE00081810C949C14EEE5F4E0628121E1620F97
:102AF00008F46FEF21E0438181810C949C14EEE592
:102B0000F4E0818121E04381628188500C949C141F
:102B1000EEE5F4E0818121E043816281885F0C94DD
:102B20009C1480916204882319F081508093620480
:102B300060915E0470915F048091600490916104E3
:102B40000C948A1480916204833018F48F5F809310
:102B5000620460915E0470915F04809160049091C2
:102B600061040C948A1490915E0490FF27C09170C8
:102B700081111DC0926090935E0480914703816033
:102B800080934703662351F060915E0470915F0467
:102B900080916004909161040E948A1420E0409129
:102BA00061046091600480915F040C949C148C30EB
:102BB00010F09661E0CF880F982BDDCF089521E0CB
:102BC00030E0A90102C0440F551F8A95E2F7CA01FF
:102BD000209148036623C1F0822B809348038091A3
:102BE000470380618093470380914603811106C0AB
:102BF00080915E0460E086950E94B31580915E042A
:102C000080FD05C00C948E0E80958223E6CF08953A
:102C1000CF93DF93C82FC17082FBDD27D0F981FBF2
:102C2000662760F984E00E94DF1561E06C2785E08B
:102C30000E94DF156D2F86E0DF91CF910C94DF1598
:102C40000F931F93CF93C82F61E08111682F61709C
:102C500080E00E94DF15C1FB662760F9C11101C049
:102C600060E081E00E94DF15C2FB662760F9C111B8
:102C700001C060E082E00E94DF15C3FB662760F9B7
:102C8000C11101C060E083E00E94DF154C2F50E0CD
:102C900070E060E0DB01CA01F4E0B695A795979576
:102CA0008795FA95D1F70097A105B10551F1AC01CF
:102CB000BD0184E08A019B01E2E0369527951795D6
:102CC0000795EA95D1F7011511052105310519F090
:102CD0008E5FB901A8017695679557954795452B65
:102CE000462B472B09F08F5F8130A1F0882359F0E4
:102CF0008230A9F08330C1F08C2FCF911F910F91BA
:102D0000089580E0D7CF20E040E56FEF82E30E9496
:102D10009C14F2CF20E040E56FEF8CEFF8CF20E07D
:102D200040E56FEF86E7F3CF20E040E56FEF8AEDF7
:102D3000EECF0E94201680935D040C944B0C809182
:102D40005D04982F9670963019F488600C9499164B
:102D5000877FFCCF21E030E001C0220F8A95EAF79F
:102D6000209580915D0482230C94991621E030E037
:102D700001C0220F8A95EAF780915D04822B0C94A2
:102D8000991680915E048695815009F48BE061E08C
:102D90000C94B31580915E0486958F5F8C3008F09B
:102DA00081E061E00C94B31580915E0480FF07C060
:102DB000869582588F77893010F40C94CA1661E09A
:102DC00082E00C94B315EEE5F4E083E08083118299
:102DD0008FEF828380EA83831482A5E4B3E01296A6
:102DE0008C911297836012968C936081718182819D
:102DF00093810C948A1469EE7EEF90E080E00E944B
:102E0000153560E082E090E00E94F73460E083E0F6
:102E100090E00E94F73410929C0260E084E090E021
:102E20000E94F73460E082E290E00E94F73460E0B4
:102E300085E090E00E94F73460E086E090E00E9438
:102E4000F7346FEF87E090E00E94F73440E050E005
:102E5000BA0188E090E00E94093560E08DE090E0E2
:102E60000E94F73440E050E0BA0188E190E00E940F
:102E7000093560E087E190E00E94F73440E050E0DF
:102E8000BA018CE190E00E94093570E060E080E2D8
:102E900090E00E94153540E050E0BA0188E190E0F2
:102EA0000E94093580E00E94B5130E94CD1340E0D6
:102EB00050E0BA018FE090E00E94093540E050E018
:102EC000BA0183E190E00C9409350F931F93CF93DF
:102ED000DF9300D000D0CDB7DEB74091D002509143
:102EE000D1026091D2027091D3022FB7F8948091F1
:102EF0003E0490913F04A0914004B09141042FBF43
:102F0000841B950BA60BB70B84369105A105B10563
:102F100088F10E94460E882379F10E94F8086E5FBE
:102F20007F4F8F4F9F4F69837A838B839C838091E0
:102F30002B0190912C0187549D4F40912A0150E024
:102F40004530510510F044E050E0BE016F5F7F4F07
:102F50000E94483284E090E00E94C530892BD9F469
:102F60000E94F8086093D0027093D1028093D2023D
:102F70009093D30281E010C00E94F8080091E10212
:102F80001091E2022091E3023091E402600F711F80
:102F9000821F931FC4CF80E00F900F900F900F906F
:102FA000DF91CF911F910F9108958F929F92AF92D1
:102FB000BF92CF92DF92EF92FF920F931F93CF9326
:102FC000DF93EB0188809980AA80BB809FB7F8943B
:102FD000C0903E04D0903F04E0904004F090410443
:102FE0009FBFC818D908EA08FB0894E6C916D1049F
:102FF000E104F10410F4442311F1E82E082E000C32
:10300000FF089AE08902F0011124E050FF4F83810C
:10301000948187549D4F428150E00417150708F4AE
:10302000A801B9010E944832C7010E94C530892B0E
:10303000A1F40E94F808688379838A839B8381E0E6
:10304000DF91CF911F910F91FF90EF90DF90CF9084
:10305000BF90AF909F908F90089580E0F1CF0F9335
:103060001F93CF93DF930F92CDB7DEB780913504D6
:1030700089832091CF0290E041E02817190609F4D6
:1030800040E001E010E09E012F5F3F4F6CED72E0E9
:1030900087E00E94D5170F90DF91CF911F910F917C
:1030A00008950F931F93CF93DF930F92CDB7DEB7A1
:1030B0008091FB02898341E09091CE02981301C078
:1030C00040E001E010E09E012F5F3F4F68ED72E0AD
:1030D00086E00E94D5170F90DF91CF911F910F913D
:1030E00008950F931F93CF93DF93CDB7DEB7299742
:1030F0000FB6F894DEBF0FBECDBF85E0EEE5F4E07D
:10310000DE01119601900D928A95E1F780914503B9
:1031100090914603A0914703B09148038E839F830B
:10312000A887B98741E08885811101C040E009E0A6
:1031300010E09E012F5F3F4F64ED72E085E00E943A
:10314000D51781111092470329960FB6F894DEBF68
:103150000FBECDBFDF91CF911F910F9108956F9258
:103160007F928F929F92AF92BF92CF92DF92EF9217
:10317000FF920F931F93CF93DF930F92CDB7DEB7DC
:10318000862E5A016901682E880F7708C3010E94B4
:10319000C530892B09F088C08AE0869DF001879DA3
:1031A000F00D1124E050FF4F458150E041155105CD
:1031B00011F041E050E08AE0869DF001879DF00D1E
:1031C0001124E050FF4F6681778167547D4FCE0117
:1031D00001960E944832F5014081518162817381DC
:1031E0002FB7F89480913E0490913F04A091400441
:1031F000B09141042FBF841B950BA60BB70B8436EF
:103200009105A105B10540F4B701C8010E94470925
:103210009981891709F44FC0082C000C9908C40142
:103220000E94C530892B91F0B12C8B2D0F90DF912E
:10323000CF911F910F91FF90EF90DF90CF90BF90B3
:10324000AF909F908F907F906F9008958AE0889DB7
:10325000F001899DF00D1124E050FF4F458150E0B1
:10326000E416F50608F4A7018AE0889DF001899D1F
:10327000F00D1124E050FF4F6681778167547D4F38
:10328000C6010E944832B701C8010E9447099981CE
:103290008913CACF0E94F808F50160837183828385
:1032A0009383BB24B394C1CFB12CA701B801C6014D
:1032B0000E944832BACFBB24B394F7CFCF92DF92AB
:1032C000EF92FF920F931F93CF93DF9300D000D024
:1032D0000F92CDB7DEB76B0185E0E82EF12C0AEB3B
:1032E00012E09E012F5F3F4F41EB52E061E080E032
:1032F0000E94AF18882349F095E0FE013196ACEAB0
:10330000B2E001900D929A95E1F795E0ECEAF2E0D7
:10331000D60101900D929A95E1F70F900F900F90C2
:103320000F900F90DF91CF911F910F91FF90EF9031
:10333000DF90CF90089590E080E00E94F134893EC4
:103340009E4F11F40C94711480E008951F920F9217
:103350000FB60F9211242F933F934F935F936F9368
:103360007F938F939F93AF93BF93CF93DF93EF930D
:10337000FF93D091E900DF708091EC00C82FC170FD
:1033800080FDC0E81092E9008091F000877F809373
:10339000F00078940E94AC0F1092E9008091F00048
:1033A00088608093F000CD2BCF70C093E900FF912F
:1033B000EF91DF91CF91BF91AF919F918F917F91CD
:1033C0006F915F914F913F912F910F900FBE0F9092
:1033D0001F9018951F920F920FB60F9211242F93E2
:1033E0003F934F935F936F937F938F939F93AF938D
:1033F000BF93EF93FF938091E10082FF09C080911A
:10340000E20082FF05C08091E1008B7F8093E100A4
:103410008091DA0080FF24C08091D80080FF20C016
:103420008091DA008E7F8093DA008091D90080FF4E
:103430009BC080E189BD82E189BD09B400FEFDCF5A
:1034400081E08093530480914504811109C00E945A
:103450006A070E9435088091E20084608093E20050
:103460008091E10080FF17C08091E20080FF13C0CF
:103470008091E2008E7F8093E2008091E200806183
:103480008093E2008091D80080628093D80019BCBC
:1034900085E0809353048091E10084FF29C08091EE
:1034A000E20084FF25C080E189BD82E189BD89B544
:1034B000982F917080FFFBCF8091D8008F7D8093F3
:1034C000D8008091E1008F7E8093E1008091E2003E
:1034D0008F7E8093E2008091E20081608093E20021
:1034E00080915404882309F445C084E080935304F8
:1034F0008091E10083FF27C08091E20083FF23C019
:103500008091E100877F8093E10082E08093530403
:10351000109254048091E1008E7F8093E1008091AD
:10352000E2008E7F8093E2008091E20080618093D0
:10353000E20042E060E080E00E9403088091F00039
:1035400088608093F000FF91EF91BF91AF919F91C0
:103550008F917F916F915F914F913F912F910F903C
:103560000FBE0F901F90189519BC10925304109223
:10357000450476CF8091E30087FD93E09093530458
:10358000B7CF78941F921FB61F9211248F939F93E9
:10359000AF93BF9380913E0490913F04A09140046B
:1035A000B09141040196A11DB11D80933E049093FA
:1035B0003F04A0934004B0934104BF91AF919F9109
:1035C0008F911F901FBE1F9018959C014FB7F894C4
:1035D00080913E0490913F04A0914004B091410439
:1035E0004FBF821B930B08952FB7F89480913E0430
:1035F00090913F04A0914004B09141042FBF0895E1
:103600008F929F92AF92BF92CF92DF92EF92FF92F2
:103610000F931F93CF93DF93CDB7DEB72F970FB6DE
:10362000F894DEBF0FBECDBF8E010F5F1F4F8AE043
:10363000D8011D928A95E9F787E5C82E81E0D82E3A
:10364000F12CE12CAA24A394B12CF60181916F01F5
:103650008F3F09F44AC0F894E82FE295EF70F0E04C
:1036600021A18F70A50102C0440F551F8A95E2F772
:10367000CA01922F982B91A392A18095892382A3AE
:103680000E94100A00C0E0E5F1E030E020E0912C5B
:1036900041914F3F09F47FC0A42FA295AF70B0E0D5
:1036A00090968C9190E04F7002C0959587954A95C1
:1036B000E2F780FD70C08A2D022E01C0880F0A94A7
:1036C000EAF7982A2F5F3F4F2730310509F7F601B7
:1036D000319780818F3F11F00E94120A50EA5A956B
:1036E000F1F7F801EE0DFF1D90828FEFE81AF80A4E
:1036F00095E0E916F10409F0A8CF4AE050E0B801DE
:1037000087EE92E00E943B327C01892B41F08AE0F7
:10371000F801A7EEB2E001900D928A95E1F71091C1
:10372000F202E114F104C9F181E080939F020E944A
:10373000F41A90939E0280939D0280919D02909135
:103740009E020E94E51A059778F0A7EEB2E0E12FFD
:10375000F0E0E55CFC4F8CEE92E02D9121938A170E
:103760009B07D9F710929F0281E090E0EF28C9F003
:103770002F960FB6F894DEBF0FBECDBFDF91CF916D
:103780001F910F91FF90EF90DF90CF90BF90AF907F
:103790009F908F90089580E094CF80919F02811137
:1037A000CCCF0E94460EB82EE091F2028E01055F4A
:1037B0001F4F882309F4D3C085E0D8011D928A9554
:1037C000E9F7F0E09F01255C3C4F79018091E00230
:1037D000AE01405F5F4F6A018A3008F098C04EE545
:1037E00059E1B801C7010E94020E882309F4A6C05E
:1037F0004CEF55E2B801C7010E94020E882309F47C
:103800009DC045E657E1B801C7010E94020E88231A
:1038100009F494C041E758E1B801C7010E94020EC3
:10382000882309F48BC041E558E1B801C7010E9423
:10383000020E882309F482C04FE258E1B801C701A3
:103840000E94020E882309F479C01092E002E091F0
:10385000F102F0E0AF01455C5C4FD80110E0FA01E5
:103860009191AF018D91981731F09F01215031094D
:10387000F90180831B2DAC15BD0589F78091A2024B
:103880009091A3020E94E51A893E934060F16091F5
:10389000FB02E62EF12C662777276E197F09072E8B
:1038A000000C880B990B0E94E03527EA39E747E4C2
:1038B0005DE30E94AD364B015C01B701FF0C880B44
:1038C000990B0E94E0359B01AC01C501B4010E9437
:1038D0002C350E94AF356093FB020E94F41A90933E
:1038E000A3028093A2028091A602882371F08091A6
:1038F000A4029091A5020E94E51A893E934028F007
:1039000082EE0E94720C1092A602812F31CF80911C
:10391000A0029091A1020E94E51A843F914008F014
:103920005ECFE091F102F0E0E55CFC4FD80111922E
:103930001D92AC15BD05D9F71B2DA0CF8091E002DB
:103940008F3F31F08F5F8093E0028A3008F47FCFA1
:103950000E94F41A9093A1028093A002E2CFF0E0BB
:10396000E55CFC4FF89485E0AAEBB2E001900D9283
:103970008A95E1F765E070E08AEB92E00E944709E2
:103980008093B9020E94100AF894E091F902F0E0E5
:10399000EA50FD4F80818B878093C00261E070E028
:1039A000C8010E9447098093BF020E94100AF89440
:1039B000C090C102D090C202E090C302F090C40255
:1039C0008091A7029091A802A091A902B091AA02A9
:1039D000C816D906EA06FB06D1F0C092A702D0921B
:1039E000A802E092A902F092AA020E94460E81115A
:1039F0000EC00E94F808C61AD70AE80AF90AC0924F
:103A0000E102D092E202E092E302F092E4020E942C
:103A1000100AF8948091CC02882321F184FF04C01D
:103A20009091CD029093480380FF0DC08091C50214
:103A300080FF2CC090915E04916090935E0460E0E2
:103A400086950E94B3158091CC0281FF09C020E0C9
:103A50004091C8026091C7028091C6020E949C14E6
:103A60001092CC020E94100AF8948091CE028093AA
:103A7000FB020E94100AF8948091CF02882349F03B
:103A80000E947B0D0E94100A80E072CE0E948E0F71
:103A9000DACF0E94600DF6CF5F926F927F928F9285
:103AA0009F92AF92BF92CF92DF92EF92FF920F93CD
:103AB0001F93CF93DF9300D000D00F92CDB7DEB726
:103AC0006C01FC0183819481892B31F0808191818B
:103AD00089238F3F09F082C50F900F900F900F90B0
:103AE0000F90DF91CF911F910F91FF90EF90DF909A
:103AF000CF90BF90AF909F908F907F906F905F908E
:103B000008950E940F14182F682F89819A810E94AE
:103B10001F0C69817A81812F0E9402148C01F601A9
:103B20008281882309F463C0C80190568115F0E2B0
:103B30009F0750F0905E811520E1920728F0915C7C
:103B400081159F4108F0A5C0C80199279C01245008
:103B500031092432310520F08B970E9708F047C0C9
:103B60008091A2029091A3020097D9F10E94E51AD8
:103B70009C0150E040E060E67AEE80E090E00E9438
:103B8000AD31CA01B90125E030E040E050E00E94CB
:103B9000AD31E090FB022F3F310519F010F02FEF0F
:103BA00030E0F12C2E193F09B90190E080E00E942D
:103BB000DE3527EA39E747E45DE30E94AD360E942F
:103BC00098354B015C01B701FF0C880B990B0E94E3
:103BD000E035A50194010E942C350E94AF35609319
:103BE000FB020E94F41A9093A3028093A202F601B2
:103BF0008281882309F4E6C4C80182519F45409719
:103C000008F071C48FEF93E00E94E334025197E50E
:103C1000A92E92E0B92E81115FCF011143C01C8201
:103C20001B82662463948AE0582E85010F5F1F4F24
:103C3000C5010E94E33489831A82882309F44CCF9A
:103C40009FEF980F9330E8F58A83698232E0A30EE4
:103C5000B11CC8010E94E3348B83882309F43CCF54
:103C60008E010F5F1F4FF80120812223F1F22130D6
:103C700009F061C091818281913029F50E5F1F4F5B
:103C80006AE070E0893311F460E570E00E94790E1B
:103C900020C090E080E00F3F110511F008F056CFF2
:103CA000C80154CFA114F4E0BF0609F415CFC50133
:103CB0000E94E334811101C001502FEFA21AB20A11
:103CC000ACCF5801CDCF923039F40E5F1F4F0E9418
:103CD000AB0C0F5F1F4FC7CF933029F40E5F1F4F00
:103CE0000E94720CF6CF943019F00F5F1F4FF1CF86
:103CF0000E5F1F4F30E020E0B8016F5F7F4FF8018B
:103D000041818053990B8A30910550F0215031093F
:103D100000F38FE99FE00197F1F700C00000F6CFB4
:103D2000529EF001539EF00D11249C012E0F3F1F57
:103D3000842F8B01E1CFE22FF0E0EA54FE4F749024
:103D4000822F86958695869590E0FC01EA55FE4F78
:103D5000E4902770F12C022E02C0F594E7940A94A7
:103D6000E2F7E1E0EE22FF24FC01EA56FE4FC490A8
:103D7000D12C022E02C0D594C7940A94E2F7F1E048
:103D8000CF22DD24FC01EA57FE4F8490912C02C023
:103D9000959487942A95E2F721E082229924E114F0
:103DA000F10419F081EE0E94AB0CC114D10419F09A
:103DB00086EE0E94AB0C39E36AE070E0731202C039
:103DC00060E570E0872D0E94790ECD2819F086EE0F
:103DD0000E94720CEF2819F081EE0E94720C892863
:103DE00009F477CF6AE070E08CE250CF81E00E9466
:103DF000B61603C081E00E94AA160F900F900F9094
:103E00000F900F90DF91CF911F910F91FF90EF9046
:103E1000DF90CF90BF90AF909F908F907F906F90EA
:103E20005F900C949F1682E0E2CF013E110509F4E9
:103E30009AC0043E110509F07CC3882309F4CEC062
:103E400081E08093FC0275C30238FFE51F0709F487
:103E500059C000F500383FE51307B9F101384FE5C7
:103E6000140709F066C3882309F445C08091A602AF
:103E7000811106C081E08093A60282EE0E94AB0C05
:103E80000E94F41A9093A5028093A40281EE0E94EE
:103E9000AB0C2DC003385FE5150709F447C00438A3
:103EA0009FE5190709F045C3882309F482C0809172
:103EB0004302882309F45AC0809144020E94720C84
:103EC00080EE0E94AB0C8AE25EC08823B9F080913C
:103ED000A602811106C081E08093A60282EE0E94B4
:103EE000AB0C0E94F41A9093A5028093A4028BE27B
:103EF0000E94AB0C1EC381EE0E94720C8BE20E94EA
:103F0000720C17C3882309F414C381EE0E94AB0C12
:103F100083EE0E94AB0C8FE40E94AB0C8FE40E94F6
:103F2000720C83EE0E94720C81EEE9CF882309F4B3
:103F300000C381EE0E94AB0C83EE0E94AB0C80E5C7
:103F40000E94AB0C80E5EBCF8093460210934502B4
:103F500000934402882321F081E08093FD02E9C2AE
:103F60001092FD02E6C280934302F0CF8091460298
:103F7000882309F4A8CF809144020E94720C80EE3D
:103F80000E94AB0C8CE40F900F900F900F900F904D
:103F9000DF91CF911F910F91FF90EF90DF90CF9025
:103FA000BF90AF909F908F907F906F905F900C9498
:103FB000AB0C8AE20E94720C8CE40E94720C80EEC0
:103FC0000E94720C80914302811105C080914602CB
:103FD000882309F481CD80914402D5CF1092FC0250
:103FE000A8C2882331F081E08093FF0210926E0115
:103FF000A0C21092FF029DC2073C2CE5120709F4F3
:10400000AEC008F4A7C0083C4CE5140709F4ACC0E6
:10401000093C1C4509F0ADC24FE455E16BE575E183
:1040200079C0043DECE51E07A8F40E3CFCE51F0733
:1040300008F052CD0C3C2CE5120709F49FC041E971
:1040400055E162EA75E10D3C1C4508F463C061E08E
:1040500081E046C0053D4CE5140709F43DCD08F468
:1040600092C00D351D4509F437CD83C280915E04A1
:1040700080FF31C08E7F80935E0460915E047091FA
:104080005F0480916004909161040E948A14809181
:1040900047038160809347039FEFE0E7F2E0915090
:1040A000E040F040E1F700C000000F900F900F904B
:1040B0000F900F90DF91CF911F910F91FF90EF9094
:1040C000DF90CF90BF90AF909F908F907F906F9038
:1040D0005F900C948E0E816080935E0461E0869503
:1040E0000F900F900F900F900F90DF91CF911F9135
:1040F0000F91FF90EF90DF90CF90BF90AF909F9087
:104100008F907F906F905F900C94B31541EC56E1C7
:104110006AEC76E10F900F900F900F900F90DF9167
:10412000CF911F910F91FF90EF90DF90CF90BF90B4
:10413000AF909F908F907F906F905F900C945D09EF
:104140004AEC56E161EC76E1E5CF4FE755E168E8EE
:1041500075E1E0CF48E855E16FE775E1DBCF47E671
:1041600055E163E775E1D6CF43E755E167E675E1D1
:10417000D1CF4BE555E16FE475E1CCCF42EA55E193
:1041800061E975E1C7CF0F900F900F900F900F90DE
:10419000DF91CF911F910F91FF90EF90DF90CF9023
:1041A000BF90AF909F908F907F906F905F900C9496
:1041B000D4160E3D1C4509F0DCC10F900F900F90F6
:1041C0000F900F90DF91CF911F910F91FF90EF9083
:1041D000DF90CF90BF90AF909F908F907F906F9027
:1041E0005F900C94FB16C8010E94F70BF82ECFC10C
:1041F000092F0F70907F11F00295007F812F2223ED
:10420000C9F0002369F090E2910F983010F011117D
:104210000BC080914604082B009346040E94D60BE5
:10422000812F0E94AB0C17C080919B02082B00933A
:104230009B02F4CF0E94720C002369F00095105E7F
:10424000183010F0B11027C0809146040823009365
:1042500046040E94D60B98E0E91AF108E4E0EE1655
:10426000F10408F039CC0E94690E0F900F900F9066
:104270000F900F90DF91CF911F910F91FF90EF90D2
:10428000DF90CF90BF90AF909F908F907F906F9076
:104290005F900C94081680919B02082300939B0268
:1042A000D8CF892F8F70907F903211F08295807FC8
:1042B000F1E0BF120CC0222329F0333060F60E94D7
:1042C000680CC9CF323038F60E945D0CC4CF22236F
:1042D00041F03323A1F340FFA3CF4F70F601458394
:1042E000EECF332389F3193309F0F5C0FFEF27EE42
:1042F00033E0F15020403040E1F700C00000812F52
:104300000E94720CA8CF892F86958695837061F0E4
:10431000813009F0A0CF812F9370211102C090E06D
:1043200080E00E94040997CF812F9370211102C071
:1043300090E080E00E941A098ECF892F8370A1F54A
:10434000211189CF812F829586958770880F880FDC
:10435000412F4F70082E01C0440F0A94EAF7212F15
:10436000207114FF07C02FE030E001C0220F8A95B2
:10437000EAF72095969596959370923081F0822F6A
:10438000842B933030F480919C02913029F0242BBF
:1043900082230E94590C5FCF842B822BFACF242BCF
:1043A00080919C028227F5CF8695222311F0892FD8
:1043B0008170882309F44FCF812F8295869587706D
:1043C000880F880F412F4F70082E01C0440F0A94A8
:1043D000EAF7212F207114FF07C02FE030E001C061
:1043E000220F8A95EAF720959695969593709230CC
:1043F00081F0822F842B933030F480915D049130D2
:1044000029F0242B82230E94991625CF842B822BFE
:10441000FACF242B80915D048227F5CF092F0F70EE
:10442000222329F0802F0E94B616812F48CF812F9A
:104430000E945D0C802F0E94AA160DCF812FE1EF04
:104440001E1789F1E11750F0F0EF1F17B9F0222382
:10445000B1F13111E5CE892F8F7129C042EF1417C8
:1044600049F153EF1513F3CF80E0222361F29F71DE
:1044700081E001C0880F9A95EAF7C5CF222379F031
:10448000323008F0E8CE292F2F7181E090E001C092
:10449000880F2A95EAF790915D048927B4CF3330CD
:1044A00008F0D9CEF0CF892F8F71222321F20E94FC
:1044B000B616D1CE892F8F712223C9F3BCCF3323F7
:1044C00079F0893341F48FEF97EEE3E0815090402B
:1044D000E040E1F712CF8FE39CE90197F1F70DCFB0
:1044E000892F8F71A8CF0031FFE51F0709F47ECC1B
:1044F00001312FE5120709F496CC0E94F808609369
:104500000403709305038093060390930703F60159
:104510008281053E110509F417CD08F095CC003EC7
:10452000110509F48ACC08F080CC0C32110509F48D
:1045300058CDF601928191113CCE80914604827251
:104540000A3CFCE51F0709F414CE08F06ACD053CCF
:104550003CE5130709F4F9CD08F04ECD033C5CE5CA
:10456000150709F4D3CD08F0EBCD023C1C4509F446
:104570007DCDF60100811181992309F434CEC80163
:104580000E940F14F82E682FC8010E941F0CB8015A
:104590008F2D0E9402140E946C0A182FB82EF6016B
:1045A00022814581342F32953F70892F82958F70FB
:1045B000E82EF12C8C3008F04ECEF701EC5CF84C74
:1045C0000C94CC3100313FE5130709F413CC0131D1
:1045D0004FE5140709F09BCF82E00DCC85E0DE01AA
:1045E000119601900D928A95E1F7F6012281898159
:1045F0009A81211186CA0E94F70B182F8ACA1F932D
:10460000CF93DF9380916702807FA9F48091640249
:10461000882389F080919902D091680260916202AA
:1046200070916302A0916502B0916602C62FC72304
:1046300016E0D81304C0DF91CF911F91089590E048
:10464000109711F0CF3F19F401968770F2CF189FA1
:104650009001199F300D1124F901E759FD4F418157
:104660004713F2CF40814613EFCF42814111ECCF87
:10467000438154814A1B5B0B403A510528F78091D6
:1046800067028F70806180936702F901E259FD4FE4
:1046900080818F708061808382E692E00E944C1D51
:1046A000DF91CF911F910C94ED0BAF92BF92CF92FF
:1046B000DF92EF92FF920F931F93CF93DF93CDB7CB
:1046C000DEB761970FB6F894DEBF0FBECDBF8C0189
:1046D00085E0F801DE011D9601900D928A95E1F7C3
:1046E000F801E28082E6A82E82E0B82E6091650291
:1046F000709166026115710509F432C190916202F0
:1047000040916302892F84238F3F09F429C12081BE
:104710003181C380D480F0906402F601E61BF70B70
:10472000FF2009F4E8C080916702582F507FE03ADB
:10473000F10508F0ABC0511177C0FE2C431321C026
:1047400092131FC0E1101DC08F70806180936702BB
:10475000C5010E944C1D80916702F80185838F2D51
:1047600061960FB6F894DEBF0FBECDBFDF91CF913B
:104770001F910F91FF90EF90DF90CF90BF90AF907F
:104780000895CD2829F0822F83238F3F09F003C19C
:1047900080E0F82FF170DF2E80FF3CC080919902FD
:1047A0004091680256E0841315C02D873E878D85A1
:1047B0009E850E943E14292F22952F702230F0F002
:1047C000243018F59F70F1F0F8019581907FD1F4B5
:1047D000D12C1EC090E0589FF001599FF00D11247C
:1047E000E759FD4F6181361306C06081261303C06F
:1047F0006281E6120FC001968770D5CF9F7011F0CD
:10480000882331F3805E883018F3C8010E944C1D64
:10481000FD2CA5CFEE2009F4A2CF80916702816024
:1048200080936702F12C9BCF431306C0921304C000
:10483000F801EE2009F479C0C8010E944A148823C7
:1048400009F1EE20F9F080916702803270F020913A
:1048500062023091630238872F831986DB86CA860D
:104860008C87CE0107960E944C1D86E0F801A2E6D7
:10487000B2E001900D928A95E1F70E94FF22FF2499
:10488000F3946DCFC8010E944C1DF9CF51110AC09D
:1048900082E692E00E944C1D86E0F50111928A9515
:1048A000E9F7C0CF43130FC092130DC0E1100BC046
:1048B000F8018583C8010E944C1D86E0F501119224
:1048C0008A95E9F74CCFC8010E944A148823D1F297
:1048D000EE20C1F280916702803238F220916202AC
:1048E000309163023A8329831B82DD82CC828E83DE
:1048F000CE010196B8CFE03AF105F8F6FE2CEE2095
:1049000009F243131FC092131DC08091670280FDFE
:1049100010C0982F907F69F0F8018583903F31F0A7
:10492000982F907F905F8F70892B8583C8010E949C
:104930004C1D86E0F801A2E6B2E001900D928A9546
:10494000E1F70DCFC8010E944A1481118ECF8091EA
:104950006702816080936702C8010E944C1DFFCEF0
:10496000EE2009F48FCFC8010E944A14F82E882344
:1049700009F488CF86E0F801A2E6B2E001900D923A
:104980008A95E1F780916202909163020E943E1441
:104990000E94FF22E4CE81E08E25FBCE1F93CF93B1
:1049A000DF93CDB7DEB767970FB6F894DEBF0FBEC3
:1049B000CDBF4B8B5C8B6D8B7E8B8F8B611110927F
:1049C0009B021A8A198A85E0FE017396DE011D9604
:1049D00001900D928A95E1F786E0FE013D96DE0199
:1049E000179601900D928A95E1F7CE0107960E94E5
:1049F0005523882389F016E08091990290916802EE
:104A000089134BC067960FB6F894DEBF0FBECDBFBB
:104A1000DF91CF911F91089586E0FE013796DE0168
:104A2000119601900D928A95E1F78A859B85892BD5
:104A300011F38F81988589238F3FE9F220916802D5
:104A400030E0C90101968770992740919902481773
:104A5000190681F4109246040E94A30F1092680276
:104A60001092990286E0E2E6F2E0DF011D928A955B
:104A7000E9F7C1CF96E0929FD001939FB00D11242A
:104A8000A759BD4FFE01319601900D929A95E1F71D
:104A9000809368020E94ED0BAECF819FC00111246C
:104AA00087599D4F0E945523882309F4ABCF8091ED
:104AB000990290E0019687709927809399029CCF84
:104AC0000F931F93CF93DF93CDB7DEB7A8970FB6A1
:104AD000F894DEBF0FBECDBF81114DC006E0662346
:104AE00059F10CA311E01DA31EA30E94F41A8160CA
:104AF000782F98A78FA34CA15DA16EA188A50E94D5
:104B0000CE240F8F18A319A20E94F41A8160782F67
:104B10009BA38AA34F8D58A169A18BA10E94CE248B
:104B200081E0A8960FB6F894DEBF0FBECDBFDF912F
:104B3000CF911F910F9108950A8F13E01B8F81E091
:104B40008C8F0E94F41A8160782F9E8F8D8F4A8DF2
:104B50005B8D6C8D8E8D0E94CE240D8B1E8B1F8ADB
:104B60000E94F41A8160782F998F888F4D895E8911
:104B70006F89898DD3CF813099F66623F1F016E0E5
:104B8000188B198B8A8B0E94F41A8160782F9C8B6A
:104B90008B8B488959896A898C890E94CE241B870E
:104BA0001C871D860E94F41A8160782F9F878E874C
:104BB0004B855C856D858F85B1CF06E00E8318E04F
:104BC0001F8388870E94F41A8160782F9A878987CB
:104BD0004E815F8168858A850E94CE2409831A836D
:104BE0001B820E94F41A8160782F9D838C834981F7
:104BF0005A816B818D8192CFCF92DF92EF92FF929B
:104C00000F931F93CF93DF930F92CDB7DEB7EE24B0
:104C1000E394F12C00EC12E09E012F5F3F4F45EB37
:104C200052E063E082E00E94AF18082F882321F150
:104C3000C090F4028C2D90E09C012A503D4F7901E8
:104C40001981F9018081181BD12E80E00AC0DA9405
:104C5000F70180818F5F808360E08C2D0E9460254A
:104C6000802F1D14A4F3912F17FD90E0191B111133
:104C70000EC081110E94D40B802F0F90DF91CF9135
:104C80001F910F91FF90EF90DF90CF9008951F5FDD
:104C9000F70180818150808361E08C2D0E94602526
:104CA000802FE5CF1F921FB61F9211248F939F93E1
:104CB000AF93BF9380913D04811113C080913E0456
:104CC00090913F04A0914004B09141044196A11DF0
:104CD000B11D80933E0490933F04A0934004B09391
:104CE0004104BF91AF919F918F911F901FBE1F9064
:104CF0001895CDB7DEB7E0970FB6F894DEBF0FBEBC
:104D0000CDBF84B7877F84BF0FB6F894A8958091F4
:104D10006000886180936000109260000FBE80E8A0
:104D200090E00FB6F89480936100909361000FBEFD
:104D300085B7806885BF85B7806885BF8EE09AE0BB
:104D400090933902809338020E946A070E943508C6
:104D50008091E20084608093E20078948091530413
:104D60008823A1F01091E9001F709091EC00892F29
:104D7000817090FD80E8182B1092E9008091E80086
:104D800083FD0E94AC0F1F701093E90082E084BD88
:104D900093E095BD9AEF97BD80936E001092E1026B
:104DA0001092E2021092E3021092E4020E94711447
:104DB000811102C00E94CD130E94460E80936101B2
:104DC00080916101882309F4C6C01092760185E2C2
:104DD000809377010E94460E81110E94B82F809126
:104DE000610181112FC0FE01359686E0DF011D9221
:104DF0008A95E9F786E6898387E98A8386EC8B833F
:104E000084E38C8385E38D833497A7E5B1E0CE01FD
:104E10000B9621912D938E179F07D9F787E0ECE72A
:104E2000F1E0DE01919601900D928A95E1F7FE0185
:104E3000B196A0E5B1E0CE01889621912D938E1711
:104E40009F07D9F78091610195E0811190E09093DF
:104E5000F20285E0891B8093F10207E511E0FCE591
:104E6000EF2EF1E0FF2EF80181918F018F3F11F0BD
:104E70000E94120AE016F106B1F700E511E0E7E53D
:104E8000EE2EE1E0FE2ED8018D918D018F3F11F0C5
:104E90000E94120AE016F106B1F7E7EEF2E081EFA8
:104EA00092E0ABE3B3E011921D928E179F07D9F702
:104EB0000E949B19811102C00E94FB1682E090E0C3
:104EC0000E94E3348093300384E090E00E94E33456
:104ED000182F82E290E00E94E334982F812F909364
:104EE000E6028093E5020E94001BEFE3FCE93197A4
:104EF000F1F700C000000E94001B80913B0380FF7F
:104F00002EC06FEF7FEF90E080E00E94153581E0CA
:104F10008093E00080E28093D8001092C9008FE176
:104F20009EE40197F1F700C0000087E090EBDC0100
:104F30008093670690936806A0936906B0936A060B
:104F400088E19CE00FB6F894A895809360000FBEAE
:104F500090936000FFCF85E28093760139CF83E0A4
:104F600090E00E94E3340E94590C80915D040E94FD
:104F700020160E94460E811102C00E94BB2F83E0C2
:104F800080932B0380E280932A040E94502E6DE0D0
:104F900070E089E492E00E94300D892BE9F5809160
:104FA0002B0363E070E081FDFFC186E492E00E9484
:104FB000300D892B89F56DE070E086E392E00E9468
:104FC000300D892B49F50E94F8086058774C8E4FB8
:104FD0009F4F609331047093320480933304909315
:104FE0003404E5E6F4E080E092E0DF019C011D92EC
:104FF00021503040E1F7F0936606E09365068FEFAD
:105000009FEF909364048093630481E0809336045F
:105010008093350410922C038091F302811136C0E5
:105020000E949B19811104C00E94FB160E94E31686
:1050300088E090E00E94EB3460935E0470935F041C
:105040008093600490936104809147038360809310
:1050500047036E7F71F40E94E31688E090E00E949F
:10506000EB3460935E0470935F04809360049093CC
:1050700061040E94620980915E0480FF04C060E0C8
:1050800086950E94B31581E08093F30280916101BF
:10509000811106C084EF80936D0185EF80936C01D0
:1050A00020916D01A22FA295AF70B0E091963C9136
:1050B00091972F7081E090E0BC01022E01C0660F35
:1050C0000A94EAF7462F4095432391964C93919783
:1050D00092963C919297362B92963C939297409160
:1050E0006C01E42FE295EF70F0E031A14F70042ED7
:1050F00001C0880F0A94EAF7982F9095932391A303
:1051000092A1892B82A390968C9190E002C09595F4
:1051100087952A95E2F7817020A130E002C035958D
:1051200027954A95E2F792E020FF90E0892B809343
:10513000FA029091610181E098279093F902891B0E
:105140008093F40286E592E090934B0380934A03A8
:1051500060E08AE00E94B31581E00E94991682E621
:1051600091E090933A048093390470E4672ECE0165
:1051700001967C0180915304DD24D39400E112E177
:10518000853009F45EC10E94001BC82E81110E9467
:10519000F808E1E3F3E0ABE3B3E010E000E0902EC9
:1051A000BD9081918B1509F476C18B25A12CDD244E
:1051B000D3949D2D982309F469C10E94460E88233B
:1051C00099F0A9A29AA2BD2081E009F480E08BA306
:1051D0000E94F41A8160782F9DA38CA349A15AA143
:1051E0006BA18DA10E94CE24F801EF5CFC4F808161
:1051F000D826D0828091FA02E82FEE0FEE0F909120
:105200006D01A92FA295AF70B0E090962C9130E07F
:105210009F7002C0359527959A95E2F72170332744
:1052200090916C01A92FA295AF70B0E090964C912F
:1052300050E09F7002C0559547959A95E2F7CA01D4
:105240008170992740FF02C082E090E0822B8E2B74
:105250008093FA021091F9028F70E82FF0E0EC5F72
:10526000FD4F80819091F802890F8093F802D12C34
:1052700084306CF0E12FF0E0EA50FD4F80818F5FC9
:10528000808360E0812F0E946025DD24D39480918B
:10529000F8028D3F6CF4E12FF0E0EA50FD4F808181
:1052A0008150808361E0812F0E946025DD24D394AA
:1052B0008091F802082E000C990B64E070E00E94C7
:1052C00099318093F802D1100E94D40B809136045A
:1052D000882351F180912D0390912E030E94E51AAD
:1052E000C29708F0EFC02091630430916404211547
:1052F000310509F049C2809135048823A9F00E9444
:10530000F808009131041091320420913304309157
:105310003404601B710B820B930B6F3F7F4F8F4FD9
:105320009F4710F40E94600DC11001C0D1100E946F
:105330007B0D0E94690E90912F03891731F00E9416
:10534000690E80932F030E940816809153048430C5
:1053500009F010CF83E08093E9008091E80082FF9C
:1053600009CF8091E80090E085FF0CC00E9489077A
:1053700030E2C32ED12C8E010F5F1F4F882309F41A
:10538000E2C291E08091E8008B778093E800992356
:1053900009F4F0CEE981E150E33108F036C3F0E0E2
:1053A000E05CF84C0C94CC3183E492E000CE809128
:1053B0005304843009F435C00E94600D80E00E94DF
:1053C000081680914903811109C0D0924903809148
:1053D0005E0481708093F5020E948E0F10923D044E
:1053E000A8E1B0E00FB6F894A895A09360000FBEB6
:1053F0006092600083B7817F846083BF83B78160E0
:1054000083BF7894889583B78E7F83BF0FB6F89457
:10541000A895809160008861809360001092600080
:105420000FBE80915204882361F00E94001BEBE3C1
:10543000F3E08191811113C425E433E02E173F0777
:10544000C1F780915304853009F4B1CF109246041E
:105450000E94A30F0E94690E0E9408161092490331
:105460008091F502882351F080915E0481608093E1
:105470005E0460E086950E94B31585CE8091480356
:10548000882309F480CE0E948E0E7DCEA394DD0C7D
:1054900037E0A3128ECE0F5F1F4F0A30110509F0BF
:1054A0007ECE8FEF88A789A71AA60E94F41A816082
:1054B000782F9CA78BA748A559A56AA58CA50E9403
:1054C000CE2498CE0E94F41A90932E0380932D033D
:1054D00060E080E00E9430098091FB0290E09093B0
:1054E0000A03809309030E94690E809308030E94B7
:1054F000460E882331F140910403509105036091D9
:105500000603709107032FB7F89480913E049091A1
:105510003F04A0914004B09141042FBF841B950B20
:10552000A60BB70B81339547A105B10540F00E944A
:10553000600D80913604882309F4DDCED4CE0E941C
:105540007B0D0E94460E62E0882309F4DEC080E0F5
:105550000E94300960E083E891E00E94341363E028
:1055600080E00E94300980915D040E941F0D81300F
:1055700009F497C0882309F48EC0823009F499C0D9
:10558000833009F492C066E080E00E94300960E058
:1055900081EA91E00E94341367E080E00E943009C4
:1055A000609108036695617086EA91E00E94341369
:1055B00068E080E00E9430096091080360956170A6
:1055C0008BEA91E00E94341369E080E00E94300988
:1055D0006091080362FB662760F98FEA91E00E9400
:1055E00034134091000350910103609102037091C4
:1055F00003032FB7F89480913E0490913F04A0914B
:105600004004B09141042FBF841B950BA60BB70B30
:105610008D329140A105B10508F48BCF0E94F808A6
:10562000609300037093010380930203909303033C
:105630008091FF02811104C080916E0181113DC0F3
:105640006FE080E00E94300960E084EB91E00E940E
:1056500034136CE080E00E94300981E080936E0199
:105660008091FE0290E00196817099278093FE025E
:1056700021E030E0281B390B40E6429FC001439FE8
:10568000900D11242091FD02222329F18A599A4F6D
:105690000E9427074ECF60E089E891E00E94341312
:1056A00072CF60E08FE891E0F9CF60E085E991E0AA
:1056B000F5CF60E08BE991E0F1CF6CE080E00E94F3
:1056C000300960E084EB91E00E9434136DE080E0EB
:1056D0000E943009C5CF2091FC02222319F08A557F
:1056E0009B4FD6CF2091090330910A032B3031050F
:1056F0001CF48A519C4FCCCF293231051CF48A5DB1
:105700009C4FC6CF8A599D4FC3CF80E00E9430097D
:1057100060E08AEB91E00E94341363E080E00E9435
:10572000300960E080EC91E00E94341367E080E093
:105730000E94300986E296E00E9427076DE080E033
:105740000E94300980910A038F93809109038F93FF
:1057500086EC91E09F938F93FF92EF920E945132DB
:1057600060E0C7010E9434136EE080E00E943009BF
:1057700060E08CEC91E00E9434130F900F900F903A
:105780000F900F900F90D5CE80912C0361E070E0C8
:105790008111B1CD482E512C1B01082E02C0220CC4
:1057A000331C0A94E2F7A90142215321452B09F445
:1057B00048C090912B0390FD46C08295880F80765B
:1057C0008093710192013695279536952795209300
:1057D0007401815E809372011092750124E630E0BD
:1057E00047E050E06FE671E088E70E94FF2E892BCA
:1057F00009F081CD55E0440C551C5A95E1F7809194
:105800002B0380FD2EC0A2014B595B4F04E610E034
:1058100020E230E060E488E70E94262F892B09F01F
:105820006ACD0E947B0DC101809590952090630404
:105830003090640428223922309264042092630458
:105840005ACD8F5FA7CF880F880F880F8093710183
:1058500010927401895F8093720183E080937501D7
:10586000BDCFEBE0F3E080E2DF011D928A95E9F71E
:10587000E8E1F2E0F8ABEFA764E172E047E0A42EC4
:1058800099249394AFA5B8A94D91B8ABAFA7FB01EC
:105890008191BF01840D952D911D9C012B593B4F8A
:1058A0003EA72DA7E42FF0E0E55FFC4F30E020E0BD
:1058B0007A2C721AB92C022E01C0BB0C0A94EAF79A
:1058C0000DA51EA590E0D8018D918D018B21472D4E
:1058D000491B4770842E042E000C550BB82F01C0B5
:1058E000BB0F8A94EAF78B2E519541955109477069
:1058F000552701C086954A95EAF7882A8081882A2B
:1059000080829F5F9830F9F62F5F3F4F31962830A5
:10591000310571F6ECE1F2E02FA538A9E217F307A3
:1059200009F0B0CF04E610E020E230E04BE053E0B5
:1059300071CF8091F100D8018D938D01B1E0CB1A28
:10594000D10809F41ECD8091E80085FDF2CF809149
:10595000E8008B778093E8000E948907882399F3F9
:1059600010CD1A8289E08B8311C08A81823009F4BC
:105970008EC1833089F1813009F047C00E94F80858
:105980000E94D2316B837C838D839E8380915304EC
:10599000843009F0EFCB1091E9001F709091EC007A
:1059A000892F817090FD80E8182B82E08093E900B8
:1059B0008091E80080FF0CC050E040E060E270E0C1
:1059C000C7010E94BA078091E8008E778093E800B3
:1059D0001F701093E900CECBDE011396EBE3F3E0EA
:1059E00081918D9323E0E534F207D1F7CFCF8A81FF
:1059F000823059F46B817C818D819E810E94D231ED
:105A000086E290E00E94F734C1CF8FEF8983BECF4A
:105A10004C816B818A810E94DC1398278927982703
:105A20009E838D83B3CF0D811E8110270127102700
:105A30008A81CB803EE0C39E600111249CE8899F4F
:105A4000C00CD11C11248C8190E0880F991FC80EC6
:105A5000D91E612FC60187960E94F734602FC601B8
:105A60008896D0CF0E94601391CF8A818138C1F08F
:105A700060F4803809F08ACF20E04B8160916004A7
:105A800080915F040E949C1481CF8238E9F08338B2
:105A900009F07CCF20E0409161046C818B81F2CFD2
:105AA00060E08B810E94B3158B81811103C00E943D
:105AB0008E0F6CCF80915E04816080935E0460E005
:105AC00086950E94B31562CF8B81809362045ECF6E
:105AD0008A81813899F030F4803809F057CF80916D
