:100000000C9476030C94BD030C94BD030C94272A26
:100010000C94BD030C94BD030C94BD030C94BD0360
:100020000C94BD030C94BD030C94E4200C94A0200C
:100030000C943F280C94BD030C94BD030C94BD0399
:100040000C94BD030C94BD030C94BD030C94BD0330
:100050000C94BD030C941B280C94BD030C94BD039D
:100060000C94BD030C94BD030C94BD030C94BD0310
:100070000C94BD030C94BD030C94BD030C94BD0300
:100080000C94BD030C94BD030C94BD030C94BD03F0
:100090000C94BD030C94BD030C94BD030C94BD03E0
:1000A0000C94BD030C94BD030C94BD032B032B6473
:1000B000A0FF0000000037032B6496FF0000000043
:1000C00010032B64A0FF000000000000D7FF78FFA2
:1000D00000000000000080FF64FF0000000000003E
:1000E0001EFF78FF0000000000005FFF5AFF0000C5
:1000F000000005010902A10185020901A10005090D
:1001000019012908150025019508750181020501CD
:10011000093009311581257F950275088106093856
:100120001581257F950175088106050C0A38021591
:1001300081257F950175088106C0C005010980A150
:1001400001850319012AB700150126B7009501752D
:10015000108100C0050C0901A101850419012AA024
:1001600002150126A002950175108100C005010944
:1001700006A1018505050719E029E7150025019568
:1001800008750181020507190029EF150025019561
:10019000F075018102050819012905950575019180
:1001A00002950175039101C00660FF0961A1010973
:1001B00062150026FF00952075088102096315006D
:1001C00026FF00952075089102C005010906A101CE
:1001D000050719E029E71500250195087501810239
:1001E0009501750881010507190029FF150026FFF3
:1001F0000095067508810005081901290595057502
:10020000019102950175039101C0000101010101F5
:1002100001010101020202020202020202030303BF
:10022000030303030304040404040404050505058F
:10023000050606060606070707070708080808094F
:100240000909090A0A0A0B0B0B0C0C0C0D0D0D0EFB
:100250000E0E0F0F0F101011111112121313141490
:10026000151516161717181819191A1A1B1B1C1D05
:100270001D1E1E1F2020212222232424252626275E
:100280002829292A2B2C2D2D2E2F30313232333490
:1002900035363738393A3B3C3D3E3F404142434496
:1002A00045464748494A4C4D4E4F50515354555678
:1002B00058595A5B5D5E5F616264656668696B6C24
:1002C0006D6F7072737577787A7B7D7E808283859F
:1002D00087888A8C8E8F91939596989A9C9EA0A2DF
:1002E000A3A5A7A9ABADAFB1B3B5B7BABCBEC0C2E9
:1002F000C4C6C9CBCDCFD1D4D6D8DBDDDFE2E4E7AD
:10030000E9EBEEF0F3F5F8FAFDFFFFAA7F55401C8C
:100310001004010D190A24232221201F1E1D1B1A5F
:1003200018171615141312110F0E0C0B09080706D7
:10033000050302002D3945483C303F252627282952
:100340002A2B2C2E2F31323334353637383A3B3D79
:100350003E404142434446474935001E001F0020AD
:1003600000210022000000290014001A00080015D6
:1003700000170080002B0004001600070009000A87
:10038000000000E1001D001B0006001900050081AF
:1003900000A800E300E200E0000251280000003560
:1003A000002700260025002400230000002A001357
:1003B0000012000C0018001C004B00340033000F2A
:1003C000000E000D000B000000E50038003700367D
:1003D00000100011004E00E700E600E40003512C7D
:1003E00000000000004600010001000100010001C2
:1003F0000000000100170014001A00080015000199
:100400000001000A000400160007000900000001B6
:100410000005001D001B000600190001000100017D
:10042000000100010048002C000000010001000153
:100430000001000100010000002A0001000100018C
:1004400000010001000100010001000100010001A4
:100450000001000000010001000100010001000195
:100460000001000100010001000351010001000032
:100470000001003A003B003C003D003E000000351A
:10048000001E001F00200021002200010001001EAC
:10049000021F02200221022202000001002E002D74
:1004A000002E022F022F02010001000100010001B5
:1004B00000010001000000440043004200410040F0
:1004C000003F0000004500270026002500240023EF
:1004D0000001003102270226022502240223020025
:1004E00000010031003302370030002F000100010D
:1004F00000010001000100010001000000010001F5
:1005000000010001000100010000000100010001E4
:1005100000010001000100010001000100010001D3
:1005200000010001000000010001000100010001C4
:1005300000010001000100010001000100010001B3
:1005400000000001000100010001000100010000A5
:10055000004C0049004D0052004A0001000100011A
:100560000001004F00510050000100000001000197
:10057000004E0001004B00390001000100010001A4
:100580000001000100010000000000000000000068
:10059000000000000000000000000000000000005B
:1005A000000000000000000000000000007E0F00BE
:1005B000D4FFFFFFC700000078000000000000002B
:1005C000002A2B28000000000000000000000000AE
:1005D0000000000029000000002C1E3420212224ED
:1005E000342627252E362D3738271E1F202122237B
:1005F0002425263333362E37381F0405060708090D
:100600000A0B0C0D0E0F10111213141516171819D2
:100610001A1B1C1D2F3130232D3504050607080930
:100620000A0B0C0D0E0F10111213141516171819B2
:100630001A1B1C1D2F3130354CE800DE00D400CAD7
:1006400000C000B600AC00000009025B000301001E
:10065000A0FA0904000001030101000921110100B1
:10066000012240000705810308000A090401000275
:100670000300000009211101000122220007058268
:100680000320000107050303200001090402000103
:100690000300000009211101000122B600070584B2
:1006A0000320000A120110010000000832FC87122A
:1006B0000200010200011E0353006F006C00610084
:1006C00072006900750073005F0053006F006600E0
:1006D0006C006500000010034B00650079006800A5
:1006E00069007600650000000403090411241FBEA0
:1006F000CFEFDAE0DEBFCDBF04B603FE27C08091A6
:10070000B4039091B503A091B603B091B7038730BD
:10071000904BA740B04BD1F41092B4031092B503A4
:100720001092B6031092B70314BE84B7877F84BFBC
:100730000FB6F894A895809160008861809360005E
:10074000109260000FBEE0E0F8E3099511E0A0E030
:10075000B1E0EEE0F8E502C005900D92A839B107CE
:10076000D9F723E0A8E9B1E001C01D92A43BB2078C
:10077000E1F70E94BB210C94BA2B0C940000E8ED29
:10078000F0E080818E7F80831092E2001092DA0088
:100790001092E100A0EEB0E08C9181608C9380819A
:1007A0008F77808319BCA7EDB0E08C918E7F8C93FE
:1007B00080818F7E80831092610308952091E400F0
:1007C0003091E50095E6A9012091EC00822F81701F
:1007D00020FF06C08091E80080FF06C080E00895F9
:1007E0002091E80022FD1AC080918603882389F0B9
:1007F000853089F08091EB0085FD0FC02091E400E9
:100800003091E50042175307F9F29150E1F684E088
:10081000089582E0089583E0089581E00895EF92BD
:10082000FF920F931F93CF937C018B010E94DE03F5
:10083000C82F811117C08091E80085FD0BC0809101
:10084000E8008E778093E8000E94DE03882399F306
:10085000C82F08C0F70181917F018093F1000150FA
:10086000110949F78C2FCF911F910F91FF90EF90B5
:1008700008958091880387FF13C08091E80082FF6C
:1008800006C08091E8008B778093E80004C08091D7
:1008900086038111F2CF0895809186038823D9F3CE
:1008A0008091E80080FFF8CF8091E8008E77ECCF50
:1008B000982F9093E900242F762F50E0891731F07C
:1008C0007091EC002091ED005091F00021FD07C0E7
:1008D0009F5F973071F78093E90081E00895309130
:1008E000EB003E7F3093EB003091ED003D7F309385
:1008F000ED003091EB0031603093EB007093EC0031
:100900002093ED005093F0002091EE0027FDE0CF02
:1009100080E00895CF92DF92EF92FF920F931F93A2
:10092000CF93DF93C8EDD0E088818F7E8883E7ED99
:10093000F0E080818160808384E082BF81E08093E9
:10094000610388818E7F888302EE10E0F8011082B7
:100950001092DA0081EEC82ED12CF6011082888127
:100960008F77888388818068888388818F7D88835A
:1009700019BC10928603109287031092850310927F
:10098000840390EEE92EF12CF70180818B7F808328
:1009900088818160888342E060E080E00E945804A2
:1009A000F60180818E7F8083F80180818160808361
:1009B000808188608083F70180818E7F8083888139
:1009C00080618883DF91CF911F910F91FF90EF900D
:1009D000DF90CF900895FC0180918E0390918F035A
:1009E00086179707A0F06115710529F49091E8002A
:1009F0009E779093E80090E06115710551F4911194
:100A000008C08091E80082FF34C080E00895BC01F6
:100A1000F2CF809186038823C1F18530C1F18091A6
:100A2000E80083FD30C08091E80082FDEACF80912C
:100A3000E80080FFE1CF8091F3002091F200382F91
:100A40006115710519F02830310558F091E0283012
:100A5000310509F090E02091E8002E772093E8001E
:100A6000CBCF81918093F100615071092F5F3F4F8F
:100A7000E7CF80918603882341F0853041F0809153
:100A8000E80083FFBECF81E0089582E0089583E00F
:100A9000089580E008958091630308959C014FB705
:100AA000F8948091170390911803A0911903B091C5
:100AB0001A034FBF821B930B08952FB7F8946091D0
:100AC0001703709118038091190390911A032FBF97
:100AD00008952FB7F8948091170390911803A0916F
:100AE0001903B0911A032FBF0895209123012223E7
:100AF000C9F020912B0327FF15C0E62FE695E69558
:100B0000E695EE31D8F4E80FF92FF11D677021E07A
:100B100030E001C0220F6A95EAF7209582812823F0
:100B200022830895FC01329608962191621303C036
:100B3000DF0111971C92E817F907B9F70895209182
:100B400023012223C1F020912B0327FF14C0E62F9D
:100B5000E695E695E695EE31F8F4E80FF92FF11DEC
:100B6000677021E030E001C0220F6A95EAF78281C8
:100B7000822B82830895FC0132962FEF30E0419161
:100B8000641751F02F3F19F4411101C0232F3F5F2B
:100B90003630A9F72F3F09F40895820F911D27FDE4
:100BA0009A95FC016283089580911203811110923D
:100BB000120308958091110390911003892B909155
:100BC0000F03892B80939A01909112039923A1F02E
:100BD000892B80939A0180912301882341F1809190
:100BE0002B0387FF24C08EE1ECE9F1E090E0815017
:100BF00000F591110E94D405E0913103F091320388
:100C00003097E1F080912301882359F080912B03E4
:100C100087FF07C080919A0180939B0185E08093B4
:100C20009A010280F381E02D8AE991E0099486E03F
:100C3000DBCF21912223D9F29F5FD9CF089527E0FE
:100C4000929F800D1124982F977086958695869592
:100C500025E0829FF0011124EF51FD4F50E040E06C
:100C600080E0219130E0092E02C0369527950A9444
:100C7000E2F721703327042E01C0220F0A94EAF70D
:100C8000822B4F5F5F4F4530510559F7089527E09C
:100C9000929F800D1124982F977041E001C0440F5E
:100CA0009A95EAF786958695869595E0899FF00155
:100CB0001124EF51FD4F90E080E070E05191DF0191
:100CC00011979B01082E02C0369527950A94E2F7EA
:100CD000217021952527242325272C9301968530E3
:100CE000910561F708958091E0029091AF02981309
:100CF00001C008958F5F8770FACF882341F08095F7
:100D0000909111038923809311030C94DA050895BF
:100D1000882339F090911103982B909311030C9430
:100D2000DA0508950C945D0520919F023091A00290
:100D30002817390771F09093A00280939F02E091E9
:100D40003103F0913203309721F00084F185E02DDA
:100D50000994089520919D0230919E022817390729
:100D600071F090939E0280939D02E0913103F09187
:100D70003203309721F00680F781E02D0994089521
:100D8000E0913103F0913203309721F00190F0812E
:100D9000E02D099480E00895FA01811101C0FB0162
:100DA000099480919703982F9E7F61F481708260EF
:100DB0008093970380919A03813C18F080EC809394
:100DC0009A0308958831B0F381708661F1CFAF92B4
:100DD000BF92DF92EF92FF920F931F93CF93DF9317
:100DE000082F162FE901E42FF0E0E65FFD4F6111B7
:100DF00010C0E4915E2F4E2F4983E8835A83DF9120
:100E0000CF911F910F91FF90EF90DF90BF90AF9027
:100E10000895E62EF12C4491D42EE42FF0E026E044
:100E2000829FC00111242FEF30E0B9010E94342BC2
:100E3000802F90E0880F991F55E5569FD001579F4E
:100E4000B00D11248A1B9B0B982F990F890F590104
:100E5000AE18BF08AE9ED001AF9EB00DBE9EB00DC5
:100E600011245B2F189F80011124012F1127590194
:100E7000A01AB10AAE9E8001AF9E100DBE9E100D4D
:100E800011245901A81AB108AE9CC001AF9C900D65
:100E9000BE9C900D1124892F9927281B390B2E9F5A
:100EA000C0012F9F900D3E9F900D1124E92F6230BD
:100EB0007105A1F050F46115710509F49DCF613001
:100EC000710581F0EB2F512F97CF6430710569F0D8
:100ED00080F06630710509F48FCFF4CFE42F4B2FEB
:100EE000592F8ACFE42F412F87CFEB2F542F492F33
:100EF00083CF4B2F5D2DE12F7FCF0E9469059C0191
:100F00009091470380914803982B21F0309344033C
:100F1000209343039091490380914A03982B21F039
:100F20003093410320934003E0913103F091320369
:100F3000309749F082E0809345030480F581E02DED
:100F400085E493E00994089590E080E00E94AA0669
:100F500090E080E00E9494061092100310920F031C
:100F60000E94DA0586E0E5E4F3E0DF011D928A9550
:100F7000E9F71092420310923F031092A8020C94DA
:100F80007D0760931303709314038093150390936C
:100F900016030C94A40740914703803F59F48091B5
:100FA000480387FF0DC01092480341110BC01092F7
:100FB000420308C0813F81F48091480318169CF3D6
:100FC000442381F08091490390914A03892B09F0D1
:100FD0005AC010923F030895823F49F447FFF0CF73
:100FE00010924703809148038111ECCFE0CF833FFB
:100FF00019F41416ACF3E4CF90914903893F29F416
:101000001916F4F610924903DBCF8A3F19F497FFC3
:10101000D7CFF8CF90914A038B3F29F497FFD0CFD9
:1010200010924A03CDCF8C3F19F41916CCF3C8CFD8
:101030009CE0980F953090F4845F990B21E030E0AC
:10104000B90102C0660F771F8A95E2F7CB01809540
:1010500090914603892380934603B2CF8D3F31F4AC
:101060008091A8028E7F8093A802AACF8E3F21F4A0
:101070008091A8028D7FF7CF8F3F09F0A1CF80919B
:10108000A8028B7FF0CF08958823B1F19CEF980FD1
:10109000913A38F4682F8AE991E00E9475050C9422
:1010A000DA0590E2980F983088F4877021E030E0FC
:1010B000A90102C0440F551F8A95E2F7CA01809525
:1010C00090911103892380931103E9CF9BE5980F39
:1010D000933020F490E080E00C94AA0698E5980FF5
:1010E000973120F490E080E00C949406803F20F04B
:1010F0000E94CB070C947D0708958091A80280FD83
:1011000016C081FD16C082FD16C080913F03882362
:10111000A1F0883280F428E0829FC001112468E2A7
:1011200070E00E94482B862F672B39F0089582E0EB
:10113000089584E0089588E0089581E008958091FD
:10114000A80280FD14C081FD14C082FD16C08091EC
:101150004203882381F0843180F422E3829FC0011E
:10116000112464E170E00E94482B862F08958CE0E2
:10117000089589E1089585E0089582E30895803F08
:1011800031F40E949F088195809348030895813F20
:1011900019F40E949F08F8CF823F31F40E949F0803
:1011A0008195809347030895833F19F40E949F0817
:1011B000F8CF893F29F40E947D0880934903089560
:1011C0008A3F21F40E947D088195F7CF8B3F31F44F
:1011D0000E947D08819580934A0308958C3F19F4FD
:1011E0000E947D08F8CF9CE0980F953070F4845FE2
:1011F000990B21E030E001C0220F8A95EAF7809137
:101200004603822B8093460308958D3F31F48091ED
:10121000A80281608093A80208958E3F21F48091F6
:10122000A8028260F7CF8F3FB9F78091A80284604F
:10123000F1CFCF93C82F882309F46FC08CEF8C0FA8
:10124000813AC0F580912301882311F180912B030D
:1012500087FF1EC0EC2FE695E695E695F0E0E65692
:10126000FE4F828190E04C2F477021E030E002C0B9
:10127000220F331F4A95E2F782239323892B91F0A3
:101280006C2F8AE991E00E9475050E94DA050AC078
:10129000ECE9F1E082EA91E02191C21789F38E171F
:1012A0009F07D1F76C2F8AE991E00E949F05CF91AB
:1012B0000C94DA0580E28C0F883068F4C77021E066
:1012C00030E001C0220FCA95EAF780911103822B0A
:1012D00080931103ECCFEBE5EC0FE33040F4F0E04A
:1012E000E95BFE4F808190E0CF910C94AA06E8E57F
:1012F000EC0FE73150F4F0E0EE0FFF1FE65BFE4F1E
:1013000080819181CF910C949406C03F30F08C2F56
:101310000E94BF08CF910C947D07CF910895F89457
:10132000E82FE295EF70F0E031A1282F2F7081E0D7
:1013300090E001C0880F2A95EAF7982F90959323A3
:1013400091A392A1892B82A37894089590912B0365
:1013500092FF06C0282F28712830F9F4877F846017
:1013600093FF06C0282F28712831F1F4877E84610D
:1013700020912C0320FF06C0382F38713830D9F463
:10138000877F816021FF06C0282F28712831D1F482
:10139000877E816194FD877E0895282F24712430F3
:1013A000F9F68B7F8860DCCF282F2471243101F778
:1013B0008B7E8861DDCF382F3171313019F78E7F08
:1013C0008860E0CF282F2171213121F78E7E88613E
:1013D000E1CFCF9384E090E00E94722BC82F81E28E
:1013E00090E00E94722B982F8C2FCF9108950F932D
:1013F0001F93CF93DF93C42FD0E0CC0FDD1F2EE0DF
:10140000629FC00DD11D11243CE8839FC00DD11DEA
:101410001124CE0186960E94722B082F10E0102F07
:101420000027CE0187960E94722B9801282BC901B4
:10143000DF91CF911F910F910895462F843038F49A
:101440007A3028F4673018F4672F0C94F70990E08D
:1014500080E00895CF93DF930E941D0AEC0182384B
:101460009105A9F1D8F58133910509F496C048F5A5
:101470008932910509F48AC08A9709F495C0C1158B
:1014800021E5D20708F0BCC0C11530E5D30708F04C
:1014900014C1C83ED10508F09CC0C03ED10560F51E
:1014A000C83AD10508F087C0C53AD10508F0FDC09B
:1014B000C130D10509F12097F9F0C430D105E0F42D
:1014C00040C08533910509F45AC0C997C1F680918F
:1014D0002B03837089F0C0EED0E00EC0833E9105EF
:1014E00099F170F4803E910501F1823E910539F643
:1014F00080912B0382FD21C0CE01DF91CF91089511
:10150000863E910561F1873E910571F1843E91051A
:1015100009F0B5CF80912C0381FFEECF80912B0392
:10152000C7EED0E084FD0DC0E7CF80912B0380FD96
:1015300012C190912C0390FFDFCFC3EED0E084FF67
:10154000DBCFD0E0C0E0D8CF80912B0382FD06C175
:1015500090912C0390FDBFCF84FFCECFF2CF80912E
:101560002B0383FDDDCFC8CF80912B0383FDF9C012
:1015700090912C0391FFF0CFC4EED0E0BDCF8091CD
:101580002B0385FFB9CFC9E2D0E0B6CF80912B0302
:1015900085FFB2CFC5E3D0E0AFCF80912B0386FFAC
:1015A000ABCFCAE2D0E0A8CF80912B0386FFA4CFB7
:1015B000C1E3D0E0A1CFCF3BD10518F6C85AD0E0A7
:1015C000CC0FDD1FC65BDE4F0990D881C02DD464DF
:1015D00093CFC11540E2D40758F4C11581E0D80774
:1015E00008F08ACFC03FD10508F4ABCFD06584CFD7
:1015F000C11590E4D90708F4A4CFDF70D06A7CCF7E
:10160000C11525E5D20700F5C11534E5D30708F06B
:101610008AC0C11543E5D40708F071C0C11582E541
:10162000D80708F467C0CE018370992721E030E025
:1016300002C0220F331F8A95E2F7C695C69580E255
:10164000C89FE001112452C0C11599E5D907A8F43B
:10165000C11528E5D20708F06BC0C11536E5D307E0
:1016600008F06FCF8C2F0E94A609C82FD0E0DC2F86
:10167000CC27CC27DF71D0623FCFC1154AE5D40714
:1016800008F45BC0CE0190568115904208F059CF06
:101690008D2F8F710E94A60990E0982F88278827A8
:1016A0009F719C012C2BE901E6CFC55AD0E0C95BA4
:1016B000DE4FC881D0E0D0641FCFCE01E4E0969524
:1016C0008795EA95E1F783702C2F26952695237050
:1016D00040E2249F90011124382B8C2F8370C1E0AD
:1016E000D0E002C0CC0FDD1F8A95E2F7C22BD32BCE
:1016F000DC6802CFDC2FCC27C16FD06AFDCECE01D3
:101700008370992721E030E002C0220F331F8A95B1
:10171000E2F7C695C69590E2C99FE0011124C22B5D
:10172000D32BDA68E9CEDC2FCC27C46FD06AE4CEA5
:10173000DC2FCC27C06FD06ADFCE8C2F8F700E9439
:10174000A60934E0D695C7953A95E1F7CF709C2F5E
:10175000EC01D069D1CEC9E3D0E0CECEC2EED0E06C
:10176000CBCEC6EED0E0C8CEBF92CF92DF92EF9242
:10177000FF920F931F93CF93DF938C01C090900340
:10178000D0909103E0909203F09093038091130323
:1017900090911403A0911503B0911603C82AD92A79
:1017A000EA2AFB2ACFE1D0E0BC2ED701C6010C2EDD
:1017B00004C0B695A795979587950A94D2F780FDB2
:1017C0000EC0219788F7B12C8B2DDF91CF911F91FF
:1017D0000F91FF90EF90DF90CF90BF900895B801E8
:1017E0008C2F0E942A0A019761F3EECFCF93DF93EB
:1017F000EC010E94B40BBE01DF91CF910C942A0A38
:101800000E94F60B292F2F7092959F7092509E3058
:1018100078F4E92FF0E0E454F44D0C945C2B803F15
:1018200019F020F4883E20F481E00895843FE1F32C
:1018300080E00895883EC0F3813FD1F7F5CF822F35
:1018400086958695869508956F927F928F929F9246
:10185000AF92BF92CF92DF92EF92FF920F931F93BE
:10186000CF93DF9389E5C82E83E0D82E90ECE92E44
:10187000F12CE701CC58D10936011BC0F501859048
:101880009490692DC8010E94862B682DC80101968D
:101890000E94862B82E0A80EB11C0E5F1F4FC0175E
:1018A000D10761F78EE0680E711C2E96CE15DF050C
:1018B00029F08E010E5011095301E0CF7E018CE812
:1018C000E80EF11C8CE8C80ED11C80EFE81682E00F
:1018D000F80679F6DF91CF911F910F91FF90EF906D
:1018E000DF90CF90BF90AF909F908F907F906F9040
:1018F0000895CF93DF93C6E5D2E060E0CE010E9469
:10190000862B2196C11584E0D807B9F7DF91CF91D6
:101910000895CF93DF9300D00F92CDB7DEB79091AB
:101920008603943011F589837B836A839093E90061
:101930008FEF9091E800815095FD06C095ED9A9546
:10194000F1F700008111F5CF8091E80085FF0DC00F
:1019500050E040E063E070E0CE0101960E940F0489
:101960008091E8008E778093E8000F900F900F90A1
:10197000DF91CF910895BC0184E00C94890CBC01E7
:1019800083E00C94890C9C0184E08093E9009FEF34
:101990008091E800915085FD06C085ED8A95F1F7AC
:1019A00000009111F5CF8091E80085FF0CC050E058
:1019B00040E066E070E0C9010E940F048091E800F9
:1019C0008E778093E8000895CF93DF93EC018091A8
:1019D00023018823B1F180912B0387FF32C060E29D
:1019E00084E08093E9008FEF9091E800815095FDAD
:1019F00006C095ED9A95F1F700008111F5CF809121
:101A0000E80085FF1BC08091230170E050E040E0BA
:101A1000811104C050E040E068E070E0CE010E9417
:101A20000F048091E8008E778093E80080E2FE0149
:101A3000A4E6B3E001900D928A95E1F7DF91CF9192
:101A4000089568E081E0CDCF81E08093E00080E2FE
:101A50008093D8001092C9008FE19EE40197F1F7BE
:101A600000C0000087E090EBDC018093B40390930A
:101A7000B503A093B603B093B70388E19CE00FB61B
:101A8000F894A895809360000FBE90936000FFCFFC
:101A90001F93CF93DF93182FCAE0D0E0893311F45E
:101AA000C0E5D0E0812F0E9419098FE99FE00197DE
:101AB000F1F700C000002197C1F7812FDF91CF918E
:101AC0001F910C9444080F931F93CF93DF93C62F5D
:101AD000D42F022FFC0182818823A1F0609396030A
:101AE0000E9469059093950380939403C77081E0E9
:101AF00001C0880FCA95EAF7DF91CF911F910F912E
:101B00000C94880680919603681335C080919403E5
:101B1000909195030E944E058436910560F510E280
:101B20001D0FCD17B9F080E28C0F883040F4C770DC
:101B300081E001C0880FCA95EAF70E947D0618303F
:101B400048F481E09D2F977001C0880F9A95EAF7BD
:101B50000E948806802F0E94480D183098F4D77094
:101B600081E001C0880FDA95EAF7DF91CF911F91EC
:101B70000F910C947D06C77081E001C0880FCA9553
:101B8000EAF7F3CFDF91CF911F910F9108958091E4
:101B9000BE01811111C08091D80080618093D8006E
:101BA0008AE18A95F1F700C09091D900892F817060
:101BB00090FF82E08093BE0181E09091BE01913060
:101BC00009F080E008956BEE7EEF90E080E00E94E7
:101BD000A42B60E082E090E00E94862B60E083E02E
:101BE00090E00E94862B109213031092140310921F
:101BF00015031092160360E084E090E00E94862BAB
:101C000060E081E290E00E94862B60E085E090E059
:101C10000E94862B60E086E090E00E94862B6FEFAA
:101C200087E090E00E94862B40E050E0BA0188E017
:101C300090E00E94982B60E08DE090E00E94862B5F
:101C400040E050E0BA0188E190E00E94982B60E00B
:101C500087E190E00E94862B40E050E0BA018CE1E1
:101C600090E00E94982B60E080E290E00E94862B3A
:101C700040E050E0BA0188E190E00E94982B40E0FB
:101C800050E0BA018FE090E00E94982B40E050E0D5
:101C9000BA0183E190E00C94982BCF92DF92EF92FF
:101CA000FF926B017C010E94D106B701A60188E07A
:101CB00090E0FF90EF90DF90CF900C94982B809164
:101CC0009B03882319F0815080939B0360919703B5
:101CD000709198038091990390919A030C944D0E02
:101CE00080919B03833018F48F5F80939B036091F6
:101CF0009703709198038091990390919A030C94A3
:101D00004D0EE7E9F3E083E0808311828FEF828359
:101D100080EC83831482A4E3B3E012968C91129733
:101D2000836012968C9360817181828193810C947F
:101D30004D0E1092110380912301ECE9F1E088230C
:101D400059F080912B0387FF07C08EE1DF011D92C0
:101D50008A95E9F70C94A40786E0F8CF1F93CF93F8
:101D6000DF93CDB7DEB7AA970FB6F894DEBF0FBEEC
:101D7000CDBF88E893E02091F100DC012D93CD01E7
:101D8000B3E080399B07B9F780918903833009F468
:101D900071C0B8F4813009F448C0823009F4B2C08F
:101DA0008091E80083FF3AC1809188039091890374
:101DB0009A3008F033C1E92FF0E0E653F44D0C946B
:101DC0005C2B8A3009F48DC08B3009F470C08930E7
:101DD00039F780918803813219F780918C039091B3
:101DE0008D03009711F00297D9F68091E800877F64
:101DF0008093E8008091E80082FF37C09091F30063
:101E00008091F200029729F48091F1008B7F81305C
:101E100021F48091F100809363038091E8008B7737
:101E20008093E8000E943904BBCF80918803813AF7
:101E300009F0B6CF8091E800877F8093E800809119
:101E40008C0390918D03892B61F460E284E693E02A
:101E500070E00E94EB048091E8008B778093E800AB
:101E60009FCF60E090E080E0F3CF80918603811106
:101E7000C1CF96CF80918803813A09F091CF8091AC
:101E80008C0390918D03892B09F08ACF8091E80013
:101E9000877F8093E8008091E80080FFFCCF8091ED
:101EA00023018093F1008091E8008E77B9CF809173
:101EB0008803813209F074CF80918C0390918D0357
:101EC000892B09F06DCF8091E800877F8093E8002F
:101ED0000E94390480918A03809323010E94990E05
:101EE0005FCF80918803813209F05ACF8091E8005A
:101EF000877F8093E8000E94390480918B03809350
:101F000062034ECF80918803813A09F049CF8091D6
:101F1000E800877F8093E8008091E80080FFFCCF95
:101F200080916203BECF803899F0823809F076C084
:101F300080918C038F70873008F070C08093E90027
:101F40008091EB0085FB882780F91092E90006C09C
:101F50008091840390918503911182609091E800B3
:101F6000977F9093E8008093F1001092F1008091A8
:101F7000E8008E77B5C1882309F4A2C1823009F048
:101F80004DC080918A038111A6C180918C038F700E
:101F90002FEF280F263008F041C08093E9002091F0
:101FA000EB0020FF98C1933031F48091EB00806208
:101FB0008093EB0090C19091EB0090619093EB00C7
:101FC00021E030E001C0220F8A95EAF72093EA0071
:101FD0001092EA008091EB008860EACF81111EC068
:101FE00010918A031F778091E3008078812B809382
:101FF000E3008091E800877F8093E8000E94390425
:102000008091E80080FFFCCF8091E300806880939E
:10201000E30082E0111183E0809386038091E80061
:1020200083FF0AC08091E800877F8093E800809159
:10203000EB0080628093EB00AA960FB6F894DEBFA7
:102040000FBECDBFDF91CF911F9108958058823090
:1020500028F720918A0330918B032C3DE3E03E0763
:10206000A1F583E08A838AE289834FB7F894DE0181
:10207000139620E03EE051E2E32FF0E0509357004A
:10208000E49120FF03C0E295EF703F5FEF708E2F69
:1020900090E0EA30C0F0C7968D939D932F5F243176
:1020A00059F74FBF8091E800877F8093E8006AE28C
:1020B00070E0CE0101960E94EB048091E8008B77DE
:1020C0008093E800ABCFC096E7CF80918C039091CE
:1020D0008D03432F55274330510509F44AC078F545
:1020E0004130510509F47AC08BE590E0E9E4F6E06F
:1020F0004230510509F092CF2091E800277F2093CC
:10210000E80020918E0330918F038217930708F423
:102110009C0140E02115310509F065C0411163C003
:102120008091E80082FDC9CF80918603882329F23F
:10213000853019F28091E80083FFF2CFBECF4132A3
:10214000510509F43CC04232510509F067CF833094
:10215000910508F063CFFC01EE0FFF1FE557FE4F1E
:102160000190F081E02D88579E4FDC018C9190E02A
:102170001AC0332721303105D1F02115310561F026
:102180002230310509F04ACFE6EBF6E0E4918E2FDC
:1021900090E0E6EBF6E007C0E8EEF6E0E4918E2F83
:1021A00090E0E8EEF6E0009709F438CFA5CFE6ED31
:1021B000F6E0E4918E2F90E0E6EDF6E0F4CF833088
:1021C000910508F02BCF880F991FFC01EF56FE4FA9
:1021D0000190F081E02D89E090E08ECF82E190E0E7
:1021E000E4EAF6E089CF80918603882309F465CF7D
:1021F000853009F462CF8091E80083FD5ECF809145
:10220000E80082FD8DCF8091E80080FF83CF909120
:10221000F3008091F2002115310519F08830910505
:1022200050F041E0089709F040E08091E8008E7797
:102230008093E8006FCF44914093F1003196215094
:1022400031090196E8CF803809F0E8CE8091E800A6
:10225000877F8093E800809187038093F10087CE89
:102260008111DCCE10918A03123008F0D7CE809114
:10227000E800877F8093E800109387030E94390469
:10228000112311F084E005C08091E30087FDFACFAF
:1022900081E08093860342E061EC81E00E94580473
:1022A00042E261EC84E00E94580442E261EC82E088
:1022B0000E94580442E260EC83E00E945804AECED3
:1022C00080918A03813009F0A9CE81E0933009F032
:1022D00080E0809385031092E9008091E800877F79
:1022E0008093E8000E94390499CE4F925F926F92DA
:1022F0007F928F929F92AF92BF92CF92DF92EF9296
:10230000FF920F931F93CF93DF93CDB7DEB7CE5DD0
:10231000D1090FB6F894DEBF0FBECDBF50900101BA
:102320008091970380FF5DC080902F0390903003D1
:102330008114910409F068C0EFE0F3E09E012F5F83
:102340003F4FBE0161527F4FC901A4914A2F50E017
:10235000DA01AA0FBB1FA40FB51FA154BE4FCD9029
:10236000DD90EC90D901CD92DD92ED929D013196F8
:102370006A177B0751F72091000143E0249F800DED
:10238000911D1124539A2BB1277F3BB138605FB761
:10239000F894BC01549E600D711D11248617970797
:1023A00009F090C05FBF8FE594E00197F1F700C09E
:1023B0000000C252DF4F0FB6F894DEBF0FBECDBF94
:1023C000DF91CF911F910F91FF90EF90DF90CF9011
:1023D000BF90AF909F908F907F906F905F904F9045
:1023E0000895809102019091030123E0829FF00102
:1023F0001124E154FE4F891708F096CF1182108204
:1024000012828F5F3396F7CF80913903811194CF79
:10241000D12CC12C66246394712C53E0452E8091FD
:10242000370393010C2C01C0220F0A94EAF7822390
:1024300009F43FC0F601EE0FFF1FE80DF91DE5900E
:10244000F490E114F10409F477CF45E050E0B701CE
:10245000CE0101960E94692B09810F3F51F18A81BB
:10246000800F9927991F8B34910514F08AE490E02E
:102470005C01AA0CBB1C8A0D9B1DDC01A154BE4F44
:102480005D01049D8001112401541E4F0A151B0596
:1024900020F0B5E0EB0EF11CD8CF4D81413C08F0A7
:1024A00040EC98016C818B810E94E7060D5F1F4F05
:1024B000EDCFEFEFCE1ADE0AF8E0CF16D10409F027
:1024C000AECF3ACFFC014191CF01E8E03BB900002B
:1024D00000C047FF2BB9440F000000C000C000C07F
:1024E0002BB900C0EA9591F759CFAF92BF92CF9226
:1024F000DF92EF92FF920F931F93CF93DF9300D061
:102500000F92CDB7DEB7082FF62E142FE22E809152
:10251000970380FF4FC0E82FE695AE2FB0E0A55C93
:10252000BE4F9C91909334038E7F823009F056C049
:10253000413C08F040EC9E012F5F3F4F6F2D802FF4
:102540000E94E7068091970380FF11C02B8139819B
:102550004A81809102019091030153E0859FF0012F
:102560001124E154FE4F891798F10E947511809152
:102570009803801308C0809199038F1104C0809143
:102580009A03811729F08091360382608093360385
:1025900000939803F092990310939A03EE2051F060
:1025A00060919703709198038091990390919A0399
:1025B0000E944D0E0F900F900F90DF91CF911F91C1
:1025C0000F91FF90EF90DF90CF90BF90AF90089564
:1025D0004183308322838F5F3396C5CF923039F6A3
:1025E000E2508E2F8170D82EE695F0E0E65FFC4F2A
:1025F000A590B490C12CBB2460910401C61608F0CC
:10260000B4CF2C2D30E0A29EC001A39E900DB29EAF
:10261000900D112470E00E94342B802FD11016C031
:10262000860F40910201420F532F511D9A01220F34
:10263000331F240F351F21543E4F412F113C08F00A
:1026400040EC6F2D0E94E706C394D6CF861BE9CFDE
:1026500020E00C9475129091970390FF26C0917022
:1026600081111CC092609093970380913603816022
:1026700080933603662351F060919703709198031D
:102680008091990390919A030E944D0E40919A0374
:1026900060919903809198030C9428138C3010F06A
:1026A0009661E1CF880F982BDECF089521E030E0CE
:1026B000A90102C0440F551F8A95E2F7CA01209173
:1026C00037036623C1F0822B809337038091360352
:1026D00080618093360380913503811106C080911B
:1026E000970360E086950E942B138091970380FDED
:1026F00005C00C94751180958223E6CF0895CF9381
:10270000DF93C82FC17082FBDD27D0F981FB6627DC
:1027100060F984E00E94561361E06C2785E00E9416
:1027200056136D2F86E0DF91CF910C945613E7E995
:10273000F3E080818160808360E086950C942B13A8
:10274000809197038695815009F48BE061E00C94A9
:102750002B138091970386958F5F8C3008F081E072
:1027600061E00C942B138091970380FF07C086953E
:1027700082588F77893010F40C94A91361E082E0BD
:102780000C942B13CF92DF92EF92FF920F931F9333
:102790006B017C0161E0C114D104E104F10409F092
:1027A0006C2D617080E00E94561360E0C114D1046A
:1027B000E104F10441F0D701C601B695A7959795BC
:1027C0008795682F617081E00E94561360E0C11404
:1027D000D104E104F10459F0D701C60102E0B69535
:1027E000A795979587950A95D1F7682F617082E034
:1027F0000E94561360E0C114D104E104F10459F0C1
:10280000D701C60113E0B695A795979587951A95B8
:10281000D1F7682F617083E00E945613A7016627E5
:10282000772780E1411551056105710519F4B7015C
:10283000A60180E0052F162F272F3327011511053C
:102840002105310519F0885FB901A8018A019B01B2
:10285000F4E03695279517950795FA95D1F7011568
:1028600011052105310519F08C5FB901A8018A0114
:102870009B01E2E03695279517950795EA95D1F7E4
:10288000011511052105310519F08E5FB901A80167
:102890007695679557954795452B462B472B09F01D
:1028A0008F5F8130E1F0882351F08230F1F0833086
:1028B00011F10E94971340E56FEF80E405C00E947C
:1028C000971340E56FEF82E30E942813C701B6011A
:1028D0001F910F91FF90EF90DF90CF9008950E948D
:1028E000971340E56FEF88E0EFCF0E94971340E524
:1028F0006FEF86E7E9CF0E94971340E56FEF8AED0F
:10290000E3CF0E94C213609390037093910380936E
:102910009203909393030C94A4070F931F936091D9
:1029200090037091910380919203909193038B0196
:102930009C01067011272227332706301105210537
:10294000310529F468601F910F910C948114677F01
:10295000FACF0F931F9341E050E060E070E004C0B5
:10296000440F551F661F771F8A95D2F7CB01BA0116
:1029700060957095809590950091900310919103CA
:102980002091920330919303602371238223932338
:102990001F910F910C94811490910E0380958923BF
:1029A00080930E03282F277071F4282F082E000C17
:1029B000330B9217130639F08595859585950E94FE
:1029C000A91410920E0308950F931F9341E050E055
:1029D00060E070E004C0440F551F661F771F8A95A2
:1029E000D2F78091900390919103A0919203B091BE
:1029F00093038A019B01082B192B2A2B3B2BC9011E
:102A0000B8011F910F910C9481143F924F925F92E5
:102A10006F927F928F929F92AF92BF92CF92DF92EE
:102A2000EF92FF920F931F93CF93DF9300D000D0CC
:102A30000F92CDB7DEB78C01FC0183819481892B85
:102A400031F08081918189238F3F09F077C60F9003
:102A50000F900F900F900F90DF91CF911F910F91DA
:102A6000FF90EF90DF90CF90BF90AF909F908F90AE
:102A70007F906F905F904F903F9008950E94B40BAD
:102A8000F82E682F89819A810E94470669817A8190
:102A90008F2D0E941D0A7C01F8018281882309F490
:102AA00040C6970122513F452031310508F001C64B
:102AB0008FEF93E00E94722BFEEEEF0E56E5852E0F
:102AC00052E0952E882381F180910E03877009F4DE
:102AD000BECFF8018281882309F4B9CF82E00F903C
:102AE0000F900F900F900F90DF91CF911F910F914A
:102AF000FF90EF90DF90CF90BF90AF909F908F901E
:102B00007F906F905F904F903F900C94CC14811405
:102B100024E09206C9F2C4010E94722B811101C007
:102B2000EA943FEF831A930AE110F1CF1C821B82D3
:102B3000442443944AE0342E74018FEFE81AF80AD3
:102B4000C4010E94722B89831A82882309F4BCCFA6
:102B50009FEF980F933000F58A83498292E0890EA7
:102B6000911CC7010E94722B8B83882309F4ACCF80
:102B7000FE0131967F01F70120812223E9F2213005
:102B800009F049C091818281913041F4F2E0EF0E69
:102B9000F11C0E94480D09C04701EACF923049F468
:102BA00022E0E20EF11C0E9419093FEFE31AF30A3A
:102BB000E2CF933031F432E0E30EF11C0E9444087E
:102BC000F4CF943021F08FEFE81AF80AEECF92E0BC
:102BD000E90EF11C30E020E0B7016F5F7F4FF70195
:102BE00041818053990B8A30910550F02150310971
:102BF000E0F28FE99FE00197F1F700C00000F6CF07
:102C0000329EF001339EF00D11249C012E0F3F1FC8
:102C1000842F7B01E1CFE22FF0E0E754FA4F54908C
:102C2000822F86958695869590E0FC01E755FA4FB0
:102C300064902770712C022E02C0759467940A94D8
:102C4000E2F7E1E06E227724FC01E756FA4FA49008
:102C5000B12C022E02C0B594A7940A94E2F7F1E0D9
:102C6000AF22BB24FC01E757FA4FC490D12C02C01D
:102C7000D594C7942A95E2F721E0C222DD2461149D
:102C8000710419F081EE0E941909A114B10419F020
:102C900086EE0E941909852D0E94480DAB2819F077
:102CA00086EE0E944408672819F081EE0E944408CD
:102CB000CD2809F47ACF8CE26CCF81E00E94E41435
:102CC0000E948D1401CF81E00E94A914F9CF82E007
:102CD000F5CF22E8E2162FE5F20609F4A6C033E8A4
:102CE000E3163FE5F30609F0FEC4882309F4B6C0F5
:102CF0008091A302811109C081E08093A30281EE3B
:102D00000E94190983EE0E9419090E946905909397
:102D1000A2028093A10281EE0E94190980E513C0EE
:102D2000882369F18091A602811106C081E0809319
:102D3000A60282EE0E9419090E9469059093A502DD
:102D40008093A4028BE20E9419091CC08823A1F081
:102D50008091A602811106C081E08093A60282EED6
:102D60000E9419090E9469059093A5028093A4020C
:102D700081EE0E941909E6CF81EE0E9444088BE2A1
:102D80000E944408F8019281992309F4E8C4109242
:102D90009603F2E0EF16FCE5FF0608F47CC126E19D
:102DA000E2162CE5F20638F097012A5F3C452930FF
:102DB000310508F070C10E94E90990932C038093BB
:102DC0002B0330E1E3163CE5F30609F433C108F0C8
:102DD000B2C098E0E9169CE5F90609F421C108F0B3
:102DE0007BC0F4E0EF16FCE5FF0609F411C108F022
:102DF0005DC032E0E3163CE5F30609F4FFC083E072
:102E0000E8168CE5F80609F4FFC060912B03F090FA
:102E10002C0384E090E00E94862B6F2D81E290E0ED
:102E20000E94862B0E94990E4FCE8823A9F0809194
:102E3000A302811109C081E08093A30281EE0E9468
:102E4000190983EE0E9419090E9469059093A20254
:102E50008093A1028FE477CF8FE492CF80E590CF6B
:102E600035EFE3163CE5F306D1F0A8F027E245EE96
:102E700066EE96EFE9169CE5F90609F083CFC801E6
:102E80000E94630D21CE27E245EE65EEF8CF26E2E3
:102E900041EE60EEF4CF27E245EE64EEF0CF26E29D
:102EA00041EE62EEECCF28E241E0EFCF80912B03C0
:102EB000806196E0E9169CE5F90609F4A2C08091CC
:102EC0002B038860E7E0EE16ECE5FE0608F499C0F7
:102ED00080912B03806295C080912B038D7FFCE055
:102EE000EF16FCE5FF0609F48CC078F480912B0303
:102EF0008C603AE0E3163CE5F30609F482C008F47E
:102F000093C080912B038E7F7CC080912B03877FA1
:102F10009EE0E9169CE5F90609F473C080912B0345
:102F20008B7FEFE0EE16ECE5FE0608F46AC08091B8
:102F30002B038F7E66C0FBEFEF16FCE5FF0609F45E
:102F40006BC068F533E1E3163CE5F30609F47AC09B
:102F500090F491E1E9169CE5F90609F46FC0E2E10D
:102F6000EE16ECE5FE0609F050CF0E94990E809116
:102F70002B038F7746C0F5E1EF16FCE5FF0609F459
:102F800069C008F47DC080912C0381603AEFE3169C
:102F90003CE5F30609F039CF80932C0336CF8FEF51
:102FA000E8168CE5F80609F451C0A0F480912C03D2
:102FB0008D7FEDEFEE16ECE5FE0671F380912C03AC
:102FC0008E7FFEEFEF16FCE5FF0630F380912C03B9
:102FD0008360E2CF21E0E2162DE5F20609F459C044
:102FE00008F444C060E082E0E8168DE5F80609F0D8
:102FF0000CCF8EE090E00E94862B07CF80912B03B0
:10300000816080932B0301CF80912B038260F9CFE5
:1030100080912B038460F5CF80912C038260BCCF1C
:1030200080912B038064EDCF0E94990E80912B0339
:103030008068E7CF80912B038F7DE3CF80912B03B6
:103040008F7BDFCF80912B03837FDBCF80912C039D
:103050008C7FA2CF80912B0382FB992790F921E0EE
:10306000922790FB82F990FB83F9CBCF80912C03C0
:10307000982F909591708E7F892B90FB81F98CCF42
:103080000E94990E90912B03892F97FB87F9805806
:10309000B8CF61E0AECFE6E1EE16ECE5FE0609F052
:1030A00071C3809111038A7A91E009F490E09093C2
:1030B000A70269E2811165E38AE991E00E949F0518
:1030C0000E94DA0501CD8091A70269E2811165E3D2
:1030D0008AE991E00E947505F3CF8091970380FF04
:1030E0001EC08E7F80939703609197037091980321
:1030F0008091990390919A030E944D0E809136031E
:10310000816080933603FFEF20E732E0F1502040EA
:103110003040E1F700C000000E947511D5CC8160FD
:103120008093970361E086950E942B13CDCC40EAF3
:1031300053E169EA73E10E94CC06C6CC49EA53E147
:1031400060EA73E1F8CF4BE45FE164E57FE1F3CF40
:1031500044E55FE16BE47FE1EECF43E35FE16FE3E2
:103160007FE1E9CF4FE35FE163E37FE1E4CF4BE150
:103170005FE167E27FE1DFCF47E25FE16BE17FE1A3
:10318000DACF4FE55EE060E77EE0D5CF40E75EE076
:103190006FE57EE0D0CF61E081E0C6CF0E94B3133F
:1031A00093CC0E94990E8FEF94E3ECE08150904015
:1031B000E040E1F700C000000E94240D0E94E30DF2
:1031C00083CCC7010E941F06D82EF5C22F2D2F7069
:1031D000C22E8F2D807F19F0C29490EFC922AA20B1
:1031E000C9F0CC2069F080E28B0D883010F081109E
:1031F0000BC080911103C82AC09211030E94DA0506
:103200008B2D0E94190919C080911003C82AC09201
:103210001003F4CF8B2D0E944408CC2071F0C09491
:1032200080E28B0D883010F081103FC08091110337
:10323000C822C09211030E94DA052D2D2850330BAD
:103240002430310520F40E94C0060E947F13EE2036
:1032500009F4FDCB80910E0380FDF9CBF8011282B9
:103260008595859585950E94E414C8010E940515F1
:1032700080910E038595859585950F900F900F9001
:103280000F900F90DF91CF911F910F91FF90EF90D2
:10329000DF90CF90BF90AF909F908F907F906F9076
:1032A0005F904F903F900C94A91480911003C82216
:1032B000C0921003C0CF3F2D3F70C32E8F2D807F53
:1032C000803219F0C29480EFC822882071F081E02A
:1032D000881661F1AA20B9F1992071F1F801858170
:1032E00080FF8ECF8F70858327C0AA2091F09091A8
:1032F00012038C2D892B911003C00E9488069DCF4C
:10330000E1E09E12FACF981709F497CF8093120349
:1033100094CF911006C00E94D4058C2D0E947D068A
:103320008CCFF1E09F1609F488CFF5CFAA2031F0B9
:1033300025E0291508F481CF8C2DDFCF34E0391535
:1033400008F47BCFEACF992041F3F9E38F12A9C1AA
:103350002FEF37EE83E0215030408040E1F700C08E
:1033600000008B2D0E94440868CF8F2D869586958E
:10337000837069F0813009F060CF8B2D9F2D9370A1
:10338000A11002C090E080E00E94940656CF8B2DE1
:103390009F2D9370A11002C090E080E00E94AA06C9
:1033A0004CCF8B2DAA2029F00E94BF080E947D07D8
:1033B00044CF0E94CB07FACF8F2D837009F06DC0E8
:1033C000A1103BCF8B2D829586958770880F880F33
:1033D0006B2D6F70462E512C712C612C082E04C061
:1033E000440C551C661C771C0A94D2F740E050E050
:1033F000BA01B4FE0FC04FE050E060E070E004C0DE
:10340000440F551F661F771F8A95D2F74095509538
:10341000609570958F2D869586958370823019F111
:10342000A8F58090130390901403A0901503B0901A
:103430001603813069F04429552966297729CB0183
:10344000BA01682179218A219B210E94C107F5CE0A
:1034500084289528A628B728CB01BA01682979299C
:103460008A299B29F2CF44295529662977298090FA
:10347000130390901403A0901503B0901603CB0192
:10348000BA01682579258A259B25DFCFCB01BA01B2
:103490006429752986299729D8CF8695AA2011F005
:1034A0008F2D8170882309F4C8CE8B2D8295869547
:1034B0008770880F880F6B2D6F70462E512C712CE2
:1034C000612C082E04C0440C551C661C771C0A9401
:1034D000D2F740E050E0BA01B4FE0FC04FE050E038
:1034E00060E070E004C0440F551F661F771F8A9587
:1034F000D2F740955095609570958F2D869586955D
:103500008370823019F1A8F5809090039090910318
:10351000A0909203B0909303813069F0442955291B
:1035200066297729CB01BA01682179218A219B215B
:103530000E94811482CE84289528A628B728CB0122
:10354000BA01682979298A299B29F2CF442955296A
:10355000662977298090900390909103A090920320
:10356000B0909303CB01BA01682579258A259B2564
:10357000DFCFCB01BA016429752986299729D8CFD5
:10358000FF2DFF70FF2EAA2029F08F2F0E94E41438
:103590008B2DB3CE8B2D0E947D068F2D0E94A914FA
:1035A0004CCE8B2D22EF821609F452C0281578F0EC
:1035B00030EF831621F191EF891609F441C0AA205A
:1035C00009F46AC091101CCE8F2D8F713EC0E3EFBD
:1035D0008E1609F442C0F4EF8F12F1CFAA2009F43D
:1035E00050C08F2D8F71F82E0E94E414E8E0FE9EEB
:1035F000C0011124836080930E038F2D26C0AA2062
:10360000D1F024E0291508F418CE2F2D2F7161E098
:1036100070E080E090E004C0660F771F881F991F5C
:103620002A95D2F78090900390909103A0909203F6
:10363000B090930399CF35E0391508F4FECDE5CF6E
:103640008F2D8F71AA2009F4A9CF0E94E414F5CD23
:103650008F2D8F71AA20C9F3A1CF60E070E0CB015C
:10366000AA2009F465CF2F2D2F7161E070E080E072
:1036700090E004C0660F771F881F991F2A95D2F724
:1036800057CF81E00E94CC14F1E0F91508F0D5CDB8
:1036900082E00E94CC14D1CD992041F0893309F405
:1036A00057CEEFE3FCE93197F1F759CE8F2D8F71AB
:1036B00075CFF0E1EF16FFE5FF0609F4FECA21E140
:1036C000E2162FE5F20609F402CB91E8E9169FE530
:1036D000F90609F43BCB08F0FCCAF0E8EF16FFE569
:1036E000FF0609F41DCB83EFE8168CE5F80609F414
:1036F000CECB08F0B5CBE8EDEE16ECE5FE0609F40E
:10370000C2CBF9EDEF16FCE5FF0609F4CCCB27EDB3
:10371000E2162CE5F20609F035CB26E241EE61EE29
:10372000AECB30E1E3163FE5F30609F4CCCA91E1F4
:10373000E9169FE5F90649F682E0C6CA85E0DE0192
:10374000119601900D928A95E1F7F8012281898105
:103750009A81211193C90E941F06F82E97C9F6E19C
:10376000EF16FCE5FF0609F4AECC809111038272DE
:10377000F701E25CFC45E431F10578F4EC52F44DDC
:103780000C945C2BE1142CE5F20609F40ACD3EED15
:10379000E3163CE5F30609F411CDF801E080F18071
:1037A000992309F40ECDC7010E94B40BD82E682FBF
:1037B000C7010E944706B7018D2D0E942A0AB82E24
:1037C000F92E882EF801A280958092943FE09322F2
:1037D00080910E038770A1F0EA2CAA2091F0892F26
:1037E000807F803421F080E28B0D883048F082E0C9
:1037F0000E94CC1480910E038770EE24E394811113
:10380000E12CDF2CD2942FE0D222FBE0FD1508F44E
:1038100014CDED2DF0E0E851F44D0C945C2B1F938A
:10382000CF93DF938091AE02807FA9F48091AB02A9
:10383000882389F08091E002D091AF026091A902C3
:103840007091AA02A091AC02B091AD02C62FC7231D
:1038500016E0D81304C0DF91CF911F91089590E036
:10386000109711F0CF3F19F401968770F2CF189F8F
:103870009001199F300D1124F901E055FD4F418150
:103880004713F2CF40814613EFCF42814111ECCF75
:10389000438154814A1B5B0B4436510528F78091C4
:1038A000AE028F7080618093AE02F901EB54FD4F40
:1038B00080818F708061808389EA92E00E94051583
:1038C000DF91CF911F910C947306AF92BF92CF926C
:1038D000DF92EF92FF920F931F93CF93DF93CDB7B9
:1038E000DEB761970FB6F894DEBF0FBECDBF8C0177
:1038F00085E0F801DE011D9601900D928A95E1F7B1
:10390000F80180819181E28029EAA22E22E0B22E84
:103910006091AC027091AD026115710509F43EC170
:103920003091A9024091AA02232F24232F3F09F4AA
:1039300035C1C380D480F090AB02F601E61BF70BD3
:10394000FF2009F4FBC02091AE02522F507FE436D5
:10395000F10508F0BBC0511178C0FE2C491321C0FD
:1039600038131FC0E1101DC02F7020612093AE02DC
:10397000C5010E9405158091AE02F80185838F2D47
:1039800061960FB6F894DEBF0FBECDBFDF91CF9129
:103990001F910F91FF90EF90DF90CF90BF90AF906D
:1039A0000895CD2829F0282F29232F3F09F014C18D
:1039B00020E0F22FF170DF2E20FF3DC02091E002C9
:1039C0004091AF0256E0241315C08D879E878D85E8
:1039D0009E850E94F60B292F22952F702230F8F039
:1039E000243020F59F70F9F0F8019581907FD9F48B
:1039F000D12C1FC030E0529FF001539FF00D1124D5
:103A0000E055FD4F6181961306C06081861303C0A7
:103A10006281E61210C02F5F3F4F2770D4CF9F7096
:103A200011F0882329F3805E883010F3C8010E94CA
:103A30000515FD2CA4CFEE2009F4A1CF8091AE0294
:103A400081608093AE02F12C9ACF491312C03813D3
:103A500010C0E1100EC0F8012583C8010E940515B1
:103A600086E0F801A9EAB2E001900D928A95E1F7AB
:103A700086CF8D879E878D859E850E94000C88232A
:103A800009F1EE20F9F08091AE02803270F02091C1
:103A9000A9023091AA0238872F831986DB86CA864D
:103AA0008C87CE0107960E94051586E0F801A9EAE9
:103AB000B2E001900D928A95E1F70E940F1CFF245D
:103AC000F3945DCFC8010E940515F9CF51110AC0CA
:103AD00089EA92E00E94051586E0F50111928A9527
:103AE000E9F7B1CF49130FC038130DC0E1100BC077
:103AF000F8012583C8010E94051586E0F5011192A1
:103B00008A95E9F73CCF8D879E878D859E850E949B
:103B1000000C8823B9F2EE20A9F28091AE02803227
:103B200020F22091A9023091AA023A8329831B82B4
:103B3000DD82CC828E83CE010196B5CFE436F105CD
:103B4000E0F6FE2CEE2009F4BDCF491316C0381361
:103B500014C08091AE0280FD83CF982F907F09F42E
:103B60007FCFF8018583903F09F477CF982F907F1E
:103B7000905F8F70892B858370CF8D879E878D8511
:103B80009E850E94000C811190CF8091AE028160D1
:103B90008093AE02C8010E940515F1CEEE2009F413
:103BA00091CF8D879E878D859E850E94000CF82E73
:103BB000882309F487CF86E0F801A9EAB2E00190F2
:103BC0000D928A95E1F78091A9029091AA020E9434
:103BD000F60B0E940F1CD3CE21E02E25EACE1F93B8
:103BE000CF93DF93CDB7DEB767970FB6F894DEBFFC
:103BF0000FBECDBF342F4B8B252F5C8B6D8B7E8BF7
:103C00008F8B8E899F896111109210031A8A198AED
:103C10003D872E876F87998B888B86E0FE013D96C6
:103C2000DE01179601900D928A95E1F7CE01079675
:103C30000E94651C882389F016E08091E002909133
:103C4000AF02891349C067960FB6F894DEBF0FBE66
:103C5000CDBFDF91CF911F91089586E0FE01379689
:103C6000DE01119601900D928A95E1F78A859B8578
:103C7000892B11F38F81988589238F3FE9F2209159
:103C8000AF0230E0C9010196877099274091E002A8
:103C90004817190671F40E94990E1092AF02109203
:103CA000E00286E0E9EAF2E0DF011D928A95E9F799
:103CB000C3CF96E0929FD001939FB00D1124A055E1
:103CC000BD4FFE01319601900D929A95E1F78093D8
:103CD000AF020E947306B0CF819FC00111248055AE
:103CE0009D4F0E94651C882309F4ADCF8091E002AE
:103CF00090E00196877099278093E0029ECF0F9302
:103D00001F93CF93DF93CDB7DEB7A8970FB6F89484
:103D1000DEBF0FBECDBF81114DC006E0662359F155
:103D20000CA311E01DA31EA30E9469058160782FDA
:103D300098A78FA34CA15DA16EA188A50E94EF1D3D
:103D40000F8F18A319A20E9469058160782F9BA389
:103D50008AA34F8D58A169A18BA10E94EF1D81E01C
:103D6000A8960FB6F894DEBF0FBECDBFDF91CF91FE
:103D70001F910F9108950A8F13E01B8F81E08C8FA4
:103D80000E9469058160782F9E8F8D8F4A8D5B8D93
:103D90006C8D8E8D0E94EF1D0D8B1E8B1F8A0E94D5
:103DA00069058160782F998F888F4D895E896F8929
:103DB000898DD3CF813099F66623F1F016E0188B08
:103DC000198B8A8B0E9469058160782F9C8B8B8B65
:103DD000488959896A898C890E94EF1D1B871C8735
:103DE0001D860E9469058160782F9F878E874B858D
:103DF0005C856D858F85B1CF06E00E8318E01F834B
:103E000088870E9469058160782F9A8789874E810B
:103E10005F8168858A850E94EF1D09831A831B8252
:103E20000E9469058160782F9D838C8349815A8126
:103E30006B818D8192CFE7E9F3E0438121E1421B61
:103E400008F440E021E0628181810C947512E7E979
:103E5000F3E0438121E1420F08F44FEF21E062815A
:103E600081810C947512E7E9F3E0628121E1621B24
:103E700008F460E021E0438181810C947512E7E948
:103E8000F3E0628121E1620F08F46FEF21E04381EA
:103E900081810C947512E7E9F3E0818121E043818F
:103EA000628188500C947512E7E9F3E0818121E08A
:103EB00043816281885F0C947512E7E9F3E08081A9
:103EC0008E7F8083E4E3F3E08281816082832FEF41
:103ED00080E792E0215080409040E1F700C0000070
:103EE0000C9475118F929F92AF92BF92CF92DF92F6
:103EF000EF92FF920F931F93CF93DF9300D000D0E8
:103F00000F92CDB7DEB70CE011E08FE1C82E83E051
:103F1000D82E4601F12CAA24A394B12CD8018D915E
:103F20008D01F894E82FE295EF70F0E021A18F70F9
:103F3000A50102C0440F551F8A95E2F7CA01922FCE
:103F4000982B91A392A18095892382A3789400C095
:103F5000E5E0F1E030E020E0E12C4191A42FA295D2
:103F6000AF70B0E090968C9190E04F7002C0959544
:103F700087954A95E2F780FD48C08A2D022E01C040
:103F8000880F0A94EAF7E82A2F5F3F4F2730310560
:103F900021F7F801319780810E948F0950EA5A95E4
:103FA000F1F7D4018C91E81691F1EC9281E0F82AB6
:103FB000BFEF8B1A9B0AE1E001311E0709F0AECF7B
:103FC00010912A03FF2029F181E08093BC010E9417
:103FD00069059093BB018093BA018091BA019091D9
:103FE000BB010E944E050697C0F0E12FF0E0E95AB0
:103FF000FC4FD6018D916D018193B4E2CB16B3E0F5
:10400000DB06B9F71092BC0108C080E0BCCF80E0AD
:10401000CECF8091BC018111E0CF0E94C70DE82E68
:1040200060912A03882309F480C08E010F5F1F4F1F
:1040300085E0F80111928A95E9F7862F90E0B801A2
:10404000895A9C4F0E941F29811152C08091BD0145
:104050008F5F8093BD01863008F465C0E09129032D
:10406000F0E0E95AFC4FD801CE01069611921D925C
:104070008A179B07D9F78091A602882371F0809157
:10408000A4029091A5020E944E05893E934028F01B
:1040900082EE0E9444081092A6028091A302882317
:1040A00089F08091A1029091A2020E944E05893E62
:1040B000934040F081EE0E94440883EE0E94440841
:1040C0001092A302F11001C0FE2C8F2D0F900F90C3
:1040D0000F900F900F90DF91CF911F910F91FF9054
:1040E000EF90DF90CF90BF90AF909F908F9008950A
:1040F0001092BD01A0912903B0E0A95ABC4F9E01C6
:104100002A5F3F4FE12C4D91F80191918F014917A2
:1041100031F0AD0141505109FA019083E82E0217A8
:10412000130789F7A8CFE12CA6CF70E0695A7C4F1E
:104130008091290390E0895A9C4F0E944E29C2CF5A
:104140001F920F920FB60F9211242F933F934F930C
:104150005F936F937F938F939F93AF93BF93CF930F
:10416000DF93EF93FF93D091E900DF708091EC0033
:10417000C82FC17080FDC0E81092E9008091F00066
:10418000877F8093F00078940E94AE0E1092E90031
:104190008091F00088608093F000CD2BCF70C093A9
:1041A000E900FF91EF91DF91CF91BF91AF919F9186
:1041B0008F917F916F915F914F913F912F910F90D0
:1041C0000FBE0F901F9018951F920F920FB60F926F
:1041D00011242F933F934F935F936F937F938F930C
:1041E0009F93AF93BF93EF93FF938091E10082FF82
:1041F00009C08091E20082FF05C08091E1008B7FC1
:104200008093E1008091DA0080FF24C08091D80083
:1042100080FF20C08091DA008E7F8093DA00809149
:10422000D90080FF9BC080E189BD82E189BD09B4CE
:1042300000FEFDCF81E080938603809161038111B0
:1042400009C00E94BF030E948A048091E20084603A
:104250008093E2008091E10080FF17C08091E2002E
:1042600080FF13C08091E2008E7F8093E2008091F6
:10427000E20080618093E2008091D80080628093A8
:10428000D80019BC85E0809386038091E10084FF0B
:1042900029C08091E20084FF25C080E189BD82E1D0
:1042A00089BD89B5982F917080FFFBCF8091D80090
:1042B0008F7D8093D8008091E1008F7E8093E10014
:1042C0008091E2008F7E8093E2008091E200816025
:1042D0008093E20080918703882309F445C084E03D
:1042E000809386038091E10083FF27C08091E200E4
:1042F00083FF23C08091E100877F8093E10082E00B
:1043000080938603109287038091E1008E7F8093D3
:10431000E1008091E2008E7F8093E2008091E200D4
:1043200080618093E20042E060E080E00E945804F7
:104330008091F00088608093F000FF91EF91BF9131
:10434000AF919F918F917F916F915F914F913F912D
:104350002F910F900FBE0F901F90189519BC1092BF
:1043600086031092610376CF8091E30087FD93E08E
:1043700090938603B7CFCDB7DEB7AC970FB6F8945E
:10438000DEBF0FBECDBF84B7877F84BF0FB6F89462
:10439000A895809160008861809360001092600011
:1043A0000FBE80E890E00FB6F89480936100909380
:1043B00061000FBE85B7806885BF85B7806885BFFF
:1043C00089E495E090939901809398010E94BF033E
:1043D0000E948A048091E20084608093E2007894D5
:1043E000809186038823A1F01091E9001F709091BD
:1043F000EC00892F817090FD80E8182B1092E90065
:104400008091E80083FD0E94AE0E1F701093E900BA
:1044100082E084BD93E095BD9AEF97BD80936E00D6
:1044200010921B0310921C0310921D0310921E0386
:104430000E94C70D8093160180911601882309F40C
:1044400094C01092000185E2809301010E94C70D83
:1044500081110E94F6288091160181112FC0FE0162
:10446000359686E0DF011D928A95E9F786E6898315
:1044700087E98A8386EC8B8384E38C8385E38D8351
:104480003497ACE0B1E0CE010B9621912D938E17BD
:104490009F07D9F787E0E4E3F1E0DE019196019010
:1044A0000D928A95E1F7FE01B196A5E0B1E0CE014B
:1044B000889621912D938E179F07D9F78091160129
:1044C00095E0811190E090932A0385E0891B809309
:1044D00029030CE011E0F1E1EF2EF1E0FF2EF801ED
:1044E00081918F010E948F09E016F106C1F705E066
:1044F00011E0ECE0EE2EE1E0FE2ED8018D918D0171
:104500000E948F09E016F106C1F7EFE1F3E089E2BE
:1045100093E0A7E5B3E011921D928E179F07D9F79C
:104520000E94721FEFE3FCE93197F1F700C0000031
:104530000E94721F8091570380FF1BC06FEF82E2C1
:1045400090E00E94862B6FEF83E290E00E94862B22
:104550006FEF84E290E00E94862B6FEF7FEF90E098
:1045600080E00E94A42B0E94240D85E2809300012C
:104570006BCF90E080E00E94802B8B3E9E4F11F02D
:104580000E94E30D0E94C70D811102C00E94FC2809
:1045900082E290E00E94722B813209F0E8C483E24B
:1045A00090E00E94722B873009F0E1C484E290E031
:1045B0000E94722B833209F0DAC490E080E00E94FE
:1045C000802B8B3E9E4F11F00E94E30D82E090E025
:1045D0000E94722B80934C030E94E90990932C0354
:1045E00080932B0383E090E00E94722B682F70E091
:1045F00090E080E00E94C107609190037091910368
:1046000080919203909193030E94C21380912D0395
:10461000811139C090E080E00E94802B8B3E9E4F3C
:1046200021F00E94E30D0E94810E88E090E00E943C
:104630007A2B6093970370939803809399039093D8
:104640009A03809136038360809336036E7F71F402
:104650000E94810E88E090E00E947A2B609397037D
:10466000709398038093990390939A030E94D106C4
:104670008091970380FF04C060E086950E942B1311
:1046800081E080932D0380911601811106C084EF93
:104690008093180185EF8093170120911801A22FB4
:1046A000A295AF70B0E091963C9191972F7081E008
:1046B00090E0BC01022E01C0660F0A94EAF7462F73
:1046C0004095432391964C93919792963C91929763
:1046D000362B92963C93929740911701E42FE295E6
:1046E000EF70F0E031A14F70042E01C0880F0A94E2
:1046F000EAF7982F9095932391A392A1892B82A3F7
:1047000090968C9190E002C0959587952A95E2F756
:10471000817020A130E002C0359527954A95E2F7D7
:1047200092E020FF90E0892B80933E039091160148
:1047300081E0982790933D03891B80932E0389E3A2
:1047400096E09093300380932F03809197038160CC
:104750008093970361E086950E942B1360E08AE0C6
:104760000E942B1340E56FEF82E30E94281361E063
:1047700070E080E090E00E94811489E191E09093E4
:1047800032038093310308E110E060E4E62E87E510
:1047900093E07AE0F72EF80E80918603BB24B39461
:1047A00040E1C42E52E1D52E853009F4E4C10E94C7
:1047B000721F81110E945D05EDE4F3E0A7E5B3E00F
:1047C000D12CC12C8C2CAD9081918A1509F4F4C1A7
:1047D0008A25912CBB24B394982F9B2109F4E7C11F
:1047E0000E94C70D882399F099A28AA2AB2081E08C
:1047F00009F480E08BA30E9469058160782F9DA356
:104800008CA349A15AA16BA18DA10E94EF1DF601B5
:10481000E35BFC4F8081B826B08280913E03E82F95
:10482000EE0FEE0F90911801A92FA295AF70B0E096
:1048300090962C9130E09F7002C0359527959A95FF
:10484000E2F72170332790911701A92FA295AF703D
:10485000B0E090964C9150E09F7002C055954795FE
:104860009A95E2F7CA018170992740FF02C082E061
:1048700090E0822B8E2B80933E03D0903D038F706F
:10488000E82FF0E0E858FE4F808190913C03890FBB
:1048900080933C0320E0823074F0ED2D0D2C000C51
:1048A000FF0BE65CFC4F80818F5F808360E08D2D85
:1048B0000E947F1E21E080913C038F3F74F4ED2D18
:1048C0000D2C000CFF0BE65CFC4F80818150808337
:1048D00061E08D2D0E947F1E21E080913C03082E17
:1048E000000C990B62E070E00E94482B80933C031F
:1048F00021110E94920686E0E5E4F3E0DE011196C4
:1049000001900D928A95E1F7B0904703A09048037B
:10491000D0904903C0904A03109247031092480375
:104920001092490310924A038B2D8A2909F448C03A
:1049300080914303909144030E944E059C01909105
:104940004203992309F43AC323333105C8F19F3F49
:1049500019F09F5F90934203BB2059F00E949F087B
:104960009FEF1B140CF491E0899F802D11248093FC
:104970004703AA2059F00E949F089FEF1A140CF4D5
:1049800091E0899F802D1124809348033091470343
:104990003323B1F020914803222391F045EB3403F7
:1049A000C0011124992309F420C19093470345EBDA
:1049B000240390011124332309F41BC130934803CD
:1049C0008D2D8C2909F448C08091400390914103BA
:1049D0000E944E059C0190913F03992309F4E9C27E
:1049E00025363105C8F19F3F19F09F5F90933F0333
:1049F000DD2059F00E947D089FEF1D140CF491E01A
:104A0000899F802D112480934903CC2059F00E9466
:104A10007D089FEF1C140CF491E0899F802D1124D8
:104A200080934A03309149033323B1F020914A0324
:104A3000222391F045EB3403C0011124992309F49A
:104A4000DCC09093490345EB2403900111243323E8
:104A500009F4D7C030934A038091470390914803EB
:104A6000892B90914903892B90914A03892B11F04E
:104A70000E947D0786E0FE013196A5E4B3E0019037
:104A80000D928A95E1F70E94C00690914B03891719
:104A900031F00E94C00680934B030E947F138091E7
:104AA0008603843009F078CE83E08093E90080911A
:104AB000E80082FF71CE8091E80090E085FF06C09B
:104AC0000E94DE03882309F4A0C091E08091E800F1
:104AD0008B778093E800992309F45ECEE981E15059
:104AE000E33108F008C1F0E0EC50F44D0C945C2B7D
:104AF00080918603843009F431C080E00E947F13E6
:104B000080913903811109C0B092390380919703D4
:104B10008170809338030E945D1F109233030FB69B
:104B2000F894A895009360000FBEE092600083B7F0
:104B3000817F846083BF83B7816083BF78948895C9
:104B400083B78E7F83BF0FB6F894A89580916000DD
:104B5000886180936000109260000FBE8091850391
:104B6000882349F00E94721FE7E5F3E081918111EB
:104B7000E8C1FE12FBCF80918603853009F4B8CFDF
:104B80000E94990E0E94C0060E947F131092390362
:104B900080913803882319F00E94971308CE8091E2
:104BA0003703882309F403CE0E94751100CE939435
:104BB000BB0C97E0991210CE2FEFC21AD20A4AE02E
:104BC000C416D10409F0FECD8FEF88A789A71AA6D5
:104BD0000E9469058160782F9CA78BA748A559A5DD
:104BE0006AA58CA50E94EF1D18CE81E08093470333
:104BF000DECE81E080934803E3CE81E080934903D9
:104C000022CF81E080934A0327CF30E2C32ED12CFC
:104C1000CE0101965C018091E80085FD0AC080917B
:104C2000E8008B778093E8000E94DE03882399F3E5
:104C30004CCF8091F100D5018D935D01B1E0CB1A8D
:104C4000D10849F742CF1A8289E08B8311C08A814B
:104C5000823009F4A5C18330A9F1813009F04BC03D
:104C60000E945D050E94622B6B837C838D839E83F3
:104C700080918603843009F08FCDD090E9004D2DCE
:104C80004F70D42E9091EC00892F817090FD80E8B8
:104C9000D82A82E08093E9008091E80080FF0DC06F
:104CA00050E040E060E270E0CE0101960E940F0407
:104CB0008091E8008E778093E8008D2D8F7080932F
:104CC000E9006ACDDE011396E7E5F3E081918D936B
:104CD00023E0E136F207D1F7CBCF8A81823059F455
:104CE0006B817C818D819E810E94622B85E290E0A8
:104CF0000E94862BBDCF8FEF8983BACF4C816B8109
:104D00008A810E94F7099827892798279E838D8397
:104D1000AFCFAD80BE80BA24AB24BA248A81CB80C9
:104D20004EE0C49E600111249CE8899FC00CD11CF8
:104D300011248C8190E0880F991FC80ED91E6B2D0D
:104D4000C60186960E94862B6A2DC6018796D0CF13
:104D50000E94240C8DCF8A818138B1F058F48038BC
:104D600009F086CF4B8160919903809198030E944E
:104D700028137ECF8238A9F0833809F079CF40918B
:104D80009A036C818B81F3CF60E08B810E942B139F
:104D90008B81811103C00E945D1F6ACF0E9497130F
:104DA00067CF8B8180939B0363CF8A81813899F091
:104DB00030F4803809F05CCF80919A0346CF823876
:104DC00091F0833809F054CF809198038B838091C0
:104DD00099038C834DCF8091970380FF02C0869505
:104DE00034CF80E032CF80919B032FCF6091970327
:104DF000709198038091990390919A030E944D0EAF
:104E000037CF80E18A8334CF81E08A838AEA1DCF5D
:104E1000CA80DB80DC24CD24DC24DE0111965D0118
:104E20008C80FD01E80DF11D4F01C6018A5A9D4F8E
:104E30008A149B0409F41CCFFAEACF16F1E0DF06CE
:104E400060F40E94722BD50114968C93FFEFCF1A59
:104E5000DF0A2FEFA21AB20AE8CFF5011482F6CFCB
:104E6000CA80DB80DC24CD24DC24CE0101964C01F9
:104E7000AC80AC0CBD2CB11CC6018A5A9D4FAC1441
:104E8000BD0409F4F5CEAAEACA16A1E0DA0620F4B8
:104E9000F40164810E94862BFFEF8F1A9F0A2FEF87
:104EA000C21AD20AE9CF0E94790CE2CE84E0AACFDE
:104EB000CA80DB80DC24CD24DC24CE0101965C0199
:104EC0008C80DC01A80DB11D4D01C60186968A14A7
:104ED0009B0409F4CDCEB0E3CB16B2E0DB0658F468
:104EE0000E94722BF5018483BFEFCB1ADB0AEFEF30
:104EF000AE1ABE0AEACFD50114961C92F5CFCA802D
:104F0000DB80DC24CD24DC24CE0101964C01AC8076
:104F1000AC0CBD2CB11CC6018696AC14BD0409F4C2
:104F2000A7CEA0E3CA16A2E0DA0620F4F401648159
:104F30000E94862BFFEF8F1A9F0A2FEFC21AD20A08
:104F4000EACFC9BCD9BC09B400FEFDCF8091D8001E
:104F50008F7D8093D8008091E00082608093E00094
:104F60008091E00081FDFCCF0E94990E04CE60E0AC
:104F700085E290E00E94862B0E94240C0E94790C0E
:104F800061E282E290E00E94862B67E083E290E09B
:104F90000E94862B63E284E290E00E94862B0DCB78
:104FA00085E290E00E94722B1B821C821D828E8300
:104FB0005FCE2D32314008F018CD4ECD2D3231402C
:104FC00008F0C7CCFDCC0F931F930E94C70D882318
:104FD00021F01F910F910C945D050E945D050091D9
:104FE0001B0310911C0320911D0330911E03600FC1
:104FF000711F821F931F1F910F910895CF92DF920F
:10500000EF92FF926B017C010E94C70D81110EC0CF
:105010000E945D05C61AD70AE80AF90AC0921B0366
:10502000D0921C03E0921D03F0921E03FF90EF90BC
:10503000DF90CF90089578941F921FB61F9211248D
:105040008F939F93AF93BF93809117039091180311
:10505000A0911903B0911A030196A11DB11D80936F
:10506000170390931803A0931903B0931A03BF91E9
:10507000AF919F918F911F901FBE1F9018951F9207
:105080001FB61F9211248F939F93AF93BF9380916C
:105090003303811113C08091170390911803A091DD
:1050A0001903B0911A034196A11DB11D80931703F6
:1050B00090931803A0931903B0931A03BF91AF9173
:1050C0009F918F911F901FBE1F901895FF920F9375
:1050D0001F93CF93DF93D0912E030D2F10E0065C2A
:1050E0001C4FFC01C081F8018081C81BFC2E80E0B0
:1050F0001F147CF09C2FC7FD90E0C91BC11114C088
:105100008823E9F0DF91CF911F910F91FF900C94CC
:105110009206FA94F80180818F5F808360E08D2F82
:105120000E947F1E81E0E4CFCF5FF8018081815033
:10513000808361E08D2F0E947F1E81E0DFCFDF91B1
:10514000CF911F910F91FF900895E0913D03F0E002
:10515000E65CFC4F2081FC01208308951F93CF93D0
:10516000DF93EC01162F8F8184FF03C09885909305
:10517000370380FF0CC0888180FF15C09091970392
:10518000916090939703612F86950E942B138F81D6
:1051900081FF0CC0212F4B816A818981DF91CF91E2
:1051A0001F910C9475120E945D1FF1CFDF91CF917A
:1051B0001F91089525E0E7E9F3E0DC0101900D92ED
:1051C0002A95E1F7409134035091350360913603FD
:1051D00070913703FC014583568367837087089578
:1051E00010923603089580913603089562E070E0CE
:1051F00084E291E00C94D42962E070E084E291E0D2
:105200000C94DD290E94F328882361F088EA93E05A
:105210000E94DA2881E090E00E94B62A892B11F4DE
:105220000C94F02808958091A703883039F460E049
:1052300088EA93E00E94AE281092A7030895CF93C6
:10524000DF93D62FC72F0E94022990E080E00E94B2
:10525000B62A009709F5ED2FFC2FDC01AF55BC4FA6
:105260002C912193019685309105B9F786EA93E058
:105270000E9466280E94E3276E5F7F4F8F4F9F4FEB
:1052800060939D0370939E0380939F039093A0036C
:1052900081E0DF91CF91089580E0FBCFCF93DF9342
:1052A000D62FC72F0E94132960919D0370919E03F2
:1052B00080919F039091A0030E94FE27ED2FFC2F69
:1052C00090E080E02191DC01AF55BC4F2C9301961A
:1052D00085309105B9F786EA93E0DF91CF910C9480
:1052E000A5288EE14A9B02C08150E1F74A9BFECF80
:1052F00008955A9880E28A95F1F75A9A0895FC0128
:105300003BE03A95F1F720E090E080E031E040E1C9
:105310004A95F1F7880F4A9B02C08160232742E03B
:105320004A95F1F7000040E14A95F1F79F5F691354
:10533000EECF90E19A95F1F799B132E03A95F1F715
:10534000000040E14A95F1F792FB992790F99227E6
:105350002081920F90830895EF92FF920F931F93F5
:10536000CF93DF930F92CDB7DEB719828C017C010A
:10537000E60EF11C0E151F0561F481E09981911173
:1053800080E00F90DF91CF911F910F91FF90EF90F0
:1053900008950E94712968E0CE0101960E947F293C
:1053A000F80181938F01E6CF9093B3038093B2030A
:1053B0006093B103529A5A9A08959093B3038093DD
:1053C000B2036093B10352985A9AEA9AE9E6F0E080
:1053D00080818F7C808308956150770B91E001C0BC
:1053E000990F6A95EAF720E031E0911108C0222375
:1053F00091F05A9A80E28A95F1F75A980895492FC8
:10540000482339F05A9A232740E24A95F1F79695B6
:10541000ECCF5A98F9CF5A98EDCFFF920F931F9384
:10542000CF93DF93EC018C01060F111DC017D1073C
:1054300031F4DF91CF911F910F91FF900895F99072
:105440000E94792968E08F2D0E94EC29EFCF1F92EE
:105450000F920FB60F9211240F931F932F933F9328
:105460004F935F936F937F938F939F93AF93BF936C
:10547000EF93FF93CF93DF930F92CDB7DEB71982EF
:105480000E94712967E0CE0101960E947F29082FB2
:10549000069506950695982F92959570202F257064
:1054A000920F292F2370969596958770920F8913E6
:1054B00044C08981811141C08091B1038017E8F116
:1054C00020E12A95F1F75A9A529A82E08A95F1F7EB
:1054D00000C0A8E00A9FC00111240091B2031091FE
:1054E000B303080F191F5A98F8016581662321F04C
:1054F000868197810E940D2A0E947929F0E1FA9510
:10550000F1F75A9852985A9A20E12A95F1F7D80162
:1055100012966C911297662331F113968D919C919E
:105520000E94AC29D801ED91FC91882311F088E00C
:1055300001C082E080830E9471290F90DF91CF919A
:10554000FF91EF91BF91AF919F918F917F916F915B
:105550005F914F913F912F911F910F910F900FBE2F
:105560000F901F901895ED91FC91E1CF0F931F9331
:10557000CF93DF932091B103281719060CF471C063
:105580008C0193E0000F111F9A95E1F7C091B203CF
:10559000D091B303C00FD11FF894529A5A9825E0C6
:1055A0002A95F1F70000982F969595708570980FC1
:1055B000892F837096959695980F092B0E947929CB
:1055C00000C067E0802F0E94EC2980E18A95F1F706
:1055D00052985A9A4A9B17C087E090E04A9915C0A2
:1055E0006D81662321F18E819F810E94AC298111FA
:1055F0001EC0529A5A9AE881F98182E08083789499
:1056000082E090E00DC000C0E5CF019771F4529A9E
:105610005A9AE881F98181E08083789481E090E072
:10562000DF91CF911F910F91089500C0D7CF0E94B5
:10563000712920E22A95F1F75A98529A80E18A95C9
:10564000F1F76A81662321F08B819C810E940D2AEB
:105650000E947929E881F9811082789490E080E0B5
:10566000DFCF84E090E0DCCFAA1BBB1B51E107C079
:10567000AA1FBB1FA617B70710F0A61BB70B881FE2
:10568000991F5A95A9F780959095BC01CD01089571
:1056900097FB072E16F4009407D077FD09D00E94DF
:1056A000342B07FC05D03EF4909581959F4F0895CB
:1056B000709561957F4F0895EE0FFF1F0590F4914F
:1056C000E02D099469279627692778278727782767
:1056D0000895FB01DC0102C005900D92415050403D
:1056E000D8F70895F999FECF92BD81BDF89A992710
:1056F00080B50895A6E1B0E044E050E00C94AC2BF6
:10570000A8E1B0E042E050E00C94AC2B262FF999D0
:10571000FECF92BD81BDF89A019700B4021639F010
:105720001FBA20BD0FB6F894FA9AF99A0FBE0895E1
:105730000396272F0E94872B0E94862B252F0E94DD
:10574000872B242F0C94872B0196272F0E94872BC1
:105750000C94862BDC01CB01FC01F999FECF06C02D
:10576000F2BDE1BDF89A319600B40D92415050401F
:10577000B8F70895F894FFCF0F0C0F0C180C180C05
:105780001A0C180C180C180C0F0C0F0C1F0C180C02
:10579000180C1F0C930FBB0F0E10BB0F0E10EE0F4B
:1057A00026100E10231130116D1897189E18A3188B
:1057B000A818AD18B218B718BC18C118C618CB185D
:1057C000641564156415641564156415CE186415A4
:1057D000E618E6185B195B19B519D1191D191D19C1
:1057E000DC19C01AD11AD11A232627266D267E2647
:1057F0008926A826AB26D526F6267B267B260127DA
:0E5800000427082730275327562758277F27CD
:10580E00004A004A4A36323331F7F6676697C63495
:10581E0035000000000001F4F54B05E40CC30CBF8D
:10582E000CBB0C019C03049D0306A103A70309A84E
:10583E0003000000F6F73133323667000102020230
:10584E0002020202020202818283E200E900EA0001
:10585E00B500B600B700CD008301CC008A019201DD
:10586E0094012102230224022502260227022A0283
:10587E00B300B4006F00700000FF0100010000FFD4
:10588E00FF0000010001FF004022B6CA01A801F28C
:08589E00005B0674069406008D
:00000001FF
