:100000000C94F4060C943B070C943B070C947F3043
:100010000C943B070C943B070C943B070C943B0758
:100020000C943B070C943B070C94F2170C94AE17FE
:100030000C94A32D0C943B070C943B070C943B07AA
:100040000C943B070C943B070C943B070C943B0728
:100050000C943B070C9404190C943B070C943B073D
:100060000C943B070C943B070C943B070C943B0708
:100070000C943B070C943B070C943B070C943B07F8
:100080000C943B070C943B070C943B070C943B07E8
:100090000C943B070C943B070C943B070C943B07D8
:1000A0000C943B070C943B070C943B0737032B64E1
:1000B000AAFF000000001C032B64AAFF0000000040
:1000C00004032B64AAFF000000000000D7FF78FFA4
:1000D00000000000000080FF64FF0000000000003E
:1000E000FCFF7DFF0000000000005FFF5AFF0000E2
:1000F000000005010980A101850319012AB7001537
:100100000126B700950175108100C0050C0901A1F9
:1001100001850419012AA002150126A00295017586
:10012000108100C00660FF0961A101096215002667
:10013000FF009520750881020963150026FF0095D0
:100140002075089102C005010906A101050719E003
:1001500029E71500250195087501810295017508AB
:1001600081010507190029FF150026FF0095067576
:100170000881000508190129059505750191029569
:100180000175039101C0000101010101010101019B
:100190000202020202020202020303030303030338
:1001A0000304040404040404050505050506060605
:1001B0000606070707070708080808090909090AC2
:1001C0000A0A0B0B0B0C0C0C0D0D0D0E0E0E0F0F67
:1001D0000F101011111112121313141415151616F5
:1001E0001717181819191A1A1B1B1C1D1D1E1E1F64
:1001F0002020212222232424252626272829292AB3
:100200002B2C2D2D2E2F30313232333435363738DA
:10021000393A3B3C3D3E3F404142434445464748D6
:10022000494A4C4D4E4F50515354555658595A5BAC
:100230005D5E5F616264656668696B6C6D6F70724C
:10024000737577787A7B7D7E8082838587888A8CB8
:100250008E8F91939596989A9C9EA0A2A3A5A7A9EC
:10026000ABADAFB1B3B5B7BABCBEC0C2C4C6C9CBE3
:10027000CDCFD1D4D6D8DBDDDFE2E4E7E9EBEEF099
:10028000F3F5F8FAFDFFFFAA7F55401C1004010D9D
:10029000190A24232221201F1E1D1B1A18171615A8
:1002A000141312110F0E0C0B0908070605030200A8
:1002B0002D3945483C303F25262728292A2B2C2E2E
:1002C0002F31323334353637383A3B3D3E404142A8
:1002D000434446474935001E001F002000210022EC
:1002E000000000290014001A000800150017008003
:1002F000002B0004001600070009000A000000E1BE
:10030000001D001B000600190005008100A800E385
:1003100000E200E0000251280000002D0027002626
:10032000002500240023000000845F130012000C4D
:100330000018001C004B00340033000F000E000DAD
:10034000000B000000E500380037003600100011F7
:10035000004E00E700E600E40003512C000000001E
:10036000000000000000003E5B4F5B3E003E6B4F14
:100370006B3E001C3E7C3E1C00183C7E3C18001C62
:10038000577D571C001C5E7F5E1C0000183C180047
:1003900000FFE7C3E7FF00001824180000FFE7DBB9
:1003A000E7FF0030483A060E00262979292600404A
:1003B0007F05050700407F05253F005A3CE73C5A72
:1003C000007F3E1C1C0800081C1C3E7F0014227F7E
:1003D0002214005F5F005F5F0006097F017F00005D
:1003E0006689956A0060606060600094A2FFA294D4
:1003F0000008047E04080010207E20100008082A4F
:100400001C0800081C2A0808001E10101010000C00
:100410001E0C1E0C0030383E383000060E3E0E0614
:100420000000000000000000005F00000000070066
:10043000070000147F147F1400242A7F2A1200234F
:100440001308646200364956205000000807030074
:1004500000001C224100000041221C00002A1C7FD9
:100460001C2A0008083E08080000807030000008C0
:10047000080808080000006060000020100804025E
:10048000003E5149453E0000427F4000007249490C
:100490004946002141494D33001814127F100027AE
:1004A00045454539003C4A49493100412111090778
:1004B00000364949493600464949291E00000014C2
:1004C0000000000040340000000008142241001425
:1004D00014141414000041221408000201590906E2
:1004E000003E415D594E007C1211127C007F49494B
:1004F0004936003E41414122007F4141413E007F5B
:1005000049494941007F09090901003E41415173B0
:10051000007F0808087F0000417F41000020404123
:100520003F01007F08142241007F40404040007F8F
:10053000021C027F007F0408107F003E4141413EC3
:10054000007F09090906003E4151215E007F09191B
:1005500029460026494949320003017F0103003F33
:100560004040403F001F2040201F003F4038403F98
:1005700000631408146300030478040300615949FC
:100580004D4300007F41414100020408102000005B
:100590004141417F000402010204004040404040CC
:1005A000000003070800002054547840007F2844CE
:1005B000443800384444442800384444287F0038F4
:1005C000545454180000087E09020018A4A49C7812
:1005D000007F080404780000447D40000020404073
:1005E0003D00007F102844000000417F4000007C57
:1005F00004780478007C08040478003844444438C3
:1006000000FC182424180018242418FC007C08047A
:1006100004080048545454240004043F4424003C7B
:100620004040207C001C2040201C003C4030403CCE
:10063000004428102844004C9090907C004464545E
:100640004C44000008364100000000770000000024
:1006500041360800000201020402003C2623263C29
:1006600000000000000000404040F0F8F8FF38FFB4
:10067000F8F83FF8F8FF38FFF8F8F0404040000085
:100680000000000080C0C0C0800000C0C08000002A
:100690000080C0C000C0C0000080C0C000000000DA
:1006A00000C0C0C0C0C000C0C0000000000000000A
:1006B000000000000000000000000000000000003A
:1006C000000000000000000000000000000000002A
:1006D000000000000000000000000000000000001A
:1006E000C0F0F8FC3E1E06010000007F4141417F42
:1006F000007F4141417F000080C0E07E5B4F5BFE98
:10070000C00000C000DCD7DEDEDED7DC00C00000A9
:1007100000000000000000000000000000000000D9
:1007200000000000000000494949FFFFFFFFE0DF33
:10073000BFBF00BFBFDFE0FFFFFFFF494949000027
:100740000000001F3F6060E0BF1F007F7F071E3872
:100750001E077F7F007F7F0E1F3B7160000000003F
:10076000007F7F0C0C0C007E7E007F7E0303007FE9
:100770007E03037E7E03037F7E000F3E703C063CBB
:10078000703E0F00327B49493F7E007F7E030300AD
:100790001E3F69696F260000000000000000000095
:1007A000030F1F3F3C7870600000007F4141417F94
:1007B000007F4141417F00307B7F783020203078BE
:1007C0007F3B0003000F7F0F0F0F7F0F0003000020
:1007D0000000000000000000000000000000000019
:1007E00000000000000000010101070F0F7F0F7FD4
:1007F0000F0F7E0F0F7F0F7F0F0F0701010100000A
:1008000000000000000000000101000000000000E6
:1008100000000000000000000000000000000000D8
:1008200000000000000000000000000000000000C8
:1008300000000000000000000000000000000000B8
:1008400000000000000000000000000000000000A8
:100850000000000000000000000000000000000098
:100860000000000000000000000000000000000088
:100870000000000000000000000000000000000078
:100880000000000000000000000000000000000068
:100890000000000000000000000000000000000058
:1008A0000000AF00AE0000000000000000000000EB
:1008B0000000000000000000000000000000000038
:1008C0000000000000000000007E0F00D4FFFFFFCA
:1008D000C70000007800000000000000002A2B285C
:1008E0000000000000000000000000000000000008
:1008F00029000000002C1E34202122243426272524
:100900002E362D3738271E1F20212223242526335B
:1009100033362E37381F0405060708090A0B0C0D5D
:100920000E0F101112131415161718191A1B1C1D6F
:100930002F3130232D350405060708090A0B0C0D4D
:100940000E0F101112131415161718191A1B1C1D4F
:100950002F3130354C00DA028178D9F1DB20A4A6A2
:100960002EAF00A0C000A1C800AED580A81FD30044
:10097000408D142000E800DE00D400CA00C000B69C
:1009800000AC00000000000000E0100808C8B080C3
:1009900080808080808040403C14040890180408C7
:1009A000B040800000000000000102C4A4FC000070
:1009B00000008000000000000000000080C85828EF
:1009C0002A100F000000000000000E0904040404B7
:1009D00002030201010202040810262B320405065C
:1009E0000000000000000000E01010F00000000017
:1009F0000000000080808078280810203008102037
:100A000040800000000000000304081011F90101FB
:100A10000101010100000000000000000110B050C1
:100A200055201F000000000000000000000001022F
:100A30000C10202837021E2020180C141E01000064
:100A40000000000000000000000080402010909096
:100A500090A0C08080807008140890101008A478BE
:100A6000800000000000000000000708FC010000FA
:100A70000000800000010000000000000818EA10DB
:100A80000F0000000000000000000000031C2020F8
:100A90003C0F111F03061820203C0C121E01000001
:100AA0000000000000000000000000804020202026
:100AB000408000000000E01028102020201048F0A6
:100AC000000000000000000000001F20F8020101EB
:100AD0000101010101030000000001001030D520D8
:100AE0001F00000000000000000000003F20300C4C
:100AF000020509121E021C140810202C32010000ED
:100B000000000000000000000000000000000000E5
:100B1000000000E01C02050224040402A91EE000FB
:100B20000000000000000000000000E01008681055
:100B3000080403000000000000000206827C03009D
:100B400000000000000000000000000102040C1082
:100B500010202020283E1C20203E0F111F000000E6
:100B60000000000000000000000000000000000085
:100B7000000000E01C02050224040402A91EE0009B
:100B800000000000000000000000E0900818601065
:100B900008040300000000000000020E827C030035
:100BA00000000000000000000000000102040C1022
:100BB00010202020283E1C20203E0F111F00000086
:100BC00000000000000000000000008040404040A5
:100BD00080000000000000C0404080008040800095
:100BE0000000000000000000001E21F004020202CC
:100BF000020302020404040301000009018080AB27
:100C000004F8000000000000000000031C20203C4D
:100C10000F111F02061820203808101804040202C1
:100C20000100000000000000000000804040408003
:100C300000000000000000E0A0204080C0204080B4
:100C40000000000000000000003E41F0040202022B
:100C500003020202040402010000000400404055A7
:100C6000827C0000000000000000003F20300C02E9
:100C70000509121E0418100810202834060201016C
:100C8000000000000000C02010D030000000000074
:100C900000008080403C14040890180408B0408094
:100CA0000000000000000304081011F90101010117
:100CB00001010000000000000080C848282A100F31
:100CC00000000000000000000000000001020C1005
:100CD0002028370202040810262B320405060000E3
:100CE000000000000000E01010F000000000000014
:100CF0000000808040402C14040890180408B04084
:100D00008000000000000304081011F90101010136
:100D10000101000000000000000080C048282A10E7
:100D20000F204A09100000000000000001020C1012
:100D30002028370202040810262B32040506000082
:100D4000000000000009025B00030100A0FA090492
:100D500000000103010100092111010001224000EE
:100D60000705810308000A090401000203000000CE
:100D70000921110100012222000705820320000140
:100D8000070503032000010904020001030000001D
:100D90000921110100012232000705840320000A05
:100DA000120110010000000832FC8712020001024B
:100DB00000011E0353006F006C00610072006900A7
:100DC000750073005F0053006F0066006C006500E3
:100DD000000010034B006500790068006900760090
:100DE000650000000403090411241FBECFEFDAE000
:100DF000DEBFCDBF04B603FE27C080911A069091D6
:100E00001B06A0911C06B0911D068730904BA74091
:100E1000B04BD1F410921A0610921B0610921C06C9
:100E200010921D0614BE84B7877F84BF0FB6F89456
:100E3000A8958091600088618093600010926000A6
:100E40000FBEE0E0F8E3099511E0A0E0B1E0E2E3D5
:100E5000FEE602C005900D92A63FB107D9F726E045
:100E6000A6EFB1E001C01D92AA31B207E1F70E94DE
:100E7000A2250C94CC360C940000CF93DF934091C4
:100E8000FF05509100064F5F53409A01205A3F4F93
:100E900021303240C0F020E032E0241B350B60915D
:100EA000FD037091FE03FC01CA01240F351FC1E050
:100EB000D0E08217930750F07093FE036093FD0318
:100EC000DF91CF91089520E630E0E9CF4491DC0135
:100ED000A150BC4F5C91451781F04C93AC01A5E04B
:100EE00056954795AA95E1F7DE0102C0AA0FBB1FF0
:100EF0004A95E2F7AD016A2B752B01963196D9CF51
:100F0000E8EDF0E080818E7F80831092E200109205
:100F1000DA001092E100A0EEB0E08C9181608C9339
:100F200080818F77808319BCA7EDB0E08C918E7F94
:100F30008C9380818F7E80831092DA0308952091B4
:100F4000E4003091E50095E6A9012091EC00822FA4
:100F5000817020FF06C08091E80080FF06C080E01D
:100F600008952091E80022FD1AC08091E7038823AC
:100F700089F0853089F08091EB0085FD0FC02091CC
:100F8000E4003091E50042175307F9F29150E1F681
:100F900084E0089582E0089583E0089581E0089553
:100FA000EF92FF920F931F93CF937C018B010E94CE
:100FB0009F07C82F811117C08091E80085FD0BC0E5
:100FC0008091E8008E778093E8000E949F07882335
:100FD00099F3C82F08C0F70181917F018093F10038
:100FE0000150110949F78C2FCF911F910F91FF905C
:100FF000EF9008958091E90387FF13C08091E80086
:1010000082FF06C08091E8008B778093E80004C0DF
:101010008091E7038111F2CF08958091E70388233F
:10102000D9F38091E80080FFF8CF8091E8008E77B7
:10103000ECCF982F9093E900242F762F50E089175A
:1010400031F07091EC002091ED005091F00021FD05
:1010500007C09F5F973071F78093E90081E00895A2
:101060003091EB003E7F3093EB003091ED003D7FFF
:101070003093ED003091EB0031603093EB007093D2
:10108000EC002093ED005093F0002091EE0027FD3E
:10109000E0CF80E00895CF92DF92EF92FF920F931E
:1010A0001F93CF93DF93C8EDD0E088818F7E888334
:1010B000E7EDF0E080818160808384E082BF81E0A1
:1010C0008093DA0388818E7F888302EE10E0F80136
:1010D00010821092DA0081EEC82ED12CF601108217
:1010E00088818F77888388818068888388818F7DD5
:1010F000888319BC1092E7031092E8031092E6036C
:101100001092E50390EEE92EF12CF70180818B7FA0
:10111000808388818160888342E060E080E00E9473
:101120001908F60180818E7F8083F80180818160BB
:101130008083808188608083F70180818E7F8083B7
:10114000888180618883DF91CF911F910F91FF90FB
:10115000EF90DF90CF900895FC018091EF03909184
:10116000F00386179707A0F06115710529F4909197
:10117000E8009E779093E80090E06115710551F4C6
:10118000911108C08091E80082FF34C080E008958A
:10119000BC01F2CF8091E7038823C1F18530C1F112
:1011A0008091E80083FD30C08091E80082FDEACFA5
:1011B0008091E80080FFE1CF8091F3002091F20060
:1011C000382F6115710519F02830310558F091E07C
:1011D0002830310509F090E02091E8002E77209327
:1011E000E800CBCF81918093F100615071092F5FAE
:1011F0003F4FE7CF8091E703882341F0853041F0EE
:101200008091E80083FFBECF81E0089582E00895D9
:1012100083E0089580E0089508958091DC030895A7
:101220009C014FB7F89480918D0390918E03A0910B
:101230008F03B09190034FBF821B930B08952FB77C
:10124000F89460918D0370918E0380918F0390913B
:1012500090032FBF08959C01FC0132969FEF80E020
:101260004191461751F09F3F19F4411101C0982F49
:101270008F5F8630A9F79F3F09F40895290F311D2C
:1012800097FD3A95F9016283089580915E039091EC
:101290005D03892B90915C03892B8093F801E09189
:1012A0008703F0918803309731F00280F381E02DBD
:1012B00088EF91E00994089527E0929F800D112412
:1012C000982F977086958695869525E0829FF001E8
:1012D0001124E15DFC4F50E040E080E0219130E0DE
:1012E000092E02C0369527950A94E2F7217033271C
:1012F000042E01C0220F0A94EAF7822B4F5F5F4F42
:101300004530510559F7089527E0929F800D11242B
:10131000982F977041E001C0440F9A95EAF786959F
:101320008695869595E0899FF0011124E15DFC4F3B
:1013300090E080E070E05191DF0111979B01082E51
:1013400002C0369527950A94E2F72170219525274A
:10135000242325272C9301968530910561F7089564
:1013600080912E039091FD02981301C008958F5F24
:101370008770FACF882341F0809590915E0389238E
:1013800080935E030C9445090895882339F0909169
:101390005E03982B90935E030C94450908950C947A
:1013A0001F092091EB023091EC022817390771F0E8
:1013B0009093EC028093EB02E0918703F091880315
:1013C000309721F00084F185E02D09940895209153
:1013D000E9023091EA022817390771F09093EA0286
:1013E0008093E902E0918703F0918803309721F020
:1013F0000680F781E02D0994089590E080E00E9436
:10140000E70990E080E00E94D10910925D031092FC
:101410005C030C94450960935F03709360038093B1
:101420006103909362030C94FD098823B1F19CEF52
:10143000980F913A70F4EAEFF1E09191891303C0AB
:10144000DF0111971C9242E0E030F407B1F70C94F1
:10145000450990E2980F983088F4877021E030E0D9
:10146000A90102C0440F551F8A95E2F7CA01809571
:1014700090915E03892380935E03E9CF9BE5980FEB
:10148000933020F490E080E00C94E709885A87318B
:1014900020F490E080E00C94D1090895CF93C82FF8
:1014A000882309F44EC08CEF8C0F813AF8F4EAEFF0
:1014B000F1E080E092E0DF012D91C21759F08A1728
:1014C0009B07D1F76C2F88EF91E00E942B09CF91F9
:1014D0000C9445092191C21303C0DF0111971C929E
:1014E0008E179F07B9F70E944509ECCF80E28C0F59
:1014F000883068F4C77021E030E001C0220FCA953F
:10150000EAF780915E03822B80935E03E0CFEBE5E8
:10151000EC0FE33040F4F0E0E356FE4F808190E0C2
:10152000CF910C94E709C85AC73158F4EC2FF0E07A
:10153000EE0FFF1FE056FE4F80819181CF910C94FA
:10154000D109CF910895E0918703F09188033097F6
:1015500021F00190F081E02D099480E00895209120
:10156000730336E0839FC0011124629F800D911D9B
:101570001124811522E0920714F090E080E0815060
:101580009C4F909300068093FF050895FA01811106
:1015900001C0FB0109948091F803982F9E7F61F4AC
:1015A000817082608093F8038091FB03813A18F088
:1015B00080EA8093FB0308958831B0F381708661DF
:1015C000F1CFAF92BF92DF92EF92FF920F931F93F2
:1015D000CF93DF93082F162FE901E42FF0E0EA57AD
:1015E000FE4F611110C0E4915E2F4E2F4983E883B6
:1015F0005A83DF91CF911F910F91FF90EF90DF9071
:10160000BF90AF900895E62EF12C4491D42EE42F94
:10161000F0E026E0829FC00111242FEF30E0B901F5
:101620000E949831802F90E0880F991F55E5569FB2
:10163000D001579FB00D11248A1B9B0B982F990F37
:10164000890F5901AE18BF08AE9ED001AF9EB00DF4
:10165000BE9EB00D11245B2F189F80011124012F15
:1016600011275901A01AB10AAE9E8001AF9E100D3C
:10167000BE9E100D11245901A81AB108AE9CC001DC
:10168000AF9C900DBE9C900D1124892F9927281B8B
:10169000390B2E9FC0012F9F900D3E9F900D11245E
:1016A000E92F62307105A1F050F46115710509F45C
:1016B0009DCF6130710581F0EB2F512F97CF6430B2
:1016C000710569F080F06630710509F48FCFF4CFB1
:1016D000E42F4B2F592F8ACFE42F412F87CFEB2FA9
:1016E000542F492F83CF4B2F5D2DE12F7FCFF894BF
:1016F000E82FE295EF70F0E031A1282F2F7081E004
:1017000090E001C0880F2A95EAF7982F90959323CF
:1017100091A392A1892B82A3789408959091740348
:1017200092FF06C0282F28712830F9F4877F846043
:1017300093FF06C0282F28712831F1F4877E846139
:101740002091750320FF06C0382F38713830D9F446
:10175000877F816021FF06C0282F28712831D1F4AE
:10176000877E816194FD877E0895282F247124301F
:10177000F9F68B7F8860DCCF282F2471243101F7A4
:101780008B7E8861DDCF382F3171313019F78E7F34
:101790008860E0CF282F2171213121F78E7E88616A
:1017A000E1CFCF92DF92EF92FF926C01EE24FF2403
:1017B00020E0C114D104E104F10419F0C701B6011D
:1017C00020E1C72ED82EE92EFF24C114D104E10454
:1017D000F10419F0285FC701B6016B017C0154E0E8
:1017E000F694E794D794C7945A95D1F7C114D104CD
:1017F000E104F10419F02C5FC701B6016B017C0113
:1018000042E0F694E794D794C7944A95D1F7C1146F
:10181000D104E104F10419F02E5FC701B6019695D9
:10182000879577956795672B682B692B09F02F5F54
:10183000822FFF90EF90DF90CF900895CF92DF92AC
:10184000EF92FF920F931F93CF93DF936C017B0175
:1018500064E670E088E70E94E62EEC0197FD12C076
:1018600010E000E0F601E00FF11F849164E670E003
:101870000E94422FEC01892B29F40F5F1F4F0E1598
:101880001F0581F70E94C52FCE01DF91CF911F91D7
:101890000F91FF90EF90DF90CF9008958091C20359
:1018A0009091C303911103C091E089270895882383
:1018B00069F062E070E083EA98E00E941E0C892BD8
:1018C00019F08091C20308951092C2038091C2035F
:1018D000EBCFCF93C091C2038091C3038823D1F093
:1018E0000E941F0960547B428E4F9F4F6093BE033E
:1018F0007093BF038093C0039093C103C11108C0CC
:1019000062E070E081EA98E00E941E0C892B29F0C9
:10191000C091C2038C2FCF91089581E08093C203C0
:10192000F7CFCF9384E090E00E94ED34C82F81E29E
:1019300090E00E94ED34982F8C2FCF9108950F9353
:101940001F93CF93DF93C42FD0E0CC0FDD1F2EE089
:10195000629FC00DD11D11243CE8839FC00DD11D95
:101960001124CE0186960E94ED34082F10E0102F2E
:101970000027CE0187960E94ED349801282BC901DB
:10198000DF91CF911F910F910895462F843038F445
:101990007A3028F4673018F4672F0C949F0C90E08D
:1019A00080E00895CF93DF930E94C50CEC0182384C
:1019B000910581F1B0F58133910509F491C020F5CD
:1019C0008932910509F485C08A9709F490C0C11540
:1019D00021E5D20708F0AAC0C11530E5D30708F009
:1019E000F2C0CF3BD10508F089C0C83AD10508F054
:1019F000DFC0C53AD10508F0D3C0C430D105F8F432
:101A0000C130D105E1F040C08533910509F45AC0D9
:101A1000C997E9F680917403837089F0C0EED0E035
:101A20000EC0833E910599F170F4803E910501F15D
:101A3000823E910561F68091740382FD21C0CE0142
:101A4000DF91CF910895863E910561F1873E910522
:101A500071F1843E910509F0BACF8091750381FF41
:101A6000EECF80917403C7EED0E084FD0DC0E7CFC8
:101A70008091740380FDF7C09091750390FFDFCFD4
:101A8000C3EED0E084FFDBCFD0E0C0E0D8CF8091C0
:101A9000740382FDEBC09091750390FDBFCF84FF6E
:101AA000CECFF2CF8091740383FDDDCFC8CF80917C
:101AB000740383FDDEC09091750391FFF0CFC4EEF7
:101AC000D0E0BDCF8091740385FFB9CFC9E2D0E0EB
:101AD000B6CF8091740385FFB2CFC5E3D0E0AFCF1E
:101AE0008091740386FFABCFCAE2D0E0A8CF80918B
:101AF000740386FFA4CFC1E3D0E0A1CFC11540E2BB
:101B0000D40760F4C11581E0D80708F098CFCE0162
:101B1000805E9109089708F492CFB6CFC11590E482
:101B2000D90708F4B1CFDF70D06A89CFC11524E599
:101B3000D20778F4C11533E5D30708F072C0C11598
:101B400042E5D40708F05CC0DC2FCC27C16FD06A17
:101B500076CFC1158AE5D80778F4C11599E5D9077C
:101B600008F073C0C11528E5D20708F48DCFDC2F2B
:101B7000CC27C06FD06A63CFCE01905681159042BA
:101B800008F082CF8D2F8F710E948E0B90E0982FDE
:101B9000882788279F719C012C2BE901D0624FCFA9
:101BA000C55AD0E0C356DE4FC881D0E0D06447CFDD
:101BB000C85AD0E0CC0FDD1FC056DE4F0990D88147
:101BC000C02DD4643CCFCE0164E0969587956A958C
:101BD000E1F783702C2F26952695237040E2249FF1
:101BE00090011124382B8C2F8370C1E0D0E002C00B
:101BF000CC0FDD1F8A95E2F7C22BD32BDC681FCFF9
:101C0000CE018370992721E030E002C0220F331FFC
:101C10008A95E2F7C695C69580E2C89FE001112437
:101C2000EBCFCE018370992721E030E002C0220F74
:101C3000331F8A95E2F7C695C69590E2C99FE001E9
:101C40001124C22BD32BDA68FACE8C2F8F700E940E
:101C50008E0B34E0D695C7953A95E1F7CF709C2F5F
:101C6000EC01D069ECCEC9E3D0E0E9CEC2EED0E021
:101C7000E6CEC6EED0E0E3CEBF92CF92DF92EF92F7
:101C8000FF920F931F93CF93DF938C01C090F103CA
:101C9000D090F203E090F303F090F40380915F039F
:101CA00090916003A0916103B0916203C82AD92A80
:101CB000EA2AFB2ACFE1D0E0BC2ED701C6010C2EC8
:101CC00004C0B695A795979587950A94D2F780FD9D
:101CD0000EC0219788F7B12C8B2DDF91CF911F91EA
:101CE0000F91FF90EF90DF90CF90BF900895B801D3
:101CF0008C2F0E94D20C019761F3EECFCF93DF932C
:101D0000EC010E943C0EBE01DF91CF910C94D20CED
:101D10000E947E0E292F2F7092959F7092509E30B8
:101D200078F4E92FF0E0E253F94C0C94DF31803F76
:101D300019F020F4883E20F481E00895843FE1F317
:101D400080E00895883EC0F3813FD1F7F5CF822F20
:101D500086958695869508956F927F928F929F9231
:101D6000AF92BF92CF92DF92EF92FF920F931F93A9
:101D7000CF93DF9385EDC82E82E0D82E90ECE92E2C
:101D8000F12CE701CC58D10936011BC0F501859033
:101D90009490692DC8010E940135682DC8010196F3
:101DA0000E94013582E0A80EB11C0E5F1F4FC017C4
:101DB000D10761F78EE0680E711C2E96CE15DF05F7
:101DC00029F08E010E5011095301E0CF7E018CE8FD
:101DD000E80EF11C8CE8C80ED11C80EFE81682E0FA
:101DE000F80679F6DF91CF911F910F91FF90EF9058
:101DF000DF90CF90BF90AF909F908F907F906F902B
:101E00000895CF93DF93C6E5D2E060E0CE010E9453
:101E100001352196C11584E0D807B9F7DF91CF913C
:101E2000089510925E03EAEFF1E086E0DF011D9273
:101E30008A95E9F70C94FD091F93CF93DF93CDB7F3
:101E4000DEB7AA970FB6F894DEBF0FBECDBF89EEFE
:101E500093E02091F100DC012D93CD01B3E0813FAF
:101E60009B07B9F78091EA03833009F471C0B8F495
:101E7000813009F448C0823009F4B2C08091E80092
:101E800083FF3AC18091E9039091EA039A3008F008
:101E900033C1E92FF0E0E452F94C0C94DF318A3081
:101EA00009F48DC08B3009F470C0893039F7809106
:101EB000E903813219F78091ED039091EE030097C9
:101EC00011F00297D9F68091E800877F8093E800AF
:101ED0008091E80082FF37C09091F3008091F2007A
:101EE000029729F48091F1008B7F813021F4809159
:101EF000F1008093DC038091E8008B778093E80009
:101F00000E94FA07BBCF8091E903813A09F0B6CF6E
:101F10008091E800877F8093E8008091ED039091A5
:101F2000EE03892B61F468E08DED93E070E00E9490
:101F3000AC088091E8008B778093E8009FCF60E049
:101F400090E080E0F3CF8091E7038111C1CF96CF7D
:101F50008091E903813A09F091CF8091ED0390914E
:101F6000EE03892B09F08ACF8091E800877F809368
:101F7000E8008091E80080FFFCCF80912B018093E6
:101F8000F1008091E8008E77B9CF8091E90381322A
:101F900009F074CF8091ED039091EE03892B09F045
:101FA0006DCF8091E800877F8093E8000E94FA0758
:101FB0008091EB0380932B010E94110F5FCF8091E2
:101FC000E903813209F05ACF8091E800877F80933E
:101FD000E8000E94FA078091EC038093DB034ECF68
:101FE0008091E903813A09F049CF8091E800877F29
:101FF0008093E8008091E80080FFFCCF8091DB03B4
:10200000BECF803899F0823809F076C08091ED0318
:102010008F70873008F070C08093E9008091EB00EA
:1020200085FB882780F91092E90006C08091E503BE
:102030009091E603911182609091E800977F9093D0
:10204000E8008093F1001092F1008091E8008E7713
:10205000B5C1882309F4A2C1823009F04DC0809136
:10206000EB038111A6C18091ED038F702FEF280F34
:10207000263008F041C08093E9002091EB0020FF5A
:1020800098C1933031F48091EB0080628093EB0033
:1020900090C19091EB0090619093EB0021E030E0D3
:1020A00001C0220F8A95EAF72093EA001092EA0015
:1020B0008091EB008860EACF81111EC01091EB0384
:1020C0001F778091E3008078812B8093E3008091DB
:1020D000E800877F8093E8000E94FA078091E8007B
:1020E00080FFFCCF8091E30080688093E30082E072
:1020F000111183E08093E7038091E80083FF0AC019
:102100008091E800877F8093E8008091EB008062F7
:102110008093EB00AA960FB6F894DEBF0FBECDBF3A
:10212000DF91CF911F9108958058823028F7209138
:10213000EB033091EC032C3DE3E03E07A1F583E097
:102140008A838AE289834FB7F894DE01139620E0F0
:102150003EE051E2E32FF0E050935700E49120FF7E
:1021600003C0E295EF703F5FEF708E2F90E0EA3092
:10217000C0F0C7968D939D932F5F243159F74FBFC1
:102180008091E800877F8093E8006AE270E0CE01EA
:1021900001960E94AC088091E8008B778093E8005C
:1021A000ABCFC096E7CF8091ED039091EE03432F24
:1021B00055274330510509F44AC078F5413051059F
:1021C00009F47AC08BE590E0E5E4FDE0423051058A
:1021D00009F092CF2091E800277F2093E80020911A
:1021E000EF033091F0038217930708F49C0140E05D
:1021F0002115310509F065C0411163C08091E800E7
:1022000082FDC9CF8091E703882329F2853019F236
:102210008091E80083FFF2CFBECF4132510509F42F
:102220003CC04232510509F067CF8330910508F078
:1022300063CFFC01EE0FFF1FE751FE4F0190F081CD
:10224000E02D8A519E4FDC018C9190E01AC033271B
:1022500021303105D1F02115310561F022303105F1
:1022600009F04ACFE2EBFDE0E4918E2F90E0E2EB43
:10227000FDE007C0E4EEFDE0E4918E2F90E0E4EE97
:10228000FDE0009709F438CFA5CFE2EDFDE0E49141
:102290008E2F90E0E2EDFDE0F4CF8330910508F061
:1022A0002BCF880F991FFC01E151FE4F0190F08167
:1022B000E02D89E090E08ECF82E190E0E0EAFDE061
:1022C00089CF8091E703882309F465CF853009F42D
:1022D00062CF8091E80083FD5ECF8091E80082FDAF
:1022E0008DCF8091E80080FF83CF9091F3008091A3
:1022F000F2002115310519F08830910550F041E0C8
:10230000089709F040E08091E8008E778093E8001C
:102310006FCF44914093F1003196215031090196DD
:10232000E8CF803809F0E8CE8091E800877F80937D
:10233000E8008091E8038093F10087CE8111DCCE24
:102340001091EB03123008F0D7CE8091E800877F20
:102350008093E8001093E8030E94FA07112311F01C
:1023600084E005C08091E30087FDFACF81E080938F
:10237000E70342E061EC81E00E94190842E261EC6F
:1023800084E00E94190842E261EC82E00E94190890
:1023900042E260EC83E00E941908AECE8091EB032C
:1023A000813009F0A9CE81E0933009F080E080937C
:1023B000E6031092E9008091E800877F8093E800AF
:1023C0000E94FA0799CECF93DF9300D00F92CDB73A
:1023D000DEB79091E703943011F589837B836A839C
:1023E0009093E9008FEF9091E800815095FD06C031
:1023F00095ED9A95F1F700008111F5CF8091E800F5
:1024000085FF0DC050E040E063E070E0CE01019632
:102410000E94D0078091E8008E778093E8000F90AB
:102420000F900F90DF91CF910895BC0184E00C9440
:10243000E311BC0183E00C94E311CF93DF93EC0133
:1024400081E08093E9008FEF9091E800815095FD45
:1024500006C095ED9A95F1F700008111F5CF8091B6
:10246000E80085FF14C050E040E068E070E0CE0175
:102470000E94D0078091E8008E778093E80088E082
:10248000FE01ADEDB3E001900D928A95E1F7DF9189
:10249000CF91089581E08093E00080E28093D8009E
:1024A0001092C9008FE19EE40197F1F700C000008F
:1024B00087E090EBDC0180931A0690931B06A093B3
:1024C0001C06B0931D0688E19CE00FB6F894A89511
:1024D000809360000FBE90936000FFCF1F93CF9357
:1024E000DF93182FCAE0D0E0893311F4C0E5D0E0C3
:1024F000812F0E944E0A8FE99FE00197F1F700C0FB
:1025000000002197C1F7812FDF91CF911F910C948B
:10251000150A80910402811111C08091D800806158
:102520008093D8008AE18A95F1F700C09091D90094
:10253000892F817090FF82E08093040281E0909166
:102540000402913009F080E008956BEE7EEF90E098
:1025500080E00E941F3560E082E090E00E9401353B
:1025600060E083E090E00E94013510925F031092DA
:102570006003109261031092620360E084E090E0D7
:102580000E94013560E081E290E00E94013560E048
:1025900085E090E00E94013560E086E090E00E94D6
:1025A00001356FEF87E090E00E94013540E050E098
:1025B000BA0188E090E00E94133560E08DE090E081
:1025C0000E94013540E050E0BA0188E190E00E94AD
:1025D000133560E087E190E00E94013540E050E073
:1025E000BA018CE190E00E94133560E080E290E057
:1025F0000E94013540E050E0BA0188E190E00E947D
:10260000133540E050E0BA018FE090E00E941335AE
:1026100040E050E0BA0183E190E00C941335CF9292
:10262000DF92EF92FF926B017C010E94CB0AB7010F
:10263000A60188E090E0FF90EF90DF90CF900C949F
:1026400013358091FC03882319F081508093FC039B
:102650006091F8037091F9038091FA039091FB0364
:102660000C940F138091FC03833018F48F5F8093D8
:10267000FC036091F8037091F9038091FA03909143
:10268000FB030C940F13E8EFF3E083E080831182E7
:102690008FEF828380EA83831482ABE7B3E01296E4
:1026A0008C911297836012968C93608171818281E4
:1026B00093810C940F131F93CF93DF93162FC09128
:1026C000FF05D09100068A30D1F420917303CE012A
:1026D0008F5F9340622F70E00E949831281B822FF9
:1026E00066E00E948C31C82FC15020F4DF91CF9159
:1026F0001F91089560E080E20E945B13F5CF8D305A
:10270000E9F4CF5FD34020917303622F70E0CE01D4
:102710000E949831281B822F9E01280F311D211500
:10272000324018F080E0D0E0C0E0C80FD11DC150A9
:10273000DC4FD0930006C093FF05D8CF96E0FE0192
:10274000A3EEB2E001900D929A95E1F7803E90F1F0
:1027500086E0FE0111928A95E9F7C091FF05D091BC
:102760000006111133C046E050E0BE0183EE92E056
:102770000E944E329E012F5F3340892B91F52A5FD4
:102780003F4F40917303642F70E0C9010E9498315C
:10279000481B463010F4240F311D211572E0370715
:1027A00010F030E020E021503C4F309300062093A1
:1027B000FF059CCFF6E08F9FB00111246F597C4F2D
:1027C00046E050E0CE010E944532C7CF9E012A5F0D
:1027D0003F4FFE012E173F0731F280818095819394
:1027E000F9CFC90145E0969587954A95E1F741E013
:1027F00050E0BA0102C0660F771F8A95E2F7CB015D
:102800006091FD037091FE03862B972BB9016B5FDE
:102810007F4FE5E076956795EA95E1F702C0440FB2
:10282000551F6A95E2F7842B952B9093FE038093B6
:10283000FD03A5CFFF920F931F93CF93DF93EC017E
:10284000F62EFC0101900020E9F78F0101501109DB
:10285000C017D10730F0DF91CF911F910F91FF90FA
:1028600008956F2D89910E945B13F2CF4F925F9272
:102870006F927F928F929F92AF92BF92CF92DF9290
:10288000EF92FF920F931F93CF93DF93CDB7DEB7F5
:10289000CE5DD1090FB6F894DEBF0FBECDBF50900C
:1028A00001018091F80380FF5DC0809078039090D3
:1028B00079038114910409F068C0EBE8F2E09E010D
:1028C0002F5F3F4FBE0161527F4FC901A4914A2F34
:1028D00050E0DA01AA0FBB1FA40FB51FAB5FBD4FBD
:1028E000CD90DD90EC90D901CD92DD92ED929D01DD
:1028F00031966A177B0751F72091000143E0249F2E
:10290000800D911D1124539A2BB1277F3BB1386064
:102910005FB7F894BC01549E600D711D1124861799
:10292000970709F090C05FBF8FE594E00197F1F73A
:1029300000C00000C252DF4F0FB6F894DEBF0FBEDA
:10294000CDBFDF91CF911F910F91FF90EF90DF905E
:10295000CF90BF90AF909F908F907F906F905F903F
:102960004F900895809102019091030123E0829F8E
:10297000F0011124EB5FFD4F891708F096CF11820B
:10298000108212828F5F3396F7CF8091800381117E
:1029900094CFD12CC12C66246394712C53E0452E26
:1029A00080917E0393010C2C01C0220F0A94EAF758
:1029B000822309F43FC0F601EE0FFF1FE80DF91D59
:1029C000E590F490E114F10409F477CF45E050E08C
:1029D000B701CE0101960E94453209810F3F51F1A6
:1029E0008A81800F9927991F8B34910514F08AE40E
:1029F00090E05C01AA0CBB1C8A0D9B1DDC01AB5F47
:102A0000BD4F5D01049D800111240B5F1D4F0A1510
:102A10001B0520F0B5E0EB0EF11CD8CF4D81413AFB
:102A200008F040EA98016C818B810E94E10A0D5FF9
:102A30001F4FEDCFEFEFCE1ADE0AF8E0CF16D1042C
:102A400009F0AECF3ACFFC014191CF01E8E03BB9AC
:102A5000000000C047FF2BB9440F000000C000C0B9
:102A600000C02BB900C0EA9591F759CFAF92BF9241
:102A7000CF92DF92EF92FF920F931F93CF93DF934A
:102A800000D00F92CDB7DEB7082FF62E142FE22E0E
:102A90008091F80380FF4FC0E82FE695AE2FB0E09D
:102AA000AF56BE4F9C9190937B038E7F823009F08E
:102AB00056C0413A08F040EA9E012F5F3F4F6F2D0C
:102AC000802F0E94E10A8091F80380FF11C02B81C2
:102AD00039814A81809102019091030153E0859FE1
:102AE000F0011124EB5FFD4F891798F10E94361415
:102AF0008091F903801308C08091FA038F1104C0FC
:102B00008091FB03811729F080917D03826080937F
:102B10007D030093F903F092FA031093FB03EE2078
:102B200051F06091F8037091F9038091FA0390914C
:102B3000FB030E940F130F900F900F90DF91CF9126
:102B40001F910F91FF90EF90DF90CF90BF90AF90CB
:102B500008954183308322838F5F3396C5CF9230AF
:102B600039F6E2508E2F8170D82EE695F0E0EA57C4
:102B7000FD4FA590B490C12CBB2460910401C616F2
:102B800008F0B4CF2C2D30E0A29EC001A39E900D82
:102B9000B29E900D112470E00E949831802FD110C8
:102BA00016C0860F40910201420F532F511D9A010A
:102BB000220F331F240F351F2B5F3D4F412F113A3A
:102BC00008F040EA6F2D0E94E10AC394D6CF861B1D
:102BD000E9CF9091F80390FF27C0917081111DC03B
:102BE00092609093F80380917D03816080937D03D0
:102BF000662351F06091F8037091F9038091FA0314
:102C00009091FB030E940F1320E04091FB03609121
:102C1000FA038091F9030C9436158C3010F096610C
:102C2000E0CF880F982BDDCF089521E030E0A90197
:102C300002C0440F551F8A95E2F7CA0120917E0316
:102C40006623C1F0822B80937E0380917D03806197
:102C500080937D0380917C03811106C08091F803ED
:102C600060E086950E94E9158091F80380FD05C01B
:102C70000C94361480958223E6CF0895CF93DF938A
:102C8000C82FC17082FBDD27D0F981FB662760F970
:102C900084E00E94151661E06C2785E00E941516FD
:102CA0006D2F86E0DF91CF910C9415168091F8037B
:102CB0008695815009F48BE061E00C94E9158091D0
:102CC000F80386958F5F8C3008F081E061E00C940A
:102CD000E9158091F80380FF07C0869582588F77A9
:102CE000893010F40C945F1661E082E00C94E915D1
:102CF000E8EFF3E0438121E1421B08F440E021E0EA
:102D0000628181810C943615E8EFF3E0438121E183
:102D1000420F08F44FEF21E0628181810C94361557
:102D2000E8EFF3E0628121E1621B08F460E021E05A
:102D3000438181810C943615E8EFF3E0628121E153
:102D4000620F08F46FEF21E0438181810C94361506
:102D5000E8EFF3E0818121E04381628188500C94A7
:102D60003615E8EFF3E0818121E043816281885FDD
:102D70000C943615CF92DF92EF92FF926B017C019B
:102D800061E0C114D104E104F10409F06C2D61701B
:102D900080E00E94151660E0C114D104E104F10442
:102DA00041F0D701C601B695A79597958795682FED
:102DB000617081E00E94151660E0C114D104E10445
:102DC000F10459F0D701C60132E0B695A795979561
:102DD00087953A95D1F7682F617082E00E941516A9
:102DE00060E0C114D104E104F10459F0D701C60137
:102DF00023E0B695A795979587952A95D1F7682FE3
:102E0000617083E00E941516C701B6010E94D10BC4
:102E10008130A1F0882359F08230A9F08330C1F0CD
:102E2000C701B601FF90EF90DF90CF90089520E0AA
:102E300040E56FEF82E30E943615F2CF20E040E5D7
:102E40006FEF8CEFF8CF20E040E56FEF86E7F3CF30
:102E500020E040E56FEF8AEDEECF0E94BA16609356
:102E6000F1037093F2038093F3039093F4030C94B3
:102E7000FD090F931F936091F1037091F20380910C
:102E8000F3039091F4038B019C0106701127222714
:102E90003327063011052105310529F468601F919B
:102EA0000F910C942D17677FFACF0F931F9341E07A
:102EB00050E060E070E004C0440F551F661F771FAC
:102EC0008A95D2F7CB01BA0160957095809590955F
:102ED0000091F1031091F2032091F3033091F40378
:102EE00060237123822393231F910F910C942D173C
:102EF0000F931F9341E050E060E070E004C0440F86
:102F0000551F661F771F8A95D2F78091F103909124
:102F1000F203A091F303B091F4038A019B01082B03
:102F2000192B2A2B3B2BC901B8011F910F910C942F
:102F30002D17E8EFF3E080818E7F8083EBE7F3E0ED
:102F40008281816082832FEF80E792E02150804070
:102F50009040E1F700C000000C9436141F920F92CD
:102F60000FB60F9211242F933F934F935F936F935C
:102F70007F938F939F93AF93BF93CF93DF93EF9301
:102F8000FF93D091E900DF708091EC00C82FC170F1
:102F900080FDC0E81092E9008091F000877F809367
:102FA000F00078940E941C0F1092E9008091F000CC
:102FB00088608093F000CD2BCF70C093E900FF9123
:102FC000EF91DF91CF91BF91AF919F918F917F91C1
:102FD0006F915F914F913F912F910F900FBE0F9086
:102FE0001F9018951F920F920FB60F9211242F93D6
:102FF0003F934F935F936F937F938F939F93AF9381
:10300000BF93EF93FF938091E10082FF09C080910D
:10301000E20082FF05C08091E1008B7F8093E10098
:103020008091DA0080FF24C08091D80080FF20C00A
:103030008091DA008E7F8093DA008091D90080FF42
:103040009BC080E189BD82E189BD09B400FEFDCF4E
:1030500081E08093E7038091DA03811109C00E9427
:1030600080070E944B088091E20084608093E20018
:103070008091E10080FF17C08091E20080FF13C0C3
:103080008091E2008E7F8093E2008091E200806177
:103090008093E2008091D80080628093D80019BCB0
:1030A00085E08093E7038091E10084FF29C080914F
:1030B000E20084FF25C080E189BD82E189BD89B538
:1030C000982F917080FFFBCF8091D8008F7D8093E7
:1030D000D8008091E1008F7E8093E1008091E20032
:1030E0008F7E8093E2008091E20081608093E20015
:1030F0008091E803882309F445C084E08093E703C6
:103100008091E10083FF27C08091E20083FF23C00C
:103110008091E100877F8093E10082E08093E70364
:103120001092E8038091E1008E7F8093E10080910E
:10313000E2008E7F8093E2008091E20080618093C4
:10314000E20042E060E080E00E9419088091F00017
:1031500088608093F000FF91EF91BF91AF919F91B4
:103160008F917F916F915F914F913F912F910F9030
:103170000FBE0F901F90189519BC1092E703109284
:10318000DA0376CF8091E30087FD93E09093E70325
:10319000B7CF8091860308950F931F930E948912E1
:1031A000882321F01F910F910C941F090E941F0981
:1031B00000916303109164032091650330916603CD
:1031C000600F711F821F931F1F910F910895CF925F
:1031D000DF92EF92FF926B017C010E9489128111B4
:1031E0000EC00E941F09C61AD70AE80AF90AC0923F
:1031F0006303D0926403E0926503F0926603FF904C
:10320000EF90DF90CF90089578941F921FB61F9291
:1032100011248F939F93AF93BF9380918D039091CF
:103220008E03A0918F03B09190030196A11DB11D53
:1032300080938D0390938E03A0938F03B09390039C
:10324000BF91AF919F918F911F901FBE1F901895B6
:103250002FB7F89480918D0390918E03A0918F03E6
:10326000B09190032FBF08950F931F93CF93DF93D7
:10327000C62FD42F022FFC0182818823A1F06093F6
:10328000F7030E9428199093F6038093F503C77003
:1032900081E001C0880FCA95EAF7DF91CF911F91B5
:1032A0000F910C94C5098091F703681335C0809184
:1032B000F5039091F6030E941009803A910560F59C
:1032C00010E21D0FCD17B9F080E28C0F883040F46A
:1032D000C77081E001C0880FCA95EAF70E94BA0959
:1032E000183048F481E09D2F977001C0880F9A959F
:1032F000EAF70E94C509802F0E946E12183098F4D8
:10330000D77081E001C0880FDA95EAF7DF91CF919D
:103310001F910F910C94BA09C77081E001C0880F0A
:10332000CA95EAF7F3CFDF91CF911F910F910895DE
:103330005F926F927F928F929F92AF92BF92CF9245
:10334000DF92EF92FF920F931F93CF93DF9300D002
:1033500000D00F92CDB7DEB76C01FC018381948160
:10336000892B31F08081918189238F3F09F03DC7FE
:103370000F900F900F900F900F90DF91CF911F91B2
:103380000F91FF90EF90DF90CF90BF90AF909F9004
:103390008F907F906F905F9008950E943C0E182F41
:1033A000682F89819A810E94840969817A81812F9D
:1033B0000E94C50C8C01F6018281882309F460C04B
:1033C000C80190568115F0E29F0750F0905E81157C
:1033D00020E1920728F0915C81159F4108F09DC083
:1033E000C80199279C01245031092432310520F06D
:1033F0008B970E9708F044C08091ED029091EE02F9
:103400000097C1F10E941009E0908603F12C9C0105
:1034100050E040E060E67AEE80E090E00E94C0314B
:10342000CA01B90125E030E040E050E00E94C0311F
:10343000622F70E06E197F09072E000C880B990B24
:103440000E94D33527EA39E747E45DE30E945F36FF
:103450004B015C01B701FF0C880B990B0E94D3351F
:103460009B01AC01C501B4010E9436350E94A23512
:10347000609386030E9428199093EE028093ED02D8
:10348000F6018281882309F4A5C6980122513F459F
:103490002031310508F06AC68FEF93E00E94ED34C9
:1034A000025196E5A92E92E0B92E811161CF01114A
:1034B0003DC01C821B82662463948AE0582E8501DD
:1034C0000F5F1F4FC5010E94ED3489831A82882344
:1034D00009F44ECF9FEF980F9330B8F58A83698235
:1034E00032E0A30EB11CC8010E94ED348B83882307
:1034F00009F43ECF8E010F5F1F4FF8012081222378
:10350000F1F2213009F05BC0918182819130F9F4B0
:103510000E5F1F4F0E946E1220C090E080E00F3FB0
:10352000110511F008F05ECFC8015CCFA114F4E0E2
:10353000BF0609F41DCFC5010E94ED34811101C001
:1035400001502FEFA21AB20AB2CF5801D3CF923056
:1035500039F40E5F1F4F0E944E0A0F5F1F4FCDCFF1
:10356000933029F40E5F1F4F0E94150AF6CF943056
:1035700019F00F5F1F4FF1CF0E5F1F4F30E020E0BB
:10358000B8016F5F7F4FF80141818053990B8A30FA
:10359000910550F02150310900F38FE99FE0019728
:1035A000F1F700C00000F6CF529EF001539EF00DDF
:1035B00011249C012E0F3F1F842F8B01E1CFE22F9E
:1035C000F0E0EB52F74F7490822F869586958695A2
:1035D00090E0FC01EB53F74FE4902770F12C022EA2
:1035E00002C0F594E7940A94E2F7E1E0EE22FF24AA
:1035F000FC01EB54F74FC490D12C022E02C0D5949D
:10360000C7940A94E2F7F1E0CF22DD24FC01EB55E8
:10361000F74F8490912C02C0959487942A95E2F7F5
:1036200021E082229924E114F10419F081EE0E9434
:103630004E0AC114D10419F086EE0E944E0A872D5D
:103640000E946E12CD2819F086EE0E94150AEF280E
:1036500019F081EE0E94150A892809F47ECF8CE2C8
:1036600059CF81E00E94781703C081E00E9455176E
:103670000F900F900F900F900F90DF91CF911F91AF
:103680000F91FF90EF90DF90CF90BF90AF909F9001
:103690008F907F906F905F900C94391782E0E2CF0B
:1036A000013E110509F4FBC0043E110509F078C57F
:1036B000882309F42FC181E08093890357C0023821
:1036C0003FE5130709F4BAC000F500385FE51507B8
:1036D000B9F101389FE5190709F062C5882309F49B
:1036E000A6C08091F502811106C081E08093F502A9
:1036F00082EE0E944E0A0E9428199093F402809351
:10370000F30281EE0E944E0A2EC00338EFE51E0739
:1037100009F4A8C00438FFE51F0709F041C5882354
:1037200009F4E3C08091EF02882309F4BBC08091C3
:10373000F0020E94150A80EE0E944E0A8AE2BFC083
:10374000882309F477C08091F502811106C081E0D9
:103750008093F50282EE0E944E0A0E9428199093EF
:10376000F4028093F3028BE20E944E0AF6019281EA
:10377000992309F44BC51092F7030230FCE51F07AB
:1037800008F4E8C106312CE5120738F098012A5FE9
:103790003C452930310508F0DDC10E94910C909321
:1037A00075038093740300313CE5130709F4A1C14C
:1037B00008F032C108305CE5150709F48CC108F047
:1037C00001C104309CE5190709F47DC108F0E7C088
:1037D0000230FCE51F0709F470C180917403826018
:1037E00003301C4509F46CC160917403109175039A
:1037F00084E090E00E940135612F81E290E00E9418
:1038000001350F900F900F900F900F90DF91CF9197
:103810001F910F91FF90EF90DF90CF90BF90AF90EE
:103820009F908F907F906F905F900C94110F81EE1E
:103830000E94150A8BE20E94150A98CF882309F48A
:1038400095CF81EE0E944E0A83EE0E944E0A8FE4CD
:103850000E944E0A8FE40E94150A83EE0E94150A08
:1038600081EEE9CF882309F481CF81EE0E944E0AD0
:1038700083EE0E944E0A80E50E944E0A80E5EBCF5F
:103880008093F2021093F1020093F002882321F05A
:1038900081E080938A036ACF10928A0367CF809376
:1038A000EF02F0CF8091F202882309F447CF809194
:1038B000F0020E94150A80EE0E944E0A8CE40F90DE
:1038C0000F900F900F900F90DF91CF911F910F915C
:1038D000FF90EF90DF90CF90BF90AF909F908F9030
:1038E0007F906F905F900C944E0A8AE20E94150AB6
:1038F0008CE40E94150A80EE0E94150A8091EF0266
:10390000811105C08091F202882309F431CD8091A4
:10391000F002D5CF1092890329CF882331F081E0BE
:1039200080938C031092190121CF10928C031ECF2B
:10393000053F9CE5190761F138F127E245EE66EE97
:10394000063FFCE51F0709F011CFC6010F900F904D
:103950000F900F900F90DF91CF911F910F91FF90DB
:10396000EF90DF90CF90BF90AF909F908F907F901F
:103970006F905F900C94341927E245EE65EEE5CF29
:1039800026E241EE60EEE1CF27E245EE64EEDDCFC8
:1039900026E241EE62EED9CF28E241E0EFCF8091FE
:1039A0007403806106303CE5130709F489C08091F7
:1039B0007403886007301C4508F482C0809174034A
:1039C00080627EC0809174038D7F0C305CE51507AA
:1039D00009F476C070F4809174038C600A309CE521
:1039E000190709F46DC008F47AC0809174038E7FC2
:1039F00067C080917403877F0E30FCE51F0709F4D0
:103A00005FC0809174038B7F0F301C4508F458C051
:103A1000809174038F7E54C00B3F3CE5130709F47B
:103A200056C030F503315CE5150709F46AC078F437
:103A300001319CE5190709F460C002311C4509F009
:103A4000D3CE0E94110F809174038F7739C0053156
:103A5000FCE51F0709F45DC008F471C0809175038F
:103A600081600A3F1C4509F0BFCE80937503BCCE30
:103A70000F3F4CE5140709F448C070F40D3F8CE586
:103A8000180799F1809175038E7F0E3F1C4568F3EE
:103A9000809175038360E9CF0130EDE51E0709F4DD
:103AA00057C008F442C060E002301D4509F09CCECA
:103AB0008EE090E00E94013597CE80917403816082
:103AC0008093740391CE809174038460F9CF8091C8
:103AD00075038260CACF809174038064F1CF0E9425
:103AE000110F809174038068EBCF809175038D7FF7
:103AF000BCCF809174038F7DE3CF809174038F7B63
:103B0000DFCF80917403837FDBCF809175038C7F3F
:103B1000ACCF8091740382FB992790F921E0922722
:103B200090FB82F990FB83F9CBCF80917503982F9E
:103B3000909591708E7F892B90FB81F996CF0E9492
:103B4000110F90917403892F97FB87F98058B8CF94
:103B500061E0AECF06313CE5130709F069C38091FF
:103B60005E038A7A91E009F490E09093F60269E2AC
:103B7000811165E388EF91E00E942B090F900F906F
:103B80000F900F900F90DF91CF911F910F91FF90A9
:103B9000EF90DF90CF90BF90AF909F908F907F90ED
:103BA0006F905F900C9445098091F60281110FC0CF
:103BB00089E2EAEFF1E020E032E09191891303C05D
:103BC000DF0111971C922E173F07B9F7D7CF85E376
:103BD000F0CF8091F80380FF31C08E7F8093F8038F
:103BE0006091F8037091F9038091FA039091FB03BF
:103BF0000E940F1380917D03816080937D034FEFBE
:103C000050E782E0415050408040E1F700C00000A2
:103C10000F900F900F900F900F90DF91CF911F9109
:103C20000F91FF90EF90DF90CF90BF90AF909F905B
:103C30008F907F906F905F900C943614816080938A
:103C4000F80361E086950F900F900F900F900F9002
:103C5000DF91CF911F910F91FF90EF90DF90CF9068
:103C6000BF90AF909F908F907F906F905F900C94DB
:103C7000E91546E556E16FE576E10F900F900F905C
:103C80000F900F90DF91CF911F910F91FF90EF90C8
:103C9000DF90CF90BF90AF909F908F907F906F906C
:103CA0005F900C94C60A4FE556E166E576E1E5CFF4
:103CB00048EA56E161EB76E1E0CF41EB56E168EA94
:103CC00076E1DBCF40E956E16CE976E1D6CF4CE90D
:103CD00056E160E976E1D1CF48E756E164E876E164
:103CE000CCCF44E856E168E776E1C7CF41E253E143
:103CF00062E373E1C2CF42E353E161E273E1BDCF1E
:103D000061E081E0A0CF0F900F900F900F900F9087
:103D1000DF91CF911F910F91FF90EF90DF90CF90A7
:103D2000BF90AF909F908F907F906F905F900C941A
:103D300069160E94110F9FEFE4E3FCE09150E04010
:103D4000F040E1F700C000000E944A120F900F906F
:103D50000F900F900F90DF91CF911F910F91FF90D7
:103D6000EF90DF90CF90BF90AF909F908F907F901B
:103D70006F905F900C94A512C8010E945C09F82E08
:103D80006EC2092F0F70907F11F00295007F812F76
:103D90002223C9F0002369F090E2910F983010F0CF
:103DA00011110BC080915E03082B00935E030E94EB
:103DB0004509812F0E944E0A17C080915D03082B90
:103DC00000935D03F4CF0E94150A002369F000956B
:103DD000105E183010F0B11027C080915E030823E8
:103DE00000935E030E94450998E0E91AF108E4E0B7
:103DF000EE16F10408F0BCCA0E94A30A0F900F90BF
:103E00000F900F900F90DF91CF911F910F91FF9026
:103E1000EF90DF90CF90BF90AF909F908F907F906A
:103E20006F905F900C943E1680915D030823009381
:103E30005D03D8CF892F8F70907F903211F08295DB
:103E4000807FF1E0BF120CC0222329F0333060F6EE
:103E50000E94C509C9CF323038F60E94BA09C4CFD2
:103E6000222341F03323A1F340FFA3CF4F70F6018B
:103E70004583EECF332389F3193309F06FC1FFEF88
:103E800027EE33E0F15020403040E1F700C0000061
:103E9000812F0E94150AA8CF892F86958695837059
:103EA00061F0813009F0A0CF812F9370211102C001
:103EB00090E080E00E94D10997CF812F937021116B
:103EC00002C090E080E00E94E7098ECF892F8370C6
:103ED00009F065C0211188CF812F82958695877062
:103EE000880F880F412F4F7050E070E060E0082E7F
:103EF00004C0440F551F661F771F0A94D2F714FFA2
:103F00002CC00FE010E020E030E004C0000F111FD3
:103F1000221F331F8A95D2F7009510952095309572
:103F2000969596959370923039F1F8F480905F03EE
:103F300090906003A0906103B0906203913089F08B
:103F4000402B512B622B732BCB01BA0168217921B5
:103F50008A219B210E940B0A47CF00E010E09801C4
:103F6000DFCF482959296A297B29CB01BA01602B67
:103F7000712B822B932BEECF402B512B622B732B6B
:103F800000915F03109160032091610330916203FF
:103F9000CB01BA016027712782279327DBCF869553
:103FA000222311F0892F8170882309F41DCF812FDE
:103FB000829586958770880F880F412F4F7050E04B
:103FC00070E060E0082E04C0440F551F661F771F85
:103FD0000A94D2F714FF2CC00FE010E020E030E08C
:103FE00004C0000F111F221F331F8A95D2F70095BE
:103FF000109520953095969596959370923039F15D
:10400000F8F48090F1039090F203A090F303B09045
:10401000F403913089F0402B512B622B732BCB0191
:10402000BA01682179218A219B210E942D17DCCEBB
:1040300000E010E09801DFCF482959296A297B293F
:10404000CB01BA01602B712B822B932BEECF402B2F
:10405000512B622B732B0091F1031091F2032091ED
:10406000F3033091F403CB01BA0160277127822753
:104070009327DBCF092F0F70222329F0802F0E9476
:104080007817812FE5CE812F0E94BA09802F0E94D8
:104090005517AACE812FE1EF1E1709F442C0E11790
:1040A00058F0F0EF1F17F1F0222309F44BC0311143
:1040B00080CE892F8F713AC042EF1417D1F153EFA0
:1040C0001513F2CF2223D1F1292F2F7161E070E077
:1040D00080E090E004C0660F771F881F991F2A9523
:1040E000D2F7A3CF2223C9F0323008F07DCE292F9A
:1040F0002F7161E070E080E090E004C0660F771FF0
:10410000881F991F2A95D2F70091F1031091F203AD
:104110002091F3033091F403A8CF333008F064CE3C
:10412000E6CF892F8F71222309F4B1CF0E9478172F
:104130005BCE892F8F712223C9F3A9CF60E070E095
:10414000CB0173CF332379F0893341F48FEF97EEAE
:10415000E3E081509040E040E1F798CE8FE39CE9A6
:104160000197F1F793CE892F8F7191CF0031FFE541
:104170001F0709F476CA01312FE5120709F48ECA28
:10418000053E110509F47CCB08F099CA003E1105E3
:1041900009F48ECA08F084CA0C32110509F4BDCBAB
:1041A000033F2CE5120709F4EBCB08F0C1CB083D27
:1041B0004CE5140709F4E0CB093D5CE5150709F46B
:1041C000EBCB073D8CE5180709F0D0CA26E241EE9B
:1041D00061EEBBCB00313FE5130709F446CA01315C
:1041E0004FE5140769F682E041CA85E0DE011196C9
:1041F00001900D928A95E1F7F601228189819A81D9
:104200002111CBC80E945C09182FCFC80631FCE5EC
:104210001F0709F4C9CC80915E038272F801E25C49
:10422000FC45E431F10568F4EA51F94C0C94DF31B6
:1042300001152CE5120709F47CCD0E3D1C4509F44F
:1042400085CDF60100811181992309F495CDC8012E
:104250000E943C0EF82E682FC8010E948409B80104
:104260008F2D0E94D20C182FB82EF6012281458185
:10427000342F32953F70892F82958F70E82EF12C64
:104280008C3008F0B1CDF701E650F94C0C94DF31D9
:104290001F93CF93DF938091FC02807FA9F48091DC
:1042A000F902882389F080912E03D091FD0260915C
:1042B000F7027091F802A091FA02B091FB02C62FAA
:1042C000C72316E0D81304C0DF91CF911F91089542
:1042D00090E0109711F0CF3F19F401968770F2CF5C
:1042E000189F9001199F300D1124F901E250FD4FE4
:1042F00041814713F2CF40814613EFCF42814111F4
:10430000ECCF438154814A1B5B0B403A510528F79F
:104310008091FC028F7080618093FC02F901ED5F57
:10432000FC4F80818F708061808387EF92E00E94D4
:104330009819DF91CF911F910C94B009AF92BF9261
:10434000CF92DF92EF92FF920F931F93CF93DF9361
:10435000CDB7DEB761970FB6F894DEBF0FBECDBF05
:104360008C0185E0F801DE011D9601900D928A9581
:10437000E1F7F80180819181E28027EFA22E22E00F
:10438000B22E6091FA027091FB026115710509F479
:104390003EC13091F7024091F802232F24232F3F92
:1043A00009F435C1C380D480F090F902F601E61B10
:1043B000F70BFF2009F4FBC02091FC02522F507F25
:1043C000E03AF10508F0BBC0511178C0FE2C49134A
:1043D00021C038131FC0E1101DC02F702061209331
:1043E000FC02C5010E9498198091FC02F8018583A6
:1043F0008F2D61960FB6F894DEBF0FBECDBFDF9153
:10440000CF911F910F91FF90EF90DF90CF90BF90D1
:10441000AF900895CD2829F0282F29232F3F09F0A8
:1044200014C120E0F22FF170DF2E20FF3DC020915B
:104430002E034091FD0256E0241315C08D879E8700
:104440008D859E850E947E0E292F22952F70223009
:10445000F8F0243020F59F70F9F0F8019581907FF5
:10446000D9F4D12C1FC030E0529FF001539FF00DC2
:104470001124E250FD4F6181961306C060818613BE
:1044800003C06281E61210C02F5F3F4F2770D4CF68
:104490009F7011F0882329F3805E883010F3C801E3
:1044A0000E949819FD2CA4CFEE2009F4A1CF809191
:1044B000FC0281608093FC02F12C9ACF491312C058
:1044C000381310C0E1100EC0F8012583C8010E9406
:1044D000981986E0F801A7EFB2E001900D928A9555
:1044E000E1F786CF8D879E878D859E850E94880EF9
:1044F000882309F1EE20F9F08091FC02803270F0FF
:104500002091F7023091F80238872F831986DB86D5
:10451000CA868C87CE0107960E94981986E0F8011A
:10452000A7EFB2E001900D928A95E1F70E94482131
:10453000FF24F3945DCFC8010E949819F9CF51115F
:104540000AC087EF92E00E94981986E0F501119267
:104550008A95E9F7B1CF49130FC038130DC0E110A8
:104560000BC0F8012583C8010E94981986E0F50167
:1045700011928A95E9F73CCF8D879E878D859E8520
:104580000E94880E8823B9F2EE20A9F28091FC02E5
:10459000803220F22091F7023091F8023A83298389
:1045A0001B82DD82CC828E83CE010196B5CFE03AAC
:1045B000F105E0F6FE2CEE2009F4BDCF491316C03C
:1045C000381314C08091FC0280FD83CF982F907F18
:1045D00009F47FCFF8018583903F09F477CF982FB6
:1045E000907F905F8F70892B858370CF8D879E879A
:1045F0008D859E850E94880E811190CF8091FC024E
:1046000081608093FC02C8010E949819F1CEEE20CF
:1046100009F491CF8D879E878D859E850E94880E97
:10462000F82E882309F487CF86E0F801A7EFB2E0DF
:1046300001900D928A95E1F78091F7029091F8022E
:104640000E947E0E0E944821D3CE21E02E25EACE84
:104650001F93CF93DF93CDB7DEB767970FB6F8946C
:10466000DEBF0FBECDBF342F4B8B252F5C8B6D8BE8
:104670007E8B8F8B8E899F89611110925D031A8AC0
:10468000198A3D872E876F87998B888B86E0FE017C
:104690003D96DE01179601900D928A95E1F7CE01C5
:1046A00007960E949E21882389F016E080912E03B0
:1046B0009091FD02891349C067960FB6F894DEBF4A
:1046C0000FBECDBFDF91CF911F91089586E0FE010F
:1046D0003796DE01119601900D928A95E1F78A8551
:1046E0009B85892B11F38F81988589238F3FE9F270
:1046F0002091FD0230E0C901019687709927409111
:104700002E034817190671F40E94110F1092FD0232
:1047100010922E0386E0E7EFF2E0DF011D928A950A
:10472000E9F7C3CF96E0929FD001939FB00D11247B
:10473000A250BD4FFE01319601900D929A95E1F77E
:104740008093FD020E94B009B0CF819FC001112467
:1047500082509D4F0E949E21882309F4ADCF809105
:104760002E0390E001968770992780932E039ECFA9
:104770008F929F92AF92BF92CF92DF92EF92FF9271
:104780000F931F93CF93DF9300D000D00F92CDB73C
:10479000DEB70CE011E087E6C82E83E0D82E460194
:1047A000F12CAA24A394B12CD8018D918D01F894F9
:1047B000E82FE295EF70F0E021A18F70A50102C013
:1047C000440F551F8A95E2F7CA01922F982B91A3A7
:1047D00092A18095892382A3789400C0E5E0F1E05E
:1047E00030E020E0E12C4191A42FA295AF70B0E021
:1047F00090968C9190E04F7002C0959587954A9560
:10480000E2F780FD48C08A2D022E01C0880F0A946D
:10481000EAF7E82A2F5F3F4F2730310521F7F801EB
:10482000319780810E94770B50EA5A95F1F7D401B5
:104830008C91E81691F1EC9281E0F82ABFEF8B1A87
:104840009B0AE1E001311E0709F0AECF109172031F
:10485000FF2029F181E0809302020E9428199093A1
:1048600001028093000280910002909101020E9457
:1048700010090697C0F0E12FF0E0E053FC4FD6019D
:104880008D916D018193BCE6CB16B3E0DB06B9F7E1
:104890001092020208C080E0BCCF80E0CECF8091B1
:1048A00002028111E0CF0E948912E82E609172030A
:1048B000882309F4A0C08E010F5F1F4F85E0F80127
:1048C00011928A95E9F7862F90E0B80180539C4FAA
:1048D0000E94862E811172C0809103028F5F8093A7
:1048E0000302863008F485C0E0917103F0E0E053E4
:1048F000FC4FD801CE01069611921D928A179B0794
:10490000D9F78091ED029091EE020E941009893E44
:10491000934060F160918603062F10E066277727A9
:10492000601B710B072E000C880B990B0E94D3356E
:1049300027EA39E747E45DE30E945F364B015C01FB
:10494000B801110F880B990B0E94D3359B01AC0164
:10495000C501B4010E9436350E94A23560938603DA
:104960000E9428199093EE028093ED028091F50247
:10497000882371F08091F3029091F4020E94100953
:10498000893E934028F082EE0E94150A1092F502AB
:10499000F11001C0FE2C8F2D0F900F900F900F90F3
:1049A0000F90DF91CF911F910F91FF90EF90DF90CB
:1049B000CF90BF90AF909F908F9008951092030278
:1049C000A0917103B0E0A053BC4F9E012A5F3F4FFE
:1049D000E12C4D91F80191918F01491731F0AD0112
:1049E00041505109FA019083E82E0217130789F705
:1049F00088CFE12C86CF70E060537C4F80917103AB
:104A000090E080539C4F0E94B92EC2CF0F931F930A
:104A1000CF93DF93CDB7DEB7A8970FB6F894DEBF7C
:104A20000FBECDBF81114DC006E0662359F10CA326
:104A300011E01DA31EA30E9428198160782F98A75A
:104A40008FA34CA15DA16EA188A50E9428230F8F82
:104A500018A319A20E9428198160782F9BA38AA30A
:104A60004F8D58A169A18BA10E94282381E0A896AF
:104A70000FB6F894DEBF0FBECDBFDF91CF911F916F
:104A80000F9108950A8F13E01B8F81E08C8F0E9495
:104A900028198160782F9E8F8D8F4A8D5B8D6C8D4C
:104AA0008E8D0E9428230D8B1E8B1F8A0E94281931
:104AB0008160782F998F888F4D895E896F89898D64
:104AC000D3CF813099F66623F1F016E0188B198B5D
:104AD0008A8B0E9428198160782F9C8B8B8B488948
:104AE00059896A898C890E9428231B871C871D8607
:104AF0000E9428198160782F9F878E874B855C855F
:104B00006D858F85B1CF06E00E8318E01F838887FF
:104B10000E9428198160782F9A8789874E815F814A
:104B200068858A850E94282309831A831B820E9434
:104B300028198160782F9D838C8349815A816B81EC
:104B40008D8192CFCDB7DEB7E0970FB6F894DEBF78
:104B50000FBECDBF84B7877F84BF0FB6F894A895EA
:104B600080916000886180936000109260000FBEA9
:104B700080E890E00FB6F894809361009093610014
:104B80000FBE85B7806885BF85B7806885BF8AE01E
:104B900099E09093F7018093F6010E9480070E94AC
:104BA0004B088091E20084608093E20078948091C9
:104BB000E7038823A1F01091E9001F709091EC00A9
:104BC000892F817090FD80E8182B1092E900809168
:104BD000E80083FD0E941C0F1F701093E90082E023
:104BE00084BD93E095BD9AEF97BD80936E001092BF
:104BF00063031092640310926503109266030E948F
:104C000089128093160180911601882309F494C0BB
:104C10001092000185E2809301010E9489128111A6
:104C20000E945D2E8091160181112FC0FE013596E4
:104C300086E0DF011D928A95E9F786E6898387E998
:104C40008A8386EC8B8384E38C8385E38D8334971E
:104C5000ACE0B1E0CE010B9621912D938E179F070A
:104C6000D9F787E0ECE3F1E0DE01919601900D9237
:104C70008A95E1F7FE01B196A5E0B1E0CE018896F4
:104C800021912D938E179F07D9F78091160195E0FA
:104C9000811190E09093720385E0891B80937103EA
:104CA0000CE011E0B1E1EB2EB1E0FB2EF8018191B7
:104CB0008F010E94770BE016F106C1F705E011E0C5
:104CC000ACE0EA2EA1E0FA2ED8018D918D010E9470
:104CD000770BE016F106C1F7E7E6F3E081E793E032
:104CE000A0EDB3E011921D928E179F07D9F70E9495
:104CF000B823EFE3FCE93197F1F700C000000E9410
:104D0000B8238091D00380FF1BC06FEF82E290E058
:104D10000E9401356FEF83E290E00E9401356FEF52
:104D200084E290E00E9401356FEF7FEF90E080E039
:104D30000E941F350E944A1285E2809300016BCFCA
:104D400090E080E00E94FB348B3E9E4F11F00E9469
:104D5000A5120E948912811102C00E94632E82E274
:104D600090E00E94ED34813209F0CBC683E290E0FE
:104D70000E94ED34883009F0C4C684E290E00E94BD
:104D8000ED34853209F0BDC683E08093BC0380E238
:104D9000809373030E94E02E6DE070E088E699E056
:104DA0000E941E0C892BE9F58091BC0363E070E042
:104DB00081FD1EC385E699E00E941E0C892B89F5B2
:104DC0006DE070E085E599E00E941E0C892B49F5A5
:104DD0000E941F0960547B428E4F9F4F6093BE0319
:104DE0007093BF038093C0039093C103EFEFF3E090
:104DF00080E092E0DF019C011D9221503040E1F7FC
:104E0000F0930006E093FF058FEF9FEF9093FE0372
:104E10008093FD0381E08093C3038093C2031092CB
:104E2000BD0390E080E00E94FB348B3E9E4F11F06A
:104E30000E94A51282E090E00E94ED348093C503A9
:104E40000E94910C909375038093740383E090E02B
:104E50000E94ED34682F70E090E080E00E940B0A21
:104E60006091F1037091F2038091F3039091F40348
:104E70000E94BA1680917603811139C090E080E0DB
:104E80000E94FB348B3E9E4F21F00E94A5120E948F
:104E9000431388E090E00E94F5346093F803709328
:104EA000F9038093FA039093FB0380917D03836061
:104EB00080937D036E7F71F40E94431388E090E03D
:104EC0000E94F5346093F8037093F9038093FA031A
:104ED0009093FB030E94CB0A8091F80380FF04C0EB
:104EE00060E086950E94E91581E0809376038091C9
:104EF0001601811106C084EF8093180185EF80931D
:104F0000170120911801A22FA295AF70B0E09196E1
:104F10003C9191972F7081E090E0BC01022E01C07E
:104F2000660F0A94EAF7462F4095432391964C93D7
:104F3000919792963C919297362B92963C939297AA
:104F400040911701E42FE295EF70F0E031A14F702E
:104F5000042E01C0880F0A94EAF7982F90959323A6
:104F600091A392A1892B82A390968C9190E002C08C
:104F7000959587952A95E2F7817020A130E002C0CF
:104F8000359527954A95E2F792E020FF90E0892B2E
:104F9000809385039091160181E098279093840374
:104FA000891B8093770385E799E090937903809339
:104FB000780360E08AE00E94E91561E070E080E03B
:104FC00090E00E942D1781E291E0909388038093F6
:104FD000870380ED93E0FAE06F2E680EFE013196B4
:104FE0007F018091E703DD24D39400E112E1853055
:104FF00009F449C20E94B823C82E81110E941F09DA
:10500000E6ECF3E0A0EDB3E010E000E0902EBD9000
:1050100081918B1509F45FC28B25A12CDD24D394DB
:105020009D2D982309F452C20E948912882399F079
:10503000A9A29AA2BD2081E009F480E08BA30E947E
:1050400028198160782F9DA38CA349A15AA16BA137
:105050008DA10E942823F801EA53FC4F8081D826B5
:10506000D08280918503E82FEE0FEE0F909118010A
:10507000A92FA295AF70B0E090962C9130E09F7070
:1050800002C0359527959A95E2F7217033279091C4
:105090001701A92FA295AF70B0E090964C9150E007
:1050A0009F7002C0559547959A95E2F7CA018170A5
:1050B000992740FF02C082E090E0822B8E2B8093E4
:1050C0008503109184038F70E82FF0E0E253FE4FC8
:1050D000808190918303890F80938303D12C843046
:1050E0007CF0E12F012E000CFF0BEF57FC4F80816D
:1050F0008F5F808360E0812F0E940625DD24D3949A
:10510000809183038D3F7CF4E12F012E000CFF0B77
:10511000EF57FC4F80818150808361E0812F0E9496
:105120000625DD24D39480918303082E000C990B6F
:1051300064E070E00E94AC3180938303D1100E9440
:10514000CF098091C303882309F418C160E080E08F
:105150000E94AF0A8091860390E090939B03809316
:105160009A03E0918703F091880380E0309721F063
:105170000190F081E02D0995809399030E94891296
:10518000882309F407C262E080E00E94AF0A60E071
:1051900083E491E00E941A1463E080E00E94AF0A69
:1051A0006091F1037091F2038091F3039091F40305
:1051B0000E94D10B813009F4ABC1882309F4A2C14C
:1051C000823009F4ADC1833009F4A6C166E080E005
:1051D0000E94AF0A60E081E691E00E941A1467E045
:1051E00080E00E94AF0A609199036695617086E63F
:1051F00091E00E941A1468E080E00E94AF0A60917A
:105200009903609561708BE691E00E941A1469E041
:1052100080E00E94AF0A6091990362FB662760F903
:105220008FE691E00E941A144091950350919603E5
:1052300060919703709198032FB7F89480918D0334
:1052400090918E03A0918F03B09190032FBF841B88
:10525000950BA60BB70B893C9105A105B105E8F1AB
:105260000E941F09609395037093960380939703A0
:105270009093980380918C03811104C0809119014F
:10528000811152C16FE080E00E94AF0A60E084E7C4
:1052900091E00E941A146CE080E00E94AF0A81E065
:1052A0008093190180918B0390E00196817099277A
:1052B00080938B0321E030E0281B390B40E6429FAE
:1052C000C001439F900D112420918A03222309F4E9
:1052D00039C18B57934F0E943D0780919A0390915B
:1052E0009B03181619060CF445C140919103509187
:1052F000920360919303709194032FB7F894809177
:105300008D0390918E03A0918F03B09190032FBFD6
:10531000841B950BA60BB70B813C944DA140B105A6
:1053200010F00E944E0C8091C303882371F02091ED
:10533000FD033091FE032115310539F08091BD0345
:1053400061E070E0882309F45EC18091C203882384
:10535000A9F00E941F090091BE031091BF03209184
:10536000C0033091C103601B710B820B930B6F3F25
:105370007F4F8F4F9F4710F40E944E0CC11001C009
:10538000D1100E94690C0E94A30A9091C40389174E
:1053900031F00E94A30A8093C4030E943E168091BC
:1053A000E703843009F01DCE83E08093E90080910B
:1053B000E80082FF16CE8091E80090E085FF06C0ED
:1053C0000E949F07882309F4ECC191E08091E800D6
:1053D0008B778093E800992309F403CEE981E150AB
:1053E000E33108F04EC2F0E0EA5FF84C0C94DF3194
:1053F00082E699E0E1CC8091E703843009F436C07D
:105400000E944E0C80E00E943E1680918003811124
:1054100009C0D09280038091F803817080937F034C
:105420000E94991710927A0328E130E080E40FB6C9
:10543000F894A895209360000FBE8093600083B716
:10544000817F846083BF83B7816083BF78948895B0
:1054500083B78E7F83BF0FB6F894A89580916000C4
:10546000886180936000109260000FBE8091E60317
:10547000882349F00E94B823E0EDF3E08191811187
:105480002AC36E12FBCF8091E703853009F4B3CFB6
:105490000E94110F0E94A30A0E943E1610928003E0
:1054A00080917F03882351F08091F803816080937D
:1054B000F80360E086950E94E9159CCD80917E03FB
:1054C000882309F497CD0E94361494CDA394DD0C63
:1054D00097E0A912A5CD0F5F1F4F0A30110509F003
:1054E00095CD8FEF88A789A71AA60E9428198160F9
:1054F000782F9CA78BA748A559A56AA58CA50E94C3
:105500002823AFCD60E089E491E00E941A145ECEBA
:1055100060E08FE491E0F9CF60E085E591E0F5CFC0
:1055200060E08BE591E0F1CF6CE080E00E94AF0A93
:1055300060E084E791E00E941A146DE080E00E9430
:10554000AF0AB0CE20918903222319F08B53944FD8
:10555000C2CE20919A0330919B032B3031051CF46D
:105560008B5F944FB8CE293231058CF48B5B954F0D
:105570000E943D070E94690C0E941F0960939103DD
:10558000709392038093930390939403CCCE8B57A4
:10559000964FEECF63E080E00E94AF0A60E08AE7BA
:1055A00091E00E941A1464E080E00E94AF0A60E07B
:1055B00080E891E00E941A146AE080E00E94AF0A3D
:1055C00080919B038F9380919A038F9386E891E05B
:1055D0009F938F93FF92EF920E945B3260E0C7012E
:1055E0000E941A146BE080E00E94AF0A60E08CE831
:1055F00091E00E941A140F900F900F900F900F904F
:105600000F9091CE8F5F082F10E01B01082E02C073
:10561000220C331C0A94E2F7A90142215321452BA5
:1056200089F39091BC0390FD44C08295880F8076E9
:1056300080931C01980136952795369527952093E0
:105640001F01815E80931D011092200124E630E04D
:1056500047E050E06AE171E088E70E94712F892BF2
:1056600009F073CEA80175E0440F551F7A95E1F754
:105670008091BC0380FD2BC041505C4F04E610E0DC
:1056800020E230E060E488E70E94982F892B09F03F
:105690005CCE0E94690CC101809590952090FD031D
:1056A0003090FE03282239223092FE032092FD031F
:1056B0004CCE880F880F880F80931C0110921F0119
:1056C000895F80931D0183E080932001BFCFECE9C7
:1056D000F3E080E2DF011D928A95E9F7E2EEF1E066
:1056E000F8ABEFA73EED432E31E0532E67E0A62E38
:1056F00099249394AFA5B8A96D91B8ABAFA7F20167
:1057000081912F01840F952F911D9C0121503C4FB9
:105710003EA72DA7E62FF0E0E456FC4F30E020E056
:105720007A2C721AB92C022E01C0BB0C0A94EAF72B
:105730000DA51EA590E0D8018D918D018B21672DBF
:10574000691B6770862E062E000C770BB82F01C0E0
:10575000BB0F8A94EAF78B2E71956195710967707A
:10576000772701C086956A95EAF7882A8081882A7A
:1057700080829F5F9830F9F62F5F3F4F3196283037
:10578000310571F6E6EEF1E02FA538A9E217F3072F
:1057900009F0B0CF04E610E020E230E04CE953E03D
:1057A00071CF00E210E0CE0101966C018091E8001B
:1057B00085FD0AC08091E8008B778093E8000E9405
:1057C0009F07882399F301CE8091F100D6018D9334
:1057D0006D010150110951F7F8CD1A8289E08B83D0
:1057E00011C08A81823009F4A5C1833089F18130EA
:1057F00009F047C00E941F090E94E5316B837C833A
:105800008D839E838091E703843009F0EACB109169
:10581000E9001F709091EC00892F817090FD80E865
:10582000182B82E08093E9008091E80080FF0CC093
:1058300050E040E060E270E0C7010E94D007809134
:10584000E8008E778093E8001F701093E900C9CBC1
:10585000DE011396E0EDF3E081918D9323E0EA3DC4
:10586000F207D1F7CFCF8A81823059F46B817C81E6
:105870008D819E810E94E53185E290E00E94013594
:10588000C1CF8FEF8983BECF4C816B818A810E940B
:105890009F0C9827892798279E838D83B3CFCD802F
:1058A000DE80DC24CD24DC248A810B813EE0039F52
:1058B000800111249CE8899F000D111D11248C8109
:1058C00090E0880F991F080F191F6D2DC80186964B
:1058D0000E9401356C2DC8018796D0CF0E94AC0E76
:1058E00091CF8A818138C1F060F4803809F08ACF85
:1058F00020E04B816091FA038091F9030E943615F4
:1059000081CF8238E9F0833809F07CCF20E04091E4
:10591000FB036C818B81F2CF60E08B810E94E915E3
:105920008B81811103C00E9499176CCF8091F8037D
:1059300081608093F80360E086950E94E91562CF4C
:105940008B818093FC035ECF8A81813899F030F49B
:10595000803809F057CF8091FB0341CF823891F016
:10596000833809F04FCF8091F9038B838091FA033C
:105970008C8348CF8091F80380FF02C086952FCF9B
:1059800080E02DCF8091FC032ACF6091F8037091C5
:10599000F9038091FA039091FB030E940F1332CF19
:1059A00080E18A832FCF81E08A838AEA18CFCA8078
:1059B000DB80DC24CD24DC248E010F5F1F4FAC8004
:1059C000A00EB12EB11CC6018A5A9D4F0A151B05A7
:1059D00009F418CFAAEACA16A1E0DA0650F40E9428
:1059E000ED34F8018483BFEFCB1ADB0A0F5F1F4F42
:1059F000EACFD80114961C92F6CF0A811B8110279A
:105A000001271027FE0131965F01CC80C00ED12EF8
:105A1000D11CC8018A5A9D4FC016D10609F4F2CE96
:105A20000A3AF1E01F0728F4D50114966C910E9400
:105A30000135BFEFAB1ABB0A0F5F1F4FEACF0E94C1
:105A4000010FE0CE84E0ADCFCA80DB80DC24CD2422
:105A5000DC248E010F5F1F4FAC80A00EB12EB11C55
:105A6000C6018696A016B10609F4CCCEE0E3CE16A8
:105A7000E2E0DE0658F40E94ED34D80114968C93CF
:105A8000FFEFCF1ADF0A0F5F1F4FEACFF801148232
:105A9000F7CF0A811B811027012710279E012F5F56
:105AA0003F4F5901CC80C00ED12ED11CC801869623
:105AB000C016D10609F4A6CE003332E0130728F44D
:105AC000D50114966C910E940135BFEFAB1ABB0A49
:105AD0000F5F1F4FEBCF09BD19BD09B400FEFDCF0D
