:100000000C9437030C947E030C947E030C94D1283B
:100010000C947E030C947E030C947E030C947E035C
:100020000C947E030C947E030C9464200C9420208A
:100030000C94DB260C947E030C947E030C947E03BC
:100040000C947E030C947E030C947E030C947E032C
:100050000C947E030C94B7260C947E030C947E03C0
:100060000C947E030C947E030C947E030C947E030C
:100070000C947E030C947E030C947E030C947E03FC
:100080000C947E030C947E030C947E030C947E03EC
:100090000C947E030C947E030C947E030C947E03DC
:1000A0000C947E030C947E030C947E03E1002A00E2
:1000B000000037032B64A0FF000000001C032B642A
:1000C00096FF0000000004032B64A0FF0000000066
:1000D0000000D7FF78FF00000000000080FF64FFF1
:1000E00000000000000015FF78FF00000000000085
:1000F0005FFF5AFF0000000005010980A101850390
:1001000019012AB700150126B70095017510810065
:10011000C0050C0901A101850419012AA0021501DD
:1001200026A002950175108100C00660FF0961A13B
:10013000010962150026FF009520750881020963F8
:10014000150026FF00952075089102C005010906DB
:10015000A101050719E029E715002501950875019A
:1001600081029501750881010507190029FF150015
:1001700026FF0095067508810005081901290595D7
:100180000575019102950175039101C000010101FE
:100190000101010101010202020202020202020344
:1001A0000303030303030304040404040404050514
:1001B00005050506060606060707070707080808D7
:1001C00008090909090A0A0A0B0B0B0C0C0C0D0D86
:1001D0000D0E0E0E0F0F0F1010111111121213131E
:1001E0001414151516161717181819191A1A1B1B97
:1001F0001C1D1D1E1E1F20202122222324242526F3
:1002000026272829292A2B2C2D2D2E2F303132322A
:10021000333435363738393A3B3C3D3E3F40414236
:10022000434445464748494A4C4D4E4F505153541C
:10023000555658595A5B5D5E5F61626465666869D0
:100240006B6C6D6F7072737577787A7B7D7E808250
:10025000838587888A8C8E8F91939596989A9C9E99
:10026000A0A2A3A5A7A9ABADAFB1B3B5B7BABCBEA9
:10027000C0C2C4C6C9CBCDCFD1D4D6D8DBDDDFE276
:10028000E4E7E9EBEEF0F3F5F8FAFDFFFFAA7F559E
:10029000401C1004010D190A24232221201F1E1DB9
:1002A0001B1A18171615141312110F0E0C0B090830
:1002B0000706050302002D3945483C303F25262717
:1002C00028292A2B2C2E2F31323334353637383A21
:1002D0003B3D3E404142434446474935001E001FD6
:1002E000002000210022000000290014001A00084C
:1002F000001500170080002B0004001600070009FD
:10030000000A000000E1001D001B000600190005A6
:10031000008100A800E300E200E000025128000094
:10032000002D002700260025002400230000002ABD
:1003300000130012000C0018001C004B00340033A6
:10034000000F000E000D000B000000E50038003724
:10035000003600100011004E00E700E600E4000344
:10036000512C0000000000460001000100010001C6
:1003700000010000000100170014001A0008001519
:1003800000010001000A0004001600070009000037
:1003900000010005001D001B0006001900010001FE
:1003A0000001000100010048002C000000010001D4
:1003B00000010001000100010000002A000100010D
:1003C0000001000100010001000100010001000125
:1003D0000001000100000001000100010001000116
:1003E00000010001000100010001000351010001B2
:1003F00000000001003A003B003C003D003E0000D0
:100400000035001E001F0020002100220001000115
:10041000001E021F02200221022202000001002E03
:10042000002D002E022F022F020100010001000109
:1004300000010001000100000044004300420041AF
:100440000040003F00000045002700260025002452
:100450000023000100310227022602250224022384
:10046000020000010031003302370030002F00018C
:100470000001000100010001000100010000000175
:100480000001000100010001000100000001000165
:100490000001000100010001000100010001000154
:1004A0000001000100010000000100010001000145
:1004B0000001000100010001000100010001000134
:1004C0000001000000010001000100010001000125
:1004D0000000004C0049004D0052004A000100019C
:1004E00000010001004F0051005000010000000118
:1004F0000001004E0001004B003900010001000125
:1005000000010001000100010000000000000000E7
:1005100000000000000000000000000000000000DB
:100520000000000000000000000000000000007E4D
:100530000F00D4FFFFFFC70000007800000000009C
:100540000000002A2B28000000000000000000002E
:1005500000000000000029000000002C1E342021B3
:100560002224342627252E362D3738271E1F2021FA
:1005700022232425263333362E37381F0405060759
:1005800008090A0B0C0D0E0F101112131415161773
:1005900018191A1B1C1D2F3130232D350405060791
:1005A00008090A0B0C0D0E0F101112131415161753
:1005B00018191A1B1C1D2F3130354CEE00E400DADF
:1005C00000D000C600BC00B200000009025B0003BE
:1005D0000100A0FA09040000010301010009211132
:1005E0000100012240000705810308000A090401F7
:1005F000000203000000092111010001222200076E
:1006000005820320000107050303200001090402FD
:10061000000103000000092111010001223200073E
:1006200005840320000A120110010000000832FCBA
:1006300087120200010200011E0353006F006C00CC
:10064000610072006900750073005F0053006F0065
:1006500066006C006500000010034B006500790027
:100660006800690076006500000004030904112495
:100670001FBECFEFDAE0DEBFCDBF04B603FE27C05A
:100680008091960390919703A0919803B09199035C
:100690008730904BA740B04BD1F410929603109244
:1006A0009703109298031092990314BE84B7877F22
:1006B00084BF0FB6F894A8958091600088618093FC
:1006C0006000109260000FBEE0E0F8E3099511E0D1
:1006D000A0E0B1E0E2E1F9E502C005900D92AE398B
:1006E000B107D9F723E0AEE9B1E001C01D92A63908
:1006F000B207E1F70E943B210C943C2C0C940000C3
:10070000E8EDF0E080818E7F80831092E20010920D
:10071000DA001092E100A0EEB0E08C9181608C9341
:1007200080818F77808319BCA7EDB0E08C918E7F9C
:100730008C9380818F7E808310925A03089520913C
:10074000E4003091E50095E6A9012091EC00822FAC
:10075000817020FF06C08091E80080FF06C080E025
:1007600008952091E80022FD1AC080916703882334
:1007700089F0853089F08091EB0085FD0FC02091D4
:10078000E4003091E50042175307F9F29150E1F689
:1007900084E0089582E0089583E0089581E008955B
:1007A000EF92FF920F931F93CF937C018B010E94D6
:1007B0009F03C82F811117C08091E80085FD0BC0F1
:1007C0008091E8008E778093E8000E949F03882341
:1007D00099F3C82F08C0F70181917F018093F10040
:1007E0000150110949F78C2FCF911F910F91FF9064
:1007F000EF9008958091690387FF13C08091E8000E
:1008000082FF06C08091E8008B778093E80004C0E7
:10081000809167038111F2CF089580916703882347
:10082000D9F38091E80080FFF8CF8091E8008E77BF
:10083000ECCF982F9093E900242F762F50E0891762
:1008400031F07091EC002091ED005091F00021FD0D
:1008500007C09F5F973071F78093E90081E00895AA
:100860003091EB003E7F3093EB003091ED003D7F07
:100870003093ED003091EB0031603093EB007093DA
:10088000EC002093ED005093F0002091EE0027FD46
:10089000E0CF80E00895CF92DF92EF92FF920F9326
:1008A0001F93CF93DF93C8EDD0E088818F7E88833C
:1008B000E7EDF0E080818160808384E082BF81E0A9
:1008C00080935A0388818E7F888302EE10E0F801BE
:1008D00010821092DA0081EEC82ED12CF60110821F
:1008E00088818F77888388818068888388818F7DDD
:1008F000888319BC109267031092680310926603F4
:100900001092650390EEE92EF12CF70180818B7F28
:10091000808388818160888342E060E080E00E947B
:100920001904F60180818E7F8083F80180818160C7
:100930008083808188608083F70180818E7F8083BF
:10094000888180618883DF91CF911F910F91FF9003
:10095000EF90DF90CF900895FC0180916F0390910C
:10096000700386179707A0F06115710529F490911F
:10097000E8009E779093E80090E06115710551F4CE
:10098000911108C08091E80082FF34C080E0089592
:10099000BC01F2CF809167038823C1F18530C1F19A
:1009A0008091E80083FD30C08091E80082FDEACFAD
:1009B0008091E80080FFE1CF8091F3002091F20068
:1009C000382F6115710519F02830310558F091E084
:1009D0002830310509F090E02091E8002E7720932F
:1009E000E800CBCF81918093F100615071092F5FB6
:1009F0003F4FE7CF80916703882341F0853041F076
:100A00008091E80083FFBECF81E0089582E00895E1
:100A100083E0089580E00895089580915C0308952F
:100A20009C014FB7F89480911C0390911D03A091F5
:100A30001E03B0911F034FBF821B930B08952FB766
:100A4000F89460911C0370911D0380911E03909196
:100A50001F032FBF08952FB7F89480911C03909126
:100A60001D03A0911E03B0911F032FBF08959C0189
:100A7000FC0132969FEF80E04191461751F09F3F75
:100A800019F4411101C0982F8F5F8630A9F79F3F5D
:100A900009F40895290F311D97FD3A95F9016283F4
:100AA00008958091170390911603892B9091150357
:100AB000892B8093A001E0913603F09137033097A2
:100AC00031F00280F381E02D80EA91E009940895ED
:100AD00027E0929F800D1124982F97708695869518
:100AE000869525E0829FF0011124E851FD4F50E0EA
:100AF00040E080E0219130E0092E02C03695279534
:100B00000A94E2F721703327042E01C0220F0A94C1
:100B1000EAF7822B4F5F5F4F4530510559F7089533
:100B200027E0929F800D1124982F977041E001C01B
:100B3000440F9A95EAF786958695869595E0899F64
:100B4000F0011124E851FD4F90E080E070E05191F8
:100B5000DF0111979B01082E02C0369527950A9454
:100B6000E2F7217021952527242325272C93019630
:100B70008530910561F708958091E7029091B60262
:100B8000981301C008958F5F8770FACF882341F0D2
:100B90008095909116038923809316030C94510538
:100BA0000895882339F090911603982B909316039B
:100BB0000C9451050895882341F080959091170376
:100BC0008923809317030C9451050895882339F0E5
:100BD00090911703982B909317030C945105089547
:100BE0000C941F0520918D0230918E022817390731
:100BF00071F090938E0280938D02E0913603F09114
:100C00003703309721F00084F185E02D0994089591
:100C100020918B0230918C022817390771F0909344
:100C20008C0280938B02E0913603F091370330976A
:100C300021F00680F781E02D0994089590E080E08E
:100C40000E94080690E080E00E94F20510921603D0
:100C5000109215030C9451056093180370931903B7
:100C600080931A0390931B030C941E068823B1F102
:100C70009CEF980F913A70F4E2EAF1E091918913B8
:100C800003C0DF0111971C9241E0E83AF407B1F785
:100C90000C94510590E2980F983088F4877021E009
:100CA00030E0A90102C0440F551F8A95E2F7CA013E
:100CB000809590911703892380931703E9CF9BE5D3
:100CC000980F933020F490E080E00C940806885A46
:100CD000873120F490E080E00C94F2050895CF93E2
:100CE000C82F882309F44EC08CEF8C0F813AF8F49A
:100CF000E2EAF1E088EA91E0DF012D91C21759F0B4
:100D00008A179B07D1F76C2F80EA91E00E94370584
:100D1000CF910C9451052191C21303C0DF011197AB
:100D20001C928E179F07B9F70E945105ECCF80E205
:100D30008C0F883068F4C77021E030E001C0220FCA
:100D4000CA95EAF780911703822B80931703E0CFAF
:100D5000EBE5EC0FE33040F4F0E0E35BFE4F808125
:100D600090E0CF910C940806C85AC73158F4EC2F84
:100D7000F0E0EE0FFF1FE05BFE4F80819181CF918D
:100D80000C94F205CF910895E0913603F09137036A
:100D9000309721F00190F081E02D099480E00895D2
:100DA000FA01811101C0FB01099480917803982F09
:100DB0009E7F61F4817082608093780380917B03D1
:100DC000853B18F084EB80937B0308958831B0F362
:100DD00081708661F1CFAF92BF92DF92EF92FF9266
:100DE0000F931F93CF93DF93082F162FE901E42F62
:100DF000F0E0E457FE4F611110C0E4915E2F4E2FDA
:100E00004983E8835A83DF91CF911F910F91FF901F
:100E1000EF90DF90BF90AF900895E62EF12C4491B3
:100E2000D42EE42FF0E026E0829FC00111242FEFA2
:100E300030E0B9010E94DE29802F90E0880F991FD1
:100E400055E5569FD001579FB00D11248A1B9B0B6F
:100E5000982F990F890F5901AE18BF08AE9ED00187
:100E6000AF9EB00DBE9EB00D11245B2F189F800168
:100E70001124012F11275901A01AB10AAE9E800139
:100E8000AF9E100DBE9E100D11245901A81AB10875
:100E9000AE9CC001AF9C900DBE9C900D1124892F7B
:100EA0009927281B390B2E9FC0012F9F900D3E9F25
:100EB000900D1124E92F62307105A1F050F46115F5
:100EC000710509F49DCF6130710581F0EB2F512F31
:100ED00097CF6430710569F080F06630710509F4D0
:100EE0008FCFF4CFE42F4B2F592F8ACFE42F412FF0
:100EF00087CFEB2F542F492F83CF4B2F5D2DE12F21
:100F00007FCFF894E82FE295EF70F0E031A1282F21
:100F10002F7081E090E001C0880F2A95EAF7982FA2
:100F20009095932391A392A1892B82A378940895FD
:100F30009091300392FF06C0282F28712830F9F4D1
:100F4000877F846093FF06C0282F28712831F1F431
:100F5000877E84612091310320FF06C0382F3871CD
:100F60003830D9F4877F816021FF06C0282F28718F
:100F70002831D1F4877E816194FD877E0895282FE2
:100F800024712430F9F68B7F8860DCCF282F247100
:100F9000243101F78B7E8861DDCF382F31713130FC
:100FA00019F78E7F8860E0CF282F2171213121F73A
:100FB0008E7E8861E1CFCF93DF939C013A95211516
:100FC0003F4168F5EC01CC27D170DC01AA27B27053
:100FD000AC01442754709C012227387094FF11C043
:100FE00080E1CD2B09F480E0AB2B09F08062452B2A
:100FF00009F08064232B09F08068FB01DF91CF9119
:10100000099481E0CD2B09F480E0AB2B09F08260DC
:10101000452B09F08460232B81F38860EECFDF91AC
:10102000CF910895CF93DF93EC010E943606CE0155
:10103000805E9109089720F066EC75E0209711F426
:101040006BED75E0CE01DF91CF910C94DB07CF9370
:10105000DF93EC01805E9109089720F061ED75E067
:10106000209711F466EE75E0CE010E94DB078C2F0D
:10107000DF91CF910C946F06CF939091A8029923A2
:1010800021F0811116C01092A802CF910895EC2F83
:10109000F0E0EE0FFF1FE856FD4F808191810E9426
:1010A00027080E945105CF5F8091A802C81778F3E6
:1010B000EACFC0E0F9CFCF9384E090E00E945D2AB0
:1010C000C82F81E290E00E945D2A982F8C2FCF914B
:1010D00008950F931F93CF93DF93C42FD0E0CC0FCD
:1010E000DD1F2EE0629FC00DD11D11243CE8839FBF
:1010F000C00DD11D1124CE0186960E945D2A082FB5
:1011000010E0102F0027CE0187960E945D2A9801DB
:10111000282BC901DF91CF911F910F910895462F80
:10112000843038F47A3028F4673018F4672F0C9440
:10113000690890E080E00895CF93DF930E948F08C4
:10114000EC018238910581F1B0F58133910509F404
:1011500091C020F58932910509F485C08A9709F478
:1011600090C0C11521E5D20708F0AAC0C11530E52D
:10117000D30708F0F2C0CF3BD10508F089C0C83AC8
:10118000D10508F0DFC0C53AD10508F0D3C0C4309E
:10119000D105F8F4C130D105E1F040C085339105A7
:1011A00009F45AC0C997E9F680913003837089F039
:1011B000C0EED0E00EC0833E910599F170F4803E00
:1011C000910501F1823E910561F68091300382FD27
:1011D00021C0CE01DF91CF910895863E910561F146
:1011E000873E910571F1843E910509F0BACF809157
:1011F000310381FFEECF80913003C7EED0E084FD54
:101200000DC0E7CF8091300380FDF7C0909131038E
:1012100090FFDFCFC3EED0E084FFDBCFD0E0C0E0B3
:10122000D8CF8091300382FDEBC09091310390FDC7
:10123000BFCF84FFCECFF2CF8091300383FDDDCFCF
:10124000C8CF8091300383FDDEC09091310391FFC0
:10125000F0CFC4EED0E0BDCF8091300385FFB9CF91
:10126000C9E2D0E0B6CF8091300385FFB2CFC5E3AD
:10127000D0E0AFCF8091300386FFABCFCAE2D0E0A1
:10128000A8CF8091300386FFA4CFC1E3D0E0A1CFE7
:10129000C11540E2D40760F4C11581E0D80708F019
:1012A00098CFCE01805E9109089708F492CFB6CF0F
:1012B000C11590E4D90708F4B1CFDF70D06A89CFA7
:1012C000C11524E5D20778F4C11533E5D30708F03A
:1012D00072C0C11542E5D40708F05CC0DC2FCC27F2
:1012E000C16FD06A76CFC1158AE5D80778F4C115E9
:1012F00099E5D90708F073C0C11528E5D20708F4AD
:101300008DCFDC2FCC27C06FD06A63CFCE01905633
:101310008115904208F082CF8D2F8F710E9498071F
:1013200090E0982F882788279F719C012C2BE9013A
:10133000D0624FCFC55AD0E0C35BDE4FC881D0E04A
:10134000D06447CFC85AD0E0CC0FDD1FC05BDE4F62
:101350000990D881C02DD4643CCFCE0164E096952D
:1013600087956A95E1F783702C2F26952695237033
:1013700040E2249F90011124382B8C2F8370C1E010
:10138000D0E002C0CC0FDD1F8A95E2F7C22BD32B31
:10139000DC681FCFCE018370992721E030E002C0C6
:1013A000220F331F8A95E2F7C695C69580E2C89F43
:1013B000E0011124EBCFCE018370992721E030E0CA
:1013C00002C0220F331F8A95E2F7C695C69590E2B8
:1013D000C99FE0011124C22BD32BDA68FACE8C2FDF
:1013E0008F700E94980734E0D695C7953A95E1F73B
:1013F000CF709C2FEC01D069ECCEC9E3D0E0E9CEF0
:10140000C2EED0E0E6CEC6EED0E0E3CEBF92CF9201
:10141000DF92EF92FF920F931F93CF93DF938C0194
:10142000C0907103D0907203E0907303F090740346
:101430008091180390911903A0911A03B0911B0396
:10144000C82AD92AEA2AFB2ACFE1D0E0BC2ED7014C
:10145000C6010C2E04C0B695A795979587950A945A
:10146000D2F780FD0EC0219788F7B12C8B2DDF912C
:10147000CF911F910F91FF90EF90DF90CF90BF9091
:101480000895B8018C2F0E949C08019761F3EECF5C
:10149000CF93DF93EC010E94060ABE01DF91CF914A
:1014A0000C949C080E94480A292F2F7092959F70D7
:1014B00092509E3078F4E92FF0E0E25CF34D0C940A
:1014C000252A803F19F020F4883E20F481E0089519
:1014D000843FE1F380E00895883EC0F3813FD1F777
:1014E000F5CF822F86958695869508956F927F9287
:1014F0008F929F92AF92BF92CF92DF92EF92FF9224
:101500000F931F93CF93DF938BEDC82E82E0D82EDD
:1015100090ECE92EF12CE701CC58D10936011BC023
:10152000F50185909490692DC8010E94712A682D5B
:10153000C80101960E94712A82E0A80EB11C0E5FBC
:101540001F4FC017D10761F78EE0680E711C2E96F1
:10155000CE15DF0529F08E010E5011095301E0CFA1
:101560007E018CE8E80EF11C8CE8C80ED11C80EFDF
:10157000E81682E0F80679F6DF91CF911F910F917E
:10158000FF90EF90DF90CF90BF90AF909F908F90A3
:101590007F906F900895CF93DF93C6E5D2E060E02F
:1015A000CE010E94712A2196C11584E0D807B9F7AF
:1015B000DF91CF910895CF93DF9300D00F92CDB7F5
:1015C000DEB790916703943011F589837B836A833A
:1015D0009093E9008FEF9091E800815095FD06C04F
:1015E00095ED9A95F1F700008111F5CF8091E80013
:1015F00085FF0DC050E040E063E070E0CE01019651
:101600000E94D0038091E8008E778093E8000F90CD
:101610000F900F90DF91CF910895BC0184E00C945E
:10162000DB0ABC0183E00C94DB0ACF93DF93EC016F
:1016300081E08093E9008FEF9091E800815095FD63
:1016400006C095ED9A95F1F700008111F5CF8091D4
:10165000E80085FF14C050E040E068E070E0CE0193
:101660000E94D0038091E8008E778093E80088E0A4
:10167000FE01ADE5B3E001900D928A95E1F7DF91AF
:10168000CF91089581E08093E00080E28093D800BC
:101690001092C9008FE19EE40197F1F700C00000AD
:1016A00087E090EBDC018093960390939703A093DF
:1016B0009803B093990388E19CE00FB6F894A8953D
:1016C000809360000FBE90936000FFCF1F93CF9375
:1016D000DF93182FCAE0D0E0893311F4C0E5D0E0E1
:1016E000812F0E946F068FE99FE00197F1F700C0FC
:1016F00000002197C1F7812FDF91CF911F910C94AA
:1017000036060F931F93CF93DF93C62FD42F022F4C
:10171000FC0182818823A1F0609377030E942B054E
:101720009093760380937503C77081E001C0880FA2
:10173000CA95EAF7DF91CF911F910F910C94E605BE
:1017400080917703681335C080917503909176037B
:101750000E9410058436910560F510E21D0FCD172B
:10176000B9F080E28C0F883040F4C77081E001C08E
:10177000880FCA95EAF70E94DB05183048F481E02B
:101780009D2F977001C0880F9A95EAF70E94E60591
:10179000802F0E94660B183098F4D77081E001C04A
:1017A000880FDA95EAF7DF91CF911F910F910C9492
:1017B000DB05C77081E001C0880FCA95EAF7F3CF57
:1017C000DF91CF911F910F9108958091AC0181110C
:1017D00011C08091D80080618093D8008AE18A95F9
:1017E000F1F700C09091D900892F817090FF82E0BD
:1017F0008093AC0181E09091AC01913009F080E0E0
:1018000008956BEE7EEF90E080E00E948F2A60E00A
:1018100082E090E00E94712A60E083E090E00E9404
:10182000712A109218031092190310921A03109241
:101830001B0360E084E090E00E94712A60E081E296
:1018400090E00E94712A60E085E090E00E94712A99
:1018500060E086E090E00E94712A6FEF87E090E000
:101860000E94712A40E050E0BA0188E090E00E94B6
:10187000832A60E08DE090E00E94712A40E050E011
:10188000BA0188E190E00E94832A60E087E190E05D
:101890000E94712A40E050E0BA018CE190E00E9481
:1018A000832A60E080E290E00E94712A40E050E0EC
:1018B000BA0188E190E00E94832A40E050E0BA013A
:1018C0008FE090E00E94832A40E050E0BA0183E17B
:1018D00090E00C94832ACF92DF92EF92FF926B01FB
:1018E0007C010E94D506B701A60188E090E0FF9038
:1018F000EF90DF90CF900C94832A80917C03882313
:1019000019F0815080937C03609178037091790382
:1019100080917A0390917B030C946B0C80917C03F3
:10192000833018F48F5F80937C036091780370910B
:10193000790380917A0390917B030C946B0CE8E718
:10194000F3E083E0808311828FEF828384EB8383D3
:101950001482A9E3B3E012968C91129783601296D9
:101960008C9360817181828193810C946B0C1092B5
:101970001703E2EAF1E086E0DF011D928A95E9F7BC
:101980000C941E061F93CF93DF93CDB7DEB7AA97B3
:101990000FB6F894DEBF0FBECDBF89E693E020916D
:1019A000F100DC012D93CD01B3E081379B07B9F73E
:1019B00080916A03833009F471C0B8F4813009F46E
:1019C00048C0823009F4B2C08091E80083FF3AC178
:1019D0008091690390916A039A3008F033C1E92F2E
:1019E000F0E0E45BF34D0C94252A8A3009F48DC0B5
:1019F0008B3009F470C0893039F7809169038132E6
:101A000019F780916D0390916E03009711F0029782
:101A1000D9F68091E800877F8093E8008091E80004
:101A200082FF37C09091F3008091F200029729F471
:101A30008091F1008B7F813021F48091F1008093BF
:101A40005C038091E8008B778093E8000E94FA03A2
:101A5000BBCF80916903813A09F0B6CF8091E8004D
:101A6000877F8093E80080916D0390916E03892BAE
:101A700061F468E08DE593E070E00E94AC04809131
:101A8000E8008B778093E8009FCF60E090E080E0F3
:101A9000F3CF809167038111C1CF96CF8091690305
:101AA000813A09F091CF80916D0390916E03892B5B
:101AB00009F08ACF8091E800877F8093E8008091C9
:101AC000E80080FFFCCF809129018093F100809194
:101AD000E8008E77B9CF80916903813209F074CF25
:101AE00080916D0390916E03892B09F06DCF8091E9
:101AF000E800877F8093E8000E94FA0380916B03DF
:101B0000809329010E94B70C5FCF809169038132D5
:101B100009F05ACF8091E800877F8093E8000E9407
:101B2000FA0380916C0380935B034ECF809169032D
:101B3000813A09F049CF8091E800877F8093E800DF
:101B40008091E80080FFFCCF80915B03BECF80389E
:101B500099F0823809F076C080916D038F708730DC
:101B600008F070C08093E9008091EB0085FB882726
:101B700080F91092E90006C0809165039091660398
:101B8000911182609091E800977F9093E800809394
:101B9000F1001092F1008091E8008E77B5C18823A2
:101BA00009F4A2C1823009F04DC080916B0381110C
:101BB000A6C180916D038F702FEF280F263008F09B
:101BC00041C08093E9002091EB0020FF98C1933041
:101BD00031F48091EB0080628093EB0090C1909192
:101BE000EB0090619093EB0021E030E001C0220F08
:101BF0008A95EAF72093EA001092EA008091EB00C0
:101C00008860EACF81111EC010916B031F7780910D
:101C1000E3008078812B8093E3008091E800877F48
:101C20008093E8000E94FA038091E80080FFFCCFD7
:101C30008091E30080688093E30082E0111183E0EB
:101C4000809367038091E80083FF0AC08091E800D9
:101C5000877F8093E8008091EB0080628093EB00A7
:101C6000AA960FB6F894DEBF0FBECDBFDF91CF911D
:101C70001F9108958058823028F720916B0330918E
:101C80006C032C3DE3E03E07A1F583E08A838AE202
:101C900089834FB7F894DE01139620E03EE051E2CD
:101CA000E32FF0E050935700E49120FF03C0E2954A
:101CB000EF703F5FEF708E2F90E0EA30C0F0C79674
:101CC0008D939D932F5F243159F74FBF8091E8008A
:101CD000877F8093E8006AE270E0CE0101960E945F
:101CE000AC048091E8008B778093E800ABCFC0967E
:101CF000E7CF80916D0390916E03432F55274330BA
:101D0000510509F44AC078F54130510509F47AC00B
:101D10008BE590E0EBECF5E04230510509F092CF15
:101D20002091E800277F2093E80020916F033091F5
:101D300070038217930708F49C0140E021153105D8
:101D400009F065C0411163C08091E80082FDC9CFF0
:101D500080916703882329F2853019F28091E80089
:101D600083FFF2CFBECF4132510509F43CC042326D
:101D7000510509F067CF8330910508F063CFFC016E
:101D8000EE0FFF1FEF56FE4F0190F081E02D8257BE
:101D90009E4FDC018C9190E01AC033272130310531
:101DA000D1F02115310561F02230310509F04ACF1B
:101DB000E8E3F6E0E4918E2F90E0E8E3F6E007C078
:101DC000EAE6F6E0E4918E2F90E0EAE6F6E000978E
:101DD00009F438CFA5CFE8E5F6E0E4918E2F90E046
:101DE000E8E5F6E0F4CF8330910508F02BCF880FBB
:101DF000991FFC01E956FE4F0190F081E02D89E02A
:101E000090E08ECF82E190E0E6E2F6E089CF80912B
:101E10006703882309F465CF853009F462CF809188
:101E2000E80083FD5ECF8091E80082FD8DCF809138
:101E3000E80080FF83CF9091F3008091F20021159C
:101E4000310519F08830910550F041E0089709F00C
:101E500040E08091E8008E778093E8006FCF449156
:101E60004093F1003196215031090196E8CF803836
:101E700009F0E8CE8091E800877F8093E8008091A8
:101E800068038093F10087CE8111DCCE10916B0343
:101E9000123008F0D7CE8091E800877F8093E80069
:101EA000109368030E94FA03112311F084E005C027
:101EB0008091E30087FDFACF81E08093670342E0E1
:101EC00061EC81E00E94190442E261EC84E00E942E
:101ED000190442E261EC82E00E94190442E260ECE3
:101EE00083E00E941904AECE80916B03813009F02B
:101EF000A9CE81E0933009F080E0809366031092D0
:101F0000E9008091E800877F8093E8000E94FA034F
:101F100099CE4F925F926F927F928F929F92AF92E3
:101F2000BF92CF92DF92EF92FF920F931F93CF93C6
:101F3000DF93CDB7DEB7CE5DD1090FB6F894DEBF23
:101F40000FBECDBF509007018091780380FF5DC028
:101F500080903403909035038114910409F068C097
:101F6000E1E9F2E09E012F5F3F4FBE0161527F4FDA
:101F7000C901A4914A2F50E0DA01AA0FBB1FA40F98
:101F8000B51FA355BE4FCD90DD90EC90D901CD92F9
:101F9000DD92ED929D0131966A177B0751F72091F2
:101FA000060143E0249F800D911D1124539A2BB10B
:101FB000277F3BB138605FB7F894BC01549E600D39
:101FC000711D11248617970709F090C05FBF8FE538
:101FD00094E00197F1F700C00000C252DF4F0FB646
:101FE000F894DEBF0FBECDBFDF91CF911F910F914F
:101FF000FF90EF90DF90CF90BF90AF909F908F9029
:102000007F906F905F904F9008958091080190911C
:10201000090123E0829FF0011124E355FE4F891747
:1020200008F096CF1182108212828F5F3396F7CF1D
:1020300080913E03811194CFD12CC12C66246394EE
:10204000712C53E0452E80913C0393010C2C01C070
:10205000220F0A94EAF7822309F43FC0F601EE0F3B
:10206000FF1FE80DF91DE590F490E114F10409F467
:1020700077CF45E050E0B701CE0101960E94542A87
:1020800009810F3F51F18A81800F9927991F8B3465
:10209000910514F08AE490E05C01AA0CBB1C8A0D47
:1020A0009B1DDC01A355BE4F5D01049D80011124E1
:1020B00003551E4F0A151B0520F0B5E0EB0EF11C71
:1020C000D8CF4D81453B08F044EB98016C818B8162
:1020D0000E94EB060D5F1F4FEDCFEFEFCE1ADE0A29
:1020E000F8E0CF16D10409F0AECF3ACFFC01419110
:1020F000CF01E8E03BB9000000C047FF2BB9440F17
:10210000000000C000C000C02BB900C0EA9591F7E4
:1021100059CFAF92BF92CF92DF92EF92FF920F937F
:102120001F93CF93DF9300D00F92CDB7DEB7082F68
:10213000F62E142FE22E8091780380FF4FC0E82FF7
:10214000E695AE2FB0E0AF5BBE4F9C919093390304
:102150008E7F823009F056C0453B08F044EB9E016B
:102160002F5F3F4F6F2D802F0E94EB0680917803E9
:1021700080FF11C02B8139814A81809108019091A3
:10218000090153E0859FF0011124E355FE4F8917A3
:1021900098F10E94890F80917903801308C0809183
:1021A0007A038F1104C080917B03811729F08091FD
:1021B0003B03826080933B0300937903F0927A03A0
:1021C00010937B03EE2051F06091780370917903B6
:1021D00080917A0390917B030E946B0C0F900F907B
:1021E0000F90DF91CF911F910F91FF90EF90DF90B3
:1021F000CF90BF90AF9008954183308322838F5F4B
:102200003396C5CF923039F6E2508E2F8170D82E9A
:10221000E695F0E0E457FD4FA590B490C12CBB24A7
:1022200060910A01C61608F0B4CF2C2D30E0A29EB2
:10223000C001A39E900DB29E900D112470E00E94EB
:10224000DE29802FD11016C0860F40910801420F61
:10225000532F511D9A01220F331F240F351F235571
:102260003E4F412F153B08F044EB6F2D0E94EB06CB
:10227000C394D6CF861BE9CF20E00C9489109091AF
:10228000780390FF26C0917081111CC092609093DA
:10229000780380913B03816080933B03662351F078
:1022A000609178037091790380917A0390917B0318
:1022B0000E946B0C40917B0360917A0380917903BB
:1022C0000C943C118C3010F09661E1CF880F982B64
:1022D000DECF089521E030E0A90102C0440F551F70
:1022E0008A95E2F7CA0120913C036623C1F0822B54
:1022F00080933C0380913B03806180933B038091FA
:102300003A03811106C08091780360E086950E94AF
:102310003F118091780380FD05C00C94890F809552
:102320008223E6CF0895CF93DF93C82FC17082FB3D
:10233000DD27D0F981FB662760F984E00E946A11ED
:1023400061E06C2785E00E946A116D2F86E0DF91C5
:10235000CF910C946A11E8E7F3E08081816080837B
:1023600060E086950C943F118091780386958150AA
:1023700009F48BE061E00C943F118091780386951D
:102380008F5F8C3008F081E061E00C943F11809108
:10239000780380FF07C0869582588F77893010F4C4
:1023A0000C94BD1161E082E00C943F11CF92DF925A
:1023B000EF92FF920F931F936B017C0161E0C114B8
:1023C000D104E104F10409F06C2D617080E00E94F9
:1023D0006A1160E0C114D104E104F10441F0D701B5
:1023E000C601B695A79597958795682F617081E08E
:1023F0000E946A1160E0C114D104E104F10459F0B3
:10240000D701C60102E0B695A795979587950A95DD
:10241000D1F7682F617082E00E946A1160E0C114F8
:10242000D104E104F10459F0D701C60113E0B695D7
:10243000A795979587951A95D1F7682F617083E0D6
:102440000E946A11A7016627772780E1411551058F
:102450006105710519F4B701A60180E0052F162F5B
:10246000272F3327011511052105310519F0885F44
:10247000B901A8018A019B01F4E0369527951795CB
:102480000795FA95D1F7011511052105310519F0C8
:102490008C5FB901A8018A019B01E2E0369527957E
:1024A00017950795EA95D1F7011511052105310515
:1024B00019F08E5FB901A8017695679557954795F4
:1024C000452B462B472B09F08F5F8130E1F08823A5
:1024D00051F08230F1F0833011F10E94AB1140E5F0
:1024E0006FEF80E405C00E94AB1140E56FEF82E31F
:1024F0000E943C11C701B6011F910F91FF90EF9010
:10250000DF90CF9008950E94AB1140E56FEF88E017
:10251000EFCF0E94AB1140E56FEF86E7E9CF0E9455
:10252000AB1140E56FEF8AEDE3CF0E94D6116093C7
:1025300071037093720380937303909374030C94EC
:102540001E060F931F936091710370917203809127
:102550007303909174038B019C010670112722274D
:102560003327063011052105310529F468601F91D4
:102570000F910C949512677FFACF0F931F9341E050
:1025800050E060E070E004C0440F551F661F771FE5
:102590008A95D2F7CB01BA01609570958095909598
:1025A00000917103109172032091730330917403B1
:1025B00060237123822393231F910F910C94951212
:1025C0000F931F9341E050E060E070E004C0440FBF
:1025D000551F661F771F8A95D2F7809171039091DE
:1025E0007203A0917303B09174038A019B01082BBD
:1025F000192B2A2B3B2BC901B8011F910F910C9469
:1026000095125F926F927F928F929F92AF92BF923C
:10261000CF92DF92EF92FF920F931F93CF93DF93AE
:1026200000D000D00F92CDB7DEB77C01FC018381D2
:102630009481892B31F08081918189238F3F09F02A
:10264000ABC70F900F900F900F900F90DF91CF912D
:102650001F910F91FF90EF90DF90CF90BF90AF90C0
:102660009F908F907F906F905F9008950E94060AD0
:10267000182F682F89819A810E94900569817A813B
:10268000812F0E948F088C01F7018281882309F431
:1026900060C0C80190568115F0E29F0750F0905E2F
:1026A000811520E1920728F0915C81159F4108F087
:1026B0009DC0C80199279C0124503109243231055D
:1026C00020F08B970E9708F044C080919002909173
:1026D00091020097C1F10E941005C0908F02D12C89
:1026E0009C0150E040E060E67AEE80E090E00E94DD
:1026F000062ACA01B90125E030E040E050E00E941E
:10270000062A622F70E06C197D09072E000C880BD9
:10271000990B0E94432B27EA39E747E45DE30E94C7
:10272000CF2B4B015C01B601DD0C880B990B0E948D
:10273000432B9B01AC01C501B4010E94A62A0E9453
:10274000122B60938F020E942B059093910280932D
:102750009002F7018281882309F412C7980122515F
:102760003F452031310508F085C68FEF93E00E9488
:102770005D2A025176E5A72E72E0B72E811161CF56
:1027800001113DC01C821B82662463946AE0562EB0
:1027900085010F5F1F4FC5010E945D2A89831A8240
:1027A000882309F44ECF9FEF980F9330B8F58A83B2
:1027B000698232E0A30EB11CC8010E945D2A8B839E
:1027C000882309F43ECF8E010F5F1F4FF80120814F
:1027D0002223F1F2213009F05BC091818281913096
:1027E000F9F40E5F1F4F0E94660B20C090E080E05E
:1027F0000F3F110511F008F05ECFC8015CCFA114A6
:10280000F4E0BF0609F41DCFC5010E945D2A8111C5
:1028100001C001502FEFA21AB20AB2CF5801D3CF94
:10282000923039F40E5F1F4F0E946F060F5F1F4FEB
:10283000CDCF933029F40E5F1F4F0E943606F6CF9E
:10284000943019F00F5F1F4FF1CF0E5F1F4F30E034
:1028500020E0B8016F5F7F4FF80141818053990BF1
:102860008A30910550F02150310900F38FE99FE043
:102870000197F1F700C00000F6CF529EF001539E81
:10288000F00D11249C012E0F3F1F842F8B01E1CFEF
:10289000E22FF0E0E55CFA4F7490822F86958695E2
:1028A000869590E0FC01E55DFA4FE4902770F12CED
:1028B000022E02C0F594E7940A94E2F7E1E0EE22DA
:1028C000FF24FC01E55EFA4FC490D12C022E02C019
:1028D000D594C7940A94E2F7F1E0CF22DD24FC01FD
:1028E000E55FFA4F8490912C02C0959487942A95C5
:1028F000E2F721E082229924E114F10419F081EE3B
:102900000E946F06C114D10419F086EE0E946F0672
:10291000872D0E94660BCD2819F086EE0E943606A0
:10292000EF2819F081EE0E943606892809F47ECF3F
:102930008CE259CF81E00E94E01203C081E00E9446
:10294000BD120F900F900F900F900F90DF91CF91CD
:102950001F910F91FF90EF90DF90CF90BF90AF90BD
:102960009F908F907F906F905F900C94A11282E067
:10297000E2CF02389FE5190709F453C00338EFE5A9
:102980001E0709F08DC5882309F464C08091940264
:10299000811109C081E08093940281EE0E946F064C
:1029A00083EE0E946F060E942B0590939302809302
:1029B000920281EE0E946F0680E513C0882369F1C0
:1029C00080919702811106C081E08093970282EE88
:1029D0000E946F060E942B059093960280939502A9
:1029E0008BE20E946F065CC58823A1F0809197025C
:1029F000811106C081E08093970282EE0E946F06EB
:102A00000E942B05909396028093950281EE0E947E
:102A10006F06E6CF81EE0E9436068BE20E943606F4
:102A20003FC58823A9F080919402811109C081E0FB
:102A30008093940281EE0E946F0683EE0E946F06DF
:102A40000E942B0590939302809392028FE4C9CF4A
:102A50008FE4E4CF80E5E2CF083FFCE51F0781F477
:102A6000F70182818823C9F01092A9021092000117
:102A70001092AB021092AA0281E00E943C081FC58E
:102A800080910001093FFCE51F0739F4F7019281AD
:102A9000992319F08111E8CF0FC5D0900001DD20F6
:102AA00009F44BC01092AD021092AC02C12CAA24C2
:102AB000A394B12C77247394809101019091020129
:102AC0003FEF20E0E22FF0E0EE0FFF1FE80FF91FCD
:102AD000459154910417150709F4322F452B11F035
:102AE0002F5FF0CF3F3F09F058C0612CC628DD2092
:102AF00029F0DD24D394809105018111D12CFD2D85
:102B0000F170DF2E8091AC029091AD02019690930E
:102B1000AD028093AC02892B79F28091AE028823BA
:102B200009F490C00E942B059093AB028093AA02F7
:102B300080E00E943C08C11084CD033FFCE51F07E4
:102B400009F4B5C008F039C5083D3CE5130709F4A0
:102B5000AAC0093D4CE5140709F4B5C0073D5CE582
:102B6000150709F0ACC426E241EE61EEC7010F90F3
:102B70000F900F900F900F90DF91CF911F910F91B9
:102B8000FF90EF90DF90CF90BF90AF909F908F908D
:102B90007F906F905F900C94810B6090A902F70179
:102BA000928180910501450101C0880C3A95EAF7B0
:102BB000992359F1882A80920501662009F495CF5E
:102BC000C50102C0880F991F2A95E2F70197881660
:102BD000190609F08BCF80910301909104010097B1
:102BE00029F00E9427087092AE0280CF8AE291E01D
:102BF0000E9427088FE39CE90197F1F700C00000CD
:102C00008AE291E00E941208EECFF50102C0EE0FB9
:102C1000FF1F2A95E2F79F01215031098217130601
:102C200079F48091030190910401009711F00E94C2
:102C3000120880948091050188228092050156CF68
:102C4000612CF7CFC1100EC081E00E943C08DD204E
:102C500009F473CF1092AB021092AA0281E0809324
:102C6000A9026BCFF7018281882309F4EACC809115
:102C7000A902882309F4E5CC0E942B059093AB02AE
:102C80008093AA02E091A802E83008F0DACC81E053
:102C90008E0F8093A802F0E0EE0FFF1FE856FD4F65
:102CA00011830083CECC27E245EE65EE5FCF26E2AE
:102CB00041EE60EE5BCF27E245EE64EE57CF26E2B1
:102CC00041EE62EE53CF28E241E0EFCF8091300336
:102CD000806106303CE5130709F489C08091300318
:102CE000886007301C4508F482C080913003806200
:102CF0007EC0809130038D7F0C305CE5150709F4B0
:102D000076C070F4809130038C600A309CE519071E
:102D100009F46DC008F47AC0809130038E7F67C0DB
:102D200080913003877F0E30FCE51F0709F45FC0F8
:102D3000809130038B7F0F301C4508F458C0809180
:102D400030038F7E54C00B3F3CE5130709F456C097
:102D500030F503315CE5150709F46AC078F40131F8
:102D60009CE5190709F460C002311C4509F0E5C370
:102D70000E94B70C809130038F7739C00531FCE594
:102D80001F0709F45DC008F471C0809131038160B0
:102D90000A3F1C4509F0D1C380933103CEC30F3FD6
:102DA0004CE5140709F448C070F40D3F8CE5180792
:102DB00099F1809131038E7F0E3F1C4568F380911D
:102DC00031038360E9CF0130EDE51E0709F457C0F8
:102DD00008F442C060E002301D4509F0AEC38EE049
:102DE00090E00E94712AA9C3809130038160809392
:102DF0003003A3C3809130038460F9CF8091310305
:102E00008260CACF809130038064F1CF0E94B70CFA
:102E1000809130038068EBCF809131038D7FBCCFF0
:102E2000809130038F7DE3CF809130038F7BDFCFA4
:102E300080913003837FDBCF809131038C7FACCFD7
:102E40008091300382FB992790F921E0922790FB33
:102E500082F990FB83F9CBCF80913103982F909525
:102E600091708E7F892B90FB81F996CF0E94B70CD1
:102E700090913003892F97FB87F98058B8CF61E094
:102E8000AECF06313CE5130709F0BFC380911703AD
:102E90008A7A91E009F490E09093AF0269E281119F
:102EA00065E380EA91E00E9437050F900F900F9044
:102EB0000F900F90DF91CF911F910F91FF90EF90A6
:102EC000DF90CF90BF90AF909F908F907F906F904A
:102ED0005F900C94510585E38AC38091780380FF4D
:102EE00031C08E7F8093780360917803709179036D
:102EF00080917A0390917B030E946B0C80913B033D
:102F0000816080933B034FEF50E782E04150504097
:102F10008040E1F700C000000F900F900F900F90DD
:102F20000F90DF91CF911F910F91FF90EF90DF9065
:102F3000CF90BF90AF909F908F907F906F905F9059
:102F40000C94890F81608093780361E086950F90DF
:102F50000F900F900F900F90DF91CF911F910F91D5
:102F6000FF90EF90DF90CF90BF90AF909F908F90A9
:102F70007F906F905F900C943F1144EB51E16DEBAB
:102F800071E10F900F900F900F900F90DF91CF9104
:102F90001F910F91FF90EF90DF90CF90BF90AF9077
:102FA0009F908F907F906F905F900C94D0064DEB28
:102FB00051E164EB71E1E5CF4EE75EE167E87EE168
:102FC000E0CF47E85EE16EE77EE1DBCF46E65EE11B
:102FD00062E77EE1D6CF42E75EE166E67EE1D1CFF1
:102FE0004EE45EE16AE57EE1CCCF4AE55EE16EE467
:102FF0007EE1C7CF4DE75CE06EE87CE0C2CF4EE8F3
:103000005CE06DE77CE0BDCF61E081E0A0CF0F9098
:103010000F900F900F900F90DF91CF911F910F9114
:10302000FF90EF90DF90CF90BF90AF909F908F90E8
:103030007F906F905F900C94C7110E94B70C9FEF28
:10304000E4E3FCE09150E040F040E1F700C0000014
:103050000E94420B0F900F900F900F900F90DF91F6
:10306000CF911F910F91FF90EF90DF90CF90BF9085
:10307000AF909F908F907F906F905F900C94010C19
:10308000C8010E946805D82ED7C2092F0F70907F03
:1030900011F00295007F812F2223C9F0002369F0EF
:1030A00090E2910F983010F011110BC0809117032E
:1030B000082B009317030E945105812F0E946F0671
:1030C00017C080911603082B00931603F4CF0E94BB
:1030D0003606002369F00095105E183010F0B1102C
:1030E00027C0809117030823009317030E945105FE
:1030F00098E0C91AD108E4E0CE16D10408F0A1CABC
:103100000E94C4060F900F900F900F900F90DF91C8
:10311000CF911F910F91FF90EF90DF90CF90BF90D4
:10312000AF909F908F907F906F905F900C949311D1
:1031300080911603082300931603D8CF892F8F7030
:10314000907F903211F08295807FF1E0BF120CC029
:10315000222329F0363060F60E94E605C9CF3530CB
:1031600038F60E94DB05C4CF222341F03323A1F3BC
:1031700040FFA3CF4F70F7014583EECF332389F390
:10318000193309F06FC1FFEF27EE33E0F150204013
:103190003040E1F700C00000812F0E943606A8CF22
:1031A000892F86958695837061F0813009F0A0CFD4
:1031B000812F9370211102C090E080E00E94F205FF
:1031C00097CF812F9370211102C090E080E00E9480
:1031D00008068ECF892F837009F065C0211188CF32
:1031E000812F829586958770880F880F412F4F70A9
:1031F00050E070E060E0082E04C0440F551F661FC9
:10320000771F0A94D2F714FF2CC00FE010E020E0E3
:1032100030E004C0000F111F221F331F8A95D2F720
:1032200000951095209530959695969593709230CF
:1032300039F1F8F48090180390901903A0901A03C4
:10324000B0901B03913089F0402B512B622B732BD4
:10325000CB01BA01682179218A219B210E942C0689
:1032600047CF00E010E09801DFCF482959296A29AB
:103270007B29CB01BA01602B712B822B932BEECFD4
:10328000402B512B622B732B0091180310911903C3
:1032900020911A0330911B03CB01BA0160277127DB
:1032A00082279327DBCF8695222311F0892F817007
:1032B000882309F41DCF812F829586958770880F0A
:1032C000880F412F4F7050E070E060E0082E04C07E
:1032D000440F551F661F771F0A94D2F714FF2CC0A6
:1032E0000FE010E020E030E004C0000F111F221FAB
:1032F000331F8A95D2F700951095209530959695B5
:1033000096959370923039F1F8F480907103909013
:103310007203A0907303B0907403913089F0402B36
:10332000512B622B732BCB01BA01682179218A21A1
:103330009B210E949512DCCE00E010E09801DFCFC7
:10334000482959296A297B29CB01BA01602B712BA5
:10335000822B932BEECF402B512B622B732B0091A2
:103360007103109172032091730330917403CB01A8
:10337000BA016027712782279327DBCF092F0F70AF
:10338000222329F0802F0E94E012812FE5CE812F89
:103390000E94DB05802F0E94BD12AACE812FE1EF93
:1033A0001E1709F442C0E11758F0F0EF1F17F1F0B3
:1033B000222309F44BC0311180CE892F8F713AC07E
:1033C00042EF1417D1F153EF1513F2CF2223D1F1AD
:1033D000292F2F7161E070E080E090E004C0660F5B
:1033E000771F881F991F2A95D2F7A3CF2223C9F0F0
:1033F000353008F07DCE292F2F7161E070E080E03C
:1034000090E004C0660F771F881F991F2A95D2F796
:103410000091710310917203209173033091740332
:10342000A8CF363008F064CEE6CF892F8F712223E3
:1034300009F4B1CF0E94E0125BCE892F8F71222355
:10344000C9F3A9CF60E070E0CB0173CF332379F0EB
:10345000893341F48FEF97EEE3E081509040E040F4
:10346000E1F798CE8FE39CE90197F1F793CE892F8E
:103470008F7191CF0031FFE51F0709F45BCA01315D
:103480002FE5120709F473CA01383FE5130709F461
:10349000ABCA08F06ECA00385FE5150709F48ECA9A
:1034A0001092AE02073FFCE51F0709F0D5CAF701ED
:1034B0008281882309F4F1CA81E080930001F70139
:1034C0009281992309F489C0109277030230FCE5B8
:1034D0001F0708F4D6CC06312CE5120738F0980106
:1034E0002A5F3C452930310508F0CBCC0E945B08AF
:1034F000909331038093300300313CE5130709F4C6
:103500008FCC08F020CC08305CE5150709F47ACCA4
:1035100008F0EFCB04309CE5190709F46BCC08F0F8
:10352000D5CB0230FCE51F0709F45ECC8091300357
:10353000826003301C4509F45ACC6091300310912D
:10354000310384E090E00E94712A612F81E290E0D3
:103550000E94712A0F900F900F900F900F90DF91A3
:10356000CF911F910F91FF90EF90DF90CF90BF9080
:10357000AF909F908F907F906F905F900C94B70C5E
:1035800000313FE5130709F4D9C901314FE51407AC
:1035900009F07ACF82E0D3C985E0DE01119601906F
:1035A0000D928A95E1F7F701228189819A81211193
:1035B0005DC80E946805182F61C8053F8CE5180793
:1035C00009F47DCB08F477CB27E245EE66EE063FA3
:1035D000ECE51E0709F4CACA72CF0631FCE51F07E5
:1035E00009F043C08091AF02811175CC89E2E2EA13
:1035F000F1E028EA31E09191891303C0DF011197CE
:103600001C922E173F07B9F750CC01152CE5120775
:1036100009F413CD0E3D1C4509F41CCDF7010081C2
:103620001181992309F42CCDC8010E94060AD82ED5
:10363000682FC8010E949005B8018D2D0E949C083A
:10364000182FB82EF70122814581342F32953F7013
:10365000892F82958F70C82ED12C8C3008F048CDE0
:10366000F601EA5AF34D0C94252A809117038272D1
:10367000F801E25CFC45E431F10580F6EE59F34DCA
:103680000C94252A1F93CF93DF938091B502807FFE
:10369000A9F48091B202882389F08091E702D09149
:1036A000B6026091B0027091B102A091B302B091E4
:1036B000B402C62FC72316E0D81304C0DF91CF9100
:1036C0001F91089590E0109711F0CF3F19F40196E3
:1036D0008770F2CF189F9001199F300D1124F901C6
:1036E000E954FD4F41814713F2CF40814613EFCF9C
:1036F00042814111ECCF438154814A1B5B0B44361C
:10370000510528F78091B5028F7080618093B502D2
:10371000F901E454FD4F80818F708061808380EBDC
:1037200092E00E940113DF91CF911F910C94BC0590
:10373000AF92BF92CF92DF92EF92FF920F931F93BF
:10374000CF93DF93CDB7DEB761970FB6F894DEBFA6
:103750000FBECDBF8C0185E0F801DE011D96019002
:103760000D928A95E1F7F80180819181E28020EB4A
:10377000A22E22E0B22E6091B3027091B4026115C4
:10378000710509F43EC13091B0024091B102232F7E
:1037900024232F3F09F435C1C380D480F090B202B6
:1037A000F601E61BF70BFF2009F4FBC02091B502E0
:1037B000522F507FE436F10508F0BBC0511178C09C
:1037C000FE2C491321C038131FC0E1101DC02F70FB
:1037D00020612093B502C5010E9401138091B502BA
:1037E000F80185838F2D61960FB6F894DEBF0FBE6A
:1037F000CDBFDF91CF911F910F91FF90EF90DF90A0
:10380000CF90BF90AF900895CD2829F0282F29237D
:103810002F3F09F014C120E0F22FF170DF2E20FFBE
:103820003DC02091E7024091B60256E0241315C036
:103830008D879E878D859E850E94480A292F229517
:103840002F702230F8F0243020F59F70F9F0F80145
:103850009581907FD9F4D12C1FC030E0529FF001A8
:10386000539FF00D1124E954FD4F6181961306C05A
:103870006081861303C06281E61210C02F5F3F4F44
:103880002770D4CF9F7011F0882329F3805E883091
:1038900010F3C8010E940113FD2CA4CFEE2009F4FF
:1038A000A1CF8091B50281608093B502F12C9ACFAF
:1038B000491312C0381310C0E1100EC0F80125835F
:1038C000C8010E94011386E0F801A0EBB2E001906C
:1038D0000D928A95E1F786CF8D879E878D859E858F
:1038E0000E94520A882309F1EE20F9F08091B50276
:1038F000803270F02091B0023091B10238872F836E
:103900001986DB86CA868C87CE0107960E94011332
:1039100086E0F801A0EBB2E001900D928A95E1F704
:103920000E94421BFF24F3945DCFC8010E94011343
:10393000F9CF51110AC080EB92E00E94011386E09A
:10394000F50111928A95E9F7B1CF49130FC03813E9
:103950000DC0E1100BC0F8012583C8010E940113BE
:1039600086E0F50111928A95E9F73CCF8D879E8715
:103970008D859E850E94520A8823B9F2EE20A9F215
:103980008091B502803220F22091B0023091B102D4
:103990003A8329831B82DD82CC828E83CE010196FD
:1039A000B5CFE436F105E0F6FE2CEE2009F4BDCFEC
:1039B000491316C0381314C08091B50280FD83CF1F
:1039C000982F907F09F47FCFF8018583903F09F409
:1039D00077CF982F907F905F8F70892B858370CFE2
:1039E0008D879E878D859E850E94520A811190CF7A
:1039F0008091B50281608093B502C8010E940113D5
:103A0000F1CEEE2009F491CF8D879E878D859E851E
:103A10000E94520AF82E882309F487CF86E0F80125
:103A2000A0EBB2E001900D928A95E1F78091B0028F
:103A30009091B1020E94480A0E94421BD3CE21E01D
:103A40002E25EACE1F93CF93DF93CDB7DEB76797CE
:103A50000FB6F894DEBF0FBECDBF342F4B8B252F92
:103A60005C8B6D8B7E8B8F8B8E899F896111109201
:103A700016031A8A198A3D872E876F87998B888B40
:103A800086E0FE013D96DE01179601900D928A9523
:103A9000E1F7CE0107960E94981B882389F016E073
:103AA0008091E7029091B602891349C067960FB6DC
:103AB000F894DEBF0FBECDBFDF91CF911F91089567
:103AC00086E0FE013796DE01119601900D928A95EF
:103AD000E1F78A859B85892B11F38F81988589234E
:103AE0008F3FE9F22091B60230E0C901019687705C
:103AF00099274091E7024817190671F40E94B70C04
:103B00001092B6021092E70286E0E0EBF2E0DF01ED
:103B10001D928A95E9F7C3CF96E0929FD001939FBB
:103B2000B00D1124A954BD4FFE01319601900D92A4
:103B30009A95E1F78093B6020E94BC05B0CF819FB1
:103B4000C001112489549D4F0E94981B882309F4B9
:103B5000ADCF8091E70290E001968770992780931E
:103B6000E7029ECF0F931F93CF93DF93CDB7DEB7BE
:103B7000A8970FB6F894DEBF0FBECDBF81114DC020
:103B800006E0662359F10CA311E01DA31EA30E94B9
:103B90002B058160782F98A78FA34CA15DA16EA102
:103BA00088A50E94221D0F8F18A319A20E942B0521
:103BB0008160782F9BA38AA34F8D58A169A18BA107
:103BC0000E94221D81E0A8960FB6F894DEBF0FBEBA
:103BD000CDBFDF91CF911F910F9108950A8F13E010
:103BE0001B8F81E08C8F0E942B058160782F9E8F28
:103BF0008D8F4A8D5B8D6C8D8E8D0E94221D0D8B5D
:103C00001E8B1F8A0E942B058160782F998F888FC9
:103C10004D895E896F89898DD3CF813099F666236E
:103C2000F1F016E0188B198B8A8B0E942B058160AE
:103C3000782F9C8B8B8B488959896A898C890E9443
:103C4000221D1B871C871D860E942B058160782FF3
:103C50009F878E874B855C856D858F85B1CF06E00C
:103C60000E8318E01F8388870E942B058160782FC0
:103C70009A8789874E815F8168858A850E94221D87
:103C800009831A831B820E942B058160782F9D83F4
:103C90008C8349815A816B818D8192CFE8E7F3E073
:103CA000438121E1421B08F440E021E062818181EF
:103CB0000C948910E8E7F3E0438121E1420F08F416
:103CC0004FEF21E0628181810C948910E8E7F3E0F5
:103CD000628121E1621B08F460E021E0438181817F
:103CE0000C948910E8E7F3E0628121E1620F08F4A7
:103CF0006FEF21E0438181810C948910E8E7F3E0C4
:103D0000818121E04381628188500C948910E8E729
:103D1000F3E0818121E043816281885F0C94891006
:103D2000E8E7F3E080818E7F8083E9E3F3E082813E
:103D3000816082832FEF80E792E0215080409040A5
:103D4000E1F700C000000C94890F8F929F92AF9210
:103D5000BF92CF92DF92EF92FF920F931F93CF9378
:103D6000DF9300D000D00F92CDB7DEB702E111E0B3
:103D700084E2C82E83E0D82E4601F12CAA24A39415
:103D8000B12CD8018D918D01F894E82FE295EF7058
:103D9000F0E021A18F70A50102C0440F551F8A9544
:103DA000E2F7CA01922F982B91A392A180958923C3
:103DB00082A3789400C0EBE0F1E030E020E0E12C59
:103DC0004191A42FA295AF70B0E090968C9190E0B5
:103DD0004F7002C0959587954A95E2F780FD48C0DF
:103DE0008A2D022E01C0880F0A94EAF7E82A2F5F75
:103DF0003F4F2730310521F7F801319780810E942C
:103E0000810750EA5A95F1F7D4018C91E81691F1A7
:103E1000EC9281E0F82ABFEF8B1A9B0AE1E00731B0
:103E20001E0709F0AECF10912F03FF2029F181E08A
:103E30008093AA010E942B059093A9018093A80169
:103E40008091A8019091A9010E9410050697C0F0E9
:103E5000E12FF0E0E05BFC4FD6018D916D01819385
:103E6000B9E2CB16B3E0DB06B9F71092AA0108C09D
:103E700080E0BCCF80E0CECF8091AA018111E0CF5D
:103E80000E94E50BE82E60912F03882309F4CDC032
:103E90008E010F5F1F4F85E0F80111928A95E9F7B7
:103EA000862F90E0B801805B9C4F0E94C127811152
:103EB0009FC08091AB018F5F8093AB01863008F487
:103EC000B2C0E0912E03F0E0E05BFC4FD801CE01E0
:103ED000069611921D928A179B07D9F780910001CF
:103EE0008823A1F08091A902882381F08091AA0201
:103EF0009091AB02009751F00E94100581399140DA
:103F000028F01092A90281E00E943C088091900262
:103F1000909191020E941005893E934060F160915A
:103F20008F02062F10E066277727601B710B072E84
:103F3000000C880B990B0E94432B27EA39E747E4D2
:103F40005DE30E94CF2B4B015C01B801110F880B80
:103F5000990B0E94432B9B01AC01C501B4010E9447
:103F6000A62A0E94122B60938F020E942B05909329
:103F700091028093900280919702882371F0809142
:103F80009502909196020E941005893E934028F078
:103F900082EE0E9436061092970280919402882346
:103FA00089F080919202909193020E941005893EBF
:103FB000934040F081EE0E94360683EE0E94360662
:103FC00010929402F11001C0FE2C8F2D0F900F90D3
:103FD0000F900F900F90DF91CF911F910F91FF9055
:103FE000EF90DF90CF90BF90AF909F908F9008950B
:103FF0001092AB01A0912E03B0E0A05BBC4F9E01DC
:104000002A5F3F4FE12C4D91F80191918F014917A3
:1040100031F0AD0141505109FA019083E82E0217A9
:10402000130789F75BCFE12C59CF70E0605B7C4FC1
:1040300080912E0390E0805B9C4F0E94F427C2CFBA
:104040001F920F920FB60F9211242F933F934F930D
:104050005F936F937F938F939F93AF93BF93CF9310
:10406000DF93EF93FF93D091E900DF708091EC0034
:10407000C82FC17080FDC0E81092E9008091F00067
:10408000877F8093F00078940E94C20C1092E90020
:104090008091F00088608093F000CD2BCF70C093AA
:1040A000E900FF91EF91DF91CF91BF91AF919F9187
:1040B0008F917F916F915F914F913F912F910F90D1
:1040C0000FBE0F901F9018951F920F920FB60F9270
:1040D00011242F933F934F935F936F937F938F930D
:1040E0009F93AF93BF93EF93FF938091E10082FF83
:1040F00009C08091E20082FF05C08091E1008B7FC2
:104100008093E1008091DA0080FF24C08091D80084
:1041100080FF20C08091DA008E7F8093DA0080914A
:10412000D90080FF9BC080E189BD82E189BD09B4CF
:1041300000FEFDCF81E08093670380915A038111D7
:1041400009C00E9480030E944B048091E2008460B9
:104150008093E2008091E10080FF17C08091E2002F
:1041600080FF13C08091E2008E7F8093E2008091F7
:10417000E20080618093E2008091D80080628093A9
:10418000D80019BC85E0809367038091E10084FF2B
:1041900029C08091E20084FF25C080E189BD82E1D1
:1041A00089BD89B5982F917080FFFBCF8091D80091
:1041B0008F7D8093D8008091E1008F7E8093E10015
:1041C0008091E2008F7E8093E2008091E200816026
:1041D0008093E20080916803882309F445C084E05D
:1041E000809367038091E10083FF27C08091E20004
:1041F00083FF23C08091E100877F8093E10082E00C
:1042000080936703109268038091E1008E7F809312
:10421000E1008091E2008E7F8093E2008091E200D5
:1042200080618093E20042E060E080E00E94190437
:104230008091F00088608093F000FF91EF91BF9132
:10424000AF919F918F917F916F915F914F913F912E
:104250002F910F900FBE0F901F90189519BC1092C0
:10426000670310925A0376CF8091E30087FD93E0B5
:1042700090936703B7CFCDB7DEB7AC970FB6F8947E
:10428000DEBF0FBECDBF84B7877F84BF0FB6F89463
:10429000A895809160008861809360001092600012
:1042A0000FBE80E890E00FB6F89480936100909381
:1042B00061000FBE85B7806885BF85B7806885BF00
:1042C0008AE095E090939F0180939E010E94800375
:1042D0000E944B048091E20084608093E200789415
:1042E000809167038823A1F01091E9001F709091DD
:1042F000EC00892F817090FD80E8182B1092E90066
:104300008091E80083FD0E94C20C1F701093E900A9
:1043100082E084BD93E095BD9AEF97BD80936E00D7
:104320001092200310922103109222031092230373
:104330000E94E50B80931C0180911C01882309F4E5
:1043400094C01092060185E2809307010E94E50B5C
:1043500081110E94982780911C0181112FC0FE01BC
:10436000359686E0DF011D928A95E9F786E6898316
:1043700087E98A8386EC8B8384E38C8385E38D8352
:104380003497A2E1B1E0CE010B9621912D938E17C7
:104390009F07D9F787E0EAE3F1E0DE01919601900B
:1043A0000D928A95E1F7FE01B196ABE0B1E0CE0146
:1043B000889621912D938E179F07D9F780911C0124
:1043C00095E0811190E090932F0385E0891B809305
:1043D0002E0302E111E0F7E1EF2EF1E0FF2EF801EC
:1043E00081918F010E948107E016F106C1F70BE071
:1043F00011E0E2E1EE2EE1E0FE2ED8018D918D017B
:104400000E948107E016F106C1F7E4E2F3E08EE2D4
:1044100093E0A0E5B3E011921D928E179F07D9F7A4
:104420000E94A51EEFE3FCE93197F1F700C0000000
:104430000E94A51E8091500380FF1BC06FEF82E297
:1044400090E00E94712A6FEF83E290E00E94712A4F
:104450006FEF84E290E00E94712A6FEF7FEF90E0AF
:1044600080E00E948F2A0E94420B85E28093060121
:104470006BCF90E080E00E946B2A8B3E9E4F11F044
:104480000E94010C0E94E50B811102C00E949E2730
:1044900082E290E00E945D2A813209F00EC483E23C
:1044A00090E00E945D2A883009F007C484E290E021
:1044B0000E945D2A853009F000C490E080E00E94EF
:1044C0006B2A8B3E9E4F11F00E94010C82E090E01F
:1044D0000E945D2A809345030E945B0890933103FC
:1044E0008093300383E090E00E945D2A682F70E0A3
:1044F00090E080E00E942C0660917103709172033D
:1045000080917303909174030E94D61180913203BD
:10451000811139C090E080E00E946B2A8B3E9E4F53
:1045200021F00E94010C0E949F0C88E090E00E9404
:10453000652A609378037093790380937A0390934C
:104540007B0380913B03836080933B036E7F71F418
:104550000E949F0C88E090E00E94652A6093780397
:104560007093790380937A0390937B030E94D5061E
:104570008091780380FF04C060E086950E943F111F
:1045800081E08093320380911C01811106C084EF89
:1045900080931E0185EF80931D0120911E01A22FA3
:1045A000A295AF70B0E091963C9191972F7081E009
:1045B00090E0BC01022E01C0660F0A94EAF7462F74
:1045C0004095432391964C93919792963C91929764
:1045D000362B92963C93929740911D01E42FE295E1
:1045E000EF70F0E031A14F70042E01C0880F0A94E3
:1045F000EAF7982F9095932391A392A1892B82A3F8
:1046000090968C9190E002C0959587952A95E2F757
:10461000817020A130E002C0359527954A95E2F7D8
:1046200092E020FF90E0892B8093430390911C013E
:1046300081E0982790934203891B809333038BEB8F
:1046400095E09093350380933403809178038160E3
:104650008093780361E086950E943F1160E08AE0D4
:104660000E943F1140E56FEF82E30E943C1161E040
:1046700070E080E090E00E9495128FE191E09093CD
:1046800037038093360308E110E060E4E62E80E50E
:1046900093E07AE0F72EF80E80916703BB24B39481
:1046A00040E1C42E52E1D52E853009F41CC10E9490
:1046B000A51E81110E941F05E6E4F3E0A0E5B3E02A
:1046C000D12CC12C8C2CAD9081918A1509F42CC170
:1046D0008A25912CBB24B3949B2D982309F41FC1E8
:1046E0000E94E50B882399F099A28AA2AB2081E071
:1046F00009F480E08BA30E942B058160782F9DA395
:104700008CA349A15AA16BA18DA10E94221DF60183
:10471000EA5BFC4F8081B826B08280914303E82F8A
:10472000EE0FEE0F90911E01A92FA295AF70B0E091
:1047300090962C9130E09F7002C0359527959A9500
:10474000E2F72170332790911D01A92FA295AF7038
:10475000B0E090964C9150E09F7002C055954795FF
:104760009A95E2F7CA018170992740FF02C082E062
:1047700090E0822B8E2B80934303D09042038F7066
:10478000E82FF0E0E258FE4F808190914103890FBD
:104790008093410320E0843074F0ED2D0D2C000C4B
:1047A000FF0BE15CFC4F80818F5F808360E08D2D8B
:1047B0000E94B21D21E0809141038D3F74F4ED2DE4
:1047C0000D2C000CFF0BE15CFC4F8081815080833D
:1047D00061E08D2D0E94B21D21E080914103082EE1
:1047E000000C990B64E070E00E94F2298093410371
:1047F00021110E94F0050E94C4069091440389177C
:1048000031F00E94C406809344030E94931180916A
:104810006703843009F040CF83E08093E900809102
:10482000E80082FF39CF8091E80090E085FF06C064
:104830000E949F03882309F490C091E08091E800D2
:104840008B778093E800992309F426CFE981E15022
:10485000E33108F0F8C0F0E0EA58F34D0C94252A53
:1048600080916703843009F431C080E00E94931185
:1048700080913E03811109C0B0923E03809178037C
:10488000817080933D030E94901E109238030FB6F2
:10489000F894A895009360000FBEE092600083B783
:1048A000817F846083BF83B7816083BF789488955C
:1048B00083B78E7F83BF0FB6F894A8958091600070
:1048C000886180936000109260000FBE8091660343
:1048D000882349F00E94A51EE0E5F3E08191811153
:1048E000D6C1FE12FBCF80916703853009F4B8CFA3
:1048F0000E94B70C0E94C4060E94931110923E03BE
:1049000080913D03882319F00E94AB11D0CE809195
:104910003C03882309F4CBCE0E94890FC8CE939420
:10492000BB0C27E09212D8CE8FEFC81AD80A9AE0B3
:10493000C916D10409F0C6CE8FEF88A789A71AA699
:104940000E942B058160782F9CA78BA748A559A5AD
:104950006AA58CA50E94221DE0CE30E2C32ED12C88
:10496000DE0111965D018091E80085FD0AC080910D
:10497000E8008B778093E8000E949F03882399F3D7
:104980005CCF8091F100F50181935F01F1E0CF1AD6
:10499000D10849F752CF1A8289E08B8311C08A81EE
:1049A000823009F4A3C18330A9F1813009F04BC0F2
:1049B0000E941F050E942B2A6B837C838D839E831C
:1049C00080916703843009F067CED090E9008D2D87
:1049D0008F70D82E9091EC00892F817090FD80E827
:1049E000D82A82E08093E9008091E80080FF0DC022
:1049F00050E040E060E270E0CE0101960E94D003FA
:104A00008091E8008E778093E8008D2D8F708093E1
:104A1000E90042CEDE011396E0E5F3E081918D934B
:104A200023E0EA35F207D1F7CBCF8A81823059F4FF
:104A30006B817C818D819E810E942B2A85E290E092
:104A40000E94712ABDCF8FEF8983BACF4C816B81D1
:104A50008A810E9469089827892798279E838D83D9
:104A6000AFCFAD80BE80BA24AB24BA248A81CB807C
:104A70009EE0C99E60011124ACE88A9FC00CD11C45
:104A800011248C8190E0880F991FC80ED91E6B2DC0
:104A9000C60186960E94712A6A2DC6018796D0CFDC
:104AA0000E94760A8DCF8A818138B1F058F480381F
:104AB00009F086CF4B8160917A03809179030E943F
:104AC0003C117ECF8238A9F0833809F079CF40912C
:104AD0007B036C818B81F3CF60E08B810E943F115F
:104AE0008B81811103C00E94901E6ACF0E94AB117E
:104AF00067CF8B8180937C0363CF8A81813899F063
:104B000030F4803809F05CCF80917B0346CF823847
:104B100091F0833809F054CF809179038B83809191
:104B20007A038C834DCF8091780380FF02C08695F5
:104B300034CF80E032CF80917C032FCF6091780317
:104B40007091790380917A0390917B030E946B0CA2
:104B500037CF80E18A8334CF81E08A838AEA1DCF10
:104B6000AA80BB80BA24AB24BA24FE0131966F011F
:104B70008C808E0E9F2E911CC5018A5A9D4F8C14DD
:104B80009D0409F41DCFFAEAAF16F1E0BF0660F408
:104B90000E945D2AD60114968C93FFEFAF1ABF0ACC
:104BA0002FEFC21AD20AE8CFF6011482F6CFCA80DC
:104BB000DB80DC24CD24DC24CE0101964C01AC80CA
:104BC000AC0CBD2CB11CC6018A5A9D4FAC14BD045F
:104BD00009F4F6CEAAEACA16A1E0DA0620F4F40136
:104BE00064810E94712AFFEF8F1A9F0A2FEFC21A69
:104BF000D20AE9CF0E94CB0AE3CE84E0ABCFAA80F1
:104C0000BB80BA24AB24BA24CE0101966C018C80FF
:104C1000880E992E911CC50186968C149D0409F46A
:104C2000CFCEA0E3AA16A2E0BA0658F40E945D2AED
:104C3000F6018483BFEFAB1ABB0AEFEFCE1ADE0A90
:104C4000EACFD60114961C92F5CFCA80DB80DC2413
:104C5000CD24DC24CE0101964C01AC80AC0CBD2CE3
:104C6000B11CC6018696AC14BD0409F4A9CEA0E31C
:104C7000CA16A2E0DA0620F4F40164810E94712AC7
:104C8000FFEF8F1A9F0A2FEFC21AD20AEACFC9BCD0
:104C9000D9BC09B400FEFDCF8091D8008F7D8093F0
:104CA000D8008091E00082608093E0008091E00075
:104CB00081FDFCCF0E94B70C16CE60E085E290E04B
:104CC0000E94712A0E94760A0E94CB0A61E282E267
:104CD00090E00E94712A68E083E290E00E94712ACD
:104CE00065E084E290E00E94712AE7CB85E290E0E3
:104CF0000E945D2A1B821C821D828E8361CE0F93CF
:104D00001F930E94E50B882321F01F910F910C94B3
:104D10001F050E941F05009120031091210320917F
:104D2000220330912303600F711F821F931F1F9175
:104D30000F910895CF92DF92EF92FF926B017C0169
:104D40000E94E50B81110EC00E941F05C61AD70AEA
:104D5000E80AF90AC0922003D0922103E0922203CC
:104D6000F0922303FF90EF90DF90CF900895789416
:104D70001F921FB61F9211248F939F93AF93BF93DF
:104D800080911C0390911D03A0911E03B0911F03FD
:104D90000196A11DB11D80931C0390931D03A09348
:104DA0001E03B0931F03BF91AF919F918F911F90EE
:104DB0001FBE1F9018951F921FB61F9211248F932C
:104DC0009F93AF93BF9380913803811113C080915B
:104DD0001C0390911D03A0911E03B0911F034196E7
:104DE000A11DB11D80931C0390931D03A0931E036E
:104DF000B0931F03BF91AF919F918F911F901FBEE2
:104E00001F901895FF920F931F93CF93DF93D0912C
:104E100033030D2F10E0015C1C4FFC01C081F80131
:104E20008081C81BFC2E80E01F147CF09C2FC7FDE6
:104E300090E0C91BC11114C08823E9F0DF91CF9124
:104E40001F910F91FF900C94F005FA94F801808166
:104E50008F5F808360E08D2F0E94B21D81E0E4CFE0
:104E6000CF5FF80180818150808361E08D2F0E94A7
:104E7000B21D81E0DFCFDF91CF911F910F91FF90A5
:104E80000895E0914203F0E0E15CFC4F2081FC01D9
:104E90002083089580918F02089580938F02089552
:104EA0001F93CF93DF93EC01162F8F8184FF03C0F4
:104EB000988590933C0380FF0CC0888180FF15C0CB
:104EC00090917803916090937803612F86950E946A
:104ED0003F118F8181FF0CC0212F4B816A81898115
:104EE000DF91CF911F910C9489100E94901EF1CFF9
:104EF000DF91CF911F91089525E0E8E7F3E0DC0111
:104F000001900D922A95E1F74091390350913A03AF
:104F100060913B0370913C03FC014583568367839A
:104F20007087089510923B03089580913B03089584
:104F300062E070E08AE291E00C947E2862E070E02A
:104F40008AE291E00C9487280E949527882361F0DB
:104F50008AE893E00E947C2781E090E00E9460292B
:104F6000892B11F40C94922708958091890388303D
:104F700039F460E08AE893E00E9450271092890398
:104F80000895CF93DF93D62FC72F0E94A42790E0D8
:104F900080E00E946029009729F5ED2FFC2FDC01AD
:104FA000AD57BC4F2C912193019685309105B9F7EF
:104FB00088E893E00E9402270E944A278093820398
:104FC0000E947F266E5F7F4F8F4F9F4F60937E03BF
:104FD00070937F03809380039093810381E0DF913E
:104FE000CF91089580E0FBCFCF93DF93D62FC72FCB
:104FF0000E94B52760917E0370917F0380918003AA
:10500000909181030E949A26ED2FFC2F90E080E082
:105010002191DC01AD57BC4F2C9301968530910551
:10502000B9F788E893E00E94412780918203DF91DD
:10503000CF910C944D278EE14A9B02C08150E1F73D
:105040004A9BFECF08955A9880E28A95F1F75A9AC2
:105050000895FC013BE03A95F1F720E090E080E014
:1050600031E040E14A95F1F7880F4A9B02C0816028
:10507000232742E04A95F1F7000040E14A95F1F715
:105080009F5F6913EECF90E19A95F1F799B132E005
:105090003A95F1F7000040E14A95F1F792FB992724
:1050A00090F992272081920F90830895EF92FF92BA
:1050B0000F931F93CF93DF930F92CDB7DEB7198273
:1050C0008C017C01E60EF11C0E151F0561F481E0D8
:1050D0009981911180E00F90DF91CF911F910F91F5
:1050E000FF90EF9008950E941B2868E0CE01019682
:1050F0000E942928F80181938F01E6CF90939503B0
:105100008093940360939303529A5A9A08959093CC
:105110009503809394036093930352985A9AEA9A62
:10512000E9E6F0E080818F7C808308956150770B01
:1051300091E001C0990F6A95EAF720E031E0911102
:1051400008C0222391F05A9A80E28A95F1F75A9882
:105150000895492F482339F05A9A232740E24A9567
:10516000F1F79695ECCF5A98F9CF5A98EDCFFF9278
:105170000F931F93CF93DF93EC018C01060F111D4A
:10518000C017D10731F4DF91CF911F910F91FF909C
:105190000895F9900E94232868E08F2D0E94962898
:1051A000EFCF1F920F920FB60F9211240F931F9300
:1051B0002F933F934F935F936F937F938F939F931F
:1051C000AF93BF93EF93FF93CF93DF930F92CDB73E
:1051D000DEB719820E941B2867E0CE0101960E946B
:1051E0002928082F069506950695982F9295957073
:1051F000202F2570920F292F2370969596958770F2
:10520000920F891344C08981811141C08091930319
:105210008017E8F120E12A95F1F75A9A529A82E034
:105220008A95F1F700C0A8E00A9FC00111240091FF
:10523000940310919503080F191F5A98F80165817E
:10524000662321F0868197810E94B7280E94232837
:10525000F0E1FA95F1F75A9852985A9A20E12A9576
:10526000F1F7D80112966C911297662331F11396DB
:105270008D919C910E945628D801ED91FC91882334
:1052800011F088E001C082E080830E941B280F900B
:10529000DF91CF91FF91EF91BF91AF919F918F914E
:1052A0007F916F915F914F913F912F911F910F913E
:1052B0000F900FBE0F901F901895ED91FC91E1CFCC
:1052C0000F931F93CF93DF93209193032817190611
:1052D0000CF471C08C0193E0000F111F9A95E1F757
:1052E000C0919403D0919503C00FD11FF894529AA6
:1052F0005A9825E02A95F1F70000982F9695957019
:105300008570980F892F837096959695980F092B25
:105310000E94232800C067E0802F0E94962880E129
:105320008A95F1F752985A9A4A9B17C087E090E005
:105330004A9915C06D81662321F18E819F810E945B
:10534000562881111EC0529A5A9AE881F98182E04A
:105350008083789482E090E00DC000C0E5CF019793
:1053600071F4529A5A9AE881F98181E080837894A5
:1053700081E090E0DF91CF911F910F91089500C0DF
:10538000D7CF0E941B2820E22A95F1F75A98529A0B
:1053900080E18A95F1F76A81662321F08B819C81F7
:1053A0000E94B7280E942328E881F981108278940E
:1053B00090E080E0DFCF84E090E0DCCFAA1BBB1B55
:1053C00051E107C0AA1FBB1FA617B70710F0A61B05
:1053D000B70B881F991F5A95A9F780959095BC0126
:1053E000CD01089597FB072E16F4009407D077FDA2
:1053F00009D00E94DE2907FC05D03EF490958195E6
:105400009F4F0895709561957F4F0895052E97FBE6
:105410001EF400940E941D2A57FD07D00E94322AD4
:1054200007FC03D04EF40C941D2A509540953095FE
:1054300021953F4F4F4F5F4F089590958095709500
:1054400061957F4F8F4F9F4F0895EE0FFF1F05907F
:10545000F491E02D099469279627692778278727F3
:1054600078270895A1E21A2EAA1BBB1BFD010DC0CF
:10547000AA1FBB1FEE1FFF1FA217B307E407F50704
:1054800020F0A21BB30BE40BF50B661F771F881FE0
:10549000991F1A9469F760957095809590959B0176
:1054A000AC01BD01CF010895FB01DC0102C00590F4
:1054B0000D9241505040D8F70895F999FECF92BD12
:1054C00081BDF89A992780B50895A6E1B0E044E03F
:1054D00050E00C94972AA8E1B0E042E050E00C9430
:1054E000972A262FF999FECF92BD81BDF89A019790
:1054F00000B4021639F01FBA20BD0FB6F894FA9A1C
:10550000F99A0FBE08950396272F0E94722A0E94CF
:10551000712A252F0E94722A242F0C94722A019638
:10552000272F0E94722A0C94712ADC01CB01FC0106
:10553000F999FECF06C0F2BDE1BDF89A319600B4EC
:105540000D9241505040B8F708955058BB27AA27F4
:105550000E94BD2A0C94952B0E94872B38F00E9444
:105560008E2B20F039F49F3F19F426F40C94842BF1
:105570000EF4E095E7FB0C947E2BE92F0E94A62BFE
:1055800058F3BA17620773078407950720F079F478
:10559000A6F50C94C82B0EF4E0950B2EBA2FA02D77
:1055A0000B01B90190010C01CA01A0011124FF27D0
:1055B000591B99F0593F50F4503E68F11A16F040CB
:1055C000A22F232F342F4427585FF3CF46953795CA
:1055D0002795A795F0405395C9F77EF41F16BA0B8F
:1055E000620B730B840BBAF09150A1F0FF0FBB1F3D
:1055F000661F771F881FC2F70EC0BA0F621F731F86
:10560000841F48F4879577956795B795F7959E3FE2
:1056100008F0B0CF9395880F08F09927EE0F979573
:10562000879508950E94AE2B88F09F5798F0B92F68
:105630009927B751B0F0E1F0660F771F881F991FC7
:105640001AF0BA95C9F714C0B13091F00E94C82B76
:10565000B1E008950C94C82B672F782F8827B85F86
:1056600039F0B93FCCF3869577956795B395D9F71F
:105670003EF490958095709561957F4F8F4F9F4F29
:105680000895E89409C097FB3EF490958095709535
:1056900061957F4F8F4F9F4F9923A9F0F92F96E97E
:1056A000BB279395F695879577956795B795F111F3
:1056B000F8CFFAF4BB0F11F460FF1BC06F5F7F4F90
:1056C0008F4F9F4F16C0882311F096E911C07723A2
:1056D00021F09EE8872F762F05C0662371F096E8AB
:1056E000862F70E060E02AF09A95660F771F881F7A
:1056F000DAF7880F9695879597F9089597F99F6738
:1057000080E870E060E008959FEF80EC0895002449
:105710000A941616170618060906089500240A9416
:1057200012161306140605060895092E0394000C9C
:1057300011F4882352F0BB0F40F4BF2B11F460FF2B
:1057400004C06F5F7F4F8F4F9F4F089557FD905854
:10575000440F551F59F05F3F71F04795880F97FB35
:10576000991F61F09F3F79F08795089512161306EF
:105770001406551FF2CF4695F1DF08C0161617061E
:105780001806991FF1CF8695710561050894089553
:10579000E894BB2766277727CB0197F908950E94E5
:1057A000E22B0C94952B0E94872B38F00E948E2BB5
:1057B00020F0952311F00C947E2B0C94842B112453
:1057C0000C94C92B0E94A62B70F3959FC1F3950FE3
:1057D00050E0551F629FF001729FBB27F00DB11D75
:1057E000639FAA27F00DB11DAA1F649F6627B00D05
:1057F000A11D661F829F2227B00DA11D621F739FEE
:10580000B00DA11D621F839FA00D611D221F749FFB
:105810003327A00D611D231F849F600D211D822F42
:10582000762F6A2F11249F5750409AF0F1F0882369
:105830004AF0EE0FFF1FBB1F661F771F881F915096
:105840005040A9F79E3F510580F00C947E2B0C949C
:10585000C92B5F3FE4F3983ED4F38695779567951F
:10586000B795F795E7959F5FC1F7FE2B880F911DC0
:105870009695879597F90895F894FFCF610A610A84
:105880006A0A6A0A6C0A6A0A6A0A6A0A610A610A88
:10589000710A6A0A6A0A710AA70DCF0D220ECF0D8E
:1058A000220E020E3A0E220E370F440F45184518ED
:1058B0009E189E18D018781878187818EA18BE190B
:1058C000CE19CE196D17BD17D717DC17E117E617DC
:1058D000EB17F017F517FA17FF1704182113211308
:1058E000211321132113211307182113CB24CF24B3
:1058F000152526253125502553257D259E25232533
:105900002325A925AC25B025D725FA25FD25FF257A
:0259100025264A
:1059120001AC00000000004A004A4A36323331F737
:10592200F6676697C63435000000000001F4F50DF5
:1059320005150B0C05110B0D0B017D03057E0306EE
:1059420083038903098A03000000F6F731333236F4
:105952006700010202020202020202020281828343
:10596200E200E900EA00B500B600B700CD0083010D
:10597200CC008A0192019401210223022402250211
:10598200260227022A02B300B4006F00700000FF53
:105992000100010000FFFF0000010001FF004022A2
:0E59A200324C012A01F800DD05F6051606005C
:00000001FF
